{
  "contractName": "GizzyAuction",
  "abi": [
    {
      "anonymous": false,
      "inputs": [
        {
          "indexed": true,
          "internalType": "address",
          "name": "owner",
          "type": "address"
        },
        {
          "indexed": true,
          "internalType": "address",
          "name": "approved",
          "type": "address"
        },
        {
          "indexed": true,
          "internalType": "uint256",
          "name": "tokenId",
          "type": "uint256"
        }
      ],
      "name": "Approval",
      "type": "event"
    },
    {
      "anonymous": false,
      "inputs": [
        {
          "indexed": true,
          "internalType": "address",
          "name": "owner",
          "type": "address"
        },
        {
          "indexed": true,
          "internalType": "address",
          "name": "operator",
          "type": "address"
        },
        {
          "indexed": false,
          "internalType": "bool",
          "name": "approved",
          "type": "bool"
        }
      ],
      "name": "ApprovalForAll",
      "type": "event"
    },
    {
      "anonymous": false,
      "inputs": [
        {
          "indexed": false,
          "internalType": "address",
          "name": "owner",
          "type": "address"
        },
        {
          "indexed": false,
          "internalType": "uint256",
          "name": "gizzyId",
          "type": "uint256"
        }
      ],
      "name": "AuctionStarted",
      "type": "event"
    },
    {
      "anonymous": false,
      "inputs": [
        {
          "indexed": false,
          "internalType": "address",
          "name": "bidder",
          "type": "address"
        },
        {
          "indexed": false,
          "internalType": "uint256",
          "name": "auctionId",
          "type": "uint256"
        },
        {
          "indexed": false,
          "internalType": "uint256",
          "name": "amount",
          "type": "uint256"
        }
      ],
      "name": "Bid",
      "type": "event"
    },
    {
      "anonymous": false,
      "inputs": [
        {
          "indexed": true,
          "internalType": "address",
          "name": "owner",
          "type": "address"
        },
        {
          "indexed": false,
          "internalType": "uint256",
          "name": "kittyId",
          "type": "uint256"
        },
        {
          "indexed": false,
          "internalType": "uint256",
          "name": "matronId",
          "type": "uint256"
        },
        {
          "indexed": false,
          "internalType": "uint256",
          "name": "sireId",
          "type": "uint256"
        },
        {
          "indexed": false,
          "internalType": "uint256",
          "name": "genes",
          "type": "uint256"
        }
      ],
      "name": "Birth",
      "type": "event"
    },
    {
      "anonymous": false,
      "inputs": [
        {
          "indexed": false,
          "internalType": "address",
          "name": "newContract",
          "type": "address"
        }
      ],
      "name": "ContractUpgrade",
      "type": "event"
    },
    {
      "anonymous": false,
      "inputs": [
        {
          "indexed": true,
          "internalType": "address",
          "name": "from",
          "type": "address"
        },
        {
          "indexed": true,
          "internalType": "address",
          "name": "to",
          "type": "address"
        },
        {
          "indexed": true,
          "internalType": "uint256",
          "name": "tokenId",
          "type": "uint256"
        }
      ],
      "name": "Transfer",
      "type": "event"
    },
    {
      "inputs": [
        {
          "internalType": "address",
          "name": "to",
          "type": "address"
        },
        {
          "internalType": "uint256",
          "name": "tokenId",
          "type": "uint256"
        }
      ],
      "name": "approve",
      "outputs": [],
      "stateMutability": "nonpayable",
      "type": "function"
    },
    {
      "inputs": [
        {
          "internalType": "address",
          "name": "owner",
          "type": "address"
        }
      ],
      "name": "balanceOf",
      "outputs": [
        {
          "internalType": "uint256",
          "name": "",
          "type": "uint256"
        }
      ],
      "stateMutability": "view",
      "type": "function"
    },
    {
      "inputs": [],
      "name": "ceoAddress",
      "outputs": [
        {
          "internalType": "address",
          "name": "",
          "type": "address"
        }
      ],
      "stateMutability": "view",
      "type": "function"
    },
    {
      "inputs": [],
      "name": "cfoAddress",
      "outputs": [
        {
          "internalType": "address payable",
          "name": "",
          "type": "address"
        }
      ],
      "stateMutability": "view",
      "type": "function"
    },
    {
      "inputs": [],
      "name": "cooAddress",
      "outputs": [
        {
          "internalType": "address",
          "name": "",
          "type": "address"
        }
      ],
      "stateMutability": "view",
      "type": "function"
    },
    {
      "inputs": [
        {
          "internalType": "uint256",
          "name": "",
          "type": "uint256"
        }
      ],
      "name": "cooldowns",
      "outputs": [
        {
          "internalType": "uint32",
          "name": "",
          "type": "uint32"
        }
      ],
      "stateMutability": "view",
      "type": "function"
    },
    {
      "inputs": [
        {
          "internalType": "uint256",
          "name": "tokenId",
          "type": "uint256"
        }
      ],
      "name": "getApproved",
      "outputs": [
        {
          "internalType": "address",
          "name": "",
          "type": "address"
        }
      ],
      "stateMutability": "view",
      "type": "function"
    },
    {
      "inputs": [
        {
          "internalType": "address",
          "name": "owner",
          "type": "address"
        },
        {
          "internalType": "address",
          "name": "operator",
          "type": "address"
        }
      ],
      "name": "isApprovedForAll",
      "outputs": [
        {
          "internalType": "bool",
          "name": "",
          "type": "bool"
        }
      ],
      "stateMutability": "view",
      "type": "function"
    },
    {
      "inputs": [],
      "name": "name",
      "outputs": [
        {
          "internalType": "string",
          "name": "",
          "type": "string"
        }
      ],
      "stateMutability": "view",
      "type": "function"
    },
    {
      "inputs": [
        {
          "internalType": "uint256",
          "name": "tokenId",
          "type": "uint256"
        }
      ],
      "name": "ownerOf",
      "outputs": [
        {
          "internalType": "address",
          "name": "",
          "type": "address"
        }
      ],
      "stateMutability": "view",
      "type": "function"
    },
    {
      "inputs": [],
      "name": "pause",
      "outputs": [],
      "stateMutability": "nonpayable",
      "type": "function"
    },
    {
      "inputs": [],
      "name": "paused",
      "outputs": [
        {
          "internalType": "bool",
          "name": "",
          "type": "bool"
        }
      ],
      "stateMutability": "view",
      "type": "function"
    },
    {
      "inputs": [
        {
          "internalType": "address",
          "name": "from",
          "type": "address"
        },
        {
          "internalType": "address",
          "name": "to",
          "type": "address"
        },
        {
          "internalType": "uint256",
          "name": "tokenId",
          "type": "uint256"
        }
      ],
      "name": "safeTransferFrom",
      "outputs": [],
      "stateMutability": "nonpayable",
      "type": "function"
    },
    {
      "inputs": [
        {
          "internalType": "address",
          "name": "from",
          "type": "address"
        },
        {
          "internalType": "address",
          "name": "to",
          "type": "address"
        },
        {
          "internalType": "uint256",
          "name": "tokenId",
          "type": "uint256"
        },
        {
          "internalType": "bytes",
          "name": "_data",
          "type": "bytes"
        }
      ],
      "name": "safeTransferFrom",
      "outputs": [],
      "stateMutability": "nonpayable",
      "type": "function"
    },
    {
      "inputs": [
        {
          "internalType": "address",
          "name": "operator",
          "type": "address"
        },
        {
          "internalType": "bool",
          "name": "approved",
          "type": "bool"
        }
      ],
      "name": "setApprovalForAll",
      "outputs": [],
      "stateMutability": "nonpayable",
      "type": "function"
    },
    {
      "inputs": [
        {
          "internalType": "address",
          "name": "_newCEO",
          "type": "address"
        }
      ],
      "name": "setCEO",
      "outputs": [],
      "stateMutability": "nonpayable",
      "type": "function"
    },
    {
      "inputs": [
        {
          "internalType": "address payable",
          "name": "_newCFO",
          "type": "address"
        }
      ],
      "name": "setCFO",
      "outputs": [],
      "stateMutability": "nonpayable",
      "type": "function"
    },
    {
      "inputs": [
        {
          "internalType": "address",
          "name": "_newCOO",
          "type": "address"
        }
      ],
      "name": "setCOO",
      "outputs": [],
      "stateMutability": "nonpayable",
      "type": "function"
    },
    {
      "inputs": [
        {
          "internalType": "bytes4",
          "name": "interfaceId",
          "type": "bytes4"
        }
      ],
      "name": "supportsInterface",
      "outputs": [
        {
          "internalType": "bool",
          "name": "",
          "type": "bool"
        }
      ],
      "stateMutability": "view",
      "type": "function"
    },
    {
      "inputs": [],
      "name": "symbol",
      "outputs": [
        {
          "internalType": "string",
          "name": "",
          "type": "string"
        }
      ],
      "stateMutability": "view",
      "type": "function"
    },
    {
      "inputs": [
        {
          "internalType": "uint256",
          "name": "tokenId",
          "type": "uint256"
        }
      ],
      "name": "tokenURI",
      "outputs": [
        {
          "internalType": "string",
          "name": "",
          "type": "string"
        }
      ],
      "stateMutability": "view",
      "type": "function"
    },
    {
      "inputs": [
        {
          "internalType": "address",
          "name": "from",
          "type": "address"
        },
        {
          "internalType": "address",
          "name": "to",
          "type": "address"
        },
        {
          "internalType": "uint256",
          "name": "tokenId",
          "type": "uint256"
        }
      ],
      "name": "transferFrom",
      "outputs": [],
      "stateMutability": "nonpayable",
      "type": "function"
    },
    {
      "inputs": [],
      "name": "unpause",
      "outputs": [],
      "stateMutability": "nonpayable",
      "type": "function"
    },
    {
      "inputs": [],
      "name": "withdrawBalance",
      "outputs": [],
      "stateMutability": "nonpayable",
      "type": "function"
    },
    {
      "inputs": [
        {
          "internalType": "uint256",
          "name": "_gizzyId",
          "type": "uint256"
        },
        {
          "internalType": "uint256",
          "name": "_startingPrice",
          "type": "uint256"
        },
        {
          "internalType": "uint256",
          "name": "_duration",
          "type": "uint256"
        }
      ],
      "name": "startAuction",
      "outputs": [],
      "stateMutability": "nonpayable",
      "type": "function"
    },
    {
      "inputs": [
        {
          "internalType": "uint256",
          "name": "_auctionId",
          "type": "uint256"
        }
      ],
      "name": "placeBid",
      "outputs": [],
      "stateMutability": "payable",
      "type": "function"
    },
    {
      "inputs": [
        {
          "internalType": "uint256",
          "name": "auctionId",
          "type": "uint256"
        }
      ],
      "name": "endAuction",
      "outputs": [],
      "stateMutability": "nonpayable",
      "type": "function"
    }
  ],
  "bytecode": "0x60806040526000600260146101000a81548160ff021916908315150217905550604051806101c00160405280603c63ffffffff1663ffffffff168152602001607863ffffffff1663ffffffff16815260200161012c63ffffffff1663ffffffff16815260200161025863ffffffff1663ffffffff16815260200161070863ffffffff1663ffffffff168152602001610e1063ffffffff1663ffffffff168152602001611c2063ffffffff1663ffffffff16815260200161384063ffffffff1663ffffffff16815260200161708063ffffffff1663ffffffff16815260200161e10063ffffffff1663ffffffff1681526020016201518063ffffffff1663ffffffff1681526020016202a30063ffffffff1663ffffffff1681526020016205460063ffffffff1663ffffffff16815260200162093a8063ffffffff1663ffffffff16815250600990600e620001559291906200020a565b503480156200016357600080fd5b506040518060400160405280600581526020017f47697a7a790000000000000000000000000000000000000000000000000000008152506040518060400160405280600381526020017f475a5900000000000000000000000000000000000000000000000000000000008152508160039080519060200190620001e8929190620002b4565b50806004908051906020019062000201929190620002b4565b505050620003c9565b82600e600701600890048101928215620002a15791602002820160005b838211156200026d57835183826101000a81548163ffffffff021916908363ffffffff160217905550926020019260040160208160030104928301926001030262000227565b80156200029f5782816101000a81549063ffffffff02191690556004016020816003010492830192600103026200026d565b505b509050620002b0919062000345565b5090565b828054620002c29062000364565b90600052602060002090601f016020900481019282620002e6576000855562000332565b82601f106200030157805160ff191683800117855562000332565b8280016001018555821562000332579182015b828111156200033157825182559160200191906001019062000314565b5b50905062000341919062000345565b5090565b5b808211156200036057600081600090555060010162000346565b5090565b600060028204905060018216806200037d57607f821691505b602082108114156200039457620003936200039a565b5b50919050565b7f4e487b7100000000000000000000000000000000000000000000000000000000600052602260045260246000fd5b612f9580620003d96000396000f3fe60806040526004361061019c5760003560e01c80635fd8c710116100ec5780639d6fac6f1161008a578063b88d4fde11610064578063b88d4fde1461057d578063b9a2de3a146105a6578063c87b56dd146105cf578063e985e9c51461060c5761019c565b80639d6fac6f146104ec578063a22cb46514610529578063b047fb50146105525761019c565b80638456cb59116100c65780638456cb591461046557806391e078bb1461047c57806395d89b41146104a55780639979ef45146104d05761019c565b80635fd8c710146103d45780636352211e146103eb57806370a08231146104285761019c565b806323b872dd116101595780633f4ba83a116101335780633f4ba83a1461034057806342842e0e146103575780634e0a3379146103805780635c975abb146103a95761019c565b806323b872dd146102c557806327d7874c146102ee5780632ba73c15146103175761019c565b806301ffc9a7146101a15780630519ce79146101de57806306fdde0314610209578063081812fc14610234578063095ea7b3146102715780630a0f81681461029a575b600080fd5b3480156101ad57600080fd5b506101c860048036038101906101c39190612220565b610649565b6040516101d59190612949565b60405180910390f35b3480156101ea57600080fd5b506101f361072b565b60405161020091906128b9565b60405180910390f35b34801561021557600080fd5b5061021e610751565b60405161022b9190612964565b60405180910390f35b34801561024057600080fd5b5061025b60048036038101906102569190612272565b6107e3565b604051610268919061289e565b60405180910390f35b34801561027d57600080fd5b50610298600480360381019061029391906121e4565b610868565b005b3480156102a657600080fd5b506102af610980565b6040516102bc919061289e565b60405180910390f35b3480156102d157600080fd5b506102ec60048036038101906102e791906120de565b6109a4565b005b3480156102fa57600080fd5b5061031560048036038101906103109190612050565b610a04565b005b34801561032357600080fd5b5061033e60048036038101906103399190612050565b610ad9565b005b34801561034c57600080fd5b50610355610baf565b005b34801561036357600080fd5b5061037e600480360381019061037991906120de565b610c3d565b005b34801561038c57600080fd5b506103a760048036038101906103a29190612079565b610c5d565b005b3480156103b557600080fd5b506103be610d33565b6040516103cb9190612949565b60405180910390f35b3480156103e057600080fd5b506103e9610d46565b005b3480156103f757600080fd5b50610412600480360381019061040d9190612272565b610e0b565b60405161041f919061289e565b60405180910390f35b34801561043457600080fd5b5061044f600480360381019061044a9190612050565b610ebd565b60405161045c9190612b06565b60405180910390f35b34801561047157600080fd5b5061047a610f75565b005b34801561048857600080fd5b506104a3600480360381019061049e919061229b565b6110b4565b005b3480156104b157600080fd5b506104ba611225565b6040516104c79190612964565b60405180910390f35b6104ea60048036038101906104e59190612272565b6112b7565b005b3480156104f857600080fd5b50610513600480360381019061050e9190612272565b611353565b6040516105209190612b21565b60405180910390f35b34801561053557600080fd5b50610550600480360381019061054b91906121a8565b611383565b005b34801561055e57600080fd5b50610567611504565b604051610574919061289e565b60405180910390f35b34801561058957600080fd5b506105a4600480360381019061059f919061212d565b61152a565b005b3480156105b257600080fd5b506105cd60048036038101906105c89190612272565b61158c565b005b3480156105db57600080fd5b506105f660048036038101906105f19190612272565b61158f565b6040516106039190612964565b60405180910390f35b34801561061857600080fd5b50610633600480360381019061062e91906120a2565b611636565b6040516106409190612949565b60405180910390f35b60007f80ac58cd000000000000000000000000000000000000000000000000000000007bffffffffffffffffffffffffffffffffffffffffffffffffffffffff1916827bffffffffffffffffffffffffffffffffffffffffffffffffffffffff1916148061071457507f5b5e139f000000000000000000000000000000000000000000000000000000007bffffffffffffffffffffffffffffffffffffffffffffffffffffffff1916827bffffffffffffffffffffffffffffffffffffffffffffffffffffffff1916145b806107245750610723826116ca565b5b9050919050565b600160009054906101000a900473ffffffffffffffffffffffffffffffffffffffff1681565b60606003805461076090612d73565b80601f016020809104026020016040519081016040528092919081815260200182805461078c90612d73565b80156107d95780601f106107ae576101008083540402835291602001916107d9565b820191906000526020600020905b8154815290600101906020018083116107bc57829003601f168201915b5050505050905090565b60006107ee82611734565b61082d576040517f08c379a000000000000000000000000000000000000000000000000000000000815260040161082490612a66565b60405180910390fd5b6007600083815260200190815260200160002060009054906101000a900473ffffffffffffffffffffffffffffffffffffffff169050919050565b600061087382610e0b565b90508073ffffffffffffffffffffffffffffffffffffffff168373ffffffffffffffffffffffffffffffffffffffff1614156108e4576040517f08c379a00000000000000000000000000000000000000000000000000000000081526004016108db90612ac6565b60405180910390fd5b8073ffffffffffffffffffffffffffffffffffffffff166109036117a0565b73ffffffffffffffffffffffffffffffffffffffff16148061093257506109318161092c6117a0565b611636565b5b610971576040517f08c379a000000000000000000000000000000000000000000000000000000000815260040161096890612a06565b60405180910390fd5b61097b83836117a8565b505050565b60008054906101000a900473ffffffffffffffffffffffffffffffffffffffff1681565b6109b56109af6117a0565b82611861565b6109f4576040517f08c379a00000000000000000000000000000000000000000000000000000000081526004016109eb90612ae6565b60405180910390fd5b6109ff83838361193f565b505050565b60008054906101000a900473ffffffffffffffffffffffffffffffffffffffff1673ffffffffffffffffffffffffffffffffffffffff163373ffffffffffffffffffffffffffffffffffffffff1614610a5c57600080fd5b600073ffffffffffffffffffffffffffffffffffffffff168173ffffffffffffffffffffffffffffffffffffffff161415610a9657600080fd5b806000806101000a81548173ffffffffffffffffffffffffffffffffffffffff021916908373ffffffffffffffffffffffffffffffffffffffff16021790555050565b60008054906101000a900473ffffffffffffffffffffffffffffffffffffffff1673ffffffffffffffffffffffffffffffffffffffff163373ffffffffffffffffffffffffffffffffffffffff1614610b3157600080fd5b600073ffffffffffffffffffffffffffffffffffffffff168173ffffffffffffffffffffffffffffffffffffffff161415610b6b57600080fd5b80600260006101000a81548173ffffffffffffffffffffffffffffffffffffffff021916908373ffffffffffffffffffffffffffffffffffffffff16021790555050565b60008054906101000a900473ffffffffffffffffffffffffffffffffffffffff1673ffffffffffffffffffffffffffffffffffffffff163373ffffffffffffffffffffffffffffffffffffffff1614610c0757600080fd5b600260149054906101000a900460ff16610c2057600080fd5b6000600260146101000a81548160ff021916908315150217905550565b610c588383836040518060200160405280600081525061152a565b505050565b60008054906101000a900473ffffffffffffffffffffffffffffffffffffffff1673ffffffffffffffffffffffffffffffffffffffff163373ffffffffffffffffffffffffffffffffffffffff1614610cb557600080fd5b600073ffffffffffffffffffffffffffffffffffffffff168173ffffffffffffffffffffffffffffffffffffffff161415610cef57600080fd5b80600160006101000a81548173ffffffffffffffffffffffffffffffffffffffff021916908373ffffffffffffffffffffffffffffffffffffffff16021790555050565b600260149054906101000a900460ff1681565b600160009054906101000a900473ffffffffffffffffffffffffffffffffffffffff1673ffffffffffffffffffffffffffffffffffffffff163373ffffffffffffffffffffffffffffffffffffffff1614610da057600080fd5b600160009054906101000a900473ffffffffffffffffffffffffffffffffffffffff1673ffffffffffffffffffffffffffffffffffffffff166108fc479081150290604051600060405180830381858888f19350505050158015610e08573d6000803e3d6000fd5b50565b6000806005600084815260200190815260200160002060009054906101000a900473ffffffffffffffffffffffffffffffffffffffff169050600073ffffffffffffffffffffffffffffffffffffffff168173ffffffffffffffffffffffffffffffffffffffff161415610eb4576040517f08c379a0000000000000000000000000000000000000000000000000000000008152600401610eab90612a46565b60405180910390fd5b80915050919050565b60008073ffffffffffffffffffffffffffffffffffffffff168273ffffffffffffffffffffffffffffffffffffffff161415610f2e576040517f08c379a0000000000000000000000000000000000000000000000000000000008152600401610f2590612a26565b60405180910390fd5b600660008373ffffffffffffffffffffffffffffffffffffffff1673ffffffffffffffffffffffffffffffffffffffff168152602001908152602001600020549050919050565b600260009054906101000a900473ffffffffffffffffffffffffffffffffffffffff1673ffffffffffffffffffffffffffffffffffffffff163373ffffffffffffffffffffffffffffffffffffffff16148061101c575060008054906101000a900473ffffffffffffffffffffffffffffffffffffffff1673ffffffffffffffffffffffffffffffffffffffff163373ffffffffffffffffffffffffffffffffffffffff16145b806110745750600160009054906101000a900473ffffffffffffffffffffffffffffffffffffffff1673ffffffffffffffffffffffffffffffffffffffff163373ffffffffffffffffffffffffffffffffffffffff16145b61107d57600080fd5b600260149054906101000a900460ff161561109757600080fd5b6001600260146101000a81548160ff021916908315150217905550565b60006040518060a001604052803373ffffffffffffffffffffffffffffffffffffffff168152602001858152602001848152602001600073ffffffffffffffffffffffffffffffffffffffff168152602001838152509050600c81908060018154018082558091505060019003906000526020600020906005020160009091909190915060008201518160000160006101000a81548173ffffffffffffffffffffffffffffffffffffffff021916908373ffffffffffffffffffffffffffffffffffffffff160217905550602082015181600101556040820151816002015560608201518160030160006101000a81548173ffffffffffffffffffffffffffffffffffffffff021916908373ffffffffffffffffffffffffffffffffffffffff1602179055506080820151816004015550507fc087c4cdb16906b5ff7016a6bf927618f24ff32eb1de5e86eeaeb08b94831a683385604051611217929190612920565b60405180910390a150505050565b60606004805461123490612d73565b80601f016020809104026020016040519081016040528092919081815260200182805461126090612d73565b80156112ad5780601f10611282576101008083540402835291602001916112ad565b820191906000526020600020905b81548152906001019060200180831161129057829003601f168201915b5050505050905090565b6000600c82815481106112f3577f4e487b7100000000000000000000000000000000000000000000000000000000600052603260045260246000fd5b90600052602060002090600502019050348160020181905550338160030160006101000a81548173ffffffffffffffffffffffffffffffffffffffff021916908373ffffffffffffffffffffffffffffffffffffffff1602179055505050565b600981600e811061136357600080fd5b60089182820401919006600402915054906101000a900463ffffffff1681565b61138b6117a0565b73ffffffffffffffffffffffffffffffffffffffff168273ffffffffffffffffffffffffffffffffffffffff1614156113f9576040517f08c379a00000000000000000000000000000000000000000000000000000000081526004016113f0906129c6565b60405180910390fd5b80600860006114066117a0565b73ffffffffffffffffffffffffffffffffffffffff1673ffffffffffffffffffffffffffffffffffffffff16815260200190815260200160002060008473ffffffffffffffffffffffffffffffffffffffff1673ffffffffffffffffffffffffffffffffffffffff16815260200190815260200160002060006101000a81548160ff0219169083151502179055508173ffffffffffffffffffffffffffffffffffffffff166114b36117a0565b73ffffffffffffffffffffffffffffffffffffffff167f17307eab39ab6107e8899845ad3d59bd9653f200f220920489ca2b5937696c31836040516114f89190612949565b60405180910390a35050565b600260009054906101000a900473ffffffffffffffffffffffffffffffffffffffff1681565b61153b6115356117a0565b83611861565b61157a576040517f08c379a000000000000000000000000000000000000000000000000000000000815260040161157190612ae6565b60405180910390fd5b61158684848484611b9b565b50505050565b50565b606061159a82611734565b6115d9576040517f08c379a00000000000000000000000000000000000000000000000000000000081526004016115d090612aa6565b60405180910390fd5b60006115e3611bf7565b90506000815111611603576040518060200160405280600081525061162e565b8061160d84611c0e565b60405160200161161e92919061287a565b6040516020818303038152906040525b915050919050565b6000600860008473ffffffffffffffffffffffffffffffffffffffff1673ffffffffffffffffffffffffffffffffffffffff16815260200190815260200160002060008373ffffffffffffffffffffffffffffffffffffffff1673ffffffffffffffffffffffffffffffffffffffff16815260200190815260200160002060009054906101000a900460ff16905092915050565b60007f01ffc9a7000000000000000000000000000000000000000000000000000000007bffffffffffffffffffffffffffffffffffffffffffffffffffffffff1916827bffffffffffffffffffffffffffffffffffffffffffffffffffffffff1916149050919050565b60008073ffffffffffffffffffffffffffffffffffffffff166005600084815260200190815260200160002060009054906101000a900473ffffffffffffffffffffffffffffffffffffffff1673ffffffffffffffffffffffffffffffffffffffff1614159050919050565b600033905090565b816007600083815260200190815260200160002060006101000a81548173ffffffffffffffffffffffffffffffffffffffff021916908373ffffffffffffffffffffffffffffffffffffffff160217905550808273ffffffffffffffffffffffffffffffffffffffff1661181b83610e0b565b73ffffffffffffffffffffffffffffffffffffffff167f8c5be1e5ebec7d5bd14f71427d1e84f3dd0314c0f7b2291e5b200ac8c7c3b92560405160405180910390a45050565b600061186c82611734565b6118ab576040517f08c379a00000000000000000000000000000000000000000000000000000000081526004016118a2906129e6565b60405180910390fd5b60006118b683610e0b565b90508073ffffffffffffffffffffffffffffffffffffffff168473ffffffffffffffffffffffffffffffffffffffff16148061192557508373ffffffffffffffffffffffffffffffffffffffff1661190d846107e3565b73ffffffffffffffffffffffffffffffffffffffff16145b8061193657506119358185611636565b5b91505092915050565b8273ffffffffffffffffffffffffffffffffffffffff1661195f82610e0b565b73ffffffffffffffffffffffffffffffffffffffff16146119b5576040517f08c379a00000000000000000000000000000000000000000000000000000000081526004016119ac90612a86565b60405180910390fd5b600073ffffffffffffffffffffffffffffffffffffffff168273ffffffffffffffffffffffffffffffffffffffff161415611a25576040517f08c379a0000000000000000000000000000000000000000000000000000000008152600401611a1c906129a6565b60405180910390fd5b611a30838383611dbb565b611a3b6000826117a8565b6001600660008573ffffffffffffffffffffffffffffffffffffffff1673ffffffffffffffffffffffffffffffffffffffff1681526020019081526020016000206000828254611a8b9190612c67565b925050819055506001600660008473ffffffffffffffffffffffffffffffffffffffff1673ffffffffffffffffffffffffffffffffffffffff1681526020019081526020016000206000828254611ae29190612be0565b92505081905550816005600083815260200190815260200160002060006101000a81548173ffffffffffffffffffffffffffffffffffffffff021916908373ffffffffffffffffffffffffffffffffffffffff160217905550808273ffffffffffffffffffffffffffffffffffffffff168473ffffffffffffffffffffffffffffffffffffffff167fddf252ad1be2c89b69c2b068fc378daa952ba7f163c4a11628f55a4df523b3ef60405160405180910390a4505050565b611ba684848461193f565b611bb284848484611dc0565b611bf1576040517f08c379a0000000000000000000000000000000000000000000000000000000008152600401611be890612986565b60405180910390fd5b50505050565b606060405180602001604052806000815250905090565b60606000821415611c56576040518060400160405280600181526020017f30000000000000000000000000000000000000000000000000000000000000008152509050611db6565b600082905060005b60008214611c88578080611c7190612da5565b915050600a82611c819190612c36565b9150611c5e565b60008167ffffffffffffffff811115611cca577f4e487b7100000000000000000000000000000000000000000000000000000000600052604160045260246000fd5b6040519080825280601f01601f191660200182016040528015611cfc5781602001600182028036833780820191505090505b5090505b60008514611daf57600182611d159190612c67565b9150600a85611d249190612dee565b6030611d309190612be0565b60f81b818381518110611d6c577f4e487b7100000000000000000000000000000000000000000000000000000000600052603260045260246000fd5b60200101907effffffffffffffffffffffffffffffffffffffffffffffffffffffffffffff1916908160001a905350600a85611da89190612c36565b9450611d00565b8093505050505b919050565b505050565b6000611de18473ffffffffffffffffffffffffffffffffffffffff16611f57565b15611f4a578373ffffffffffffffffffffffffffffffffffffffff1663150b7a02611e0a6117a0565b8786866040518563ffffffff1660e01b8152600401611e2c94939291906128d4565b602060405180830381600087803b158015611e4657600080fd5b505af1925050508015611e7757506040513d601f19601f82011682018060405250810190611e749190612249565b60015b611efa573d8060008114611ea7576040519150601f19603f3d011682016040523d82523d6000602084013e611eac565b606091505b50600081511415611ef2576040517f08c379a0000000000000000000000000000000000000000000000000000000008152600401611ee990612986565b60405180910390fd5b805181602001fd5b63150b7a0260e01b7bffffffffffffffffffffffffffffffffffffffffffffffffffffffff1916817bffffffffffffffffffffffffffffffffffffffffffffffffffffffff191614915050611f4f565b600190505b949350505050565b600080823b905060008111915050919050565b6000611f7d611f7884612b6d565b612b3c565b905082815260208101848484011115611f9557600080fd5b611fa0848285612d31565b509392505050565b600081359050611fb781612eec565b92915050565b600081359050611fcc81612f03565b92915050565b600081359050611fe181612f1a565b92915050565b600081359050611ff681612f31565b92915050565b60008151905061200b81612f31565b92915050565b600082601f83011261202257600080fd5b8135612032848260208601611f6a565b91505092915050565b60008135905061204a81612f48565b92915050565b60006020828403121561206257600080fd5b600061207084828501611fa8565b91505092915050565b60006020828403121561208b57600080fd5b600061209984828501611fbd565b91505092915050565b600080604083850312156120b557600080fd5b60006120c385828601611fa8565b92505060206120d485828601611fa8565b9150509250929050565b6000806000606084860312156120f357600080fd5b600061210186828701611fa8565b935050602061211286828701611fa8565b92505060406121238682870161203b565b9150509250925092565b6000806000806080858703121561214357600080fd5b600061215187828801611fa8565b945050602061216287828801611fa8565b93505060406121738782880161203b565b925050606085013567ffffffffffffffff81111561219057600080fd5b61219c87828801612011565b91505092959194509250565b600080604083850312156121bb57600080fd5b60006121c985828601611fa8565b92505060206121da85828601611fd2565b9150509250929050565b600080604083850312156121f757600080fd5b600061220585828601611fa8565b92505060206122168582860161203b565b9150509250929050565b60006020828403121561223257600080fd5b600061224084828501611fe7565b91505092915050565b60006020828403121561225b57600080fd5b600061226984828501611ffc565b91505092915050565b60006020828403121561228457600080fd5b60006122928482850161203b565b91505092915050565b6000806000606084860312156122b057600080fd5b60006122be8682870161203b565b93505060206122cf8682870161203b565b92505060406122e08682870161203b565b9150509250925092565b6122f381612cad565b82525050565b61230281612c9b565b82525050565b61231181612cbf565b82525050565b600061232282612b9d565b61232c8185612bb3565b935061233c818560208601612d40565b61234581612edb565b840191505092915050565b600061235b82612ba8565b6123658185612bc4565b9350612375818560208601612d40565b61237e81612edb565b840191505092915050565b600061239482612ba8565b61239e8185612bd5565b93506123ae818560208601612d40565b80840191505092915050565b60006123c7603283612bc4565b91507f4552433732313a207472616e7366657220746f206e6f6e20455243373231526560008301527f63656976657220696d706c656d656e74657200000000000000000000000000006020830152604082019050919050565b600061242d602483612bc4565b91507f4552433732313a207472616e7366657220746f20746865207a65726f2061646460008301527f72657373000000000000000000000000000000000000000000000000000000006020830152604082019050919050565b6000612493601983612bc4565b91507f4552433732313a20617070726f766520746f2063616c6c6572000000000000006000830152602082019050919050565b60006124d3602c83612bc4565b91507f4552433732313a206f70657261746f7220717565727920666f72206e6f6e657860008301527f697374656e7420746f6b656e00000000000000000000000000000000000000006020830152604082019050919050565b6000612539603883612bc4565b91507f4552433732313a20617070726f76652063616c6c6572206973206e6f74206f7760008301527f6e6572206e6f7220617070726f76656420666f7220616c6c00000000000000006020830152604082019050919050565b600061259f602a83612bc4565b91507f4552433732313a2062616c616e636520717565727920666f7220746865207a6560008301527f726f2061646472657373000000000000000000000000000000000000000000006020830152604082019050919050565b6000612605602983612bc4565b91507f4552433732313a206f776e657220717565727920666f72206e6f6e657869737460008301527f656e7420746f6b656e00000000000000000000000000000000000000000000006020830152604082019050919050565b600061266b602c83612bc4565b91507f4552433732313a20617070726f76656420717565727920666f72206e6f6e657860008301527f697374656e7420746f6b656e00000000000000000000000000000000000000006020830152604082019050919050565b60006126d1602983612bc4565b91507f4552433732313a207472616e73666572206f6620746f6b656e2074686174206960008301527f73206e6f74206f776e00000000000000000000000000000000000000000000006020830152604082019050919050565b6000612737602f83612bc4565b91507f4552433732314d657461646174613a2055524920717565727920666f72206e6f60008301527f6e6578697374656e7420746f6b656e00000000000000000000000000000000006020830152604082019050919050565b600061279d602183612bc4565b91507f4552433732313a20617070726f76616c20746f2063757272656e74206f776e6560008301527f72000000000000000000000000000000000000000000000000000000000000006020830152604082019050919050565b6000612803603183612bc4565b91507f4552433732313a207472616e736665722063616c6c6572206973206e6f74206f60008301527f776e6572206e6f7220617070726f7665640000000000000000000000000000006020830152604082019050919050565b61286581612d17565b82525050565b61287481612d21565b82525050565b60006128868285612389565b91506128928284612389565b91508190509392505050565b60006020820190506128b360008301846122f9565b92915050565b60006020820190506128ce60008301846122ea565b92915050565b60006080820190506128e960008301876122f9565b6128f660208301866122f9565b612903604083018561285c565b81810360608301526129158184612317565b905095945050505050565b600060408201905061293560008301856122f9565b612942602083018461285c565b9392505050565b600060208201905061295e6000830184612308565b92915050565b6000602082019050818103600083015261297e8184612350565b905092915050565b6000602082019050818103600083015261299f816123ba565b9050919050565b600060208201905081810360008301526129bf81612420565b9050919050565b600060208201905081810360008301526129df81612486565b9050919050565b600060208201905081810360008301526129ff816124c6565b9050919050565b60006020820190508181036000830152612a1f8161252c565b9050919050565b60006020820190508181036000830152612a3f81612592565b9050919050565b60006020820190508181036000830152612a5f816125f8565b9050919050565b60006020820190508181036000830152612a7f8161265e565b9050919050565b60006020820190508181036000830152612a9f816126c4565b9050919050565b60006020820190508181036000830152612abf8161272a565b9050919050565b60006020820190508181036000830152612adf81612790565b9050919050565b60006020820190508181036000830152612aff816127f6565b9050919050565b6000602082019050612b1b600083018461285c565b92915050565b6000602082019050612b36600083018461286b565b92915050565b6000604051905081810181811067ffffffffffffffff82111715612b6357612b62612eac565b5b8060405250919050565b600067ffffffffffffffff821115612b8857612b87612eac565b5b601f19601f8301169050602081019050919050565b600081519050919050565b600081519050919050565b600082825260208201905092915050565b600082825260208201905092915050565b600081905092915050565b6000612beb82612d17565b9150612bf683612d17565b9250827fffffffffffffffffffffffffffffffffffffffffffffffffffffffffffffffff03821115612c2b57612c2a612e1f565b5b828201905092915050565b6000612c4182612d17565b9150612c4c83612d17565b925082612c5c57612c5b612e4e565b5b828204905092915050565b6000612c7282612d17565b9150612c7d83612d17565b925082821015612c9057612c8f612e1f565b5b828203905092915050565b6000612ca682612cf7565b9050919050565b6000612cb882612cf7565b9050919050565b60008115159050919050565b60007fffffffff0000000000000000000000000000000000000000000000000000000082169050919050565b600073ffffffffffffffffffffffffffffffffffffffff82169050919050565b6000819050919050565b600063ffffffff82169050919050565b82818337600083830152505050565b60005b83811015612d5e578082015181840152602081019050612d43565b83811115612d6d576000848401525b50505050565b60006002820490506001821680612d8b57607f821691505b60208210811415612d9f57612d9e612e7d565b5b50919050565b6000612db082612d17565b91507fffffffffffffffffffffffffffffffffffffffffffffffffffffffffffffffff821415612de357612de2612e1f565b5b600182019050919050565b6000612df982612d17565b9150612e0483612d17565b925082612e1457612e13612e4e565b5b828206905092915050565b7f4e487b7100000000000000000000000000000000000000000000000000000000600052601160045260246000fd5b7f4e487b7100000000000000000000000000000000000000000000000000000000600052601260045260246000fd5b7f4e487b7100000000000000000000000000000000000000000000000000000000600052602260045260246000fd5b7f4e487b7100000000000000000000000000000000000000000000000000000000600052604160045260246000fd5b6000601f19601f8301169050919050565b612ef581612c9b565b8114612f0057600080fd5b50565b612f0c81612cad565b8114612f1757600080fd5b50565b612f2381612cbf565b8114612f2e57600080fd5b50565b612f3a81612ccb565b8114612f4557600080fd5b50565b612f5181612d17565b8114612f5c57600080fd5b5056fea2646970667358221220754d6f7ae008e4b9905cd939b6d761879e265aa5cea7076c0ffb22d2651d0d6364736f6c63430008000033",
  "immutableReferences": {},
  "source": "// SPDX-License-Identifier: MIT\npragma solidity >=0.4.22 <0.9.0;\n\nimport './GizzyBase.sol';\n\ncontract GizzyAuction is GizzyBase {\n    \n    struct Auction{\n        address owner;\n        uint256 gizzyId;\n        uint256 highestBid;\n        address highestBidder;\n        uint256 duration;\n    }\n\n    Auction[] auctions;\n\n    event AuctionStarted(address owner, uint256 gizzyId);\n    event Bid(address bidder, uint256 auctionId, uint256 amount);\n\n    function startAuction(uint256 _gizzyId, uint256 _startingPrice, uint256 _duration) public {\n        // inputs: gizzyId, startingPrice, timeLimit\n        // checks: if sender owns gizzy, if gizzy is free from auctions\n        \n        // creates auctions, sends gizzy to this contract, \n        Auction memory _auction = Auction({\n            owner: msg.sender,\n            gizzyId: _gizzyId,\n            highestBid: _startingPrice,\n            highestBidder: address(0),\n            duration: _duration\n        });\n\n        auctions.push(_auction);\n        \n        emit AuctionStarted(msg.sender, _gizzyId);\n        // emits an auction event\n    }\n\n    function placeBid(uint256 _auctionId) public payable {\n        // checks if the amount is more than the current highest amount\n        Auction storage _auction = auctions[_auctionId];\n        // requires more than highest bid\n        _auction.highestBid = msg.value;\n        _auction.highestBidder = msg.sender;\n        \n        // places a bid\n        // refunds the previous bid to the previous owner\n        // emits an event that bid has been placed\n    }\n\n    function endAuction(uint256 auctionId) public {\n        // checks if the given auction is supposed to end\n        // ends the auction if its supposed to end\n    }\n\n}",
  "sourcePath": "/home/imtiaz/Desktop/baeinnovations/gizzy-smartcontracts/contracts/GizzyAuction.sol",
  "compiler": {
    "name": "solc",
    "version": "0.8.0+commit.c7dfd78e.Emscripten.clang"
  },
  "schemaVersion": "3.4.0",
  "updatedAt": "2021-05-31T07:33:49.085Z",
  "devdoc": {
    "kind": "dev",
    "methods": {
      "approve(address,uint256)": {
        "details": "See {IERC721-approve}."
      },
      "balanceOf(address)": {
        "details": "See {IERC721-balanceOf}."
      },
      "getApproved(uint256)": {
        "details": "See {IERC721-getApproved}."
      },
      "isApprovedForAll(address,address)": {
        "details": "See {IERC721-isApprovedForAll}."
      },
      "name()": {
        "details": "See {IERC721Metadata-name}."
      },
      "ownerOf(uint256)": {
        "details": "See {IERC721-ownerOf}."
      },
      "safeTransferFrom(address,address,uint256)": {
        "details": "See {IERC721-safeTransferFrom}."
      },
      "safeTransferFrom(address,address,uint256,bytes)": {
        "details": "See {IERC721-safeTransferFrom}."
      },
      "setApprovalForAll(address,bool)": {
        "details": "See {IERC721-setApprovalForAll}."
      },
      "supportsInterface(bytes4)": {
        "details": "See {IERC165-supportsInterface}."
      },
      "symbol()": {
        "details": "See {IERC721Metadata-symbol}."
      },
      "tokenURI(uint256)": {
        "details": "See {IERC721Metadata-tokenURI}."
      },
      "transferFrom(address,address,uint256)": {
        "details": "See {IERC721-transferFrom}."
      }
    },
    "version": 1
  },
  "userdoc": {
    "kind": "user",
    "methods": {},
    "version": 1
  }
}