{
  "contractName": "GizzyBase",
  "abi": [
    {
      "anonymous": false,
      "inputs": [
        {
          "indexed": true,
          "internalType": "address",
          "name": "owner",
          "type": "address"
        },
        {
          "indexed": false,
          "internalType": "uint256",
          "name": "kittyId",
          "type": "uint256"
        },
        {
          "indexed": false,
          "internalType": "uint256",
          "name": "matronId",
          "type": "uint256"
        },
        {
          "indexed": false,
          "internalType": "uint256",
          "name": "sireId",
          "type": "uint256"
        },
        {
          "indexed": false,
          "internalType": "uint256",
          "name": "genes",
          "type": "uint256"
        }
      ],
      "name": "Birth",
      "type": "event"
    },
    {
      "anonymous": false,
      "inputs": [
        {
          "indexed": true,
          "internalType": "address",
          "name": "from",
          "type": "address"
        },
        {
          "indexed": true,
          "internalType": "address",
          "name": "to",
          "type": "address"
        },
        {
          "indexed": true,
          "internalType": "uint256",
          "name": "tokenId",
          "type": "uint256"
        }
      ],
      "name": "Transfer",
      "type": "event"
    },
    {
      "constant": true,
      "inputs": [
        {
          "internalType": "uint256",
          "name": "",
          "type": "uint256"
        }
      ],
      "name": "cooldowns",
      "outputs": [
        {
          "internalType": "uint32",
          "name": "",
          "type": "uint32"
        }
      ],
      "payable": false,
      "stateMutability": "view",
      "type": "function"
    },
    {
      "constant": true,
      "inputs": [
        {
          "internalType": "uint256",
          "name": "",
          "type": "uint256"
        }
      ],
      "name": "kittyIndexToApproved",
      "outputs": [
        {
          "internalType": "address",
          "name": "",
          "type": "address"
        }
      ],
      "payable": false,
      "stateMutability": "view",
      "type": "function"
    },
    {
      "constant": true,
      "inputs": [
        {
          "internalType": "uint256",
          "name": "",
          "type": "uint256"
        }
      ],
      "name": "kittyIndexToOwner",
      "outputs": [
        {
          "internalType": "address",
          "name": "",
          "type": "address"
        }
      ],
      "payable": false,
      "stateMutability": "view",
      "type": "function"
    },
    {
      "constant": true,
      "inputs": [
        {
          "internalType": "uint256",
          "name": "",
          "type": "uint256"
        }
      ],
      "name": "sireAllowedToAddress",
      "outputs": [
        {
          "internalType": "address",
          "name": "",
          "type": "address"
        }
      ],
      "payable": false,
      "stateMutability": "view",
      "type": "function"
    }
  ],
  "bytecode": "0x6080604052604051806101c00160405280603c63ffffffff1663ffffffff168152602001607863ffffffff1663ffffffff16815260200161012c63ffffffff1663ffffffff16815260200161025863ffffffff1663ffffffff16815260200161070863ffffffff1663ffffffff168152602001610e1063ffffffff1663ffffffff168152602001611c2063ffffffff1663ffffffff16815260200161384063ffffffff1663ffffffff16815260200161708063ffffffff1663ffffffff16815260200161e10063ffffffff1663ffffffff1681526020016201518063ffffffff1663ffffffff1681526020016202a30063ffffffff1663ffffffff1681526020016205460063ffffffff1663ffffffff16815260200162093a8063ffffffff1663ffffffff16815250600090600e61013892919061014b565b5034801561014557600080fd5b50610221565b82600e6007016008900481019282156101dd5791602002820160005b838211156101ab57835183826101000a81548163ffffffff021916908363ffffffff1602179055509260200192600401602081600301049283019260010302610167565b80156101db5782816101000a81549063ffffffff02191690556004016020816003010492830192600103026101ab565b505b5090506101ea91906101ee565b5090565b61021e91905b8082111561021a57600081816101000a81549063ffffffff0219169055506001016101f4565b5090565b90565b6102e4806102306000396000f3fe608060405234801561001057600080fd5b506004361061004c5760003560e01c806346116e6f14610051578063481af3d3146100bf5780639d6fac6f1461012d578063a45f4bfc1461017b575b600080fd5b61007d6004803603602081101561006757600080fd5b81019080803590602001909291905050506101e9565b604051808273ffffffffffffffffffffffffffffffffffffffff1673ffffffffffffffffffffffffffffffffffffffff16815260200191505060405180910390f35b6100eb600480360360208110156100d557600080fd5b810190808035906020019092919050505061021c565b604051808273ffffffffffffffffffffffffffffffffffffffff1673ffffffffffffffffffffffffffffffffffffffff16815260200191505060405180910390f35b6101596004803603602081101561014357600080fd5b810190808035906020019092919050505061024f565b604051808263ffffffff1663ffffffff16815260200191505060405180910390f35b6101a76004803603602081101561019157600080fd5b810190808035906020019092919050505061027c565b604051808273ffffffffffffffffffffffffffffffffffffffff1673ffffffffffffffffffffffffffffffffffffffff16815260200191505060405180910390f35b60066020528060005260406000206000915054906101000a900473ffffffffffffffffffffffffffffffffffffffff1681565b60056020528060005260406000206000915054906101000a900473ffffffffffffffffffffffffffffffffffffffff1681565b600081600e811061025c57fe5b60089182820401919006600402915054906101000a900463ffffffff1681565b60036020528060005260406000206000915054906101000a900473ffffffffffffffffffffffffffffffffffffffff168156fea265627a7a723158200997c31a7e2a9d8551da1395002929ba84e1b0f46081f7530d4a300d5acfeaf464736f6c63430005100032",
  "source": "// SPDX-License-Identifier: MIT\npragma solidity >=0.4.22 <0.9.0;\n\nimport \"./GizzyAccessControl.sol\";\n\ncontract GizzyBase {\n  \n  // @dev the Birth event is fired whenever a new kitten comes into existence. This \n  // includes cats created through giveBirth method and also newly minted gen cats\n  event Birth(address indexed owner, uint256 kittyId, uint256 matronId, uint256 sireId, uint256 genes);\n\n  // @dev Transfer event as defined in current draft of ERC721. Emitted every time a kitten\n  // ownership is assigned, including births.\n  event Transfer(address indexed from, address indexed to, uint256 indexed tokenId);\n\n  struct Gizzy {\n    uint256 genes;\n    uint64 birthTime;\n    uint64 cooldownEndTime;\n    uint32 matronId;\n    uint32 sireId;\n    uint32 siringWithId;\n    uint16 cooldownIndex;\n    uint16 generation;\n  }\n\n  uint32[14] public cooldowns = [\n    uint32(1 minutes),\n    uint32(2 minutes),\n    uint32(5 minutes),\n    uint32(10 minutes),\n    uint32(30 minutes),\n    uint32(1 hours),\n    uint32(2 hours),\n    uint32(4 hours),\n    uint32(8 hours),\n    uint32(16 hours),\n    uint32(1 days),\n    uint32(2 days),\n    uint32(4 days),\n    uint32(7 days)\n  ];\n\n  Gizzy[] gizzies;\n\n  mapping (uint256 => address) public kittyIndexToOwner;\n\n  mapping (address => uint256) ownershipTokenCount;\n\n  mapping (uint256 => address) public kittyIndexToApproved;\n\n  mapping (uint256 => address) public sireAllowedToAddress;\n\n  //function _transfer\n\n  //function _createKitty\n\n  // when u figure out how and where _createKitty is used, figure out how to create and use a \n  // _createItem function and everything that uses it\n\n}\n",
  "sourcePath": "/home/imtiaz/Desktop/baeinnovations/gizzy-smartcontracts/contracts/GizzyBase.sol",
  "compiler": {
    "name": "solc",
    "version": "0.5.16+commit.9c3226ce.Emscripten.clang"
  },
  "schemaVersion": "3.4.0",
  "updatedAt": "2021-05-10T16:54:59.074Z",
  "devdoc": {
    "methods": {}
  },
  "userdoc": {
    "methods": {}
  }
}