{
  "contractName": "GizzyBase",
  "abi": [
    {
      "inputs": [],
      "stateMutability": "nonpayable",
      "type": "constructor"
    },
    {
      "anonymous": false,
      "inputs": [
        {
          "indexed": true,
          "internalType": "address",
          "name": "owner",
          "type": "address"
        },
        {
          "indexed": true,
          "internalType": "address",
          "name": "approved",
          "type": "address"
        },
        {
          "indexed": true,
          "internalType": "uint256",
          "name": "tokenId",
          "type": "uint256"
        }
      ],
      "name": "Approval",
      "type": "event"
    },
    {
      "anonymous": false,
      "inputs": [
        {
          "indexed": true,
          "internalType": "address",
          "name": "owner",
          "type": "address"
        },
        {
          "indexed": true,
          "internalType": "address",
          "name": "operator",
          "type": "address"
        },
        {
          "indexed": false,
          "internalType": "bool",
          "name": "approved",
          "type": "bool"
        }
      ],
      "name": "ApprovalForAll",
      "type": "event"
    },
    {
      "anonymous": false,
      "inputs": [
        {
          "indexed": true,
          "internalType": "address",
          "name": "owner",
          "type": "address"
        },
        {
          "indexed": false,
          "internalType": "uint256",
          "name": "kittyId",
          "type": "uint256"
        },
        {
          "indexed": false,
          "internalType": "uint256",
          "name": "matronId",
          "type": "uint256"
        },
        {
          "indexed": false,
          "internalType": "uint256",
          "name": "sireId",
          "type": "uint256"
        },
        {
          "indexed": false,
          "internalType": "uint256",
          "name": "genes",
          "type": "uint256"
        }
      ],
      "name": "Birth",
      "type": "event"
    },
    {
      "anonymous": false,
      "inputs": [
        {
          "indexed": false,
          "internalType": "address",
          "name": "newContract",
          "type": "address"
        }
      ],
      "name": "ContractUpgrade",
      "type": "event"
    },
    {
      "anonymous": false,
      "inputs": [
        {
          "indexed": true,
          "internalType": "address",
          "name": "from",
          "type": "address"
        },
        {
          "indexed": true,
          "internalType": "address",
          "name": "to",
          "type": "address"
        },
        {
          "indexed": true,
          "internalType": "uint256",
          "name": "tokenId",
          "type": "uint256"
        }
      ],
      "name": "Transfer",
      "type": "event"
    },
    {
      "inputs": [
        {
          "internalType": "address",
          "name": "to",
          "type": "address"
        },
        {
          "internalType": "uint256",
          "name": "tokenId",
          "type": "uint256"
        }
      ],
      "name": "approve",
      "outputs": [],
      "stateMutability": "nonpayable",
      "type": "function"
    },
    {
      "inputs": [
        {
          "internalType": "address",
          "name": "owner",
          "type": "address"
        }
      ],
      "name": "balanceOf",
      "outputs": [
        {
          "internalType": "uint256",
          "name": "",
          "type": "uint256"
        }
      ],
      "stateMutability": "view",
      "type": "function",
      "constant": true
    },
    {
      "inputs": [],
      "name": "ceoAddress",
      "outputs": [
        {
          "internalType": "address",
          "name": "",
          "type": "address"
        }
      ],
      "stateMutability": "view",
      "type": "function",
      "constant": true
    },
    {
      "inputs": [],
      "name": "cfoAddress",
      "outputs": [
        {
          "internalType": "address payable",
          "name": "",
          "type": "address"
        }
      ],
      "stateMutability": "view",
      "type": "function",
      "constant": true
    },
    {
      "inputs": [],
      "name": "cooAddress",
      "outputs": [
        {
          "internalType": "address",
          "name": "",
          "type": "address"
        }
      ],
      "stateMutability": "view",
      "type": "function",
      "constant": true
    },
    {
      "inputs": [
        {
          "internalType": "uint256",
          "name": "",
          "type": "uint256"
        }
      ],
      "name": "cooldowns",
      "outputs": [
        {
          "internalType": "uint32",
          "name": "",
          "type": "uint32"
        }
      ],
      "stateMutability": "view",
      "type": "function",
      "constant": true
    },
    {
      "inputs": [
        {
          "internalType": "uint256",
          "name": "tokenId",
          "type": "uint256"
        }
      ],
      "name": "getApproved",
      "outputs": [
        {
          "internalType": "address",
          "name": "",
          "type": "address"
        }
      ],
      "stateMutability": "view",
      "type": "function",
      "constant": true
    },
    {
      "inputs": [
        {
          "internalType": "uint256",
          "name": "",
          "type": "uint256"
        }
      ],
      "name": "gizzyIndexToApproved",
      "outputs": [
        {
          "internalType": "address",
          "name": "",
          "type": "address"
        }
      ],
      "stateMutability": "view",
      "type": "function",
      "constant": true
    },
    {
      "inputs": [
        {
          "internalType": "uint256",
          "name": "",
          "type": "uint256"
        }
      ],
      "name": "gizzyIndexToOwner",
      "outputs": [
        {
          "internalType": "address",
          "name": "",
          "type": "address"
        }
      ],
      "stateMutability": "view",
      "type": "function",
      "constant": true
    },
    {
      "inputs": [
        {
          "internalType": "address",
          "name": "owner",
          "type": "address"
        },
        {
          "internalType": "address",
          "name": "operator",
          "type": "address"
        }
      ],
      "name": "isApprovedForAll",
      "outputs": [
        {
          "internalType": "bool",
          "name": "",
          "type": "bool"
        }
      ],
      "stateMutability": "view",
      "type": "function",
      "constant": true
    },
    {
      "inputs": [],
      "name": "name",
      "outputs": [
        {
          "internalType": "string",
          "name": "",
          "type": "string"
        }
      ],
      "stateMutability": "view",
      "type": "function",
      "constant": true
    },
    {
      "inputs": [
        {
          "internalType": "uint256",
          "name": "tokenId",
          "type": "uint256"
        }
      ],
      "name": "ownerOf",
      "outputs": [
        {
          "internalType": "address",
          "name": "",
          "type": "address"
        }
      ],
      "stateMutability": "view",
      "type": "function",
      "constant": true
    },
    {
      "inputs": [],
      "name": "pause",
      "outputs": [],
      "stateMutability": "nonpayable",
      "type": "function"
    },
    {
      "inputs": [],
      "name": "paused",
      "outputs": [
        {
          "internalType": "bool",
          "name": "",
          "type": "bool"
        }
      ],
      "stateMutability": "view",
      "type": "function",
      "constant": true
    },
    {
      "inputs": [
        {
          "internalType": "address",
          "name": "from",
          "type": "address"
        },
        {
          "internalType": "address",
          "name": "to",
          "type": "address"
        },
        {
          "internalType": "uint256",
          "name": "tokenId",
          "type": "uint256"
        }
      ],
      "name": "safeTransferFrom",
      "outputs": [],
      "stateMutability": "nonpayable",
      "type": "function"
    },
    {
      "inputs": [
        {
          "internalType": "address",
          "name": "from",
          "type": "address"
        },
        {
          "internalType": "address",
          "name": "to",
          "type": "address"
        },
        {
          "internalType": "uint256",
          "name": "tokenId",
          "type": "uint256"
        },
        {
          "internalType": "bytes",
          "name": "_data",
          "type": "bytes"
        }
      ],
      "name": "safeTransferFrom",
      "outputs": [],
      "stateMutability": "nonpayable",
      "type": "function"
    },
    {
      "inputs": [
        {
          "internalType": "address",
          "name": "operator",
          "type": "address"
        },
        {
          "internalType": "bool",
          "name": "approved",
          "type": "bool"
        }
      ],
      "name": "setApprovalForAll",
      "outputs": [],
      "stateMutability": "nonpayable",
      "type": "function"
    },
    {
      "inputs": [
        {
          "internalType": "address",
          "name": "_newCEO",
          "type": "address"
        }
      ],
      "name": "setCEO",
      "outputs": [],
      "stateMutability": "nonpayable",
      "type": "function"
    },
    {
      "inputs": [
        {
          "internalType": "address payable",
          "name": "_newCFO",
          "type": "address"
        }
      ],
      "name": "setCFO",
      "outputs": [],
      "stateMutability": "nonpayable",
      "type": "function"
    },
    {
      "inputs": [
        {
          "internalType": "address",
          "name": "_newCOO",
          "type": "address"
        }
      ],
      "name": "setCOO",
      "outputs": [],
      "stateMutability": "nonpayable",
      "type": "function"
    },
    {
      "inputs": [
        {
          "internalType": "uint256",
          "name": "",
          "type": "uint256"
        }
      ],
      "name": "sireAllowedToAddress",
      "outputs": [
        {
          "internalType": "address",
          "name": "",
          "type": "address"
        }
      ],
      "stateMutability": "view",
      "type": "function",
      "constant": true
    },
    {
      "inputs": [
        {
          "internalType": "bytes4",
          "name": "interfaceId",
          "type": "bytes4"
        }
      ],
      "name": "supportsInterface",
      "outputs": [
        {
          "internalType": "bool",
          "name": "",
          "type": "bool"
        }
      ],
      "stateMutability": "view",
      "type": "function",
      "constant": true
    },
    {
      "inputs": [],
      "name": "symbol",
      "outputs": [
        {
          "internalType": "string",
          "name": "",
          "type": "string"
        }
      ],
      "stateMutability": "view",
      "type": "function",
      "constant": true
    },
    {
      "inputs": [
        {
          "internalType": "uint256",
          "name": "tokenId",
          "type": "uint256"
        }
      ],
      "name": "tokenURI",
      "outputs": [
        {
          "internalType": "string",
          "name": "",
          "type": "string"
        }
      ],
      "stateMutability": "view",
      "type": "function",
      "constant": true
    },
    {
      "inputs": [
        {
          "internalType": "address",
          "name": "from",
          "type": "address"
        },
        {
          "internalType": "address",
          "name": "to",
          "type": "address"
        },
        {
          "internalType": "uint256",
          "name": "tokenId",
          "type": "uint256"
        }
      ],
      "name": "transferFrom",
      "outputs": [],
      "stateMutability": "nonpayable",
      "type": "function"
    },
    {
      "inputs": [],
      "name": "unpause",
      "outputs": [],
      "stateMutability": "nonpayable",
      "type": "function"
    },
    {
      "inputs": [],
      "name": "withdrawBalance",
      "outputs": [],
      "stateMutability": "nonpayable",
      "type": "function"
    }
  ],
  "bytecode": "0x60806040526000600260146101000a81548160ff021916908315150217905550604051806101c00160405280603c63ffffffff1663ffffffff168152602001607863ffffffff1663ffffffff16815260200161012c63ffffffff1663ffffffff16815260200161025863ffffffff1663ffffffff16815260200161070863ffffffff1663ffffffff168152602001610e1063ffffffff1663ffffffff168152602001611c2063ffffffff1663ffffffff16815260200161384063ffffffff1663ffffffff16815260200161708063ffffffff1663ffffffff16815260200161e10063ffffffff1663ffffffff1681526020016201518063ffffffff1663ffffffff1681526020016202a30063ffffffff1663ffffffff1681526020016205460063ffffffff1663ffffffff16815260200162093a8063ffffffff1663ffffffff16815250600990600e620001559291906200020a565b503480156200016357600080fd5b506040518060400160405280600581526020017f47697a7a790000000000000000000000000000000000000000000000000000008152506040518060400160405280600381526020017f475a5900000000000000000000000000000000000000000000000000000000008152508160039080519060200190620001e8929190620002b4565b50806004908051906020019062000201929190620002b4565b505050620003c9565b82600e600701600890048101928215620002a15791602002820160005b838211156200026d57835183826101000a81548163ffffffff021916908363ffffffff160217905550926020019260040160208160030104928301926001030262000227565b80156200029f5782816101000a81549063ffffffff02191690556004016020816003010492830192600103026200026d565b505b509050620002b0919062000345565b5090565b828054620002c29062000364565b90600052602060002090601f016020900481019282620002e6576000855562000332565b82601f106200030157805160ff191683800117855562000332565b8280016001018555821562000332579182015b828111156200033157825182559160200191906001019062000314565b5b50905062000341919062000345565b5090565b5b808211156200036057600081600090555060010162000346565b5090565b600060028204905060018216806200037d57607f821691505b602082108114156200039457620003936200039a565b5b50919050565b7f4e487b7100000000000000000000000000000000000000000000000000000000600052602260045260246000fd5b612b2d80620003d96000396000f3fe608060405234801561001057600080fd5b50600436106101a95760003560e01c806346116e6f116100f957806395d89b4111610097578063b047fb5011610071578063b047fb50146104a6578063b88d4fde146104c4578063c87b56dd146104e0578063e985e9c514610510576101a9565b806395d89b411461043c5780639d6fac6f1461045a578063a22cb4651461048a576101a9565b80635fd8c710116100d35780635fd8c710146103c85780636352211e146103d257806370a08231146104025780638456cb5914610432576101a9565b806346116e6f1461035e5780634e0a33791461038e5780635c975abb146103aa576101a9565b806318eb540b1161016657806327d7874c1161014057806327d7874c146103005780632ba73c151461031c5780633f4ba83a1461033857806342842e0e14610342576101a9565b806318eb540b1461028457806323668d98146102b457806323b872dd146102e4576101a9565b806301ffc9a7146101ae5780630519ce79146101de57806306fdde03146101fc578063081812fc1461021a578063095ea7b31461024a5780630a0f816814610266575b600080fd5b6101c860048036038101906101c39190611f3c565b610540565b6040516101d59190612521565b60405180910390f35b6101e6610622565b6040516101f391906124ba565b60405180910390f35b610204610648565b604051610211919061253c565b60405180910390f35b610234600480360381019061022f9190611f8e565b6106da565b604051610241919061249f565b60405180910390f35b610264600480360381019061025f9190611f00565b61075f565b005b61026e610877565b60405161027b919061249f565b60405180910390f35b61029e60048036038101906102999190611f8e565b61089b565b6040516102ab919061249f565b60405180910390f35b6102ce60048036038101906102c99190611f8e565b6108ce565b6040516102db919061249f565b60405180910390f35b6102fe60048036038101906102f99190611dfa565b610901565b005b61031a60048036038101906103159190611d6c565b610961565b005b61033660048036038101906103319190611d6c565b610a36565b005b610340610b0c565b005b61035c60048036038101906103579190611dfa565b610b9a565b005b61037860048036038101906103739190611f8e565b610bba565b604051610385919061249f565b60405180910390f35b6103a860048036038101906103a39190611d95565b610bed565b005b6103b2610cc3565b6040516103bf9190612521565b60405180910390f35b6103d0610cd6565b005b6103ec60048036038101906103e79190611f8e565b610d9b565b6040516103f9919061249f565b60405180910390f35b61041c60048036038101906104179190611d6c565b610e4d565b604051610429919061269e565b60405180910390f35b61043a610f05565b005b610444611044565b604051610451919061253c565b60405180910390f35b610474600480360381019061046f9190611f8e565b6110d6565b60405161048191906126b9565b60405180910390f35b6104a4600480360381019061049f9190611ec4565b611106565b005b6104ae611287565b6040516104bb919061249f565b60405180910390f35b6104de60048036038101906104d99190611e49565b6112ad565b005b6104fa60048036038101906104f59190611f8e565b61130f565b604051610507919061253c565b60405180910390f35b61052a60048036038101906105259190611dbe565b6113b6565b6040516105379190612521565b60405180910390f35b60007f80ac58cd000000000000000000000000000000000000000000000000000000007bffffffffffffffffffffffffffffffffffffffffffffffffffffffff1916827bffffffffffffffffffffffffffffffffffffffffffffffffffffffff1916148061060b57507f5b5e139f000000000000000000000000000000000000000000000000000000007bffffffffffffffffffffffffffffffffffffffffffffffffffffffff1916827bffffffffffffffffffffffffffffffffffffffffffffffffffffffff1916145b8061061b575061061a8261144a565b5b9050919050565b600160009054906101000a900473ffffffffffffffffffffffffffffffffffffffff1681565b6060600380546106579061290b565b80601f01602080910402602001604051908101604052809291908181526020018280546106839061290b565b80156106d05780601f106106a5576101008083540402835291602001916106d0565b820191906000526020600020905b8154815290600101906020018083116106b357829003601f168201915b5050505050905090565b60006106e5826114b4565b610724576040517f08c379a000000000000000000000000000000000000000000000000000000000815260040161071b9061261e565b60405180910390fd5b6007600083815260200190815260200160002060009054906101000a900473ffffffffffffffffffffffffffffffffffffffff169050919050565b600061076a82610d9b565b90508073ffffffffffffffffffffffffffffffffffffffff168373ffffffffffffffffffffffffffffffffffffffff1614156107db576040517f08c379a00000000000000000000000000000000000000000000000000000000081526004016107d29061265e565b60405180910390fd5b8073ffffffffffffffffffffffffffffffffffffffff166107fa611520565b73ffffffffffffffffffffffffffffffffffffffff161480610829575061082881610823611520565b6113b6565b5b610868576040517f08c379a000000000000000000000000000000000000000000000000000000000815260040161085f906125be565b60405180910390fd5b6108728383611528565b505050565b60008054906101000a900473ffffffffffffffffffffffffffffffffffffffff1681565b600e6020528060005260406000206000915054906101000a900473ffffffffffffffffffffffffffffffffffffffff1681565b600c6020528060005260406000206000915054906101000a900473ffffffffffffffffffffffffffffffffffffffff1681565b61091261090c611520565b826115e1565b610951576040517f08c379a00000000000000000000000000000000000000000000000000000000081526004016109489061267e565b60405180910390fd5b61095c8383836116bf565b505050565b60008054906101000a900473ffffffffffffffffffffffffffffffffffffffff1673ffffffffffffffffffffffffffffffffffffffff163373ffffffffffffffffffffffffffffffffffffffff16146109b957600080fd5b600073ffffffffffffffffffffffffffffffffffffffff168173ffffffffffffffffffffffffffffffffffffffff1614156109f357600080fd5b806000806101000a81548173ffffffffffffffffffffffffffffffffffffffff021916908373ffffffffffffffffffffffffffffffffffffffff16021790555050565b60008054906101000a900473ffffffffffffffffffffffffffffffffffffffff1673ffffffffffffffffffffffffffffffffffffffff163373ffffffffffffffffffffffffffffffffffffffff1614610a8e57600080fd5b600073ffffffffffffffffffffffffffffffffffffffff168173ffffffffffffffffffffffffffffffffffffffff161415610ac857600080fd5b80600260006101000a81548173ffffffffffffffffffffffffffffffffffffffff021916908373ffffffffffffffffffffffffffffffffffffffff16021790555050565b60008054906101000a900473ffffffffffffffffffffffffffffffffffffffff1673ffffffffffffffffffffffffffffffffffffffff163373ffffffffffffffffffffffffffffffffffffffff1614610b6457600080fd5b600260149054906101000a900460ff16610b7d57600080fd5b6000600260146101000a81548160ff021916908315150217905550565b610bb5838383604051806020016040528060008152506112ad565b505050565b600f6020528060005260406000206000915054906101000a900473ffffffffffffffffffffffffffffffffffffffff1681565b60008054906101000a900473ffffffffffffffffffffffffffffffffffffffff1673ffffffffffffffffffffffffffffffffffffffff163373ffffffffffffffffffffffffffffffffffffffff1614610c4557600080fd5b600073ffffffffffffffffffffffffffffffffffffffff168173ffffffffffffffffffffffffffffffffffffffff161415610c7f57600080fd5b80600160006101000a81548173ffffffffffffffffffffffffffffffffffffffff021916908373ffffffffffffffffffffffffffffffffffffffff16021790555050565b600260149054906101000a900460ff1681565b600160009054906101000a900473ffffffffffffffffffffffffffffffffffffffff1673ffffffffffffffffffffffffffffffffffffffff163373ffffffffffffffffffffffffffffffffffffffff1614610d3057600080fd5b600160009054906101000a900473ffffffffffffffffffffffffffffffffffffffff1673ffffffffffffffffffffffffffffffffffffffff166108fc479081150290604051600060405180830381858888f19350505050158015610d98573d6000803e3d6000fd5b50565b6000806005600084815260200190815260200160002060009054906101000a900473ffffffffffffffffffffffffffffffffffffffff169050600073ffffffffffffffffffffffffffffffffffffffff168173ffffffffffffffffffffffffffffffffffffffff161415610e44576040517f08c379a0000000000000000000000000000000000000000000000000000000008152600401610e3b906125fe565b60405180910390fd5b80915050919050565b60008073ffffffffffffffffffffffffffffffffffffffff168273ffffffffffffffffffffffffffffffffffffffff161415610ebe576040517f08c379a0000000000000000000000000000000000000000000000000000000008152600401610eb5906125de565b60405180910390fd5b600660008373ffffffffffffffffffffffffffffffffffffffff1673ffffffffffffffffffffffffffffffffffffffff168152602001908152602001600020549050919050565b600260009054906101000a900473ffffffffffffffffffffffffffffffffffffffff1673ffffffffffffffffffffffffffffffffffffffff163373ffffffffffffffffffffffffffffffffffffffff161480610fac575060008054906101000a900473ffffffffffffffffffffffffffffffffffffffff1673ffffffffffffffffffffffffffffffffffffffff163373ffffffffffffffffffffffffffffffffffffffff16145b806110045750600160009054906101000a900473ffffffffffffffffffffffffffffffffffffffff1673ffffffffffffffffffffffffffffffffffffffff163373ffffffffffffffffffffffffffffffffffffffff16145b61100d57600080fd5b600260149054906101000a900460ff161561102757600080fd5b6001600260146101000a81548160ff021916908315150217905550565b6060600480546110539061290b565b80601f016020809104026020016040519081016040528092919081815260200182805461107f9061290b565b80156110cc5780601f106110a1576101008083540402835291602001916110cc565b820191906000526020600020905b8154815290600101906020018083116110af57829003601f168201915b5050505050905090565b600981600e81106110e657600080fd5b60089182820401919006600402915054906101000a900463ffffffff1681565b61110e611520565b73ffffffffffffffffffffffffffffffffffffffff168273ffffffffffffffffffffffffffffffffffffffff16141561117c576040517f08c379a00000000000000000000000000000000000000000000000000000000081526004016111739061257e565b60405180910390fd5b8060086000611189611520565b73ffffffffffffffffffffffffffffffffffffffff1673ffffffffffffffffffffffffffffffffffffffff16815260200190815260200160002060008473ffffffffffffffffffffffffffffffffffffffff1673ffffffffffffffffffffffffffffffffffffffff16815260200190815260200160002060006101000a81548160ff0219169083151502179055508173ffffffffffffffffffffffffffffffffffffffff16611236611520565b73ffffffffffffffffffffffffffffffffffffffff167f17307eab39ab6107e8899845ad3d59bd9653f200f220920489ca2b5937696c318360405161127b9190612521565b60405180910390a35050565b600260009054906101000a900473ffffffffffffffffffffffffffffffffffffffff1681565b6112be6112b8611520565b836115e1565b6112fd576040517f08c379a00000000000000000000000000000000000000000000000000000000081526004016112f49061267e565b60405180910390fd5b611309848484846118bc565b50505050565b606061131a826114b4565b611359576040517f08c379a00000000000000000000000000000000000000000000000000000000081526004016113509061263e565b60405180910390fd5b6000611363611918565b9050600081511161138357604051806020016040528060008152506113ae565b8061138d8461192f565b60405160200161139e92919061247b565b6040516020818303038152906040525b915050919050565b6000600860008473ffffffffffffffffffffffffffffffffffffffff1673ffffffffffffffffffffffffffffffffffffffff16815260200190815260200160002060008373ffffffffffffffffffffffffffffffffffffffff1673ffffffffffffffffffffffffffffffffffffffff16815260200190815260200160002060009054906101000a900460ff16905092915050565b60007f01ffc9a7000000000000000000000000000000000000000000000000000000007bffffffffffffffffffffffffffffffffffffffffffffffffffffffff1916827bffffffffffffffffffffffffffffffffffffffffffffffffffffffff1916149050919050565b60008073ffffffffffffffffffffffffffffffffffffffff166005600084815260200190815260200160002060009054906101000a900473ffffffffffffffffffffffffffffffffffffffff1673ffffffffffffffffffffffffffffffffffffffff1614159050919050565b600033905090565b816007600083815260200190815260200160002060006101000a81548173ffffffffffffffffffffffffffffffffffffffff021916908373ffffffffffffffffffffffffffffffffffffffff160217905550808273ffffffffffffffffffffffffffffffffffffffff1661159b83610d9b565b73ffffffffffffffffffffffffffffffffffffffff167f8c5be1e5ebec7d5bd14f71427d1e84f3dd0314c0f7b2291e5b200ac8c7c3b92560405160405180910390a45050565b60006115ec826114b4565b61162b576040517f08c379a00000000000000000000000000000000000000000000000000000000081526004016116229061259e565b60405180910390fd5b600061163683610d9b565b90508073ffffffffffffffffffffffffffffffffffffffff168473ffffffffffffffffffffffffffffffffffffffff1614806116a557508373ffffffffffffffffffffffffffffffffffffffff1661168d846106da565b73ffffffffffffffffffffffffffffffffffffffff16145b806116b657506116b581856113b6565b5b91505092915050565b600d60008373ffffffffffffffffffffffffffffffffffffffff1673ffffffffffffffffffffffffffffffffffffffff168152602001908152602001600020600081548092919061170f9061293d565b919050555081600c600083815260200190815260200160002060006101000a81548173ffffffffffffffffffffffffffffffffffffffff021916908373ffffffffffffffffffffffffffffffffffffffff160217905550600073ffffffffffffffffffffffffffffffffffffffff168373ffffffffffffffffffffffffffffffffffffffff161461185c57600d60008473ffffffffffffffffffffffffffffffffffffffff1673ffffffffffffffffffffffffffffffffffffffff16815260200190815260200160002060008154809291906117ea9061293d565b9190505550600f600082815260200190815260200160002060006101000a81549073ffffffffffffffffffffffffffffffffffffffff0219169055600e600082815260200190815260200160002060006101000a81549073ffffffffffffffffffffffffffffffffffffffff02191690555b808273ffffffffffffffffffffffffffffffffffffffff168473ffffffffffffffffffffffffffffffffffffffff167fddf252ad1be2c89b69c2b068fc378daa952ba7f163c4a11628f55a4df523b3ef60405160405180910390a4505050565b6118c78484846116bf565b6118d384848484611adc565b611912576040517f08c379a00000000000000000000000000000000000000000000000000000000081526004016119099061255e565b60405180910390fd5b50505050565b606060405180602001604052806000815250905090565b60606000821415611977576040518060400160405280600181526020017f30000000000000000000000000000000000000000000000000000000000000008152509050611ad7565b600082905060005b600082146119a95780806119929061293d565b915050600a826119a291906127ce565b915061197f565b60008167ffffffffffffffff8111156119eb577f4e487b7100000000000000000000000000000000000000000000000000000000600052604160045260246000fd5b6040519080825280601f01601f191660200182016040528015611a1d5781602001600182028036833780820191505090505b5090505b60008514611ad057600182611a3691906127ff565b9150600a85611a459190612986565b6030611a519190612778565b60f81b818381518110611a8d577f4e487b7100000000000000000000000000000000000000000000000000000000600052603260045260246000fd5b60200101907effffffffffffffffffffffffffffffffffffffffffffffffffffffffffffff1916908160001a905350600a85611ac991906127ce565b9450611a21565b8093505050505b919050565b6000611afd8473ffffffffffffffffffffffffffffffffffffffff16611c73565b15611c66578373ffffffffffffffffffffffffffffffffffffffff1663150b7a02611b26611520565b8786866040518563ffffffff1660e01b8152600401611b4894939291906124d5565b602060405180830381600087803b158015611b6257600080fd5b505af1925050508015611b9357506040513d601f19601f82011682018060405250810190611b909190611f65565b60015b611c16573d8060008114611bc3576040519150601f19603f3d011682016040523d82523d6000602084013e611bc8565b606091505b50600081511415611c0e576040517f08c379a0000000000000000000000000000000000000000000000000000000008152600401611c059061255e565b60405180910390fd5b805181602001fd5b63150b7a0260e01b7bffffffffffffffffffffffffffffffffffffffffffffffffffffffff1916817bffffffffffffffffffffffffffffffffffffffffffffffffffffffff191614915050611c6b565b600190505b949350505050565b600080823b905060008111915050919050565b6000611c99611c9484612705565b6126d4565b905082815260208101848484011115611cb157600080fd5b611cbc8482856128c9565b509392505050565b600081359050611cd381612a84565b92915050565b600081359050611ce881612a9b565b92915050565b600081359050611cfd81612ab2565b92915050565b600081359050611d1281612ac9565b92915050565b600081519050611d2781612ac9565b92915050565b600082601f830112611d3e57600080fd5b8135611d4e848260208601611c86565b91505092915050565b600081359050611d6681612ae0565b92915050565b600060208284031215611d7e57600080fd5b6000611d8c84828501611cc4565b91505092915050565b600060208284031215611da757600080fd5b6000611db584828501611cd9565b91505092915050565b60008060408385031215611dd157600080fd5b6000611ddf85828601611cc4565b9250506020611df085828601611cc4565b9150509250929050565b600080600060608486031215611e0f57600080fd5b6000611e1d86828701611cc4565b9350506020611e2e86828701611cc4565b9250506040611e3f86828701611d57565b9150509250925092565b60008060008060808587031215611e5f57600080fd5b6000611e6d87828801611cc4565b9450506020611e7e87828801611cc4565b9350506040611e8f87828801611d57565b925050606085013567ffffffffffffffff811115611eac57600080fd5b611eb887828801611d2d565b91505092959194509250565b60008060408385031215611ed757600080fd5b6000611ee585828601611cc4565b9250506020611ef685828601611cee565b9150509250929050565b60008060408385031215611f1357600080fd5b6000611f2185828601611cc4565b9250506020611f3285828601611d57565b9150509250929050565b600060208284031215611f4e57600080fd5b6000611f5c84828501611d03565b91505092915050565b600060208284031215611f7757600080fd5b6000611f8584828501611d18565b91505092915050565b600060208284031215611fa057600080fd5b6000611fae84828501611d57565b91505092915050565b611fc081612845565b82525050565b611fcf81612833565b82525050565b611fde81612857565b82525050565b6000611fef82612735565b611ff9818561274b565b93506120098185602086016128d8565b61201281612a73565b840191505092915050565b600061202882612740565b612032818561275c565b93506120428185602086016128d8565b61204b81612a73565b840191505092915050565b600061206182612740565b61206b818561276d565b935061207b8185602086016128d8565b80840191505092915050565b600061209460328361275c565b91507f4552433732313a207472616e7366657220746f206e6f6e20455243373231526560008301527f63656976657220696d706c656d656e74657200000000000000000000000000006020830152604082019050919050565b60006120fa60198361275c565b91507f4552433732313a20617070726f766520746f2063616c6c6572000000000000006000830152602082019050919050565b600061213a602c8361275c565b91507f4552433732313a206f70657261746f7220717565727920666f72206e6f6e657860008301527f697374656e7420746f6b656e00000000000000000000000000000000000000006020830152604082019050919050565b60006121a060388361275c565b91507f4552433732313a20617070726f76652063616c6c6572206973206e6f74206f7760008301527f6e6572206e6f7220617070726f76656420666f7220616c6c00000000000000006020830152604082019050919050565b6000612206602a8361275c565b91507f4552433732313a2062616c616e636520717565727920666f7220746865207a6560008301527f726f2061646472657373000000000000000000000000000000000000000000006020830152604082019050919050565b600061226c60298361275c565b91507f4552433732313a206f776e657220717565727920666f72206e6f6e657869737460008301527f656e7420746f6b656e00000000000000000000000000000000000000000000006020830152604082019050919050565b60006122d2602c8361275c565b91507f4552433732313a20617070726f76656420717565727920666f72206e6f6e657860008301527f697374656e7420746f6b656e00000000000000000000000000000000000000006020830152604082019050919050565b6000612338602f8361275c565b91507f4552433732314d657461646174613a2055524920717565727920666f72206e6f60008301527f6e6578697374656e7420746f6b656e00000000000000000000000000000000006020830152604082019050919050565b600061239e60218361275c565b91507f4552433732313a20617070726f76616c20746f2063757272656e74206f776e6560008301527f72000000000000000000000000000000000000000000000000000000000000006020830152604082019050919050565b600061240460318361275c565b91507f4552433732313a207472616e736665722063616c6c6572206973206e6f74206f60008301527f776e6572206e6f7220617070726f7665640000000000000000000000000000006020830152604082019050919050565b612466816128af565b82525050565b612475816128b9565b82525050565b60006124878285612056565b91506124938284612056565b91508190509392505050565b60006020820190506124b46000830184611fc6565b92915050565b60006020820190506124cf6000830184611fb7565b92915050565b60006080820190506124ea6000830187611fc6565b6124f76020830186611fc6565b612504604083018561245d565b81810360608301526125168184611fe4565b905095945050505050565b60006020820190506125366000830184611fd5565b92915050565b60006020820190508181036000830152612556818461201d565b905092915050565b6000602082019050818103600083015261257781612087565b9050919050565b60006020820190508181036000830152612597816120ed565b9050919050565b600060208201905081810360008301526125b78161212d565b9050919050565b600060208201905081810360008301526125d781612193565b9050919050565b600060208201905081810360008301526125f7816121f9565b9050919050565b600060208201905081810360008301526126178161225f565b9050919050565b60006020820190508181036000830152612637816122c5565b9050919050565b600060208201905081810360008301526126578161232b565b9050919050565b6000602082019050818103600083015261267781612391565b9050919050565b60006020820190508181036000830152612697816123f7565b9050919050565b60006020820190506126b3600083018461245d565b92915050565b60006020820190506126ce600083018461246c565b92915050565b6000604051905081810181811067ffffffffffffffff821117156126fb576126fa612a44565b5b8060405250919050565b600067ffffffffffffffff8211156127205761271f612a44565b5b601f19601f8301169050602081019050919050565b600081519050919050565b600081519050919050565b600082825260208201905092915050565b600082825260208201905092915050565b600081905092915050565b6000612783826128af565b915061278e836128af565b9250827fffffffffffffffffffffffffffffffffffffffffffffffffffffffffffffffff038211156127c3576127c26129b7565b5b828201905092915050565b60006127d9826128af565b91506127e4836128af565b9250826127f4576127f36129e6565b5b828204905092915050565b600061280a826128af565b9150612815836128af565b925082821015612828576128276129b7565b5b828203905092915050565b600061283e8261288f565b9050919050565b60006128508261288f565b9050919050565b60008115159050919050565b60007fffffffff0000000000000000000000000000000000000000000000000000000082169050919050565b600073ffffffffffffffffffffffffffffffffffffffff82169050919050565b6000819050919050565b600063ffffffff82169050919050565b82818337600083830152505050565b60005b838110156128f65780820151818401526020810190506128db565b83811115612905576000848401525b50505050565b6000600282049050600182168061292357607f821691505b6020821081141561293757612936612a15565b5b50919050565b6000612948826128af565b91507fffffffffffffffffffffffffffffffffffffffffffffffffffffffffffffffff82141561297b5761297a6129b7565b5b600182019050919050565b6000612991826128af565b915061299c836128af565b9250826129ac576129ab6129e6565b5b828206905092915050565b7f4e487b7100000000000000000000000000000000000000000000000000000000600052601160045260246000fd5b7f4e487b7100000000000000000000000000000000000000000000000000000000600052601260045260246000fd5b7f4e487b7100000000000000000000000000000000000000000000000000000000600052602260045260246000fd5b7f4e487b7100000000000000000000000000000000000000000000000000000000600052604160045260246000fd5b6000601f19601f8301169050919050565b612a8d81612833565b8114612a9857600080fd5b50565b612aa481612845565b8114612aaf57600080fd5b50565b612abb81612857565b8114612ac657600080fd5b50565b612ad281612863565b8114612add57600080fd5b50565b612ae9816128af565b8114612af457600080fd5b5056fea2646970667358221220d348a5f4741931b5543fc434cfc2f9f04b076763281c94cfc2f906fcd77b682c64736f6c63430008000033",
  "immutableReferences": {},
  "source": "// SPDX-License-Identifier: MIT\npragma solidity >=0.4.22 <0.9.0;\n\nimport \"./GizzyAccessControl.sol\";\nimport \"@openzeppelin/contracts/token/ERC721/ERC721.sol\";\n\ncontract GizzyBase is GizzyAccessControl, ERC721{\n  \n  constructor() ERC721('Gizzy', 'GZY') {\n  }\n  // @dev the Birth event is fired whenever a new kitten comes into existence. This \n  // includes cats created through giveBirth method and also newly minted gen cats\n  event Birth(address indexed owner, uint256 kittyId, uint256 matronId, uint256 sireId, uint256 genes);\n\n  // @dev Transfer event as defined in current draft of ERC721. Emitted every time a kitten\n  // ownership is assigned, including births.\n  // event Transfer(address indexed from, address indexed to, uint256 indexed tokenId);\n\n  struct Gizzy {\n    uint256 genes;\n    uint64 birthTime;\n    uint64 cooldownEndTime;\n    uint32 matronId;\n    uint32 sireId;\n    uint32 siringWithId;\n    uint16 cooldownIndex;\n    uint16 generation;\n  }\n\n  uint32[14] public cooldowns = [\n    uint32(1 minutes),\n    uint32(2 minutes),\n    uint32(5 minutes),\n    uint32(10 minutes),\n    uint32(30 minutes),\n    uint32(1 hours),\n    uint32(2 hours),\n    uint32(4 hours),\n    uint32(8 hours),\n    uint32(16 hours),\n    uint32(1 days),\n    uint32(2 days),\n    uint32(4 days),\n    uint32(7 days)\n  ];\n\n  Gizzy[] gizzies;\n\n  mapping (uint256 => address) public gizzyIndexToOwner;\n\n  mapping (address => uint256) ownershipTokenCount;\n\n  mapping (uint256 => address) public gizzyIndexToApproved;\n\n  mapping (uint256 => address) public sireAllowedToAddress;\n\n  function _transfer(address _from, address _to, uint256 _tokenId) internal override{\n    ownershipTokenCount[_to] ++;\n    gizzyIndexToOwner[_tokenId] = _to;\n    if (_from != address(0)) {\n      ownershipTokenCount[_from] ++;\n      delete sireAllowedToAddress[_tokenId];\n      delete gizzyIndexToApproved[_tokenId];\n    }\n\n    emit Transfer(_from, _to, _tokenId);\n  }\n\n  function _createGizzy(\n    uint256 _matronId,\n    uint256 _sireId,\n    uint256 _generation,\n    uint256 _genes,\n    address _owner\n  )\n    internal\n    returns (uint)\n\n  {\n    require(_matronId <= 4294967295);\n    require(_sireId <= 4294967295);\n    require(_generation <= 65535);\n  \n    Gizzy memory _gizzy = Gizzy({\n      genes: _genes,\n      birthTime: uint64(block.timestamp),\n      cooldownEndTime: 0,\n      matronId: uint32(_matronId),\n      sireId: uint32(_sireId),\n      siringWithId: 0,\n      cooldownIndex: 0,\n      generation: uint16(_generation)\n    });\n\n    gizzies.push(_gizzy);\n    uint256 newGizzyId = gizzies.length - 1;\n\n    require(newGizzyId <= 4294967295);\n\n    emit Birth(\n      _owner,\n      newGizzyId,\n      uint256(_gizzy.matronId),\n      uint256(_gizzy.sireId),\n      _gizzy.genes\n    );\n\n    _transfer(address(0), _owner, newGizzyId);\n\n    return newGizzyId;\n\n  }\n\n  // when u figure out how and where _createKitty is used, figure out how to create and use a \n  // _createItem function and everything that uses it\n\n}\n",
  "sourcePath": "/home/imtiaz/Desktop/baeinnovations/gizzy-smartcontracts/contracts/GizzyBase.sol",
  "compiler": {
    "name": "solc",
    "version": "0.8.0+commit.c7dfd78e.Emscripten.clang"
  },
  "schemaVersion": "3.4.0",
  "updatedAt": "2021-05-19T10:38:06.331Z",
  "networkType": "ethereum",
  "devdoc": {
    "kind": "dev",
    "methods": {
      "approve(address,uint256)": {
        "details": "See {IERC721-approve}."
      },
      "balanceOf(address)": {
        "details": "See {IERC721-balanceOf}."
      },
      "getApproved(uint256)": {
        "details": "See {IERC721-getApproved}."
      },
      "isApprovedForAll(address,address)": {
        "details": "See {IERC721-isApprovedForAll}."
      },
      "name()": {
        "details": "See {IERC721Metadata-name}."
      },
      "ownerOf(uint256)": {
        "details": "See {IERC721-ownerOf}."
      },
      "safeTransferFrom(address,address,uint256)": {
        "details": "See {IERC721-safeTransferFrom}."
      },
      "safeTransferFrom(address,address,uint256,bytes)": {
        "details": "See {IERC721-safeTransferFrom}."
      },
      "setApprovalForAll(address,bool)": {
        "details": "See {IERC721-setApprovalForAll}."
      },
      "supportsInterface(bytes4)": {
        "details": "See {IERC165-supportsInterface}."
      },
      "symbol()": {
        "details": "See {IERC721Metadata-symbol}."
      },
      "tokenURI(uint256)": {
        "details": "See {IERC721Metadata-tokenURI}."
      },
      "transferFrom(address,address,uint256)": {
        "details": "See {IERC721-transferFrom}."
      }
    },
    "version": 1
  },
  "userdoc": {
    "kind": "user",
    "methods": {},
    "version": 1
  }
}