{
  "contractName": "GizzyCore",
  "abi": [
    {
      "inputs": [],
      "stateMutability": "nonpayable",
      "type": "constructor"
    },
    {
      "anonymous": false,
      "inputs": [
        {
          "indexed": true,
          "internalType": "address",
          "name": "owner",
          "type": "address"
        },
        {
          "indexed": true,
          "internalType": "address",
          "name": "approved",
          "type": "address"
        },
        {
          "indexed": true,
          "internalType": "uint256",
          "name": "tokenId",
          "type": "uint256"
        }
      ],
      "name": "Approval",
      "type": "event"
    },
    {
      "anonymous": false,
      "inputs": [
        {
          "indexed": true,
          "internalType": "address",
          "name": "owner",
          "type": "address"
        },
        {
          "indexed": true,
          "internalType": "address",
          "name": "operator",
          "type": "address"
        },
        {
          "indexed": false,
          "internalType": "bool",
          "name": "approved",
          "type": "bool"
        }
      ],
      "name": "ApprovalForAll",
      "type": "event"
    },
    {
      "anonymous": false,
      "inputs": [
        {
          "indexed": false,
          "internalType": "address",
          "name": "owner",
          "type": "address"
        },
        {
          "indexed": false,
          "internalType": "uint256",
          "name": "gizzyId",
          "type": "uint256"
        }
      ],
      "name": "AuctionStarted",
      "type": "event"
    },
    {
      "anonymous": false,
      "inputs": [
        {
          "indexed": false,
          "internalType": "address",
          "name": "bidder",
          "type": "address"
        },
        {
          "indexed": false,
          "internalType": "uint256",
          "name": "auctionId",
          "type": "uint256"
        },
        {
          "indexed": false,
          "internalType": "uint256",
          "name": "amount",
          "type": "uint256"
        }
      ],
      "name": "Bid",
      "type": "event"
    },
    {
      "anonymous": false,
      "inputs": [
        {
          "indexed": true,
          "internalType": "address",
          "name": "owner",
          "type": "address"
        },
        {
          "indexed": false,
          "internalType": "uint256",
          "name": "kittyId",
          "type": "uint256"
        },
        {
          "indexed": false,
          "internalType": "uint256",
          "name": "matronId",
          "type": "uint256"
        },
        {
          "indexed": false,
          "internalType": "uint256",
          "name": "sireId",
          "type": "uint256"
        },
        {
          "indexed": false,
          "internalType": "uint256",
          "name": "genes",
          "type": "uint256"
        }
      ],
      "name": "Birth",
      "type": "event"
    },
    {
      "anonymous": false,
      "inputs": [
        {
          "indexed": false,
          "internalType": "address",
          "name": "newContract",
          "type": "address"
        }
      ],
      "name": "ContractUpgrade",
      "type": "event"
    },
    {
      "anonymous": false,
      "inputs": [
        {
          "indexed": true,
          "internalType": "address",
          "name": "from",
          "type": "address"
        },
        {
          "indexed": true,
          "internalType": "address",
          "name": "to",
          "type": "address"
        },
        {
          "indexed": true,
          "internalType": "uint256",
          "name": "tokenId",
          "type": "uint256"
        }
      ],
      "name": "Transfer",
      "type": "event"
    },
    {
      "inputs": [
        {
          "internalType": "address",
          "name": "to",
          "type": "address"
        },
        {
          "internalType": "uint256",
          "name": "tokenId",
          "type": "uint256"
        }
      ],
      "name": "approve",
      "outputs": [],
      "stateMutability": "nonpayable",
      "type": "function"
    },
    {
      "inputs": [
        {
          "internalType": "address",
          "name": "owner",
          "type": "address"
        }
      ],
      "name": "balanceOf",
      "outputs": [
        {
          "internalType": "uint256",
          "name": "",
          "type": "uint256"
        }
      ],
      "stateMutability": "view",
      "type": "function"
    },
    {
      "inputs": [],
      "name": "ceoAddress",
      "outputs": [
        {
          "internalType": "address",
          "name": "",
          "type": "address"
        }
      ],
      "stateMutability": "view",
      "type": "function"
    },
    {
      "inputs": [],
      "name": "cfoAddress",
      "outputs": [
        {
          "internalType": "address payable",
          "name": "",
          "type": "address"
        }
      ],
      "stateMutability": "view",
      "type": "function"
    },
    {
      "inputs": [],
      "name": "cooAddress",
      "outputs": [
        {
          "internalType": "address",
          "name": "",
          "type": "address"
        }
      ],
      "stateMutability": "view",
      "type": "function"
    },
    {
      "inputs": [
        {
          "internalType": "uint256",
          "name": "",
          "type": "uint256"
        }
      ],
      "name": "cooldowns",
      "outputs": [
        {
          "internalType": "uint32",
          "name": "",
          "type": "uint32"
        }
      ],
      "stateMutability": "view",
      "type": "function"
    },
    {
      "inputs": [
        {
          "internalType": "uint256",
          "name": "_genes",
          "type": "uint256"
        },
        {
          "internalType": "address",
          "name": "_owner",
          "type": "address"
        }
      ],
      "name": "createPromoGizzy",
      "outputs": [],
      "stateMutability": "nonpayable",
      "type": "function"
    },
    {
      "inputs": [
        {
          "internalType": "uint256",
          "name": "auctionId",
          "type": "uint256"
        }
      ],
      "name": "endAuction",
      "outputs": [],
      "stateMutability": "nonpayable",
      "type": "function"
    },
    {
      "inputs": [],
      "name": "gen0AuctionDuration",
      "outputs": [
        {
          "internalType": "uint256",
          "name": "",
          "type": "uint256"
        }
      ],
      "stateMutability": "view",
      "type": "function"
    },
    {
      "inputs": [],
      "name": "gen0CreatedCount",
      "outputs": [
        {
          "internalType": "uint256",
          "name": "",
          "type": "uint256"
        }
      ],
      "stateMutability": "view",
      "type": "function"
    },
    {
      "inputs": [],
      "name": "gen0CreationLimit",
      "outputs": [
        {
          "internalType": "uint256",
          "name": "",
          "type": "uint256"
        }
      ],
      "stateMutability": "view",
      "type": "function"
    },
    {
      "inputs": [],
      "name": "gen0StartingPrice",
      "outputs": [
        {
          "internalType": "uint256",
          "name": "",
          "type": "uint256"
        }
      ],
      "stateMutability": "view",
      "type": "function"
    },
    {
      "inputs": [
        {
          "internalType": "uint256",
          "name": "tokenId",
          "type": "uint256"
        }
      ],
      "name": "getApproved",
      "outputs": [
        {
          "internalType": "address",
          "name": "",
          "type": "address"
        }
      ],
      "stateMutability": "view",
      "type": "function"
    },
    {
      "inputs": [
        {
          "internalType": "address",
          "name": "owner",
          "type": "address"
        },
        {
          "internalType": "address",
          "name": "operator",
          "type": "address"
        }
      ],
      "name": "isApprovedForAll",
      "outputs": [
        {
          "internalType": "bool",
          "name": "",
          "type": "bool"
        }
      ],
      "stateMutability": "view",
      "type": "function"
    },
    {
      "inputs": [],
      "name": "name",
      "outputs": [
        {
          "internalType": "string",
          "name": "",
          "type": "string"
        }
      ],
      "stateMutability": "view",
      "type": "function"
    },
    {
      "inputs": [
        {
          "internalType": "uint256",
          "name": "tokenId",
          "type": "uint256"
        }
      ],
      "name": "ownerOf",
      "outputs": [
        {
          "internalType": "address",
          "name": "",
          "type": "address"
        }
      ],
      "stateMutability": "view",
      "type": "function"
    },
    {
      "inputs": [],
      "name": "pause",
      "outputs": [],
      "stateMutability": "nonpayable",
      "type": "function"
    },
    {
      "inputs": [],
      "name": "paused",
      "outputs": [
        {
          "internalType": "bool",
          "name": "",
          "type": "bool"
        }
      ],
      "stateMutability": "view",
      "type": "function"
    },
    {
      "inputs": [
        {
          "internalType": "uint256",
          "name": "_auctionId",
          "type": "uint256"
        }
      ],
      "name": "placeBid",
      "outputs": [],
      "stateMutability": "payable",
      "type": "function"
    },
    {
      "inputs": [],
      "name": "promoCreatedCount",
      "outputs": [
        {
          "internalType": "uint256",
          "name": "",
          "type": "uint256"
        }
      ],
      "stateMutability": "view",
      "type": "function"
    },
    {
      "inputs": [],
      "name": "promoCreationLimit",
      "outputs": [
        {
          "internalType": "uint256",
          "name": "",
          "type": "uint256"
        }
      ],
      "stateMutability": "view",
      "type": "function"
    },
    {
      "inputs": [
        {
          "internalType": "address",
          "name": "from",
          "type": "address"
        },
        {
          "internalType": "address",
          "name": "to",
          "type": "address"
        },
        {
          "internalType": "uint256",
          "name": "tokenId",
          "type": "uint256"
        }
      ],
      "name": "safeTransferFrom",
      "outputs": [],
      "stateMutability": "nonpayable",
      "type": "function"
    },
    {
      "inputs": [
        {
          "internalType": "address",
          "name": "from",
          "type": "address"
        },
        {
          "internalType": "address",
          "name": "to",
          "type": "address"
        },
        {
          "internalType": "uint256",
          "name": "tokenId",
          "type": "uint256"
        },
        {
          "internalType": "bytes",
          "name": "_data",
          "type": "bytes"
        }
      ],
      "name": "safeTransferFrom",
      "outputs": [],
      "stateMutability": "nonpayable",
      "type": "function"
    },
    {
      "inputs": [
        {
          "internalType": "address",
          "name": "operator",
          "type": "address"
        },
        {
          "internalType": "bool",
          "name": "approved",
          "type": "bool"
        }
      ],
      "name": "setApprovalForAll",
      "outputs": [],
      "stateMutability": "nonpayable",
      "type": "function"
    },
    {
      "inputs": [
        {
          "internalType": "address",
          "name": "_newCEO",
          "type": "address"
        }
      ],
      "name": "setCEO",
      "outputs": [],
      "stateMutability": "nonpayable",
      "type": "function"
    },
    {
      "inputs": [
        {
          "internalType": "address payable",
          "name": "_newCFO",
          "type": "address"
        }
      ],
      "name": "setCFO",
      "outputs": [],
      "stateMutability": "nonpayable",
      "type": "function"
    },
    {
      "inputs": [
        {
          "internalType": "address",
          "name": "_newCOO",
          "type": "address"
        }
      ],
      "name": "setCOO",
      "outputs": [],
      "stateMutability": "nonpayable",
      "type": "function"
    },
    {
      "inputs": [
        {
          "internalType": "uint256",
          "name": "_gizzyId",
          "type": "uint256"
        },
        {
          "internalType": "uint256",
          "name": "_startingPrice",
          "type": "uint256"
        },
        {
          "internalType": "uint256",
          "name": "_duration",
          "type": "uint256"
        }
      ],
      "name": "startAuction",
      "outputs": [],
      "stateMutability": "nonpayable",
      "type": "function"
    },
    {
      "inputs": [
        {
          "internalType": "bytes4",
          "name": "interfaceId",
          "type": "bytes4"
        }
      ],
      "name": "supportsInterface",
      "outputs": [
        {
          "internalType": "bool",
          "name": "",
          "type": "bool"
        }
      ],
      "stateMutability": "view",
      "type": "function"
    },
    {
      "inputs": [],
      "name": "symbol",
      "outputs": [
        {
          "internalType": "string",
          "name": "",
          "type": "string"
        }
      ],
      "stateMutability": "view",
      "type": "function"
    },
    {
      "inputs": [
        {
          "internalType": "uint256",
          "name": "tokenId",
          "type": "uint256"
        }
      ],
      "name": "tokenURI",
      "outputs": [
        {
          "internalType": "string",
          "name": "",
          "type": "string"
        }
      ],
      "stateMutability": "view",
      "type": "function"
    },
    {
      "inputs": [
        {
          "internalType": "address",
          "name": "from",
          "type": "address"
        },
        {
          "internalType": "address",
          "name": "to",
          "type": "address"
        },
        {
          "internalType": "uint256",
          "name": "tokenId",
          "type": "uint256"
        }
      ],
      "name": "transferFrom",
      "outputs": [],
      "stateMutability": "nonpayable",
      "type": "function"
    },
    {
      "inputs": [],
      "name": "unpause",
      "outputs": [],
      "stateMutability": "nonpayable",
      "type": "function"
    },
    {
      "inputs": [],
      "name": "withdrawBalance",
      "outputs": [],
      "stateMutability": "nonpayable",
      "type": "function"
    },
    {
      "inputs": [
        {
          "internalType": "uint256",
          "name": "_id",
          "type": "uint256"
        }
      ],
      "name": "getGizzy",
      "outputs": [
        {
          "internalType": "bool",
          "name": "isGestating",
          "type": "bool"
        },
        {
          "internalType": "bool",
          "name": "isReady",
          "type": "bool"
        },
        {
          "internalType": "uint256",
          "name": "cooldownIndex",
          "type": "uint256"
        },
        {
          "internalType": "uint256",
          "name": "nextActionAt",
          "type": "uint256"
        },
        {
          "internalType": "uint256",
          "name": "siringWithId",
          "type": "uint256"
        },
        {
          "internalType": "uint256",
          "name": "birthTime",
          "type": "uint256"
        },
        {
          "internalType": "uint256",
          "name": "matronId",
          "type": "uint256"
        },
        {
          "internalType": "uint256",
          "name": "sireId",
          "type": "uint256"
        },
        {
          "internalType": "uint256",
          "name": "generation",
          "type": "uint256"
        },
        {
          "internalType": "uint256",
          "name": "genes",
          "type": "uint256"
        }
      ],
      "stateMutability": "view",
      "type": "function"
    }
  ],
  "bytecode": "0x60806040526000600260146101000a81548160ff021916908315150217905550604051806101c00160405280603c63ffffffff1663ffffffff168152602001607863ffffffff1663ffffffff16815260200161012c63ffffffff1663ffffffff16815260200161025863ffffffff1663ffffffff16815260200161070863ffffffff1663ffffffff168152602001610e1063ffffffff1663ffffffff168152602001611c2063ffffffff1663ffffffff16815260200161384063ffffffff1663ffffffff16815260200161708063ffffffff1663ffffffff16815260200161e10063ffffffff1663ffffffff1681526020016201518063ffffffff1663ffffffff1681526020016202a30063ffffffff1663ffffffff1681526020016205460063ffffffff1663ffffffff16815260200162093a8063ffffffff1663ffffffff16815250600990600e6200015592919062000a49565b50611388600d5561c350600e556402540be400600f55620151806010553480156200017f57600080fd5b506040518060400160405280600581526020017f47697a7a790000000000000000000000000000000000000000000000000000008152506040518060400160405280600381526020017f475a59000000000000000000000000000000000000000000000000000000000081525081600390805190602001906200020492919062000af3565b5080600490805190602001906200021d92919062000af3565b5050506001600260146101000a81548160ff021916908315150217905550336000806101000a81548173ffffffffffffffffffffffffffffffffffffffff021916908373ffffffffffffffffffffffffffffffffffffffff16021790555033600260006101000a81548173ffffffffffffffffffffffffffffffffffffffff021916908373ffffffffffffffffffffffffffffffffffffffff160217905550620002d46000806000806000620002db60201b60201c565b5062001060565b600063ffffffff861115620002ef57600080fd5b63ffffffff8511156200030157600080fd5b61ffff8411156200031157600080fd5b60006040518061010001604052808581526020014267ffffffffffffffff168152602001600067ffffffffffffffff1681526020018863ffffffff1681526020018763ffffffff168152602001600063ffffffff168152602001600061ffff1681526020018661ffff168152509050600b8190806001815401808255809150506001900390600052602060002090600202016000909190919091506000820151816000015560208201518160010160006101000a81548167ffffffffffffffff021916908367ffffffffffffffff16021790555060408201518160010160086101000a81548167ffffffffffffffff021916908367ffffffffffffffff16021790555060608201518160010160106101000a81548163ffffffff021916908363ffffffff16021790555060808201518160010160146101000a81548163ffffffff021916908363ffffffff16021790555060a08201518160010160186101000a81548163ffffffff021916908363ffffffff16021790555060c082015181600101601c6101000a81548161ffff021916908361ffff16021790555060e082015181600101601e6101000a81548161ffff021916908361ffff160217905550505060006001600b80549050620004e7919062000ec6565b905063ffffffff811115620004fb57600080fd5b8373ffffffffffffffffffffffffffffffffffffffff167f0a5311bd2a6608f08a180df2ee7c5946819a649b204b554bb8e39825b2c50ad582846060015163ffffffff16856080015163ffffffff16866000015160405162000561949392919062000def565b60405180910390a26200057b84826200058960201b60201c565b809250505095945050505050565b620005ab828260405180602001604052806000815250620005af60201b60201c565b5050565b620005c183836200061d60201b60201c565b620005d660008484846200080360201b60201c565b62000618576040517f08c379a00000000000000000000000000000000000000000000000000000000081526004016200060f9062000d89565b60405180910390fd5b505050565b600073ffffffffffffffffffffffffffffffffffffffff168273ffffffffffffffffffffffffffffffffffffffff16141562000690576040517f08c379a0000000000000000000000000000000000000000000000000000000008152600401620006879062000dcd565b60405180910390fd5b620006a181620009bd60201b60201c565b15620006e4576040517f08c379a0000000000000000000000000000000000000000000000000000000008152600401620006db9062000dab565b60405180910390fd5b620006f86000838362000a2960201b60201c565b6001600660008473ffffffffffffffffffffffffffffffffffffffff1673ffffffffffffffffffffffffffffffffffffffff16815260200190815260200160002060008282546200074a919062000e69565b92505081905550816005600083815260200190815260200160002060006101000a81548173ffffffffffffffffffffffffffffffffffffffff021916908373ffffffffffffffffffffffffffffffffffffffff160217905550808273ffffffffffffffffffffffffffffffffffffffff16600073ffffffffffffffffffffffffffffffffffffffff167fddf252ad1be2c89b69c2b068fc378daa952ba7f163c4a11628f55a4df523b3ef60405160405180910390a45050565b6000620008318473ffffffffffffffffffffffffffffffffffffffff1662000a2e60201b62001b6c1760201c565b15620009b0578373ffffffffffffffffffffffffffffffffffffffff1663150b7a026200086362000a4160201b60201c565b8786866040518563ffffffff1660e01b815260040162000887949392919062000d35565b602060405180830381600087803b158015620008a257600080fd5b505af1925050508015620008d657506040513d601f19601f82011682018060405250810190620008d3919062000bba565b60015b6200095f573d806000811462000909576040519150601f19603f3d011682016040523d82523d6000602084013e6200090e565b606091505b5060008151141562000957576040517f08c379a00000000000000000000000000000000000000000000000000000000081526004016200094e9062000d89565b60405180910390fd5b805181602001fd5b63150b7a0260e01b7bffffffffffffffffffffffffffffffffffffffffffffffffffffffff1916817bffffffffffffffffffffffffffffffffffffffffffffffffffffffff191614915050620009b5565b600190505b949350505050565b60008073ffffffffffffffffffffffffffffffffffffffff166005600084815260200190815260200160002060009054906101000a900473ffffffffffffffffffffffffffffffffffffffff1673ffffffffffffffffffffffffffffffffffffffff1614159050919050565b505050565b600080823b905060008111915050919050565b600033905090565b82600e60070160089004810192821562000ae05791602002820160005b8382111562000aac57835183826101000a81548163ffffffff021916908363ffffffff160217905550926020019260040160208160030104928301926001030262000a66565b801562000ade5782816101000a81549063ffffffff021916905560040160208160030104928301926001030262000aac565b505b50905062000aef919062000b84565b5090565b82805462000b019062000fa1565b90600052602060002090601f01602090048101928262000b25576000855562000b71565b82601f1062000b4057805160ff191683800117855562000b71565b8280016001018555821562000b71579182015b8281111562000b7057825182559160200191906001019062000b53565b5b50905062000b80919062000b84565b5090565b5b8082111562000b9f57600081600090555060010162000b85565b5090565b60008151905062000bb48162001046565b92915050565b60006020828403121562000bcd57600080fd5b600062000bdd8482850162000ba3565b91505092915050565b62000bf18162000f01565b82525050565b600062000c048262000e3c565b62000c10818562000e47565b935062000c2281856020860162000f6b565b62000c2d8162001035565b840191505092915050565b600062000c4760328362000e58565b91507f4552433732313a207472616e7366657220746f206e6f6e20455243373231526560008301527f63656976657220696d706c656d656e74657200000000000000000000000000006020830152604082019050919050565b600062000caf601c8362000e58565b91507f4552433732313a20746f6b656e20616c7265616479206d696e746564000000006000830152602082019050919050565b600062000cf160208362000e58565b91507f4552433732313a206d696e7420746f20746865207a65726f20616464726573736000830152602082019050919050565b62000d2f8162000f61565b82525050565b600060808201905062000d4c600083018762000be6565b62000d5b602083018662000be6565b62000d6a604083018562000d24565b818103606083015262000d7e818462000bf7565b905095945050505050565b6000602082019050818103600083015262000da48162000c38565b9050919050565b6000602082019050818103600083015262000dc68162000ca0565b9050919050565b6000602082019050818103600083015262000de88162000ce2565b9050919050565b600060808201905062000e06600083018762000d24565b62000e15602083018662000d24565b62000e24604083018562000d24565b62000e33606083018462000d24565b95945050505050565b600081519050919050565b600082825260208201905092915050565b600082825260208201905092915050565b600062000e768262000f61565b915062000e838362000f61565b9250827fffffffffffffffffffffffffffffffffffffffffffffffffffffffffffffffff0382111562000ebb5762000eba62000fd7565b5b828201905092915050565b600062000ed38262000f61565b915062000ee08362000f61565b92508282101562000ef65762000ef562000fd7565b5b828203905092915050565b600062000f0e8262000f41565b9050919050565b60007fffffffff0000000000000000000000000000000000000000000000000000000082169050919050565b600073ffffffffffffffffffffffffffffffffffffffff82169050919050565b6000819050919050565b60005b8381101562000f8b57808201518184015260208101905062000f6e565b8381111562000f9b576000848401525b50505050565b6000600282049050600182168062000fba57607f821691505b6020821081141562000fd15762000fd062001006565b5b50919050565b7f4e487b7100000000000000000000000000000000000000000000000000000000600052601160045260246000fd5b7f4e487b7100000000000000000000000000000000000000000000000000000000600052602260045260246000fd5b6000601f19601f8301169050919050565b620010518162000f15565b81146200105d57600080fd5b50565b613af980620010706000396000f3fe6080604052600436106102045760003560e01c806370a0823111610118578063b5319335116100a0578063ca3d5bba1161006f578063ca3d5bba14610720578063cd0f611b14610749578063e985e9c51461078f578063eb845c17146107cc578063f1ca9410146107f757610204565b8063b531933514610666578063b88d4fde14610691578063b9a2de3a146106ba578063c87b56dd146106e357610204565b80639979ef45116100e75780639979ef451461058e5780639d6fac6f146105aa578063a22cb465146105e7578063ae4d0ff714610610578063b047fb501461063b57610204565b806370a08231146104e65780638456cb591461052357806391e078bb1461053a57806395d89b411461056357610204565b806327d7874c1161019b57806342842e0e1161016a57806342842e0e146104155780634e0a33791461043e5780635c975abb146104675780635fd8c710146104925780636352211e146104a957610204565b806327d7874c146103815780632ba73c15146103aa5780633f4ba83a146103d3578063404d0e3e146103ea57610204565b8063081812fc116101d7578063081812fc146102c7578063095ea7b3146103045780630a0f81681461032d57806323b872dd1461035857610204565b806301ffc9a7146102095780630519ce791461024657806305e455461461027157806306fdde031461029c575b600080fd5b34801561021557600080fd5b50610230600480360381019061022b9190612ba7565b610822565b60405161023d919061338c565b60405180910390f35b34801561025257600080fd5b5061025b610904565b60405161026891906132fc565b60405180910390f35b34801561027d57600080fd5b5061028661092a565b6040516102939190613625565b60405180910390f35b3480156102a857600080fd5b506102b1610930565b6040516102be9190613443565b60405180910390f35b3480156102d357600080fd5b506102ee60048036038101906102e99190612bf9565b6109c2565b6040516102fb91906132e1565b60405180910390f35b34801561031057600080fd5b5061032b60048036038101906103269190612b6b565b610a47565b005b34801561033957600080fd5b50610342610b5f565b60405161034f91906132e1565b60405180910390f35b34801561036457600080fd5b5061037f600480360381019061037a9190612a65565b610b83565b005b34801561038d57600080fd5b506103a860048036038101906103a391906129d7565b610be3565b005b3480156103b657600080fd5b506103d160048036038101906103cc91906129d7565b610cb8565b005b3480156103df57600080fd5b506103e8610d8e565b005b3480156103f657600080fd5b506103ff610e1c565b60405161040c9190613625565b60405180910390f35b34801561042157600080fd5b5061043c60048036038101906104379190612a65565b610e22565b005b34801561044a57600080fd5b5061046560048036038101906104609190612a00565b610e42565b005b34801561047357600080fd5b5061047c610f18565b604051610489919061338c565b60405180910390f35b34801561049e57600080fd5b506104a7610f2b565b005b3480156104b557600080fd5b506104d060048036038101906104cb9190612bf9565b610ff0565b6040516104dd91906132e1565b60405180910390f35b3480156104f257600080fd5b5061050d600480360381019061050891906129d7565b6110a2565b60405161051a9190613625565b60405180910390f35b34801561052f57600080fd5b5061053861115a565b005b34801561054657600080fd5b50610561600480360381019061055c9190612c5e565b611299565b005b34801561056f57600080fd5b5061057861140a565b6040516105859190613443565b60405180910390f35b6105a860048036038101906105a39190612bf9565b61149c565b005b3480156105b657600080fd5b506105d160048036038101906105cc9190612bf9565b611538565b6040516105de9190613685565b60405180910390f35b3480156105f357600080fd5b5061060e60048036038101906106099190612b2f565b611568565b005b34801561061c57600080fd5b506106256116e9565b6040516106329190613625565b60405180910390f35b34801561064757600080fd5b506106506116ef565b60405161065d91906132e1565b60405180910390f35b34801561067257600080fd5b5061067b611715565b6040516106889190613625565b60405180910390f35b34801561069d57600080fd5b506106b860048036038101906106b39190612ab4565b61171b565b005b3480156106c657600080fd5b506106e160048036038101906106dc9190612bf9565b61177d565b005b3480156106ef57600080fd5b5061070a60048036038101906107059190612bf9565b611780565b6040516107179190613443565b60405180910390f35b34801561072c57600080fd5b5061074760048036038101906107429190612c22565b611827565b005b34801561075557600080fd5b50610770600480360381019061076b9190612bf9565b611940565b6040516107869a999897969594939291906133a7565b60405180910390f35b34801561079b57600080fd5b506107b660048036038101906107b19190612a29565b611acc565b6040516107c3919061338c565b60405180910390f35b3480156107d857600080fd5b506107e1611b60565b6040516107ee9190613625565b60405180910390f35b34801561080357600080fd5b5061080c611b66565b6040516108199190613625565b60405180910390f35b60007f80ac58cd000000000000000000000000000000000000000000000000000000007bffffffffffffffffffffffffffffffffffffffffffffffffffffffff1916827bffffffffffffffffffffffffffffffffffffffffffffffffffffffff191614806108ed57507f5b5e139f000000000000000000000000000000000000000000000000000000007bffffffffffffffffffffffffffffffffffffffffffffffffffffffff1916827bffffffffffffffffffffffffffffffffffffffffffffffffffffffff1916145b806108fd57506108fc82611b7f565b5b9050919050565b600160009054906101000a900473ffffffffffffffffffffffffffffffffffffffff1681565b60115481565b60606003805461093f906138d7565b80601f016020809104026020016040519081016040528092919081815260200182805461096b906138d7565b80156109b85780601f1061098d576101008083540402835291602001916109b8565b820191906000526020600020905b81548152906001019060200180831161099b57829003601f168201915b5050505050905090565b60006109cd82611be9565b610a0c576040517f08c379a0000000000000000000000000000000000000000000000000000000008152600401610a0390613585565b60405180910390fd5b6007600083815260200190815260200160002060009054906101000a900473ffffffffffffffffffffffffffffffffffffffff169050919050565b6000610a5282610ff0565b90508073ffffffffffffffffffffffffffffffffffffffff168373ffffffffffffffffffffffffffffffffffffffff161415610ac3576040517f08c379a0000000000000000000000000000000000000000000000000000000008152600401610aba906135e5565b60405180910390fd5b8073ffffffffffffffffffffffffffffffffffffffff16610ae2611c55565b73ffffffffffffffffffffffffffffffffffffffff161480610b115750610b1081610b0b611c55565b611acc565b5b610b50576040517f08c379a0000000000000000000000000000000000000000000000000000000008152600401610b4790613505565b60405180910390fd5b610b5a8383611c5d565b505050565b60008054906101000a900473ffffffffffffffffffffffffffffffffffffffff1681565b610b94610b8e611c55565b82611d16565b610bd3576040517f08c379a0000000000000000000000000000000000000000000000000000000008152600401610bca90613605565b60405180910390fd5b610bde838383611df4565b505050565b60008054906101000a900473ffffffffffffffffffffffffffffffffffffffff1673ffffffffffffffffffffffffffffffffffffffff163373ffffffffffffffffffffffffffffffffffffffff1614610c3b57600080fd5b600073ffffffffffffffffffffffffffffffffffffffff168173ffffffffffffffffffffffffffffffffffffffff161415610c7557600080fd5b806000806101000a81548173ffffffffffffffffffffffffffffffffffffffff021916908373ffffffffffffffffffffffffffffffffffffffff16021790555050565b60008054906101000a900473ffffffffffffffffffffffffffffffffffffffff1673ffffffffffffffffffffffffffffffffffffffff163373ffffffffffffffffffffffffffffffffffffffff1614610d1057600080fd5b600073ffffffffffffffffffffffffffffffffffffffff168173ffffffffffffffffffffffffffffffffffffffff161415610d4a57600080fd5b80600260006101000a81548173ffffffffffffffffffffffffffffffffffffffff021916908373ffffffffffffffffffffffffffffffffffffffff16021790555050565b60008054906101000a900473ffffffffffffffffffffffffffffffffffffffff1673ffffffffffffffffffffffffffffffffffffffff163373ffffffffffffffffffffffffffffffffffffffff1614610de657600080fd5b600260149054906101000a900460ff16610dff57600080fd5b6000600260146101000a81548160ff021916908315150217905550565b600e5481565b610e3d8383836040518060200160405280600081525061171b565b505050565b60008054906101000a900473ffffffffffffffffffffffffffffffffffffffff1673ffffffffffffffffffffffffffffffffffffffff163373ffffffffffffffffffffffffffffffffffffffff1614610e9a57600080fd5b600073ffffffffffffffffffffffffffffffffffffffff168173ffffffffffffffffffffffffffffffffffffffff161415610ed457600080fd5b80600160006101000a81548173ffffffffffffffffffffffffffffffffffffffff021916908373ffffffffffffffffffffffffffffffffffffffff16021790555050565b600260149054906101000a900460ff1681565b600160009054906101000a900473ffffffffffffffffffffffffffffffffffffffff1673ffffffffffffffffffffffffffffffffffffffff163373ffffffffffffffffffffffffffffffffffffffff1614610f8557600080fd5b600160009054906101000a900473ffffffffffffffffffffffffffffffffffffffff1673ffffffffffffffffffffffffffffffffffffffff166108fc479081150290604051600060405180830381858888f19350505050158015610fed573d6000803e3d6000fd5b50565b6000806005600084815260200190815260200160002060009054906101000a900473ffffffffffffffffffffffffffffffffffffffff169050600073ffffffffffffffffffffffffffffffffffffffff168173ffffffffffffffffffffffffffffffffffffffff161415611099576040517f08c379a000000000000000000000000000000000000000000000000000000000815260040161109090613545565b60405180910390fd5b80915050919050565b60008073ffffffffffffffffffffffffffffffffffffffff168273ffffffffffffffffffffffffffffffffffffffff161415611113576040517f08c379a000000000000000000000000000000000000000000000000000000000815260040161110a90613525565b60405180910390fd5b600660008373ffffffffffffffffffffffffffffffffffffffff1673ffffffffffffffffffffffffffffffffffffffff168152602001908152602001600020549050919050565b600260009054906101000a900473ffffffffffffffffffffffffffffffffffffffff1673ffffffffffffffffffffffffffffffffffffffff163373ffffffffffffffffffffffffffffffffffffffff161480611201575060008054906101000a900473ffffffffffffffffffffffffffffffffffffffff1673ffffffffffffffffffffffffffffffffffffffff163373ffffffffffffffffffffffffffffffffffffffff16145b806112595750600160009054906101000a900473ffffffffffffffffffffffffffffffffffffffff1673ffffffffffffffffffffffffffffffffffffffff163373ffffffffffffffffffffffffffffffffffffffff16145b61126257600080fd5b600260149054906101000a900460ff161561127c57600080fd5b6001600260146101000a81548160ff021916908315150217905550565b60006040518060a001604052803373ffffffffffffffffffffffffffffffffffffffff168152602001858152602001848152602001600073ffffffffffffffffffffffffffffffffffffffff168152602001838152509050600c81908060018154018082558091505060019003906000526020600020906005020160009091909190915060008201518160000160006101000a81548173ffffffffffffffffffffffffffffffffffffffff021916908373ffffffffffffffffffffffffffffffffffffffff160217905550602082015181600101556040820151816002015560608201518160030160006101000a81548173ffffffffffffffffffffffffffffffffffffffff021916908373ffffffffffffffffffffffffffffffffffffffff1602179055506080820151816004015550507fc087c4cdb16906b5ff7016a6bf927618f24ff32eb1de5e86eeaeb08b94831a6833856040516113fc929190613363565b60405180910390a150505050565b606060048054611419906138d7565b80601f0160208091040260200160405190810160405280929190818152602001828054611445906138d7565b80156114925780601f1061146757610100808354040283529160200191611492565b820191906000526020600020905b81548152906001019060200180831161147557829003601f168201915b5050505050905090565b6000600c82815481106114d8577f4e487b7100000000000000000000000000000000000000000000000000000000600052603260045260246000fd5b90600052602060002090600502019050348160020181905550338160030160006101000a81548173ffffffffffffffffffffffffffffffffffffffff021916908373ffffffffffffffffffffffffffffffffffffffff1602179055505050565b600981600e811061154857600080fd5b60089182820401919006600402915054906101000a900463ffffffff1681565b611570611c55565b73ffffffffffffffffffffffffffffffffffffffff168273ffffffffffffffffffffffffffffffffffffffff1614156115de576040517f08c379a00000000000000000000000000000000000000000000000000000000081526004016115d5906134c5565b60405180910390fd5b80600860006115eb611c55565b73ffffffffffffffffffffffffffffffffffffffff1673ffffffffffffffffffffffffffffffffffffffff16815260200190815260200160002060008473ffffffffffffffffffffffffffffffffffffffff1673ffffffffffffffffffffffffffffffffffffffff16815260200190815260200160002060006101000a81548160ff0219169083151502179055508173ffffffffffffffffffffffffffffffffffffffff16611698611c55565b73ffffffffffffffffffffffffffffffffffffffff167f17307eab39ab6107e8899845ad3d59bd9653f200f220920489ca2b5937696c31836040516116dd919061338c565b60405180910390a35050565b600f5481565b600260009054906101000a900473ffffffffffffffffffffffffffffffffffffffff1681565b600d5481565b61172c611726611c55565b83611d16565b61176b576040517f08c379a000000000000000000000000000000000000000000000000000000000815260040161176290613605565b60405180910390fd5b61177784848484612050565b50505050565b50565b606061178b82611be9565b6117ca576040517f08c379a00000000000000000000000000000000000000000000000000000000081526004016117c1906135c5565b60405180910390fd5b60006117d46120ac565b905060008151116117f4576040518060200160405280600081525061181f565b806117fe846120c3565b60405160200161180f9291906132bd565b6040516020818303038152906040525b915050919050565b600260009054906101000a900473ffffffffffffffffffffffffffffffffffffffff1673ffffffffffffffffffffffffffffffffffffffff163373ffffffffffffffffffffffffffffffffffffffff161461188157600080fd5b600073ffffffffffffffffffffffffffffffffffffffff168173ffffffffffffffffffffffffffffffffffffffff1614156118dc57600260009054906101000a900473ffffffffffffffffffffffffffffffffffffffff1690505b600d54601154106118ec57600080fd5b600e54601254106118fc57600080fd5b6011600081548092919061190f90613909565b91905055506012600081548092919061192790613909565b919050555061193b60008060008585612270565b505050565b6000806000806000806000806000806000600b8c8154811061198b577f4e487b7100000000000000000000000000000000000000000000000000000000600052603260045260246000fd5b9060005260206000209060020201905060008160010160189054906101000a900463ffffffff1663ffffffff1614159a50428160010160089054906101000a900467ffffffffffffffff1667ffffffffffffffff161115995080600101601c9054906101000a900461ffff1661ffff1698508060010160089054906101000a900467ffffffffffffffff1667ffffffffffffffff1697508060010160189054906101000a900463ffffffff1663ffffffff1696508060010160009054906101000a900467ffffffffffffffff1667ffffffffffffffff1695508060010160109054906101000a900463ffffffff1663ffffffff1694508060010160149054906101000a900463ffffffff1663ffffffff16935080600101601e9054906101000a900461ffff1661ffff16925080600001549150509193959799509193959799565b6000600860008473ffffffffffffffffffffffffffffffffffffffff1673ffffffffffffffffffffffffffffffffffffffff16815260200190815260200160002060008373ffffffffffffffffffffffffffffffffffffffff1673ffffffffffffffffffffffffffffffffffffffff16815260200190815260200160002060009054906101000a900460ff16905092915050565b60105481565b60125481565b600080823b905060008111915050919050565b60007f01ffc9a7000000000000000000000000000000000000000000000000000000007bffffffffffffffffffffffffffffffffffffffffffffffffffffffff1916827bffffffffffffffffffffffffffffffffffffffffffffffffffffffff1916149050919050565b60008073ffffffffffffffffffffffffffffffffffffffff166005600084815260200190815260200160002060009054906101000a900473ffffffffffffffffffffffffffffffffffffffff1673ffffffffffffffffffffffffffffffffffffffff1614159050919050565b600033905090565b816007600083815260200190815260200160002060006101000a81548173ffffffffffffffffffffffffffffffffffffffff021916908373ffffffffffffffffffffffffffffffffffffffff160217905550808273ffffffffffffffffffffffffffffffffffffffff16611cd083610ff0565b73ffffffffffffffffffffffffffffffffffffffff167f8c5be1e5ebec7d5bd14f71427d1e84f3dd0314c0f7b2291e5b200ac8c7c3b92560405160405180910390a45050565b6000611d2182611be9565b611d60576040517f08c379a0000000000000000000000000000000000000000000000000000000008152600401611d57906134e5565b60405180910390fd5b6000611d6b83610ff0565b90508073ffffffffffffffffffffffffffffffffffffffff168473ffffffffffffffffffffffffffffffffffffffff161480611dda57508373ffffffffffffffffffffffffffffffffffffffff16611dc2846109c2565b73ffffffffffffffffffffffffffffffffffffffff16145b80611deb5750611dea8185611acc565b5b91505092915050565b8273ffffffffffffffffffffffffffffffffffffffff16611e1482610ff0565b73ffffffffffffffffffffffffffffffffffffffff1614611e6a576040517f08c379a0000000000000000000000000000000000000000000000000000000008152600401611e61906135a5565b60405180910390fd5b600073ffffffffffffffffffffffffffffffffffffffff168273ffffffffffffffffffffffffffffffffffffffff161415611eda576040517f08c379a0000000000000000000000000000000000000000000000000000000008152600401611ed1906134a5565b60405180910390fd5b611ee583838361250e565b611ef0600082611c5d565b6001600660008573ffffffffffffffffffffffffffffffffffffffff1673ffffffffffffffffffffffffffffffffffffffff1681526020019081526020016000206000828254611f4091906137cb565b925050819055506001600660008473ffffffffffffffffffffffffffffffffffffffff1673ffffffffffffffffffffffffffffffffffffffff1681526020019081526020016000206000828254611f979190613744565b92505081905550816005600083815260200190815260200160002060006101000a81548173ffffffffffffffffffffffffffffffffffffffff021916908373ffffffffffffffffffffffffffffffffffffffff160217905550808273ffffffffffffffffffffffffffffffffffffffff168473ffffffffffffffffffffffffffffffffffffffff167fddf252ad1be2c89b69c2b068fc378daa952ba7f163c4a11628f55a4df523b3ef60405160405180910390a4505050565b61205b848484611df4565b61206784848484612513565b6120a6576040517f08c379a000000000000000000000000000000000000000000000000000000000815260040161209d90613465565b60405180910390fd5b50505050565b606060405180602001604052806000815250905090565b6060600082141561210b576040518060400160405280600181526020017f3000000000000000000000000000000000000000000000000000000000000000815250905061226b565b600082905060005b6000821461213d57808061212690613909565b915050600a82612136919061379a565b9150612113565b60008167ffffffffffffffff81111561217f577f4e487b7100000000000000000000000000000000000000000000000000000000600052604160045260246000fd5b6040519080825280601f01601f1916602001820160405280156121b15781602001600182028036833780820191505090505b5090505b60008514612264576001826121ca91906137cb565b9150600a856121d99190613952565b60306121e59190613744565b60f81b818381518110612221577f4e487b7100000000000000000000000000000000000000000000000000000000600052603260045260246000fd5b60200101907effffffffffffffffffffffffffffffffffffffffffffffffffffffffffffff1916908160001a905350600a8561225d919061379a565b94506121b5565b8093505050505b919050565b600063ffffffff86111561228357600080fd5b63ffffffff85111561229457600080fd5b61ffff8411156122a357600080fd5b60006040518061010001604052808581526020014267ffffffffffffffff168152602001600067ffffffffffffffff1681526020018863ffffffff1681526020018763ffffffff168152602001600063ffffffff168152602001600061ffff1681526020018661ffff168152509050600b8190806001815401808255809150506001900390600052602060002090600202016000909190919091506000820151816000015560208201518160010160006101000a81548167ffffffffffffffff021916908367ffffffffffffffff16021790555060408201518160010160086101000a81548167ffffffffffffffff021916908367ffffffffffffffff16021790555060608201518160010160106101000a81548163ffffffff021916908363ffffffff16021790555060808201518160010160146101000a81548163ffffffff021916908363ffffffff16021790555060a08201518160010160186101000a81548163ffffffff021916908363ffffffff16021790555060c082015181600101601c6101000a81548161ffff021916908361ffff16021790555060e082015181600101601e6101000a81548161ffff021916908361ffff160217905550505060006001600b8054905061247791906137cb565b905063ffffffff81111561248a57600080fd5b8373ffffffffffffffffffffffffffffffffffffffff167f0a5311bd2a6608f08a180df2ee7c5946819a649b204b554bb8e39825b2c50ad582846060015163ffffffff16856080015163ffffffff1686600001516040516124ee9493929190613640565b60405180910390a261250084826126aa565b809250505095945050505050565b505050565b60006125348473ffffffffffffffffffffffffffffffffffffffff16611b6c565b1561269d578373ffffffffffffffffffffffffffffffffffffffff1663150b7a0261255d611c55565b8786866040518563ffffffff1660e01b815260040161257f9493929190613317565b602060405180830381600087803b15801561259957600080fd5b505af19250505080156125ca57506040513d601f19601f820116820180604052508101906125c79190612bd0565b60015b61264d573d80600081146125fa576040519150601f19603f3d011682016040523d82523d6000602084013e6125ff565b606091505b50600081511415612645576040517f08c379a000000000000000000000000000000000000000000000000000000000815260040161263c90613465565b60405180910390fd5b805181602001fd5b63150b7a0260e01b7bffffffffffffffffffffffffffffffffffffffffffffffffffffffff1916817bffffffffffffffffffffffffffffffffffffffffffffffffffffffff1916149150506126a2565b600190505b949350505050565b6126c48282604051806020016040528060008152506126c8565b5050565b6126d28383612723565b6126df6000848484612513565b61271e576040517f08c379a000000000000000000000000000000000000000000000000000000000815260040161271590613465565b60405180910390fd5b505050565b600073ffffffffffffffffffffffffffffffffffffffff168273ffffffffffffffffffffffffffffffffffffffff161415612793576040517f08c379a000000000000000000000000000000000000000000000000000000000815260040161278a90613565565b60405180910390fd5b61279c81611be9565b156127dc576040517f08c379a00000000000000000000000000000000000000000000000000000000081526004016127d390613485565b60405180910390fd5b6127e86000838361250e565b6001600660008473ffffffffffffffffffffffffffffffffffffffff1673ffffffffffffffffffffffffffffffffffffffff16815260200190815260200160002060008282546128389190613744565b92505081905550816005600083815260200190815260200160002060006101000a81548173ffffffffffffffffffffffffffffffffffffffff021916908373ffffffffffffffffffffffffffffffffffffffff160217905550808273ffffffffffffffffffffffffffffffffffffffff16600073ffffffffffffffffffffffffffffffffffffffff167fddf252ad1be2c89b69c2b068fc378daa952ba7f163c4a11628f55a4df523b3ef60405160405180910390a45050565b60006129046128ff846136d1565b6136a0565b90508281526020810184848401111561291c57600080fd5b612927848285613895565b509392505050565b60008135905061293e81613a50565b92915050565b60008135905061295381613a67565b92915050565b60008135905061296881613a7e565b92915050565b60008135905061297d81613a95565b92915050565b60008151905061299281613a95565b92915050565b600082601f8301126129a957600080fd5b81356129b98482602086016128f1565b91505092915050565b6000813590506129d181613aac565b92915050565b6000602082840312156129e957600080fd5b60006129f78482850161292f565b91505092915050565b600060208284031215612a1257600080fd5b6000612a2084828501612944565b91505092915050565b60008060408385031215612a3c57600080fd5b6000612a4a8582860161292f565b9250506020612a5b8582860161292f565b9150509250929050565b600080600060608486031215612a7a57600080fd5b6000612a888682870161292f565b9350506020612a998682870161292f565b9250506040612aaa868287016129c2565b9150509250925092565b60008060008060808587031215612aca57600080fd5b6000612ad88782880161292f565b9450506020612ae98782880161292f565b9350506040612afa878288016129c2565b925050606085013567ffffffffffffffff811115612b1757600080fd5b612b2387828801612998565b91505092959194509250565b60008060408385031215612b4257600080fd5b6000612b508582860161292f565b9250506020612b6185828601612959565b9150509250929050565b60008060408385031215612b7e57600080fd5b6000612b8c8582860161292f565b9250506020612b9d858286016129c2565b9150509250929050565b600060208284031215612bb957600080fd5b6000612bc78482850161296e565b91505092915050565b600060208284031215612be257600080fd5b6000612bf084828501612983565b91505092915050565b600060208284031215612c0b57600080fd5b6000612c19848285016129c2565b91505092915050565b60008060408385031215612c3557600080fd5b6000612c43858286016129c2565b9250506020612c548582860161292f565b9150509250929050565b600080600060608486031215612c7357600080fd5b6000612c81868287016129c2565b9350506020612c92868287016129c2565b9250506040612ca3868287016129c2565b9150509250925092565b612cb681613811565b82525050565b612cc5816137ff565b82525050565b612cd481613823565b82525050565b6000612ce582613701565b612cef8185613717565b9350612cff8185602086016138a4565b612d0881613a3f565b840191505092915050565b6000612d1e8261370c565b612d288185613728565b9350612d388185602086016138a4565b612d4181613a3f565b840191505092915050565b6000612d578261370c565b612d618185613739565b9350612d718185602086016138a4565b80840191505092915050565b6000612d8a603283613728565b91507f4552433732313a207472616e7366657220746f206e6f6e20455243373231526560008301527f63656976657220696d706c656d656e74657200000000000000000000000000006020830152604082019050919050565b6000612df0601c83613728565b91507f4552433732313a20746f6b656e20616c7265616479206d696e746564000000006000830152602082019050919050565b6000612e30602483613728565b91507f4552433732313a207472616e7366657220746f20746865207a65726f2061646460008301527f72657373000000000000000000000000000000000000000000000000000000006020830152604082019050919050565b6000612e96601983613728565b91507f4552433732313a20617070726f766520746f2063616c6c6572000000000000006000830152602082019050919050565b6000612ed6602c83613728565b91507f4552433732313a206f70657261746f7220717565727920666f72206e6f6e657860008301527f697374656e7420746f6b656e00000000000000000000000000000000000000006020830152604082019050919050565b6000612f3c603883613728565b91507f4552433732313a20617070726f76652063616c6c6572206973206e6f74206f7760008301527f6e6572206e6f7220617070726f76656420666f7220616c6c00000000000000006020830152604082019050919050565b6000612fa2602a83613728565b91507f4552433732313a2062616c616e636520717565727920666f7220746865207a6560008301527f726f2061646472657373000000000000000000000000000000000000000000006020830152604082019050919050565b6000613008602983613728565b91507f4552433732313a206f776e657220717565727920666f72206e6f6e657869737460008301527f656e7420746f6b656e00000000000000000000000000000000000000000000006020830152604082019050919050565b600061306e602083613728565b91507f4552433732313a206d696e7420746f20746865207a65726f20616464726573736000830152602082019050919050565b60006130ae602c83613728565b91507f4552433732313a20617070726f76656420717565727920666f72206e6f6e657860008301527f697374656e7420746f6b656e00000000000000000000000000000000000000006020830152604082019050919050565b6000613114602983613728565b91507f4552433732313a207472616e73666572206f6620746f6b656e2074686174206960008301527f73206e6f74206f776e00000000000000000000000000000000000000000000006020830152604082019050919050565b600061317a602f83613728565b91507f4552433732314d657461646174613a2055524920717565727920666f72206e6f60008301527f6e6578697374656e7420746f6b656e00000000000000000000000000000000006020830152604082019050919050565b60006131e0602183613728565b91507f4552433732313a20617070726f76616c20746f2063757272656e74206f776e6560008301527f72000000000000000000000000000000000000000000000000000000000000006020830152604082019050919050565b6000613246603183613728565b91507f4552433732313a207472616e736665722063616c6c6572206973206e6f74206f60008301527f776e6572206e6f7220617070726f7665640000000000000000000000000000006020830152604082019050919050565b6132a88161387b565b82525050565b6132b781613885565b82525050565b60006132c98285612d4c565b91506132d58284612d4c565b91508190509392505050565b60006020820190506132f66000830184612cbc565b92915050565b60006020820190506133116000830184612cad565b92915050565b600060808201905061332c6000830187612cbc565b6133396020830186612cbc565b613346604083018561329f565b81810360608301526133588184612cda565b905095945050505050565b60006040820190506133786000830185612cbc565b613385602083018461329f565b9392505050565b60006020820190506133a16000830184612ccb565b92915050565b6000610140820190506133bd600083018d612ccb565b6133ca602083018c612ccb565b6133d7604083018b61329f565b6133e4606083018a61329f565b6133f1608083018961329f565b6133fe60a083018861329f565b61340b60c083018761329f565b61341860e083018661329f565b61342661010083018561329f565b61343461012083018461329f565b9b9a5050505050505050505050565b6000602082019050818103600083015261345d8184612d13565b905092915050565b6000602082019050818103600083015261347e81612d7d565b9050919050565b6000602082019050818103600083015261349e81612de3565b9050919050565b600060208201905081810360008301526134be81612e23565b9050919050565b600060208201905081810360008301526134de81612e89565b9050919050565b600060208201905081810360008301526134fe81612ec9565b9050919050565b6000602082019050818103600083015261351e81612f2f565b9050919050565b6000602082019050818103600083015261353e81612f95565b9050919050565b6000602082019050818103600083015261355e81612ffb565b9050919050565b6000602082019050818103600083015261357e81613061565b9050919050565b6000602082019050818103600083015261359e816130a1565b9050919050565b600060208201905081810360008301526135be81613107565b9050919050565b600060208201905081810360008301526135de8161316d565b9050919050565b600060208201905081810360008301526135fe816131d3565b9050919050565b6000602082019050818103600083015261361e81613239565b9050919050565b600060208201905061363a600083018461329f565b92915050565b6000608082019050613655600083018761329f565b613662602083018661329f565b61366f604083018561329f565b61367c606083018461329f565b95945050505050565b600060208201905061369a60008301846132ae565b92915050565b6000604051905081810181811067ffffffffffffffff821117156136c7576136c6613a10565b5b8060405250919050565b600067ffffffffffffffff8211156136ec576136eb613a10565b5b601f19601f8301169050602081019050919050565b600081519050919050565b600081519050919050565b600082825260208201905092915050565b600082825260208201905092915050565b600081905092915050565b600061374f8261387b565b915061375a8361387b565b9250827fffffffffffffffffffffffffffffffffffffffffffffffffffffffffffffffff0382111561378f5761378e613983565b5b828201905092915050565b60006137a58261387b565b91506137b08361387b565b9250826137c0576137bf6139b2565b5b828204905092915050565b60006137d68261387b565b91506137e18361387b565b9250828210156137f4576137f3613983565b5b828203905092915050565b600061380a8261385b565b9050919050565b600061381c8261385b565b9050919050565b60008115159050919050565b60007fffffffff0000000000000000000000000000000000000000000000000000000082169050919050565b600073ffffffffffffffffffffffffffffffffffffffff82169050919050565b6000819050919050565b600063ffffffff82169050919050565b82818337600083830152505050565b60005b838110156138c25780820151818401526020810190506138a7565b838111156138d1576000848401525b50505050565b600060028204905060018216806138ef57607f821691505b60208210811415613903576139026139e1565b5b50919050565b60006139148261387b565b91507fffffffffffffffffffffffffffffffffffffffffffffffffffffffffffffffff82141561394757613946613983565b5b600182019050919050565b600061395d8261387b565b91506139688361387b565b925082613978576139776139b2565b5b828206905092915050565b7f4e487b7100000000000000000000000000000000000000000000000000000000600052601160045260246000fd5b7f4e487b7100000000000000000000000000000000000000000000000000000000600052601260045260246000fd5b7f4e487b7100000000000000000000000000000000000000000000000000000000600052602260045260246000fd5b7f4e487b7100000000000000000000000000000000000000000000000000000000600052604160045260246000fd5b6000601f19601f8301169050919050565b613a59816137ff565b8114613a6457600080fd5b50565b613a7081613811565b8114613a7b57600080fd5b50565b613a8781613823565b8114613a9257600080fd5b50565b613a9e8161382f565b8114613aa957600080fd5b50565b613ab58161387b565b8114613ac057600080fd5b5056fea2646970667358221220566efe612731b99853dc6b4311710960abef70aa1e4c127f0157e5ec8ea282b864736f6c63430008000033",
  "immutableReferences": {},
  "source": "// SPDX-License-Identifier: MIT\npragma solidity >=0.4.22 <0.9.0;\n\nimport \"./GizzyMinting.sol\";\n\ncontract GizzyCore is GizzyMinting{\n  constructor() {\n    paused = true;\n    ceoAddress = msg.sender;\n    cooAddress = msg.sender;\n    _createGizzy(0,0,0,uint256(0),address(0));\n  }\n\n  function getGizzy(uint256 _id)\n    public\n    view\n    returns (\n      bool isGestating,\n      bool isReady,\n      uint256 cooldownIndex,\n      uint256 nextActionAt,\n      uint256 siringWithId,\n      uint256 birthTime,\n      uint256 matronId,\n      uint256 sireId,\n      uint256 generation,\n      uint256 genes\n    ) {\n      Gizzy storage giz = gizzies[_id];\n\n      isGestating = (giz.siringWithId != 0);\n      isReady = (giz.cooldownEndTime <= block.timestamp);\n      cooldownIndex = uint256(giz.cooldownIndex);\n      nextActionAt = uint256(giz.cooldownEndTime);\n      siringWithId = uint256(giz.siringWithId);\n      birthTime = uint256(giz.birthTime);\n      matronId = uint256(giz.matronId);\n      sireId = uint256(giz.sireId);\n      generation = uint256(giz.generation);\n      genes = giz.genes;\n    }\n\n}\n",
  "sourcePath": "/home/imtiaz/Desktop/baeinnovations/gizzy-smartcontracts/contracts/GizzyCore.sol",
  "compiler": {
    "name": "solc",
    "version": "0.8.0+commit.c7dfd78e.Emscripten.clang"
  },
  "schemaVersion": "3.4.0",
  "updatedAt": "2021-05-31T07:33:49.716Z",
  "devdoc": {
    "kind": "dev",
    "methods": {
      "approve(address,uint256)": {
        "details": "See {IERC721-approve}."
      },
      "balanceOf(address)": {
        "details": "See {IERC721-balanceOf}."
      },
      "getApproved(uint256)": {
        "details": "See {IERC721-getApproved}."
      },
      "isApprovedForAll(address,address)": {
        "details": "See {IERC721-isApprovedForAll}."
      },
      "name()": {
        "details": "See {IERC721Metadata-name}."
      },
      "ownerOf(uint256)": {
        "details": "See {IERC721-ownerOf}."
      },
      "safeTransferFrom(address,address,uint256)": {
        "details": "See {IERC721-safeTransferFrom}."
      },
      "safeTransferFrom(address,address,uint256,bytes)": {
        "details": "See {IERC721-safeTransferFrom}."
      },
      "setApprovalForAll(address,bool)": {
        "details": "See {IERC721-setApprovalForAll}."
      },
      "supportsInterface(bytes4)": {
        "details": "See {IERC165-supportsInterface}."
      },
      "symbol()": {
        "details": "See {IERC721Metadata-symbol}."
      },
      "tokenURI(uint256)": {
        "details": "See {IERC721Metadata-tokenURI}."
      },
      "transferFrom(address,address,uint256)": {
        "details": "See {IERC721-transferFrom}."
      }
    },
    "version": 1
  },
  "userdoc": {
    "kind": "user",
    "methods": {},
    "version": 1
  }
}