{
  "contractName": "GizzyWireframe",
  "abi": [
    {
      "inputs": [],
      "stateMutability": "nonpayable",
      "type": "constructor"
    },
    {
      "anonymous": false,
      "inputs": [
        {
          "indexed": true,
          "internalType": "address",
          "name": "owner",
          "type": "address"
        },
        {
          "indexed": true,
          "internalType": "address",
          "name": "approved",
          "type": "address"
        },
        {
          "indexed": true,
          "internalType": "uint256",
          "name": "tokenId",
          "type": "uint256"
        }
      ],
      "name": "Approval",
      "type": "event"
    },
    {
      "anonymous": false,
      "inputs": [
        {
          "indexed": true,
          "internalType": "address",
          "name": "owner",
          "type": "address"
        },
        {
          "indexed": true,
          "internalType": "address",
          "name": "operator",
          "type": "address"
        },
        {
          "indexed": false,
          "internalType": "bool",
          "name": "approved",
          "type": "bool"
        }
      ],
      "name": "ApprovalForAll",
      "type": "event"
    },
    {
      "anonymous": false,
      "inputs": [
        {
          "indexed": false,
          "internalType": "address",
          "name": "owner",
          "type": "address"
        },
        {
          "indexed": false,
          "internalType": "uint256",
          "name": "gizzyId",
          "type": "uint256"
        }
      ],
      "name": "AuctionStarted",
      "type": "event"
    },
    {
      "anonymous": false,
      "inputs": [
        {
          "indexed": false,
          "internalType": "address",
          "name": "bidder",
          "type": "address"
        },
        {
          "indexed": false,
          "internalType": "uint256",
          "name": "auctionId",
          "type": "uint256"
        },
        {
          "indexed": false,
          "internalType": "uint256",
          "name": "amount",
          "type": "uint256"
        }
      ],
      "name": "Bid",
      "type": "event"
    },
    {
      "anonymous": false,
      "inputs": [
        {
          "indexed": true,
          "internalType": "address",
          "name": "owner",
          "type": "address"
        },
        {
          "indexed": false,
          "internalType": "uint256",
          "name": "kittyId",
          "type": "uint256"
        },
        {
          "indexed": false,
          "internalType": "uint256",
          "name": "matronId",
          "type": "uint256"
        },
        {
          "indexed": false,
          "internalType": "uint256",
          "name": "sireId",
          "type": "uint256"
        },
        {
          "indexed": false,
          "internalType": "uint256",
          "name": "genes",
          "type": "uint256"
        }
      ],
      "name": "Birth",
      "type": "event"
    },
    {
      "anonymous": false,
      "inputs": [
        {
          "indexed": false,
          "internalType": "uint256",
          "name": "matronId",
          "type": "uint256"
        },
        {
          "indexed": false,
          "internalType": "uint256",
          "name": "sireId",
          "type": "uint256"
        },
        {
          "indexed": false,
          "internalType": "address",
          "name": "owner",
          "type": "address"
        }
      ],
      "name": "Breed",
      "type": "event"
    },
    {
      "anonymous": false,
      "inputs": [
        {
          "indexed": true,
          "internalType": "address",
          "name": "from",
          "type": "address"
        },
        {
          "indexed": true,
          "internalType": "address",
          "name": "to",
          "type": "address"
        },
        {
          "indexed": true,
          "internalType": "uint256",
          "name": "tokenId",
          "type": "uint256"
        }
      ],
      "name": "Transfer",
      "type": "event"
    },
    {
      "inputs": [
        {
          "internalType": "address",
          "name": "to",
          "type": "address"
        },
        {
          "internalType": "uint256",
          "name": "tokenId",
          "type": "uint256"
        }
      ],
      "name": "approve",
      "outputs": [],
      "stateMutability": "nonpayable",
      "type": "function"
    },
    {
      "inputs": [
        {
          "internalType": "uint256",
          "name": "",
          "type": "uint256"
        }
      ],
      "name": "auctions",
      "outputs": [
        {
          "internalType": "address",
          "name": "owner",
          "type": "address"
        },
        {
          "internalType": "uint256",
          "name": "gizzyId",
          "type": "uint256"
        },
        {
          "internalType": "uint256",
          "name": "highestBid",
          "type": "uint256"
        },
        {
          "internalType": "address payable",
          "name": "highestBidder",
          "type": "address"
        },
        {
          "internalType": "uint256",
          "name": "duration",
          "type": "uint256"
        },
        {
          "internalType": "uint256",
          "name": "creationTime",
          "type": "uint256"
        },
        {
          "internalType": "bool",
          "name": "auctionEnded",
          "type": "bool"
        }
      ],
      "stateMutability": "view",
      "type": "function",
      "constant": true
    },
    {
      "inputs": [
        {
          "internalType": "address",
          "name": "owner",
          "type": "address"
        }
      ],
      "name": "balanceOf",
      "outputs": [
        {
          "internalType": "uint256",
          "name": "",
          "type": "uint256"
        }
      ],
      "stateMutability": "view",
      "type": "function",
      "constant": true
    },
    {
      "inputs": [
        {
          "internalType": "uint256",
          "name": "",
          "type": "uint256"
        }
      ],
      "name": "cooldowns",
      "outputs": [
        {
          "internalType": "uint32",
          "name": "",
          "type": "uint32"
        }
      ],
      "stateMutability": "view",
      "type": "function",
      "constant": true
    },
    {
      "inputs": [],
      "name": "gen0AuctionDuration",
      "outputs": [
        {
          "internalType": "uint256",
          "name": "",
          "type": "uint256"
        }
      ],
      "stateMutability": "view",
      "type": "function",
      "constant": true
    },
    {
      "inputs": [],
      "name": "gen0CreatedCount",
      "outputs": [
        {
          "internalType": "uint256",
          "name": "",
          "type": "uint256"
        }
      ],
      "stateMutability": "view",
      "type": "function",
      "constant": true
    },
    {
      "inputs": [],
      "name": "gen0CreationLimit",
      "outputs": [
        {
          "internalType": "uint256",
          "name": "",
          "type": "uint256"
        }
      ],
      "stateMutability": "view",
      "type": "function",
      "constant": true
    },
    {
      "inputs": [],
      "name": "gen0StartingPrice",
      "outputs": [
        {
          "internalType": "uint256",
          "name": "",
          "type": "uint256"
        }
      ],
      "stateMutability": "view",
      "type": "function",
      "constant": true
    },
    {
      "inputs": [
        {
          "internalType": "uint256",
          "name": "tokenId",
          "type": "uint256"
        }
      ],
      "name": "getApproved",
      "outputs": [
        {
          "internalType": "address",
          "name": "",
          "type": "address"
        }
      ],
      "stateMutability": "view",
      "type": "function",
      "constant": true
    },
    {
      "inputs": [
        {
          "internalType": "uint256",
          "name": "",
          "type": "uint256"
        }
      ],
      "name": "gizzyToAuction",
      "outputs": [
        {
          "internalType": "uint256",
          "name": "",
          "type": "uint256"
        }
      ],
      "stateMutability": "view",
      "type": "function",
      "constant": true
    },
    {
      "inputs": [
        {
          "internalType": "address",
          "name": "owner",
          "type": "address"
        },
        {
          "internalType": "address",
          "name": "operator",
          "type": "address"
        }
      ],
      "name": "isApprovedForAll",
      "outputs": [
        {
          "internalType": "bool",
          "name": "",
          "type": "bool"
        }
      ],
      "stateMutability": "view",
      "type": "function",
      "constant": true
    },
    {
      "inputs": [],
      "name": "name",
      "outputs": [
        {
          "internalType": "string",
          "name": "",
          "type": "string"
        }
      ],
      "stateMutability": "view",
      "type": "function",
      "constant": true
    },
    {
      "inputs": [
        {
          "internalType": "uint256",
          "name": "tokenId",
          "type": "uint256"
        }
      ],
      "name": "ownerOf",
      "outputs": [
        {
          "internalType": "address",
          "name": "",
          "type": "address"
        }
      ],
      "stateMutability": "view",
      "type": "function",
      "constant": true
    },
    {
      "inputs": [],
      "name": "promoCreatedCount",
      "outputs": [
        {
          "internalType": "uint256",
          "name": "",
          "type": "uint256"
        }
      ],
      "stateMutability": "view",
      "type": "function",
      "constant": true
    },
    {
      "inputs": [],
      "name": "promoCreationLimit",
      "outputs": [
        {
          "internalType": "uint256",
          "name": "",
          "type": "uint256"
        }
      ],
      "stateMutability": "view",
      "type": "function",
      "constant": true
    },
    {
      "inputs": [
        {
          "internalType": "address",
          "name": "from",
          "type": "address"
        },
        {
          "internalType": "address",
          "name": "to",
          "type": "address"
        },
        {
          "internalType": "uint256",
          "name": "tokenId",
          "type": "uint256"
        }
      ],
      "name": "safeTransferFrom",
      "outputs": [],
      "stateMutability": "nonpayable",
      "type": "function"
    },
    {
      "inputs": [
        {
          "internalType": "address",
          "name": "from",
          "type": "address"
        },
        {
          "internalType": "address",
          "name": "to",
          "type": "address"
        },
        {
          "internalType": "uint256",
          "name": "tokenId",
          "type": "uint256"
        },
        {
          "internalType": "bytes",
          "name": "_data",
          "type": "bytes"
        }
      ],
      "name": "safeTransferFrom",
      "outputs": [],
      "stateMutability": "nonpayable",
      "type": "function"
    },
    {
      "inputs": [
        {
          "internalType": "address",
          "name": "operator",
          "type": "address"
        },
        {
          "internalType": "bool",
          "name": "approved",
          "type": "bool"
        }
      ],
      "name": "setApprovalForAll",
      "outputs": [],
      "stateMutability": "nonpayable",
      "type": "function"
    },
    {
      "inputs": [
        {
          "internalType": "bytes4",
          "name": "interfaceId",
          "type": "bytes4"
        }
      ],
      "name": "supportsInterface",
      "outputs": [
        {
          "internalType": "bool",
          "name": "",
          "type": "bool"
        }
      ],
      "stateMutability": "view",
      "type": "function",
      "constant": true
    },
    {
      "inputs": [],
      "name": "symbol",
      "outputs": [
        {
          "internalType": "string",
          "name": "",
          "type": "string"
        }
      ],
      "stateMutability": "view",
      "type": "function",
      "constant": true
    },
    {
      "inputs": [
        {
          "internalType": "uint256",
          "name": "tokenId",
          "type": "uint256"
        }
      ],
      "name": "tokenURI",
      "outputs": [
        {
          "internalType": "string",
          "name": "",
          "type": "string"
        }
      ],
      "stateMutability": "view",
      "type": "function",
      "constant": true
    },
    {
      "inputs": [
        {
          "internalType": "address",
          "name": "from",
          "type": "address"
        },
        {
          "internalType": "address",
          "name": "to",
          "type": "address"
        },
        {
          "internalType": "uint256",
          "name": "tokenId",
          "type": "uint256"
        }
      ],
      "name": "transferFrom",
      "outputs": [],
      "stateMutability": "nonpayable",
      "type": "function"
    },
    {
      "inputs": [
        {
          "internalType": "uint256",
          "name": "_auctionId",
          "type": "uint256"
        }
      ],
      "name": "getAuction",
      "outputs": [
        {
          "internalType": "address",
          "name": "owner",
          "type": "address"
        },
        {
          "internalType": "uint256",
          "name": "gizzyId",
          "type": "uint256"
        },
        {
          "internalType": "uint256",
          "name": "highestBid",
          "type": "uint256"
        },
        {
          "internalType": "address payable",
          "name": "highestBidder",
          "type": "address"
        },
        {
          "internalType": "uint256",
          "name": "duration",
          "type": "uint256"
        },
        {
          "internalType": "uint256",
          "name": "creationTime",
          "type": "uint256"
        },
        {
          "internalType": "bool",
          "name": "auctionEnded",
          "type": "bool"
        }
      ],
      "stateMutability": "view",
      "type": "function",
      "constant": true
    },
    {
      "inputs": [
        {
          "internalType": "uint256",
          "name": "_gizzyId",
          "type": "uint256"
        },
        {
          "internalType": "uint256",
          "name": "_startingPrice",
          "type": "uint256"
        },
        {
          "internalType": "uint256",
          "name": "_duration",
          "type": "uint256"
        }
      ],
      "name": "startAuction",
      "outputs": [],
      "stateMutability": "nonpayable",
      "type": "function"
    },
    {
      "inputs": [
        {
          "internalType": "uint256",
          "name": "_auctionId",
          "type": "uint256"
        }
      ],
      "name": "placeBid",
      "outputs": [],
      "stateMutability": "payable",
      "type": "function",
      "payable": true
    },
    {
      "inputs": [
        {
          "internalType": "uint256",
          "name": "_auctionId",
          "type": "uint256"
        }
      ],
      "name": "endAuction",
      "outputs": [],
      "stateMutability": "nonpayable",
      "type": "function"
    },
    {
      "inputs": [
        {
          "internalType": "uint256",
          "name": "_matronId",
          "type": "uint256"
        },
        {
          "internalType": "uint256",
          "name": "_sireId",
          "type": "uint256"
        }
      ],
      "name": "BreedGizzy",
      "outputs": [],
      "stateMutability": "payable",
      "type": "function",
      "payable": true
    },
    {
      "inputs": [
        {
          "internalType": "address",
          "name": "_owner",
          "type": "address"
        },
        {
          "internalType": "uint256",
          "name": "_genes",
          "type": "uint256"
        },
        {
          "internalType": "uint32",
          "name": "_matronId",
          "type": "uint32"
        },
        {
          "internalType": "uint32",
          "name": "_sireId",
          "type": "uint32"
        },
        {
          "internalType": "uint16",
          "name": "_generation",
          "type": "uint16"
        }
      ],
      "name": "GizzyBirth",
      "outputs": [],
      "stateMutability": "nonpayable",
      "type": "function"
    },
    {
      "inputs": [
        {
          "internalType": "uint256",
          "name": "_genes",
          "type": "uint256"
        },
        {
          "internalType": "address",
          "name": "_owner",
          "type": "address"
        }
      ],
      "name": "createPromoGizzy",
      "outputs": [],
      "stateMutability": "nonpayable",
      "type": "function"
    },
    {
      "inputs": [
        {
          "internalType": "uint256",
          "name": "_id",
          "type": "uint256"
        }
      ],
      "name": "getGizzy",
      "outputs": [
        {
          "internalType": "bool",
          "name": "isGestating",
          "type": "bool"
        },
        {
          "internalType": "bool",
          "name": "isReady",
          "type": "bool"
        },
        {
          "internalType": "uint256",
          "name": "cooldownIndex",
          "type": "uint256"
        },
        {
          "internalType": "uint256",
          "name": "nextActionAt",
          "type": "uint256"
        },
        {
          "internalType": "uint256",
          "name": "siringWithId",
          "type": "uint256"
        },
        {
          "internalType": "uint256",
          "name": "birthTime",
          "type": "uint256"
        },
        {
          "internalType": "uint256",
          "name": "matronId",
          "type": "uint256"
        },
        {
          "internalType": "uint256",
          "name": "sireId",
          "type": "uint256"
        },
        {
          "internalType": "uint256",
          "name": "generation",
          "type": "uint256"
        },
        {
          "internalType": "uint256",
          "name": "genes",
          "type": "uint256"
        }
      ],
      "stateMutability": "view",
      "type": "function",
      "constant": true
    }
  ],
  "bytecode": "0x6080604052604051806101c00160405280603c63ffffffff1663ffffffff168152602001607863ffffffff1663ffffffff16815260200161012c63ffffffff1663ffffffff16815260200161025863ffffffff1663ffffffff16815260200161070863ffffffff1663ffffffff168152602001610e1063ffffffff1663ffffffff168152602001611c2063ffffffff1663ffffffff16815260200161384063ffffffff1663ffffffff16815260200161708063ffffffff1663ffffffff16815260200161e10063ffffffff1663ffffffff1681526020016201518063ffffffff1663ffffffff1681526020016202a30063ffffffff1663ffffffff1681526020016205460063ffffffff1663ffffffff16815260200162093a8063ffffffff1663ffffffff16815250600690600e6200013a92919062000991565b50611388600c5561c350600d556402540be400600e5562015180600f553480156200016457600080fd5b506040518060400160405280600581526020017f47697a7a790000000000000000000000000000000000000000000000000000008152506040518060400160405280600381526020017f475a5900000000000000000000000000000000000000000000000000000000008152508160009080519060200190620001e992919062000a3b565b5080600190805190602001906200020292919062000a3b565b5050506200021c600080600080336200022360201b60201c565b5062000fa8565b600063ffffffff8611156200023757600080fd5b63ffffffff8511156200024957600080fd5b61ffff8411156200025957600080fd5b60006040518061010001604052808581526020014267ffffffffffffffff168152602001600067ffffffffffffffff1681526020018863ffffffff1681526020018763ffffffff168152602001600063ffffffff168152602001600061ffff1681526020018661ffff16815250905060088190806001815401808255809150506001900390600052602060002090600202016000909190919091506000820151816000015560208201518160010160006101000a81548167ffffffffffffffff021916908367ffffffffffffffff16021790555060408201518160010160086101000a81548167ffffffffffffffff021916908367ffffffffffffffff16021790555060608201518160010160106101000a81548163ffffffff021916908363ffffffff16021790555060808201518160010160146101000a81548163ffffffff021916908363ffffffff16021790555060a08201518160010160186101000a81548163ffffffff021916908363ffffffff16021790555060c082015181600101601c6101000a81548161ffff021916908361ffff16021790555060e082015181600101601e6101000a81548161ffff021916908361ffff1602179055505050600060016008805490506200042f919062000e0e565b905063ffffffff8111156200044357600080fd5b8373ffffffffffffffffffffffffffffffffffffffff167f0a5311bd2a6608f08a180df2ee7c5946819a649b204b554bb8e39825b2c50ad582846060015163ffffffff16856080015163ffffffff168660000151604051620004a9949392919062000d37565b60405180910390a2620004c38482620004d160201b60201c565b809250505095945050505050565b620004f3828260405180602001604052806000815250620004f760201b60201c565b5050565b6200050983836200056560201b60201c565b6200051e60008484846200074b60201b60201c565b62000560576040517f08c379a0000000000000000000000000000000000000000000000000000000008152600401620005579062000cd1565b60405180910390fd5b505050565b600073ffffffffffffffffffffffffffffffffffffffff168273ffffffffffffffffffffffffffffffffffffffff161415620005d8576040517f08c379a0000000000000000000000000000000000000000000000000000000008152600401620005cf9062000d15565b60405180910390fd5b620005e9816200090560201b60201c565b156200062c576040517f08c379a0000000000000000000000000000000000000000000000000000000008152600401620006239062000cf3565b60405180910390fd5b62000640600083836200097160201b60201c565b6001600360008473ffffffffffffffffffffffffffffffffffffffff1673ffffffffffffffffffffffffffffffffffffffff168152602001908152602001600020600082825462000692919062000db1565b92505081905550816002600083815260200190815260200160002060006101000a81548173ffffffffffffffffffffffffffffffffffffffff021916908373ffffffffffffffffffffffffffffffffffffffff160217905550808273ffffffffffffffffffffffffffffffffffffffff16600073ffffffffffffffffffffffffffffffffffffffff167fddf252ad1be2c89b69c2b068fc378daa952ba7f163c4a11628f55a4df523b3ef60405160405180910390a45050565b6000620007798473ffffffffffffffffffffffffffffffffffffffff166200097660201b620018131760201c565b15620008f8578373ffffffffffffffffffffffffffffffffffffffff1663150b7a02620007ab6200098960201b60201c565b8786866040518563ffffffff1660e01b8152600401620007cf949392919062000c7d565b602060405180830381600087803b158015620007ea57600080fd5b505af19250505080156200081e57506040513d601f19601f820116820180604052508101906200081b919062000b02565b60015b620008a7573d806000811462000851576040519150601f19603f3d011682016040523d82523d6000602084013e62000856565b606091505b506000815114156200089f576040517f08c379a0000000000000000000000000000000000000000000000000000000008152600401620008969062000cd1565b60405180910390fd5b805181602001fd5b63150b7a0260e01b7bffffffffffffffffffffffffffffffffffffffffffffffffffffffff1916817bffffffffffffffffffffffffffffffffffffffffffffffffffffffff191614915050620008fd565b600190505b949350505050565b60008073ffffffffffffffffffffffffffffffffffffffff166002600084815260200190815260200160002060009054906101000a900473ffffffffffffffffffffffffffffffffffffffff1673ffffffffffffffffffffffffffffffffffffffff1614159050919050565b505050565b600080823b905060008111915050919050565b600033905090565b82600e60070160089004810192821562000a285791602002820160005b83821115620009f457835183826101000a81548163ffffffff021916908363ffffffff1602179055509260200192600401602081600301049283019260010302620009ae565b801562000a265782816101000a81549063ffffffff0219169055600401602081600301049283019260010302620009f4565b505b50905062000a37919062000acc565b5090565b82805462000a499062000ee9565b90600052602060002090601f01602090048101928262000a6d576000855562000ab9565b82601f1062000a8857805160ff191683800117855562000ab9565b8280016001018555821562000ab9579182015b8281111562000ab857825182559160200191906001019062000a9b565b5b50905062000ac8919062000acc565b5090565b5b8082111562000ae757600081600090555060010162000acd565b5090565b60008151905062000afc8162000f8e565b92915050565b60006020828403121562000b1557600080fd5b600062000b258482850162000aeb565b91505092915050565b62000b398162000e49565b82525050565b600062000b4c8262000d84565b62000b58818562000d8f565b935062000b6a81856020860162000eb3565b62000b758162000f7d565b840191505092915050565b600062000b8f60328362000da0565b91507f4552433732313a207472616e7366657220746f206e6f6e20455243373231526560008301527f63656976657220696d706c656d656e74657200000000000000000000000000006020830152604082019050919050565b600062000bf7601c8362000da0565b91507f4552433732313a20746f6b656e20616c7265616479206d696e746564000000006000830152602082019050919050565b600062000c3960208362000da0565b91507f4552433732313a206d696e7420746f20746865207a65726f20616464726573736000830152602082019050919050565b62000c778162000ea9565b82525050565b600060808201905062000c94600083018762000b2e565b62000ca3602083018662000b2e565b62000cb2604083018562000c6c565b818103606083015262000cc6818462000b3f565b905095945050505050565b6000602082019050818103600083015262000cec8162000b80565b9050919050565b6000602082019050818103600083015262000d0e8162000be8565b9050919050565b6000602082019050818103600083015262000d308162000c2a565b9050919050565b600060808201905062000d4e600083018762000c6c565b62000d5d602083018662000c6c565b62000d6c604083018562000c6c565b62000d7b606083018462000c6c565b95945050505050565b600081519050919050565b600082825260208201905092915050565b600082825260208201905092915050565b600062000dbe8262000ea9565b915062000dcb8362000ea9565b9250827fffffffffffffffffffffffffffffffffffffffffffffffffffffffffffffffff0382111562000e035762000e0262000f1f565b5b828201905092915050565b600062000e1b8262000ea9565b915062000e288362000ea9565b92508282101562000e3e5762000e3d62000f1f565b5b828203905092915050565b600062000e568262000e89565b9050919050565b60007fffffffff0000000000000000000000000000000000000000000000000000000082169050919050565b600073ffffffffffffffffffffffffffffffffffffffff82169050919050565b6000819050919050565b60005b8381101562000ed357808201518184015260208101905062000eb6565b8381111562000ee3576000848401525b50505050565b6000600282049050600182168062000f0257607f821691505b6020821081141562000f195762000f1862000f4e565b5b50919050565b7f4e487b7100000000000000000000000000000000000000000000000000000000600052601160045260246000fd5b7f4e487b7100000000000000000000000000000000000000000000000000000000600052602260045260246000fd5b6000601f19601f8301169050919050565b62000f998162000e5d565b811462000fa557600080fd5b50565b6139268062000fb86000396000f3fe6080604052600436106101cd5760003560e01c806391e078bb116100f7578063b88d4fde11610095578063cd0f611b11610064578063cd0f611b146106ae578063e985e9c5146106f4578063eb845c1714610731578063f1ca94101461075c576101cd565b8063b88d4fde146105f6578063b9a2de3a1461061f578063c87b56dd14610648578063ca3d5bba14610685576101cd565b80639d6fac6f116100d15780639d6fac6f1461053a578063a22cb46514610577578063ae4d0ff7146105a0578063b5319335146105cb576101cd565b806391e078bb146104ca57806395d89b41146104f35780639979ef451461051e576101cd565b8063404d0e3e1161016f57806366adff6f1161013e57806366adff6f146103f15780636b4d844c1461042e57806370a082311461044a57806378bd793514610487576101cd565b8063404d0e3e1461031d57806342842e0e14610348578063571a26a0146103715780636352211e146103b4576101cd565b8063081812fc116101ab578063081812fc14610265578063095ea7b3146102a25780630b95941d146102cb57806323b872dd146102f4576101cd565b806301ffc9a7146101d257806305e455461461020f57806306fdde031461023a575b600080fd5b3480156101de57600080fd5b506101f960048036038101906101f491906128b1565b610787565b604051610206919061315d565b60405180910390f35b34801561021b57600080fd5b50610224610869565b60405161023191906133f6565b60405180910390f35b34801561024657600080fd5b5061024f61086f565b60405161025c9190613214565b60405180910390f35b34801561027157600080fd5b5061028c60048036038101906102879190612903565b610901565b6040516102999190613027565b60405180910390f35b3480156102ae57600080fd5b506102c960048036038101906102c491906127fe565b610986565b005b3480156102d757600080fd5b506102f260048036038101906102ed919061283a565b610a9e565b005b34801561030057600080fd5b5061031b600480360381019061031691906126f8565b610ac3565b005b34801561032957600080fd5b50610332610b23565b60405161033f91906133f6565b60405180910390f35b34801561035457600080fd5b5061036f600480360381019061036a91906126f8565b610b29565b005b34801561037d57600080fd5b5061039860048036038101906103939190612903565b610b49565b6040516103ab97969594939291906130ee565b60405180910390f35b3480156103c057600080fd5b506103db60048036038101906103d69190612903565b610be8565b6040516103e89190613027565b60405180910390f35b3480156103fd57600080fd5b5061041860048036038101906104139190612903565b610c9a565b60405161042591906133f6565b60405180910390f35b61044860048036038101906104439190612968565b610cb2565b005b34801561045657600080fd5b50610471600480360381019061046c9190612693565b610cfd565b60405161047e91906133f6565b60405180910390f35b34801561049357600080fd5b506104ae60048036038101906104a99190612903565b610db5565b6040516104c197969594939291906130ee565b60405180910390f35b3480156104d657600080fd5b506104f160048036038101906104ec91906129a4565b610e95565b005b3480156104ff57600080fd5b5061050861105c565b6040516105159190613214565b60405180910390f35b61053860048036038101906105339190612903565b6110ee565b005b34801561054657600080fd5b50610561600480360381019061055c9190612903565b611234565b60405161056e919061348d565b60405180910390f35b34801561058357600080fd5b5061059e600480360381019061059991906127c2565b611264565b005b3480156105ac57600080fd5b506105b56113e5565b6040516105c291906133f6565b60405180910390f35b3480156105d757600080fd5b506105e06113eb565b6040516105ed91906133f6565b60405180910390f35b34801561060257600080fd5b5061061d60048036038101906106189190612747565b6113f1565b005b34801561062b57600080fd5b5061064660048036038101906106419190612903565b611453565b005b34801561065457600080fd5b5061066f600480360381019061066a9190612903565b6114dc565b60405161067c9190613214565b60405180910390f35b34801561069157600080fd5b506106ac60048036038101906106a7919061292c565b611583565b005b3480156106ba57600080fd5b506106d560048036038101906106d09190612903565b6115e7565b6040516106eb9a99989796959493929190613178565b60405180910390f35b34801561070057600080fd5b5061071b600480360381019061071691906126bc565b611773565b604051610728919061315d565b60405180910390f35b34801561073d57600080fd5b50610746611807565b60405161075391906133f6565b60405180910390f35b34801561076857600080fd5b5061077161180d565b60405161077e91906133f6565b60405180910390f35b60007f80ac58cd000000000000000000000000000000000000000000000000000000007bffffffffffffffffffffffffffffffffffffffffffffffffffffffff1916827bffffffffffffffffffffffffffffffffffffffffffffffffffffffff1916148061085257507f5b5e139f000000000000000000000000000000000000000000000000000000007bffffffffffffffffffffffffffffffffffffffffffffffffffffffff1916827bffffffffffffffffffffffffffffffffffffffffffffffffffffffff1916145b80610862575061086182611826565b5b9050919050565b60105481565b60606000805461087e906136ed565b80601f01602080910402602001604051908101604052809291908181526020018280546108aa906136ed565b80156108f75780601f106108cc576101008083540402835291602001916108f7565b820191906000526020600020905b8154815290600101906020018083116108da57829003601f168201915b5050505050905090565b600061090c82611890565b61094b576040517f08c379a000000000000000000000000000000000000000000000000000000000815260040161094290613356565b60405180910390fd5b6004600083815260200190815260200160002060009054906101000a900473ffffffffffffffffffffffffffffffffffffffff169050919050565b600061099182610be8565b90508073ffffffffffffffffffffffffffffffffffffffff168373ffffffffffffffffffffffffffffffffffffffff161415610a02576040517f08c379a00000000000000000000000000000000000000000000000000000000081526004016109f9906133b6565b60405180910390fd5b8073ffffffffffffffffffffffffffffffffffffffff16610a216118fc565b73ffffffffffffffffffffffffffffffffffffffff161480610a505750610a4f81610a4a6118fc565b611773565b5b610a8f576040517f08c379a0000000000000000000000000000000000000000000000000000000008152600401610a86906132d6565b60405180910390fd5b610a998383611904565b505050565b610abb8363ffffffff168363ffffffff168361ffff1687896119bd565b505050505050565b610ad4610ace6118fc565b82611c5b565b610b13576040517f08c379a0000000000000000000000000000000000000000000000000000000008152600401610b0a906133d6565b60405180910390fd5b610b1e838383611d39565b505050565b600d5481565b610b44838383604051806020016040528060008152506113f1565b505050565b60098181548110610b5957600080fd5b90600052602060002090600702016000915090508060000160009054906101000a900473ffffffffffffffffffffffffffffffffffffffff16908060010154908060020154908060030160009054906101000a900473ffffffffffffffffffffffffffffffffffffffff16908060040154908060050154908060060160009054906101000a900460ff16905087565b6000806002600084815260200190815260200160002060009054906101000a900473ffffffffffffffffffffffffffffffffffffffff169050600073ffffffffffffffffffffffffffffffffffffffff168173ffffffffffffffffffffffffffffffffffffffff161415610c91576040517f08c379a0000000000000000000000000000000000000000000000000000000008152600401610c8890613316565b60405180910390fd5b80915050919050565b600a6020528060005260406000206000915090505481565b600033905060003490507fd41dcbb7911b5a97e6f685eed7e638c109e478d5b63c8f583d86f7b5eb1b4e92848484604051610cef93929190613411565b60405180910390a150505050565b60008073ffffffffffffffffffffffffffffffffffffffff168273ffffffffffffffffffffffffffffffffffffffff161415610d6e576040517f08c379a0000000000000000000000000000000000000000000000000000000008152600401610d65906132f6565b60405180910390fd5b600360008373ffffffffffffffffffffffffffffffffffffffff1673ffffffffffffffffffffffffffffffffffffffff168152602001908152602001600020549050919050565b60008060008060008060008060098981548110610dfb577f4e487b7100000000000000000000000000000000000000000000000000000000600052603260045260246000fd5b906000526020600020906007020190508060000160009054906101000a900473ffffffffffffffffffffffffffffffffffffffff16975080600101549650806002015495508060030160009054906101000a900473ffffffffffffffffffffffffffffffffffffffff16945080600401549350806005015492508060060160009054906101000a900460ff16915050919395979092949650565b60006040518060e001604052803373ffffffffffffffffffffffffffffffffffffffff168152602001858152602001848152602001600073ffffffffffffffffffffffffffffffffffffffff168152602001838152602001428152602001600015158152509050600981908060018154018082558091505060019003906000526020600020906007020160009091909190915060008201518160000160006101000a81548173ffffffffffffffffffffffffffffffffffffffff021916908373ffffffffffffffffffffffffffffffffffffffff160217905550602082015181600101556040820151816002015560608201518160030160006101000a81548173ffffffffffffffffffffffffffffffffffffffff021916908373ffffffffffffffffffffffffffffffffffffffff1602179055506080820151816004015560a0820151816005015560c08201518160060160006101000a81548160ff0219169083151502179055505050600980549050600a6000868152602001908152602001600020819055507fc087c4cdb16906b5ff7016a6bf927618f24ff32eb1de5e86eeaeb08b94831a68338560405161104e92919061308e565b60405180910390a150505050565b60606001805461106b906136ed565b80601f0160208091040260200160405190810160405280929190818152602001828054611097906136ed565b80156110e45780601f106110b9576101008083540402835291602001916110e4565b820191906000526020600020905b8154815290600101906020018083116110c757829003601f168201915b5050505050905090565b60006009828154811061112a577f4e487b7100000000000000000000000000000000000000000000000000000000600052603260045260246000fd5b906000526020600020906007020190508060030160009054906101000a900473ffffffffffffffffffffffffffffffffffffffff1673ffffffffffffffffffffffffffffffffffffffff166108fc82600201549081150290604051600060405180830381858888f193505050501580156111a8573d6000803e3d6000fd5b50348160020181905550338160030160006101000a81548173ffffffffffffffffffffffffffffffffffffffff021916908373ffffffffffffffffffffffffffffffffffffffff1602179055507f19421268847f42dd61705778018ddfc43bcdce8517e7a630acb12f122c709481338334604051611228939291906130b7565b60405180910390a15050565b600681600e811061124457600080fd5b60089182820401919006600402915054906101000a900463ffffffff1681565b61126c6118fc565b73ffffffffffffffffffffffffffffffffffffffff168273ffffffffffffffffffffffffffffffffffffffff1614156112da576040517f08c379a00000000000000000000000000000000000000000000000000000000081526004016112d190613296565b60405180910390fd5b80600560006112e76118fc565b73ffffffffffffffffffffffffffffffffffffffff1673ffffffffffffffffffffffffffffffffffffffff16815260200190815260200160002060008473ffffffffffffffffffffffffffffffffffffffff1673ffffffffffffffffffffffffffffffffffffffff16815260200190815260200160002060006101000a81548160ff0219169083151502179055508173ffffffffffffffffffffffffffffffffffffffff166113946118fc565b73ffffffffffffffffffffffffffffffffffffffff167f17307eab39ab6107e8899845ad3d59bd9653f200f220920489ca2b5937696c31836040516113d9919061315d565b60405180910390a35050565b600e5481565b600c5481565b6114026113fc6118fc565b83611c5b565b611441576040517f08c379a0000000000000000000000000000000000000000000000000000000008152600401611438906133d6565b60405180910390fd5b61144d84848484611f95565b50505050565b60006009828154811061148f577f4e487b7100000000000000000000000000000000000000000000000000000000600052603260045260246000fd5b9060005260206000209060070201905042816004015482600501546114b4919061354c565b11156114d85760018160060160006101000a81548160ff0219169083151502179055505b5050565b60606114e782611890565b611526576040517f08c379a000000000000000000000000000000000000000000000000000000000815260040161151d90613396565b60405180910390fd5b6000611530611ff1565b90506000815111611550576040518060200160405280600081525061157b565b8061155a84612008565b60405160200161156b929190613003565b6040516020818303038152906040525b915050919050565b600c546010541061159357600080fd5b600d54601154106115a357600080fd5b601060008154809291906115b69061371f565b9190505550601160008154809291906115ce9061371f565b91905055506115e2600080600085856119bd565b505050565b600080600080600080600080600080600060088c81548110611632577f4e487b7100000000000000000000000000000000000000000000000000000000600052603260045260246000fd5b9060005260206000209060020201905060008160010160189054906101000a900463ffffffff1663ffffffff1614159a50428160010160089054906101000a900467ffffffffffffffff1667ffffffffffffffff161115995080600101601c9054906101000a900461ffff1661ffff1698508060010160089054906101000a900467ffffffffffffffff1667ffffffffffffffff1697508060010160189054906101000a900463ffffffff1663ffffffff1696508060010160009054906101000a900467ffffffffffffffff1667ffffffffffffffff1695508060010160109054906101000a900463ffffffff1663ffffffff1694508060010160149054906101000a900463ffffffff1663ffffffff16935080600101601e9054906101000a900461ffff1661ffff16925080600001549150509193959799509193959799565b6000600560008473ffffffffffffffffffffffffffffffffffffffff1673ffffffffffffffffffffffffffffffffffffffff16815260200190815260200160002060008373ffffffffffffffffffffffffffffffffffffffff1673ffffffffffffffffffffffffffffffffffffffff16815260200190815260200160002060009054906101000a900460ff16905092915050565b600f5481565b60115481565b600080823b905060008111915050919050565b60007f01ffc9a7000000000000000000000000000000000000000000000000000000007bffffffffffffffffffffffffffffffffffffffffffffffffffffffff1916827bffffffffffffffffffffffffffffffffffffffffffffffffffffffff1916149050919050565b60008073ffffffffffffffffffffffffffffffffffffffff166002600084815260200190815260200160002060009054906101000a900473ffffffffffffffffffffffffffffffffffffffff1673ffffffffffffffffffffffffffffffffffffffff1614159050919050565b600033905090565b816004600083815260200190815260200160002060006101000a81548173ffffffffffffffffffffffffffffffffffffffff021916908373ffffffffffffffffffffffffffffffffffffffff160217905550808273ffffffffffffffffffffffffffffffffffffffff1661197783610be8565b73ffffffffffffffffffffffffffffffffffffffff167f8c5be1e5ebec7d5bd14f71427d1e84f3dd0314c0f7b2291e5b200ac8c7c3b92560405160405180910390a45050565b600063ffffffff8611156119d057600080fd5b63ffffffff8511156119e157600080fd5b61ffff8411156119f057600080fd5b60006040518061010001604052808581526020014267ffffffffffffffff168152602001600067ffffffffffffffff1681526020018863ffffffff1681526020018763ffffffff168152602001600063ffffffff168152602001600061ffff1681526020018661ffff16815250905060088190806001815401808255809150506001900390600052602060002090600202016000909190919091506000820151816000015560208201518160010160006101000a81548167ffffffffffffffff021916908367ffffffffffffffff16021790555060408201518160010160086101000a81548167ffffffffffffffff021916908367ffffffffffffffff16021790555060608201518160010160106101000a81548163ffffffff021916908363ffffffff16021790555060808201518160010160146101000a81548163ffffffff021916908363ffffffff16021790555060a08201518160010160186101000a81548163ffffffff021916908363ffffffff16021790555060c082015181600101601c6101000a81548161ffff021916908361ffff16021790555060e082015181600101601e6101000a81548161ffff021916908361ffff160217905550505060006001600880549050611bc491906135d3565b905063ffffffff811115611bd757600080fd5b8373ffffffffffffffffffffffffffffffffffffffff167f0a5311bd2a6608f08a180df2ee7c5946819a649b204b554bb8e39825b2c50ad582846060015163ffffffff16856080015163ffffffff168660000151604051611c3b9493929190613448565b60405180910390a2611c4d84826121b5565b809250505095945050505050565b6000611c6682611890565b611ca5576040517f08c379a0000000000000000000000000000000000000000000000000000000008152600401611c9c906132b6565b60405180910390fd5b6000611cb083610be8565b90508073ffffffffffffffffffffffffffffffffffffffff168473ffffffffffffffffffffffffffffffffffffffff161480611d1f57508373ffffffffffffffffffffffffffffffffffffffff16611d0784610901565b73ffffffffffffffffffffffffffffffffffffffff16145b80611d305750611d2f8185611773565b5b91505092915050565b8273ffffffffffffffffffffffffffffffffffffffff16611d5982610be8565b73ffffffffffffffffffffffffffffffffffffffff1614611daf576040517f08c379a0000000000000000000000000000000000000000000000000000000008152600401611da690613376565b60405180910390fd5b600073ffffffffffffffffffffffffffffffffffffffff168273ffffffffffffffffffffffffffffffffffffffff161415611e1f576040517f08c379a0000000000000000000000000000000000000000000000000000000008152600401611e1690613276565b60405180910390fd5b611e2a8383836121d3565b611e35600082611904565b6001600360008573ffffffffffffffffffffffffffffffffffffffff1673ffffffffffffffffffffffffffffffffffffffff1681526020019081526020016000206000828254611e8591906135d3565b925050819055506001600360008473ffffffffffffffffffffffffffffffffffffffff1673ffffffffffffffffffffffffffffffffffffffff1681526020019081526020016000206000828254611edc919061354c565b92505081905550816002600083815260200190815260200160002060006101000a81548173ffffffffffffffffffffffffffffffffffffffff021916908373ffffffffffffffffffffffffffffffffffffffff160217905550808273ffffffffffffffffffffffffffffffffffffffff168473ffffffffffffffffffffffffffffffffffffffff167fddf252ad1be2c89b69c2b068fc378daa952ba7f163c4a11628f55a4df523b3ef60405160405180910390a4505050565b611fa0848484611d39565b611fac848484846121d8565b611feb576040517f08c379a0000000000000000000000000000000000000000000000000000000008152600401611fe290613236565b60405180910390fd5b50505050565b606060405180602001604052806000815250905090565b60606000821415612050576040518060400160405280600181526020017f300000000000000000000000000000000000000000000000000000000000000081525090506121b0565b600082905060005b6000821461208257808061206b9061371f565b915050600a8261207b91906135a2565b9150612058565b60008167ffffffffffffffff8111156120c4577f4e487b7100000000000000000000000000000000000000000000000000000000600052604160045260246000fd5b6040519080825280601f01601f1916602001820160405280156120f65781602001600182028036833780820191505090505b5090505b600085146121a95760018261210f91906135d3565b9150600a8561211e9190613768565b603061212a919061354c565b60f81b818381518110612166577f4e487b7100000000000000000000000000000000000000000000000000000000600052603260045260246000fd5b60200101907effffffffffffffffffffffffffffffffffffffffffffffffffffffffffffff1916908160001a905350600a856121a291906135a2565b94506120fa565b8093505050505b919050565b6121cf82826040518060200160405280600081525061236f565b5050565b505050565b60006121f98473ffffffffffffffffffffffffffffffffffffffff16611813565b15612362578373ffffffffffffffffffffffffffffffffffffffff1663150b7a026122226118fc565b8786866040518563ffffffff1660e01b81526004016122449493929190613042565b602060405180830381600087803b15801561225e57600080fd5b505af192505050801561228f57506040513d601f19601f8201168201806040525081019061228c91906128da565b60015b612312573d80600081146122bf576040519150601f19603f3d011682016040523d82523d6000602084013e6122c4565b606091505b5060008151141561230a576040517f08c379a000000000000000000000000000000000000000000000000000000000815260040161230190613236565b60405180910390fd5b805181602001fd5b63150b7a0260e01b7bffffffffffffffffffffffffffffffffffffffffffffffffffffffff1916817bffffffffffffffffffffffffffffffffffffffffffffffffffffffff191614915050612367565b600190505b949350505050565b61237983836123ca565b61238660008484846121d8565b6123c5576040517f08c379a00000000000000000000000000000000000000000000000000000000081526004016123bc90613236565b60405180910390fd5b505050565b600073ffffffffffffffffffffffffffffffffffffffff168273ffffffffffffffffffffffffffffffffffffffff16141561243a576040517f08c379a000000000000000000000000000000000000000000000000000000000815260040161243190613336565b60405180910390fd5b61244381611890565b15612483576040517f08c379a000000000000000000000000000000000000000000000000000000000815260040161247a90613256565b60405180910390fd5b61248f600083836121d3565b6001600360008473ffffffffffffffffffffffffffffffffffffffff1673ffffffffffffffffffffffffffffffffffffffff16815260200190815260200160002060008282546124df919061354c565b92505081905550816002600083815260200190815260200160002060006101000a81548173ffffffffffffffffffffffffffffffffffffffff021916908373ffffffffffffffffffffffffffffffffffffffff160217905550808273ffffffffffffffffffffffffffffffffffffffff16600073ffffffffffffffffffffffffffffffffffffffff167fddf252ad1be2c89b69c2b068fc378daa952ba7f163c4a11628f55a4df523b3ef60405160405180910390a45050565b60006125ab6125a6846134d9565b6134a8565b9050828152602081018484840111156125c357600080fd5b6125ce8482856136ab565b509392505050565b6000813590506125e581613866565b92915050565b6000813590506125fa8161387d565b92915050565b60008135905061260f81613894565b92915050565b60008151905061262481613894565b92915050565b600082601f83011261263b57600080fd5b813561264b848260208601612598565b91505092915050565b600081359050612663816138ab565b92915050565b600081359050612678816138c2565b92915050565b60008135905061268d816138d9565b92915050565b6000602082840312156126a557600080fd5b60006126b3848285016125d6565b91505092915050565b600080604083850312156126cf57600080fd5b60006126dd858286016125d6565b92505060206126ee858286016125d6565b9150509250929050565b60008060006060848603121561270d57600080fd5b600061271b868287016125d6565b935050602061272c868287016125d6565b925050604061273d86828701612669565b9150509250925092565b6000806000806080858703121561275d57600080fd5b600061276b878288016125d6565b945050602061277c878288016125d6565b935050604061278d87828801612669565b925050606085013567ffffffffffffffff8111156127aa57600080fd5b6127b68782880161262a565b91505092959194509250565b600080604083850312156127d557600080fd5b60006127e3858286016125d6565b92505060206127f4858286016125eb565b9150509250929050565b6000806040838503121561281157600080fd5b600061281f858286016125d6565b925050602061283085828601612669565b9150509250929050565b600080600080600060a0868803121561285257600080fd5b6000612860888289016125d6565b955050602061287188828901612669565b94505060406128828882890161267e565b93505060606128938882890161267e565b92505060806128a488828901612654565b9150509295509295909350565b6000602082840312156128c357600080fd5b60006128d184828501612600565b91505092915050565b6000602082840312156128ec57600080fd5b60006128fa84828501612615565b91505092915050565b60006020828403121561291557600080fd5b600061292384828501612669565b91505092915050565b6000806040838503121561293f57600080fd5b600061294d85828601612669565b925050602061295e858286016125d6565b9150509250929050565b6000806040838503121561297b57600080fd5b600061298985828601612669565b925050602061299a85828601612669565b9150509250929050565b6000806000606084860312156129b957600080fd5b60006129c786828701612669565b93505060206129d886828701612669565b92505060406129e986828701612669565b9150509250925092565b6129fc81613619565b82525050565b612a0b81613607565b82525050565b612a1a8161362b565b82525050565b6000612a2b82613509565b612a35818561351f565b9350612a458185602086016136ba565b612a4e81613855565b840191505092915050565b6000612a6482613514565b612a6e8185613530565b9350612a7e8185602086016136ba565b612a8781613855565b840191505092915050565b6000612a9d82613514565b612aa78185613541565b9350612ab78185602086016136ba565b80840191505092915050565b6000612ad0603283613530565b91507f4552433732313a207472616e7366657220746f206e6f6e20455243373231526560008301527f63656976657220696d706c656d656e74657200000000000000000000000000006020830152604082019050919050565b6000612b36601c83613530565b91507f4552433732313a20746f6b656e20616c7265616479206d696e746564000000006000830152602082019050919050565b6000612b76602483613530565b91507f4552433732313a207472616e7366657220746f20746865207a65726f2061646460008301527f72657373000000000000000000000000000000000000000000000000000000006020830152604082019050919050565b6000612bdc601983613530565b91507f4552433732313a20617070726f766520746f2063616c6c6572000000000000006000830152602082019050919050565b6000612c1c602c83613530565b91507f4552433732313a206f70657261746f7220717565727920666f72206e6f6e657860008301527f697374656e7420746f6b656e00000000000000000000000000000000000000006020830152604082019050919050565b6000612c82603883613530565b91507f4552433732313a20617070726f76652063616c6c6572206973206e6f74206f7760008301527f6e6572206e6f7220617070726f76656420666f7220616c6c00000000000000006020830152604082019050919050565b6000612ce8602a83613530565b91507f4552433732313a2062616c616e636520717565727920666f7220746865207a6560008301527f726f2061646472657373000000000000000000000000000000000000000000006020830152604082019050919050565b6000612d4e602983613530565b91507f4552433732313a206f776e657220717565727920666f72206e6f6e657869737460008301527f656e7420746f6b656e00000000000000000000000000000000000000000000006020830152604082019050919050565b6000612db4602083613530565b91507f4552433732313a206d696e7420746f20746865207a65726f20616464726573736000830152602082019050919050565b6000612df4602c83613530565b91507f4552433732313a20617070726f76656420717565727920666f72206e6f6e657860008301527f697374656e7420746f6b656e00000000000000000000000000000000000000006020830152604082019050919050565b6000612e5a602983613530565b91507f4552433732313a207472616e73666572206f6620746f6b656e2074686174206960008301527f73206e6f74206f776e00000000000000000000000000000000000000000000006020830152604082019050919050565b6000612ec0602f83613530565b91507f4552433732314d657461646174613a2055524920717565727920666f72206e6f60008301527f6e6578697374656e7420746f6b656e00000000000000000000000000000000006020830152604082019050919050565b6000612f26602183613530565b91507f4552433732313a20617070726f76616c20746f2063757272656e74206f776e6560008301527f72000000000000000000000000000000000000000000000000000000000000006020830152604082019050919050565b6000612f8c603183613530565b91507f4552433732313a207472616e736665722063616c6c6572206973206e6f74206f60008301527f776e6572206e6f7220617070726f7665640000000000000000000000000000006020830152604082019050919050565b612fee81613691565b82525050565b612ffd8161369b565b82525050565b600061300f8285612a92565b915061301b8284612a92565b91508190509392505050565b600060208201905061303c6000830184612a02565b92915050565b60006080820190506130576000830187612a02565b6130646020830186612a02565b6130716040830185612fe5565b81810360608301526130838184612a20565b905095945050505050565b60006040820190506130a36000830185612a02565b6130b06020830184612fe5565b9392505050565b60006060820190506130cc6000830186612a02565b6130d96020830185612fe5565b6130e66040830184612fe5565b949350505050565b600060e082019050613103600083018a612a02565b6131106020830189612fe5565b61311d6040830188612fe5565b61312a60608301876129f3565b6131376080830186612fe5565b61314460a0830185612fe5565b61315160c0830184612a11565b98975050505050505050565b60006020820190506131726000830184612a11565b92915050565b60006101408201905061318e600083018d612a11565b61319b602083018c612a11565b6131a8604083018b612fe5565b6131b5606083018a612fe5565b6131c26080830189612fe5565b6131cf60a0830188612fe5565b6131dc60c0830187612fe5565b6131e960e0830186612fe5565b6131f7610100830185612fe5565b613205610120830184612fe5565b9b9a5050505050505050505050565b6000602082019050818103600083015261322e8184612a59565b905092915050565b6000602082019050818103600083015261324f81612ac3565b9050919050565b6000602082019050818103600083015261326f81612b29565b9050919050565b6000602082019050818103600083015261328f81612b69565b9050919050565b600060208201905081810360008301526132af81612bcf565b9050919050565b600060208201905081810360008301526132cf81612c0f565b9050919050565b600060208201905081810360008301526132ef81612c75565b9050919050565b6000602082019050818103600083015261330f81612cdb565b9050919050565b6000602082019050818103600083015261332f81612d41565b9050919050565b6000602082019050818103600083015261334f81612da7565b9050919050565b6000602082019050818103600083015261336f81612de7565b9050919050565b6000602082019050818103600083015261338f81612e4d565b9050919050565b600060208201905081810360008301526133af81612eb3565b9050919050565b600060208201905081810360008301526133cf81612f19565b9050919050565b600060208201905081810360008301526133ef81612f7f565b9050919050565b600060208201905061340b6000830184612fe5565b92915050565b60006060820190506134266000830186612fe5565b6134336020830185612fe5565b6134406040830184612a02565b949350505050565b600060808201905061345d6000830187612fe5565b61346a6020830186612fe5565b6134776040830185612fe5565b6134846060830184612fe5565b95945050505050565b60006020820190506134a26000830184612ff4565b92915050565b6000604051905081810181811067ffffffffffffffff821117156134cf576134ce613826565b5b8060405250919050565b600067ffffffffffffffff8211156134f4576134f3613826565b5b601f19601f8301169050602081019050919050565b600081519050919050565b600081519050919050565b600082825260208201905092915050565b600082825260208201905092915050565b600081905092915050565b600061355782613691565b915061356283613691565b9250827fffffffffffffffffffffffffffffffffffffffffffffffffffffffffffffffff0382111561359757613596613799565b5b828201905092915050565b60006135ad82613691565b91506135b883613691565b9250826135c8576135c76137c8565b5b828204905092915050565b60006135de82613691565b91506135e983613691565b9250828210156135fc576135fb613799565b5b828203905092915050565b600061361282613671565b9050919050565b600061362482613671565b9050919050565b60008115159050919050565b60007fffffffff0000000000000000000000000000000000000000000000000000000082169050919050565b600061ffff82169050919050565b600073ffffffffffffffffffffffffffffffffffffffff82169050919050565b6000819050919050565b600063ffffffff82169050919050565b82818337600083830152505050565b60005b838110156136d85780820151818401526020810190506136bd565b838111156136e7576000848401525b50505050565b6000600282049050600182168061370557607f821691505b60208210811415613719576137186137f7565b5b50919050565b600061372a82613691565b91507fffffffffffffffffffffffffffffffffffffffffffffffffffffffffffffffff82141561375d5761375c613799565b5b600182019050919050565b600061377382613691565b915061377e83613691565b92508261378e5761378d6137c8565b5b828206905092915050565b7f4e487b7100000000000000000000000000000000000000000000000000000000600052601160045260246000fd5b7f4e487b7100000000000000000000000000000000000000000000000000000000600052601260045260246000fd5b7f4e487b7100000000000000000000000000000000000000000000000000000000600052602260045260246000fd5b7f4e487b7100000000000000000000000000000000000000000000000000000000600052604160045260246000fd5b6000601f19601f8301169050919050565b61386f81613607565b811461387a57600080fd5b50565b6138868161362b565b811461389157600080fd5b50565b61389d81613637565b81146138a857600080fd5b50565b6138b481613663565b81146138bf57600080fd5b50565b6138cb81613691565b81146138d657600080fd5b50565b6138e28161369b565b81146138ed57600080fd5b5056fea26469706673582212201b419cef0d88749f04211d6a9cd2b7aa22e7c32977092a732a090e3b7528602c64736f6c63430008000033",
  "immutableReferences": {},
  "source": "// SPDX-License-Identifier: MIT\npragma solidity >=0.4.22 <0.9.0;\n\nimport \"@openzeppelin/contracts/token/ERC721/ERC721.sol\";\n\ncontract GizzyWireframe is ERC721{\n\n    constructor() ERC721('Gizzy', 'GZY') {\n    _createGizzy(0,0,0,uint256(0),msg.sender);\n    }\n\n    event Birth(address indexed owner, uint256 kittyId, uint256 matronId, uint256 sireId, uint256 genes);\n\n    struct Gizzy {\n        uint256 genes;\n        uint64 birthTime;\n        uint64 cooldownEndTime;\n        uint32 matronId;\n        uint32 sireId;\n        uint32 siringWithId;\n        uint16 cooldownIndex;\n        uint16 generation;\n    }\n\n    uint32[14] public cooldowns = [\n        uint32(1 minutes),\n        uint32(2 minutes),\n        uint32(5 minutes),\n        uint32(10 minutes),\n        uint32(30 minutes),\n        uint32(1 hours),\n        uint32(2 hours),\n        uint32(4 hours),\n        uint32(8 hours),\n        uint32(16 hours),\n        uint32(1 days),\n        uint32(2 days),\n        uint32(4 days),\n        uint32(7 days)\n    ];\n\n    // an array to keep track of all the gizzy structs\n    Gizzy[] gizzies;\n\n    // mapping (uint256 => address) public gizzyIndexToOwner;\n\n    // mapping (uint256 => address) public gizzyIndexToApproved;\n\n    // mapping (uint256 => address) public sireAllowedToAddress;\n\n    function _createGizzy(\n        uint256 _matronId,\n        uint256 _sireId,\n        uint256 _generation,\n        uint256 _genes,\n        address _owner\n    )\n        internal\n        returns (uint)\n\n    {\n        require(_matronId <= 4294967295);\n        require(_sireId <= 4294967295);\n        require(_generation <= 65535);\n    \n        Gizzy memory _gizzy = Gizzy({\n            genes: _genes,\n            birthTime: uint64(block.timestamp),\n            cooldownEndTime: 0,\n            matronId: uint32(_matronId),\n            sireId: uint32(_sireId),\n            siringWithId: 0,\n            cooldownIndex: 0,\n            generation: uint16(_generation)\n        });\n\n        gizzies.push(_gizzy);\n        uint256 newGizzyId = gizzies.length - 1;\n\n        require(newGizzyId <= 4294967295);\n\n        emit Birth(\n        _owner,\n        newGizzyId,\n        uint256(_gizzy.matronId),\n        uint256(_gizzy.sireId),\n        _gizzy.genes\n        );\n\n        _safeMint(_owner, newGizzyId);\n        // _setTokenURI(newGizzyId, tokenURI)\n\n        return newGizzyId;\n\n    }\n\n\n    // \n    // Auction Contract\n    //\n\n    struct Auction{\n        address owner;\n        uint256 gizzyId;\n        uint256 highestBid;\n        address payable highestBidder;\n        uint256 duration;\n        uint256 creationTime;\n        bool auctionEnded;\n    }\n\n    Auction[] public auctions;\n    mapping (uint256 => uint256) public gizzyToAuction;\n\n    event AuctionStarted(address owner, uint256 gizzyId);\n    event Bid(address bidder, uint256 auctionId, uint256 amount);\n\n    //function _isOnAuction(uint256 _gizzyId) internal {\n        // return if the gizzy is on auction or not\n        // how am i keeping track of gizzy on auction?\n    //}\n    \n    function getAuction(uint256 _auctionId) \n    public \n    view \n    returns (\n        address owner,\n        uint256 gizzyId,\n        uint256 highestBid,\n        address payable highestBidder,\n        uint256 duration,\n        uint256 creationTime,\n        bool auctionEnded\n    )\n    {\n        Auction storage _auction = auctions[_auctionId];\n        \n        owner = _auction.owner;\n        gizzyId = _auction.gizzyId;\n        highestBid = _auction.highestBid;\n        highestBidder = _auction.highestBidder;\n        duration = _auction.duration;\n        creationTime = _auction.creationTime;\n        auctionEnded = _auction.auctionEnded;\n    }\n\n    function startAuction(uint256 _gizzyId, uint256 _startingPrice, uint256 _duration) public {\n        // inputs: gizzyId, startingPrice, timeLimit\n        // checks: if sender owns gizzy, if gizzy is free from auctions\n        \n        // creates auctions, sends gizzy to this contract, \n        Auction memory _auction = Auction({\n            owner: msg.sender,\n            gizzyId: _gizzyId,\n            highestBid: _startingPrice,\n            highestBidder: payable(address(0)),\n            duration: _duration,\n            creationTime: block.timestamp,\n            auctionEnded: false\n        });\n        // send the gizzy to this contract\n\n        auctions.push(_auction);\n        gizzyToAuction[_gizzyId] = auctions.length;\n        \n        emit AuctionStarted(msg.sender, _gizzyId);\n        // emits an auction event\n    }\n\n    function placeBid(uint256 _auctionId) public payable {\n        // checks if the amount is more than the current highest amount\n        Auction storage _auction = auctions[_auctionId];\n        \n        // requires more than highest bid\n\n        // refunds the previous bid to the previous owner\n        // refund should not send any if address is (0)\n        _auction.highestBidder.transfer(_auction.highestBid);\n        \n        // places a bid\n        _auction.highestBid = msg.value;\n        _auction.highestBidder = payable(msg.sender);\n        \n        // emits an event that bid has been placed\n        emit Bid(msg.sender, _auctionId, msg.value);\n    }\n\n    function endAuction(uint256 _auctionId) public {\n        // checks if the given auction is supposed to end\n        // ends the auction if its supposed to end\n        Auction storage _auction = auctions[_auctionId];\n\n        if (_auction.creationTime + _auction.duration > block.timestamp){\n            // TODO: send the nft to the auction winner\n            // TODO: send the money to the seller (after keeping the commission)\n            _auction.auctionEnded = true;\n        }\n        \n    }\n\n\n\n    //\n    // Breeding Contract\n    //\n    uint256 BreedingFee;\n    event Breed(uint256 matronId, uint256 sireId, address owner);\n\n    function BreedGizzy(uint256 _matronId, uint256 _sireId) \n        public \n        payable\n    {\n        address _owner = msg.sender;\n        uint256 _fee = msg.value;\n\n        // requires requester to own the gizzy\n        // requires the fee to be at or above the fee        \n\n        emit Breed(_matronId, _sireId, _owner);\n    }\n\n    function GizzyBirth(address _owner, uint256 _genes, uint32 _matronId, uint32 _sireId, uint16 _generation)\n        public\n    {\n        _createGizzy(_matronId, _sireId, _generation, _genes, _owner);\n    }\n    \n\n\n    //\n    // Minting Contract\n    //\n    // limits the number of gizzies the contract owner can ever create\n    uint256 public promoCreationLimit = 5000;\n    uint256 public gen0CreationLimit = 50000;\n\n    // Constants for gen0 auctions\n    uint256 public gen0StartingPrice = 1e10;\n    uint256 public gen0AuctionDuration = 1 days;\n\n    // Counts the number of gizzies the contract owner has created\n    uint256 public promoCreatedCount;\n    uint256 public gen0CreatedCount;\n\n    function createPromoGizzy(uint256 _genes, address _owner) public {\n\n        require(promoCreatedCount < promoCreationLimit);\n        require(gen0CreatedCount < gen0CreationLimit);\n    \n        promoCreatedCount ++;\n        gen0CreatedCount ++;\n        _createGizzy(0, 0, 0, _genes, _owner);\n    }\n\n    //\n    // Core Contract that is deployed\n    //\n    function getGizzy(uint256 _id)\n    public\n    view\n    returns (\n      bool isGestating,\n      bool isReady,\n      uint256 cooldownIndex,\n      uint256 nextActionAt,\n      uint256 siringWithId,\n      uint256 birthTime,\n      uint256 matronId,\n      uint256 sireId,\n      uint256 generation,\n      uint256 genes\n    ) {\n      Gizzy storage giz = gizzies[_id];\n\n      isGestating = (giz.siringWithId != 0);\n      isReady = (giz.cooldownEndTime <= block.timestamp);\n      cooldownIndex = uint256(giz.cooldownIndex);\n      nextActionAt = uint256(giz.cooldownEndTime);\n      siringWithId = uint256(giz.siringWithId);\n      birthTime = uint256(giz.birthTime);\n      matronId = uint256(giz.matronId);\n      sireId = uint256(giz.sireId);\n      generation = uint256(giz.generation);\n      genes = giz.genes;\n    }\n\n}\n",
  "sourcePath": "/home/imtiaz/Desktop/baeinnovations/gizzy-smartcontracts/contracts/GizzyWireframe.sol",
  "compiler": {
    "name": "solc",
    "version": "0.8.0+commit.c7dfd78e.Emscripten.clang"
  },
  "schemaVersion": "3.4.0",
  "updatedAt": "2021-05-31T07:39:55.568Z",
  "networkType": "ethereum",
  "devdoc": {
    "kind": "dev",
    "methods": {
      "approve(address,uint256)": {
        "details": "See {IERC721-approve}."
      },
      "balanceOf(address)": {
        "details": "See {IERC721-balanceOf}."
      },
      "getApproved(uint256)": {
        "details": "See {IERC721-getApproved}."
      },
      "isApprovedForAll(address,address)": {
        "details": "See {IERC721-isApprovedForAll}."
      },
      "name()": {
        "details": "See {IERC721Metadata-name}."
      },
      "ownerOf(uint256)": {
        "details": "See {IERC721-ownerOf}."
      },
      "safeTransferFrom(address,address,uint256)": {
        "details": "See {IERC721-safeTransferFrom}."
      },
      "safeTransferFrom(address,address,uint256,bytes)": {
        "details": "See {IERC721-safeTransferFrom}."
      },
      "setApprovalForAll(address,bool)": {
        "details": "See {IERC721-setApprovalForAll}."
      },
      "supportsInterface(bytes4)": {
        "details": "See {IERC165-supportsInterface}."
      },
      "symbol()": {
        "details": "See {IERC721Metadata-symbol}."
      },
      "tokenURI(uint256)": {
        "details": "See {IERC721Metadata-tokenURI}."
      },
      "transferFrom(address,address,uint256)": {
        "details": "See {IERC721-transferFrom}."
      }
    },
    "version": 1
  },
  "userdoc": {
    "kind": "user",
    "methods": {},
    "version": 1
  }
}