{
  "contractName": "GizzyAccessControl",
  "abi": [
    {
      "anonymous": false,
      "inputs": [
        {
          "indexed": false,
          "internalType": "address",
          "name": "newContract",
          "type": "address"
        }
      ],
      "name": "ContractUpgrade",
      "type": "event"
    },
    {
      "inputs": [],
      "name": "ceoAddress",
      "outputs": [
        {
          "internalType": "address",
          "name": "",
          "type": "address"
        }
      ],
      "stateMutability": "view",
      "type": "function",
      "constant": true
    },
    {
      "inputs": [],
      "name": "cfoAddress",
      "outputs": [
        {
          "internalType": "address payable",
          "name": "",
          "type": "address"
        }
      ],
      "stateMutability": "view",
      "type": "function",
      "constant": true
    },
    {
      "inputs": [],
      "name": "cooAddress",
      "outputs": [
        {
          "internalType": "address",
          "name": "",
          "type": "address"
        }
      ],
      "stateMutability": "view",
      "type": "function",
      "constant": true
    },
    {
      "inputs": [],
      "name": "paused",
      "outputs": [
        {
          "internalType": "bool",
          "name": "",
          "type": "bool"
        }
      ],
      "stateMutability": "view",
      "type": "function",
      "constant": true
    },
    {
      "inputs": [
        {
          "internalType": "address",
          "name": "_newCEO",
          "type": "address"
        }
      ],
      "name": "setCEO",
      "outputs": [],
      "stateMutability": "nonpayable",
      "type": "function"
    },
    {
      "inputs": [
        {
          "internalType": "address payable",
          "name": "_newCFO",
          "type": "address"
        }
      ],
      "name": "setCFO",
      "outputs": [],
      "stateMutability": "nonpayable",
      "type": "function"
    },
    {
      "inputs": [
        {
          "internalType": "address",
          "name": "_newCOO",
          "type": "address"
        }
      ],
      "name": "setCOO",
      "outputs": [],
      "stateMutability": "nonpayable",
      "type": "function"
    },
    {
      "inputs": [],
      "name": "withdrawBalance",
      "outputs": [],
      "stateMutability": "nonpayable",
      "type": "function"
    },
    {
      "inputs": [],
      "name": "pause",
      "outputs": [],
      "stateMutability": "nonpayable",
      "type": "function"
    },
    {
      "inputs": [],
      "name": "unpause",
      "outputs": [],
      "stateMutability": "nonpayable",
      "type": "function"
    }
  ],
  "bytecode": "0x60806040526000600260146101000a81548160ff02191690831515021790555034801561002b57600080fd5b506108d18061003b6000396000f3fe608060405234801561001057600080fd5b506004361061009e5760003560e01c80634e0a3379116100665780634e0a3379146101215780635c975abb1461013d5780635fd8c7101461015b5780638456cb5914610165578063b047fb501461016f5761009e565b80630519ce79146100a35780630a0f8168146100c157806327d7874c146100df5780632ba73c15146100fb5780633f4ba83a14610117575b600080fd5b6100ab61018d565b6040516100b891906107e7565b60405180910390f35b6100c96101b3565b6040516100d691906107cc565b60405180910390f35b6100f960048036038101906100f4919061074d565b6101d7565b005b6101156004803603810190610110919061074d565b6102ac565b005b61011f610382565b005b61013b60048036038101906101369190610776565b610410565b005b6101456104e6565b6040516101529190610802565b60405180910390f35b6101636104f9565b005b61016d6105be565b005b6101776106fd565b60405161018491906107cc565b60405180910390f35b600160009054906101000a900473ffffffffffffffffffffffffffffffffffffffff1681565b60008054906101000a900473ffffffffffffffffffffffffffffffffffffffff1681565b60008054906101000a900473ffffffffffffffffffffffffffffffffffffffff1673ffffffffffffffffffffffffffffffffffffffff163373ffffffffffffffffffffffffffffffffffffffff161461022f57600080fd5b600073ffffffffffffffffffffffffffffffffffffffff168173ffffffffffffffffffffffffffffffffffffffff16141561026957600080fd5b806000806101000a81548173ffffffffffffffffffffffffffffffffffffffff021916908373ffffffffffffffffffffffffffffffffffffffff16021790555050565b60008054906101000a900473ffffffffffffffffffffffffffffffffffffffff1673ffffffffffffffffffffffffffffffffffffffff163373ffffffffffffffffffffffffffffffffffffffff161461030457600080fd5b600073ffffffffffffffffffffffffffffffffffffffff168173ffffffffffffffffffffffffffffffffffffffff16141561033e57600080fd5b80600260006101000a81548173ffffffffffffffffffffffffffffffffffffffff021916908373ffffffffffffffffffffffffffffffffffffffff16021790555050565b60008054906101000a900473ffffffffffffffffffffffffffffffffffffffff1673ffffffffffffffffffffffffffffffffffffffff163373ffffffffffffffffffffffffffffffffffffffff16146103da57600080fd5b600260149054906101000a900460ff166103f357600080fd5b6000600260146101000a81548160ff021916908315150217905550565b60008054906101000a900473ffffffffffffffffffffffffffffffffffffffff1673ffffffffffffffffffffffffffffffffffffffff163373ffffffffffffffffffffffffffffffffffffffff161461046857600080fd5b600073ffffffffffffffffffffffffffffffffffffffff168173ffffffffffffffffffffffffffffffffffffffff1614156104a257600080fd5b80600160006101000a81548173ffffffffffffffffffffffffffffffffffffffff021916908373ffffffffffffffffffffffffffffffffffffffff16021790555050565b600260149054906101000a900460ff1681565b600160009054906101000a900473ffffffffffffffffffffffffffffffffffffffff1673ffffffffffffffffffffffffffffffffffffffff163373ffffffffffffffffffffffffffffffffffffffff161461055357600080fd5b600160009054906101000a900473ffffffffffffffffffffffffffffffffffffffff1673ffffffffffffffffffffffffffffffffffffffff166108fc479081150290604051600060405180830381858888f193505050501580156105bb573d6000803e3d6000fd5b50565b600260009054906101000a900473ffffffffffffffffffffffffffffffffffffffff1673ffffffffffffffffffffffffffffffffffffffff163373ffffffffffffffffffffffffffffffffffffffff161480610665575060008054906101000a900473ffffffffffffffffffffffffffffffffffffffff1673ffffffffffffffffffffffffffffffffffffffff163373ffffffffffffffffffffffffffffffffffffffff16145b806106bd5750600160009054906101000a900473ffffffffffffffffffffffffffffffffffffffff1673ffffffffffffffffffffffffffffffffffffffff163373ffffffffffffffffffffffffffffffffffffffff16145b6106c657600080fd5b600260149054906101000a900460ff16156106e057600080fd5b6001600260146101000a81548160ff021916908315150217905550565b600260009054906101000a900473ffffffffffffffffffffffffffffffffffffffff1681565b6000813590506107328161086d565b92915050565b60008135905061074781610884565b92915050565b60006020828403121561075f57600080fd5b600061076d84828501610723565b91505092915050565b60006020828403121561078857600080fd5b600061079684828501610738565b91505092915050565b6107a88161082f565b82525050565b6107b78161081d565b82525050565b6107c681610841565b82525050565b60006020820190506107e160008301846107ae565b92915050565b60006020820190506107fc600083018461079f565b92915050565b600060208201905061081760008301846107bd565b92915050565b60006108288261084d565b9050919050565b600061083a8261084d565b9050919050565b60008115159050919050565b600073ffffffffffffffffffffffffffffffffffffffff82169050919050565b6108768161081d565b811461088157600080fd5b50565b61088d8161082f565b811461089857600080fd5b5056fea26469706673582212200bc73fe7842aa83a7aef17a18981ddee71780183995926bf5fa3594fa7637f8f64736f6c63430008000033",
  "immutableReferences": {},
  "source": "// SPDX-License-Identifier: MIT\npragma solidity >=0.4.22 <0.9.0;\n\ncontract GizzyAccessControl {\n\n  //--------------------------------------------------------------------------------------------\n  //Roles and responsiblities:\n  // CEO: Can assign other roles and change the address of our dependent smart contracts.\n  //      It is also the only role that can unpause the smart contract. It is initially set to\n  //      the address that created the smart contract in the GizzyCore constructor\n  //\n  // CFO: Can withdraw funds from GizzyCore and its auction contracts.\n  //\n  // COO: Can release gen0 gizzies to auction and mint promo gizzies.\n  //--------------------------------------------------------------------------------------------\n\n  // @dev Emited when contract is upgraded.\n  event ContractUpgrade(address newContract);\n\n  // Addresses of the special accounts.\n  address public ceoAddress;\n  address payable public cfoAddress;\n  address public cooAddress;\n\n  // @dev Keeps track of whether the contracts is paused. If it is, most actions are blocked.\n  bool public paused = false;\n\n  // @dev Access modifier for CEO-only functions.\n  modifier onlyCEO() {\n    require(msg.sender == ceoAddress);\n    _;\n  }\n\n  // @dev Access modifier for CFO-only functions.\n  modifier onlyCFO() {\n    require(msg.sender == cfoAddress);\n    _;\n  }\n\n  // @dev Access modifier for COO-only functions.\n  modifier onlyCOO() {\n    require(msg.sender == cooAddress);\n    _;\n  }\n\n  // @dev Access modifier for C-Level-only functions.\n  modifier onlyCLevel() {\n    require(\n      msg.sender == cooAddress ||\n      msg.sender == ceoAddress ||\n      msg.sender == cfoAddress\n    );\n    _;\n  }\n\n  // @dev Assigns a new address to act as the CEO. Only available to current CEO.\n  // @param _newCEO The address of the new CEO.\n  function setCEO(address _newCEO) public onlyCEO {\n    require(_newCEO != address(0));\n\n    ceoAddress = _newCEO;\n  }\n\n  // @dev Assigns a new address to act as the CFO. Only available to current CEO.\n  // @param _newCFO The address of the new CFO.\n  function setCFO(address payable _newCFO) public onlyCEO {\n    require(_newCFO != address(0));\n\n    cfoAddress = _newCFO;\n  }\n\n  // @dev Assigns a new address to act as the COO. Only available to current CEO.\n  // @param _newCOO The address of the new COO.\n  function setCOO(address _newCOO) public onlyCEO {\n    require(_newCOO != address(0));\n\n    cooAddress = _newCOO;\n  }\n\n  function withdrawBalance() external onlyCFO {\n    cfoAddress.transfer(address(this).balance);\n  }\n\n  // @dev Modifier to allow actions only when the contract IS NOT paused.\n  modifier whenNotPaused() {\n    require(!paused);\n    _;\n  } \n\n  // @dev Modifier to allow actions only when the contract IS paused\n  modifier whenPaused() {\n    require(paused);\n    _;\n  }\n\n  // @dev Called by any C-level role to pause the contract. Used only when\n  // a bug or expoit is detected and we need to limit damange.\n  function pause() public onlyCLevel whenNotPaused {\n    paused = true;\n  }\n\n  // @dev Unpaused the smart contract. Can only be called by the CEO, since \n  // one reason we may pause the contract is when CFO or COO accounts are \n  // compromised\n  function unpause() public onlyCEO whenPaused {\n    paused = false;\n  }\n\n}\n",
  "sourcePath": "/home/imtiaz/Desktop/baeinnovations/gizzy-smartcontracts/contracts/GizzyAccessControl.sol",
  "compiler": {
    "name": "solc",
    "version": "0.8.0+commit.c7dfd78e.Emscripten.clang"
  },
  "schemaVersion": "3.4.0",
  "updatedAt": "2021-05-12T08:22:11.062Z",
  "networkType": "ethereum",
  "devdoc": {
    "kind": "dev",
    "methods": {},
    "version": 1
  },
  "userdoc": {
    "kind": "user",
    "methods": {},
    "version": 1
  }
}