{
  "contractName": "GizzyOwnership",
  "abi": [
    {
      "anonymous": false,
      "inputs": [
        {
          "indexed": true,
          "internalType": "address",
          "name": "owner",
          "type": "address"
        },
        {
          "indexed": true,
          "internalType": "address",
          "name": "approved",
          "type": "address"
        },
        {
          "indexed": true,
          "internalType": "uint256",
          "name": "tokenId",
          "type": "uint256"
        }
      ],
      "name": "Approval",
      "type": "event"
    },
    {
      "anonymous": false,
      "inputs": [
        {
          "indexed": true,
          "internalType": "address",
          "name": "owner",
          "type": "address"
        },
        {
          "indexed": true,
          "internalType": "address",
          "name": "operator",
          "type": "address"
        },
        {
          "indexed": false,
          "internalType": "bool",
          "name": "approved",
          "type": "bool"
        }
      ],
      "name": "ApprovalForAll",
      "type": "event"
    },
    {
      "anonymous": false,
      "inputs": [
        {
          "indexed": true,
          "internalType": "address",
          "name": "owner",
          "type": "address"
        },
        {
          "indexed": false,
          "internalType": "uint256",
          "name": "kittyId",
          "type": "uint256"
        },
        {
          "indexed": false,
          "internalType": "uint256",
          "name": "matronId",
          "type": "uint256"
        },
        {
          "indexed": false,
          "internalType": "uint256",
          "name": "sireId",
          "type": "uint256"
        },
        {
          "indexed": false,
          "internalType": "uint256",
          "name": "genes",
          "type": "uint256"
        }
      ],
      "name": "Birth",
      "type": "event"
    },
    {
      "anonymous": false,
      "inputs": [
        {
          "indexed": false,
          "internalType": "address",
          "name": "newContract",
          "type": "address"
        }
      ],
      "name": "ContractUpgrade",
      "type": "event"
    },
    {
      "anonymous": false,
      "inputs": [
        {
          "indexed": true,
          "internalType": "address",
          "name": "from",
          "type": "address"
        },
        {
          "indexed": true,
          "internalType": "address",
          "name": "to",
          "type": "address"
        },
        {
          "indexed": true,
          "internalType": "uint256",
          "name": "tokenId",
          "type": "uint256"
        }
      ],
      "name": "Transfer",
      "type": "event"
    },
    {
      "inputs": [],
      "name": "ceoAddress",
      "outputs": [
        {
          "internalType": "address",
          "name": "",
          "type": "address"
        }
      ],
      "stateMutability": "view",
      "type": "function",
      "constant": true
    },
    {
      "inputs": [],
      "name": "cfoAddress",
      "outputs": [
        {
          "internalType": "address payable",
          "name": "",
          "type": "address"
        }
      ],
      "stateMutability": "view",
      "type": "function",
      "constant": true
    },
    {
      "inputs": [],
      "name": "cooAddress",
      "outputs": [
        {
          "internalType": "address",
          "name": "",
          "type": "address"
        }
      ],
      "stateMutability": "view",
      "type": "function",
      "constant": true
    },
    {
      "inputs": [
        {
          "internalType": "uint256",
          "name": "",
          "type": "uint256"
        }
      ],
      "name": "cooldowns",
      "outputs": [
        {
          "internalType": "uint32",
          "name": "",
          "type": "uint32"
        }
      ],
      "stateMutability": "view",
      "type": "function",
      "constant": true
    },
    {
      "inputs": [
        {
          "internalType": "uint256",
          "name": "tokenId",
          "type": "uint256"
        }
      ],
      "name": "getApproved",
      "outputs": [
        {
          "internalType": "address",
          "name": "",
          "type": "address"
        }
      ],
      "stateMutability": "view",
      "type": "function",
      "constant": true
    },
    {
      "inputs": [
        {
          "internalType": "uint256",
          "name": "",
          "type": "uint256"
        }
      ],
      "name": "gizzyIndexToApproved",
      "outputs": [
        {
          "internalType": "address",
          "name": "",
          "type": "address"
        }
      ],
      "stateMutability": "view",
      "type": "function",
      "constant": true
    },
    {
      "inputs": [
        {
          "internalType": "uint256",
          "name": "",
          "type": "uint256"
        }
      ],
      "name": "gizzyIndexToOwner",
      "outputs": [
        {
          "internalType": "address",
          "name": "",
          "type": "address"
        }
      ],
      "stateMutability": "view",
      "type": "function",
      "constant": true
    },
    {
      "inputs": [
        {
          "internalType": "address",
          "name": "owner",
          "type": "address"
        },
        {
          "internalType": "address",
          "name": "operator",
          "type": "address"
        }
      ],
      "name": "isApprovedForAll",
      "outputs": [
        {
          "internalType": "bool",
          "name": "",
          "type": "bool"
        }
      ],
      "stateMutability": "view",
      "type": "function",
      "constant": true
    },
    {
      "inputs": [],
      "name": "name",
      "outputs": [
        {
          "internalType": "string",
          "name": "",
          "type": "string"
        }
      ],
      "stateMutability": "view",
      "type": "function",
      "constant": true
    },
    {
      "inputs": [],
      "name": "pause",
      "outputs": [],
      "stateMutability": "nonpayable",
      "type": "function"
    },
    {
      "inputs": [],
      "name": "paused",
      "outputs": [
        {
          "internalType": "bool",
          "name": "",
          "type": "bool"
        }
      ],
      "stateMutability": "view",
      "type": "function",
      "constant": true
    },
    {
      "inputs": [
        {
          "internalType": "address",
          "name": "from",
          "type": "address"
        },
        {
          "internalType": "address",
          "name": "to",
          "type": "address"
        },
        {
          "internalType": "uint256",
          "name": "tokenId",
          "type": "uint256"
        }
      ],
      "name": "safeTransferFrom",
      "outputs": [],
      "stateMutability": "nonpayable",
      "type": "function"
    },
    {
      "inputs": [
        {
          "internalType": "address",
          "name": "from",
          "type": "address"
        },
        {
          "internalType": "address",
          "name": "to",
          "type": "address"
        },
        {
          "internalType": "uint256",
          "name": "tokenId",
          "type": "uint256"
        },
        {
          "internalType": "bytes",
          "name": "_data",
          "type": "bytes"
        }
      ],
      "name": "safeTransferFrom",
      "outputs": [],
      "stateMutability": "nonpayable",
      "type": "function"
    },
    {
      "inputs": [
        {
          "internalType": "address",
          "name": "operator",
          "type": "address"
        },
        {
          "internalType": "bool",
          "name": "approved",
          "type": "bool"
        }
      ],
      "name": "setApprovalForAll",
      "outputs": [],
      "stateMutability": "nonpayable",
      "type": "function"
    },
    {
      "inputs": [
        {
          "internalType": "address",
          "name": "_newCEO",
          "type": "address"
        }
      ],
      "name": "setCEO",
      "outputs": [],
      "stateMutability": "nonpayable",
      "type": "function"
    },
    {
      "inputs": [
        {
          "internalType": "address payable",
          "name": "_newCFO",
          "type": "address"
        }
      ],
      "name": "setCFO",
      "outputs": [],
      "stateMutability": "nonpayable",
      "type": "function"
    },
    {
      "inputs": [
        {
          "internalType": "address",
          "name": "_newCOO",
          "type": "address"
        }
      ],
      "name": "setCOO",
      "outputs": [],
      "stateMutability": "nonpayable",
      "type": "function"
    },
    {
      "inputs": [
        {
          "internalType": "uint256",
          "name": "",
          "type": "uint256"
        }
      ],
      "name": "sireAllowedToAddress",
      "outputs": [
        {
          "internalType": "address",
          "name": "",
          "type": "address"
        }
      ],
      "stateMutability": "view",
      "type": "function",
      "constant": true
    },
    {
      "inputs": [
        {
          "internalType": "bytes4",
          "name": "interfaceId",
          "type": "bytes4"
        }
      ],
      "name": "supportsInterface",
      "outputs": [
        {
          "internalType": "bool",
          "name": "",
          "type": "bool"
        }
      ],
      "stateMutability": "view",
      "type": "function",
      "constant": true
    },
    {
      "inputs": [],
      "name": "symbol",
      "outputs": [
        {
          "internalType": "string",
          "name": "",
          "type": "string"
        }
      ],
      "stateMutability": "view",
      "type": "function",
      "constant": true
    },
    {
      "inputs": [
        {
          "internalType": "uint256",
          "name": "tokenId",
          "type": "uint256"
        }
      ],
      "name": "tokenURI",
      "outputs": [
        {
          "internalType": "string",
          "name": "",
          "type": "string"
        }
      ],
      "stateMutability": "view",
      "type": "function",
      "constant": true
    },
    {
      "inputs": [],
      "name": "unpause",
      "outputs": [],
      "stateMutability": "nonpayable",
      "type": "function"
    },
    {
      "inputs": [],
      "name": "withdrawBalance",
      "outputs": [],
      "stateMutability": "nonpayable",
      "type": "function"
    },
    {
      "inputs": [],
      "name": "implementsERC721",
      "outputs": [
        {
          "internalType": "bool",
          "name": "",
          "type": "bool"
        }
      ],
      "stateMutability": "pure",
      "type": "function",
      "constant": true
    },
    {
      "inputs": [
        {
          "internalType": "address",
          "name": "_owner",
          "type": "address"
        }
      ],
      "name": "balanceOf",
      "outputs": [
        {
          "internalType": "uint256",
          "name": "count",
          "type": "uint256"
        }
      ],
      "stateMutability": "view",
      "type": "function",
      "constant": true
    },
    {
      "inputs": [
        {
          "internalType": "address",
          "name": "_to",
          "type": "address"
        },
        {
          "internalType": "uint256",
          "name": "_tokenId",
          "type": "uint256"
        }
      ],
      "name": "transfer",
      "outputs": [],
      "stateMutability": "nonpayable",
      "type": "function"
    },
    {
      "inputs": [
        {
          "internalType": "address",
          "name": "_to",
          "type": "address"
        },
        {
          "internalType": "uint256",
          "name": "_tokenId",
          "type": "uint256"
        }
      ],
      "name": "approve",
      "outputs": [],
      "stateMutability": "nonpayable",
      "type": "function"
    },
    {
      "inputs": [
        {
          "internalType": "address",
          "name": "_from",
          "type": "address"
        },
        {
          "internalType": "address",
          "name": "_to",
          "type": "address"
        },
        {
          "internalType": "uint256",
          "name": "_tokenId",
          "type": "uint256"
        }
      ],
      "name": "transferFrom",
      "outputs": [],
      "stateMutability": "nonpayable",
      "type": "function"
    },
    {
      "inputs": [],
      "name": "totalSupply",
      "outputs": [
        {
          "internalType": "uint256",
          "name": "",
          "type": "uint256"
        }
      ],
      "stateMutability": "view",
      "type": "function",
      "constant": true
    },
    {
      "inputs": [
        {
          "internalType": "uint256",
          "name": "_tokenId",
          "type": "uint256"
        }
      ],
      "name": "ownerOf",
      "outputs": [
        {
          "internalType": "address",
          "name": "owner",
          "type": "address"
        }
      ],
      "stateMutability": "view",
      "type": "function",
      "constant": true
    }
  ],
  "bytecode": "0x60806040526000600260146101000a81548160ff021916908315150217905550604051806101c00160405280603c63ffffffff1663ffffffff168152602001607863ffffffff1663ffffffff16815260200161012c63ffffffff1663ffffffff16815260200161025863ffffffff1663ffffffff16815260200161070863ffffffff1663ffffffff168152602001610e1063ffffffff1663ffffffff168152602001611c2063ffffffff1663ffffffff16815260200161384063ffffffff1663ffffffff16815260200161708063ffffffff1663ffffffff16815260200161e10063ffffffff1663ffffffff1681526020016201518063ffffffff1663ffffffff1681526020016202a30063ffffffff1663ffffffff1681526020016205460063ffffffff1663ffffffff16815260200162093a8063ffffffff1663ffffffff16815250600990600e620001559291906200020a565b503480156200016357600080fd5b506040518060400160405280600581526020017f47697a7a790000000000000000000000000000000000000000000000000000008152506040518060400160405280600381526020017f475a5900000000000000000000000000000000000000000000000000000000008152508160039080519060200190620001e8929190620002b4565b50806004908051906020019062000201929190620002b4565b505050620003c9565b82600e600701600890048101928215620002a15791602002820160005b838211156200026d57835183826101000a81548163ffffffff021916908363ffffffff160217905550926020019260040160208160030104928301926001030262000227565b80156200029f5782816101000a81549063ffffffff02191690556004016020816003010492830192600103026200026d565b505b509050620002b0919062000345565b5090565b828054620002c29062000364565b90600052602060002090601f016020900481019282620002e6576000855562000332565b82601f106200030157805160ff191683800117855562000332565b8280016001018555821562000332579182015b828111156200033157825182559160200191906001019062000314565b5b50905062000341919062000345565b5090565b5b808211156200036057600081600090555060010162000346565b5090565b600060028204905060018216806200037d57607f821691505b602082108114156200039457620003936200039a565b5b50919050565b7f4e487b7100000000000000000000000000000000000000000000000000000000600052602260045260246000fd5b612aa780620003d96000396000f3fe608060405234801561001057600080fd5b50600436106101da5760003560e01c806346116e6f1161010457806395d89b41116100a2578063b047fb5011610071578063b047fb501461052f578063b88d4fde1461054d578063c87b56dd14610569578063e985e9c514610599576101da565b806395d89b41146104a95780639d6fac6f146104c7578063a22cb465146104f7578063a9059cbb14610513576101da565b80635fd8c710116100de5780635fd8c710146104355780636352211e1461043f57806370a082311461046f5780638456cb591461049f576101da565b806346116e6f146103cb5780634e0a3379146103fb5780635c975abb14610417576101da565b806318160ddd1161017c57806327d7874c1161014b57806327d7874c1461036d5780632ba73c15146103895780633f4ba83a146103a557806342842e0e146103af576101da565b806318160ddd146102d357806318eb540b146102f157806323668d981461032157806323b872dd14610351576101da565b8063081812fc116101b8578063081812fc1461024b578063095ea7b31461027b5780630a0f8168146102975780631051db34146102b5576101da565b806301ffc9a7146101df5780630519ce791461020f57806306fdde031461022d575b600080fd5b6101f960048036038101906101f49190612048565b6105c9565b60405161020691906124fb565b60405180910390f35b6102176106ab565b6040516102249190612494565b60405180910390f35b6102356106d1565b6040516102429190612516565b60405180910390f35b6102656004803603810190610260919061209a565b610763565b6040516102729190612479565b60405180910390f35b6102956004803603810190610290919061200c565b6107e8565b005b61029f61087e565b6040516102ac9190612479565b60405180910390f35b6102bd6108a2565b6040516102ca91906124fb565b60405180910390f35b6102db6108ab565b6040516102e89190612618565b60405180910390f35b61030b6004803603810190610306919061209a565b6108c4565b6040516103189190612479565b60405180910390f35b61033b6004803603810190610336919061209a565b6108f7565b6040516103489190612479565b60405180910390f35b61036b60048036038101906103669190611f06565b61092a565b005b61038760048036038101906103829190611e78565b61097a565b005b6103a3600480360381019061039e9190611e78565b610a4f565b005b6103ad610b25565b005b6103c960048036038101906103c49190611f06565b610bb3565b005b6103e560048036038101906103e0919061209a565b610bd3565b6040516103f29190612479565b60405180910390f35b61041560048036038101906104109190611ea1565b610c06565b005b61041f610cdc565b60405161042c91906124fb565b60405180910390f35b61043d610cef565b005b6104596004803603810190610454919061209a565b610db4565b6040516104669190612479565b60405180910390f35b61048960048036038101906104849190611e78565b610e2b565b6040516104969190612618565b60405180910390f35b6104a7610e74565b005b6104b1610fb3565b6040516104be9190612516565b60405180910390f35b6104e160048036038101906104dc919061209a565b611045565b6040516104ee9190612633565b60405180910390f35b610511600480360381019061050c9190611fd0565b611075565b005b61052d6004803603810190610528919061200c565b6111f6565b005b61053761126c565b6040516105449190612479565b60405180910390f35b61056760048036038101906105629190611f55565b611292565b005b610583600480360381019061057e919061209a565b6112f4565b6040516105909190612516565b60405180910390f35b6105b360048036038101906105ae9190611eca565b61139b565b6040516105c091906124fb565b60405180910390f35b60007f80ac58cd000000000000000000000000000000000000000000000000000000007bffffffffffffffffffffffffffffffffffffffffffffffffffffffff1916827bffffffffffffffffffffffffffffffffffffffffffffffffffffffff1916148061069457507f5b5e139f000000000000000000000000000000000000000000000000000000007bffffffffffffffffffffffffffffffffffffffffffffffffffffffff1916827bffffffffffffffffffffffffffffffffffffffffffffffffffffffff1916145b806106a457506106a38261142f565b5b9050919050565b600160009054906101000a900473ffffffffffffffffffffffffffffffffffffffff1681565b6060600380546106e090612885565b80601f016020809104026020016040519081016040528092919081815260200182805461070c90612885565b80156107595780601f1061072e57610100808354040283529160200191610759565b820191906000526020600020905b81548152906001019060200180831161073c57829003601f168201915b5050505050905090565b600061076e82611499565b6107ad576040517f08c379a00000000000000000000000000000000000000000000000000000000081526004016107a4906125b8565b60405180910390fd5b6007600083815260200190815260200160002060009054906101000a900473ffffffffffffffffffffffffffffffffffffffff169050919050565b600260149054906101000a900460ff161561080257600080fd5b61080c3382611505565b61081557600080fd5b61081f8183611571565b808273ffffffffffffffffffffffffffffffffffffffff163373ffffffffffffffffffffffffffffffffffffffff167f8c5be1e5ebec7d5bd14f71427d1e84f3dd0314c0f7b2291e5b200ac8c7c3b92560405160405180910390a45050565b60008054906101000a900473ffffffffffffffffffffffffffffffffffffffff1681565b60006001905090565b60006001600b805490506108bf9190612779565b905090565b600e6020528060005260406000206000915054906101000a900473ffffffffffffffffffffffffffffffffffffffff1681565b600c6020528060005260406000206000915054906101000a900473ffffffffffffffffffffffffffffffffffffffff1681565b600260149054906101000a900460ff161561094457600080fd5b61094e33826115c7565b61095757600080fd5b6109618382611505565b61096a57600080fd5b610975838383611633565b505050565b60008054906101000a900473ffffffffffffffffffffffffffffffffffffffff1673ffffffffffffffffffffffffffffffffffffffff163373ffffffffffffffffffffffffffffffffffffffff16146109d257600080fd5b600073ffffffffffffffffffffffffffffffffffffffff168173ffffffffffffffffffffffffffffffffffffffff161415610a0c57600080fd5b806000806101000a81548173ffffffffffffffffffffffffffffffffffffffff021916908373ffffffffffffffffffffffffffffffffffffffff16021790555050565b60008054906101000a900473ffffffffffffffffffffffffffffffffffffffff1673ffffffffffffffffffffffffffffffffffffffff163373ffffffffffffffffffffffffffffffffffffffff1614610aa757600080fd5b600073ffffffffffffffffffffffffffffffffffffffff168173ffffffffffffffffffffffffffffffffffffffff161415610ae157600080fd5b80600260006101000a81548173ffffffffffffffffffffffffffffffffffffffff021916908373ffffffffffffffffffffffffffffffffffffffff16021790555050565b60008054906101000a900473ffffffffffffffffffffffffffffffffffffffff1673ffffffffffffffffffffffffffffffffffffffff163373ffffffffffffffffffffffffffffffffffffffff1614610b7d57600080fd5b600260149054906101000a900460ff16610b9657600080fd5b6000600260146101000a81548160ff021916908315150217905550565b610bce83838360405180602001604052806000815250611292565b505050565b600f6020528060005260406000206000915054906101000a900473ffffffffffffffffffffffffffffffffffffffff1681565b60008054906101000a900473ffffffffffffffffffffffffffffffffffffffff1673ffffffffffffffffffffffffffffffffffffffff163373ffffffffffffffffffffffffffffffffffffffff1614610c5e57600080fd5b600073ffffffffffffffffffffffffffffffffffffffff168173ffffffffffffffffffffffffffffffffffffffff161415610c9857600080fd5b80600160006101000a81548173ffffffffffffffffffffffffffffffffffffffff021916908373ffffffffffffffffffffffffffffffffffffffff16021790555050565b600260149054906101000a900460ff1681565b600160009054906101000a900473ffffffffffffffffffffffffffffffffffffffff1673ffffffffffffffffffffffffffffffffffffffff163373ffffffffffffffffffffffffffffffffffffffff1614610d4957600080fd5b600160009054906101000a900473ffffffffffffffffffffffffffffffffffffffff1673ffffffffffffffffffffffffffffffffffffffff166108fc479081150290604051600060405180830381858888f19350505050158015610db1573d6000803e3d6000fd5b50565b6000600c600083815260200190815260200160002060009054906101000a900473ffffffffffffffffffffffffffffffffffffffff169050600073ffffffffffffffffffffffffffffffffffffffff168173ffffffffffffffffffffffffffffffffffffffff161415610e2657600080fd5b919050565b6000600d60008373ffffffffffffffffffffffffffffffffffffffff1673ffffffffffffffffffffffffffffffffffffffff168152602001908152602001600020549050919050565b600260009054906101000a900473ffffffffffffffffffffffffffffffffffffffff1673ffffffffffffffffffffffffffffffffffffffff163373ffffffffffffffffffffffffffffffffffffffff161480610f1b575060008054906101000a900473ffffffffffffffffffffffffffffffffffffffff1673ffffffffffffffffffffffffffffffffffffffff163373ffffffffffffffffffffffffffffffffffffffff16145b80610f735750600160009054906101000a900473ffffffffffffffffffffffffffffffffffffffff1673ffffffffffffffffffffffffffffffffffffffff163373ffffffffffffffffffffffffffffffffffffffff16145b610f7c57600080fd5b600260149054906101000a900460ff1615610f9657600080fd5b6001600260146101000a81548160ff021916908315150217905550565b606060048054610fc290612885565b80601f0160208091040260200160405190810160405280929190818152602001828054610fee90612885565b801561103b5780601f106110105761010080835404028352916020019161103b565b820191906000526020600020905b81548152906001019060200180831161101e57829003601f168201915b5050505050905090565b600981600e811061105557600080fd5b60089182820401919006600402915054906101000a900463ffffffff1681565b61107d611830565b73ffffffffffffffffffffffffffffffffffffffff168273ffffffffffffffffffffffffffffffffffffffff1614156110eb576040517f08c379a00000000000000000000000000000000000000000000000000000000081526004016110e290612558565b60405180910390fd5b80600860006110f8611830565b73ffffffffffffffffffffffffffffffffffffffff1673ffffffffffffffffffffffffffffffffffffffff16815260200190815260200160002060008473ffffffffffffffffffffffffffffffffffffffff1673ffffffffffffffffffffffffffffffffffffffff16815260200190815260200160002060006101000a81548160ff0219169083151502179055508173ffffffffffffffffffffffffffffffffffffffff166111a5611830565b73ffffffffffffffffffffffffffffffffffffffff167f17307eab39ab6107e8899845ad3d59bd9653f200f220920489ca2b5937696c31836040516111ea91906124fb565b60405180910390a35050565b600260149054906101000a900460ff161561121057600080fd5b600073ffffffffffffffffffffffffffffffffffffffff168273ffffffffffffffffffffffffffffffffffffffff16141561124a57600080fd5b6112543382611505565b61125d57600080fd5b611268338383611633565b5050565b600260009054906101000a900473ffffffffffffffffffffffffffffffffffffffff1681565b6112a361129d611830565b83611838565b6112e2576040517f08c379a00000000000000000000000000000000000000000000000000000000081526004016112d9906125f8565b60405180910390fd5b6112ee84848484611916565b50505050565b60606112ff82611499565b61133e576040517f08c379a0000000000000000000000000000000000000000000000000000000008152600401611335906125d8565b60405180910390fd5b6000611348611972565b905060008151116113685760405180602001604052806000815250611393565b8061137284611989565b604051602001611383929190612455565b6040516020818303038152906040525b915050919050565b6000600860008473ffffffffffffffffffffffffffffffffffffffff1673ffffffffffffffffffffffffffffffffffffffff16815260200190815260200160002060008373ffffffffffffffffffffffffffffffffffffffff1673ffffffffffffffffffffffffffffffffffffffff16815260200190815260200160002060009054906101000a900460ff16905092915050565b60007f01ffc9a7000000000000000000000000000000000000000000000000000000007bffffffffffffffffffffffffffffffffffffffffffffffffffffffff1916827bffffffffffffffffffffffffffffffffffffffffffffffffffffffff1916149050919050565b60008073ffffffffffffffffffffffffffffffffffffffff166005600084815260200190815260200160002060009054906101000a900473ffffffffffffffffffffffffffffffffffffffff1673ffffffffffffffffffffffffffffffffffffffff1614159050919050565b60008273ffffffffffffffffffffffffffffffffffffffff16600c600084815260200190815260200160002060009054906101000a900473ffffffffffffffffffffffffffffffffffffffff1673ffffffffffffffffffffffffffffffffffffffff1614905092915050565b80600e600084815260200190815260200160002060006101000a81548173ffffffffffffffffffffffffffffffffffffffff021916908373ffffffffffffffffffffffffffffffffffffffff1602179055505050565b60008273ffffffffffffffffffffffffffffffffffffffff16600c600084815260200190815260200160002060009054906101000a900473ffffffffffffffffffffffffffffffffffffffff1673ffffffffffffffffffffffffffffffffffffffff1614905092915050565b600d60008373ffffffffffffffffffffffffffffffffffffffff1673ffffffffffffffffffffffffffffffffffffffff1681526020019081526020016000206000815480929190611683906128b7565b919050555081600c600083815260200190815260200160002060006101000a81548173ffffffffffffffffffffffffffffffffffffffff021916908373ffffffffffffffffffffffffffffffffffffffff160217905550600073ffffffffffffffffffffffffffffffffffffffff168373ffffffffffffffffffffffffffffffffffffffff16146117d057600d60008473ffffffffffffffffffffffffffffffffffffffff1673ffffffffffffffffffffffffffffffffffffffff168152602001908152602001600020600081548092919061175e906128b7565b9190505550600f600082815260200190815260200160002060006101000a81549073ffffffffffffffffffffffffffffffffffffffff0219169055600e600082815260200190815260200160002060006101000a81549073ffffffffffffffffffffffffffffffffffffffff02191690555b808273ffffffffffffffffffffffffffffffffffffffff168473ffffffffffffffffffffffffffffffffffffffff167fddf252ad1be2c89b69c2b068fc378daa952ba7f163c4a11628f55a4df523b3ef60405160405180910390a4505050565b600033905090565b600061184382611499565b611882576040517f08c379a000000000000000000000000000000000000000000000000000000000815260040161187990612578565b60405180910390fd5b600061188d83611b36565b90508073ffffffffffffffffffffffffffffffffffffffff168473ffffffffffffffffffffffffffffffffffffffff1614806118fc57508373ffffffffffffffffffffffffffffffffffffffff166118e484610763565b73ffffffffffffffffffffffffffffffffffffffff16145b8061190d575061190c818561139b565b5b91505092915050565b611921848484611633565b61192d84848484611be8565b61196c576040517f08c379a000000000000000000000000000000000000000000000000000000000815260040161196390612538565b60405180910390fd5b50505050565b606060405180602001604052806000815250905090565b606060008214156119d1576040518060400160405280600181526020017f30000000000000000000000000000000000000000000000000000000000000008152509050611b31565b600082905060005b60008214611a035780806119ec906128b7565b915050600a826119fc9190612748565b91506119d9565b60008167ffffffffffffffff811115611a45577f4e487b7100000000000000000000000000000000000000000000000000000000600052604160045260246000fd5b6040519080825280601f01601f191660200182016040528015611a775781602001600182028036833780820191505090505b5090505b60008514611b2a57600182611a909190612779565b9150600a85611a9f9190612900565b6030611aab91906126f2565b60f81b818381518110611ae7577f4e487b7100000000000000000000000000000000000000000000000000000000600052603260045260246000fd5b60200101907effffffffffffffffffffffffffffffffffffffffffffffffffffffffffffff1916908160001a905350600a85611b239190612748565b9450611a7b565b8093505050505b919050565b6000806005600084815260200190815260200160002060009054906101000a900473ffffffffffffffffffffffffffffffffffffffff169050600073ffffffffffffffffffffffffffffffffffffffff168173ffffffffffffffffffffffffffffffffffffffff161415611bdf576040517f08c379a0000000000000000000000000000000000000000000000000000000008152600401611bd690612598565b60405180910390fd5b80915050919050565b6000611c098473ffffffffffffffffffffffffffffffffffffffff16611d7f565b15611d72578373ffffffffffffffffffffffffffffffffffffffff1663150b7a02611c32611830565b8786866040518563ffffffff1660e01b8152600401611c5494939291906124af565b602060405180830381600087803b158015611c6e57600080fd5b505af1925050508015611c9f57506040513d601f19601f82011682018060405250810190611c9c9190612071565b60015b611d22573d8060008114611ccf576040519150601f19603f3d011682016040523d82523d6000602084013e611cd4565b606091505b50600081511415611d1a576040517f08c379a0000000000000000000000000000000000000000000000000000000008152600401611d1190612538565b60405180910390fd5b805181602001fd5b63150b7a0260e01b7bffffffffffffffffffffffffffffffffffffffffffffffffffffffff1916817bffffffffffffffffffffffffffffffffffffffffffffffffffffffff191614915050611d77565b600190505b949350505050565b600080823b905060008111915050919050565b6000611da5611da08461267f565b61264e565b905082815260208101848484011115611dbd57600080fd5b611dc8848285612843565b509392505050565b600081359050611ddf816129fe565b92915050565b600081359050611df481612a15565b92915050565b600081359050611e0981612a2c565b92915050565b600081359050611e1e81612a43565b92915050565b600081519050611e3381612a43565b92915050565b600082601f830112611e4a57600080fd5b8135611e5a848260208601611d92565b91505092915050565b600081359050611e7281612a5a565b92915050565b600060208284031215611e8a57600080fd5b6000611e9884828501611dd0565b91505092915050565b600060208284031215611eb357600080fd5b6000611ec184828501611de5565b91505092915050565b60008060408385031215611edd57600080fd5b6000611eeb85828601611dd0565b9250506020611efc85828601611dd0565b9150509250929050565b600080600060608486031215611f1b57600080fd5b6000611f2986828701611dd0565b9350506020611f3a86828701611dd0565b9250506040611f4b86828701611e63565b9150509250925092565b60008060008060808587031215611f6b57600080fd5b6000611f7987828801611dd0565b9450506020611f8a87828801611dd0565b9350506040611f9b87828801611e63565b925050606085013567ffffffffffffffff811115611fb857600080fd5b611fc487828801611e39565b91505092959194509250565b60008060408385031215611fe357600080fd5b6000611ff185828601611dd0565b925050602061200285828601611dfa565b9150509250929050565b6000806040838503121561201f57600080fd5b600061202d85828601611dd0565b925050602061203e85828601611e63565b9150509250929050565b60006020828403121561205a57600080fd5b600061206884828501611e0f565b91505092915050565b60006020828403121561208357600080fd5b600061209184828501611e24565b91505092915050565b6000602082840312156120ac57600080fd5b60006120ba84828501611e63565b91505092915050565b6120cc816127bf565b82525050565b6120db816127ad565b82525050565b6120ea816127d1565b82525050565b60006120fb826126af565b61210581856126c5565b9350612115818560208601612852565b61211e816129ed565b840191505092915050565b6000612134826126ba565b61213e81856126d6565b935061214e818560208601612852565b612157816129ed565b840191505092915050565b600061216d826126ba565b61217781856126e7565b9350612187818560208601612852565b80840191505092915050565b60006121a06032836126d6565b91507f4552433732313a207472616e7366657220746f206e6f6e20455243373231526560008301527f63656976657220696d706c656d656e74657200000000000000000000000000006020830152604082019050919050565b60006122066019836126d6565b91507f4552433732313a20617070726f766520746f2063616c6c6572000000000000006000830152602082019050919050565b6000612246602c836126d6565b91507f4552433732313a206f70657261746f7220717565727920666f72206e6f6e657860008301527f697374656e7420746f6b656e00000000000000000000000000000000000000006020830152604082019050919050565b60006122ac6029836126d6565b91507f4552433732313a206f776e657220717565727920666f72206e6f6e657869737460008301527f656e7420746f6b656e00000000000000000000000000000000000000000000006020830152604082019050919050565b6000612312602c836126d6565b91507f4552433732313a20617070726f76656420717565727920666f72206e6f6e657860008301527f697374656e7420746f6b656e00000000000000000000000000000000000000006020830152604082019050919050565b6000612378602f836126d6565b91507f4552433732314d657461646174613a2055524920717565727920666f72206e6f60008301527f6e6578697374656e7420746f6b656e00000000000000000000000000000000006020830152604082019050919050565b60006123de6031836126d6565b91507f4552433732313a207472616e736665722063616c6c6572206973206e6f74206f60008301527f776e6572206e6f7220617070726f7665640000000000000000000000000000006020830152604082019050919050565b61244081612829565b82525050565b61244f81612833565b82525050565b60006124618285612162565b915061246d8284612162565b91508190509392505050565b600060208201905061248e60008301846120d2565b92915050565b60006020820190506124a960008301846120c3565b92915050565b60006080820190506124c460008301876120d2565b6124d160208301866120d2565b6124de6040830185612437565b81810360608301526124f081846120f0565b905095945050505050565b600060208201905061251060008301846120e1565b92915050565b600060208201905081810360008301526125308184612129565b905092915050565b6000602082019050818103600083015261255181612193565b9050919050565b60006020820190508181036000830152612571816121f9565b9050919050565b6000602082019050818103600083015261259181612239565b9050919050565b600060208201905081810360008301526125b18161229f565b9050919050565b600060208201905081810360008301526125d181612305565b9050919050565b600060208201905081810360008301526125f18161236b565b9050919050565b60006020820190508181036000830152612611816123d1565b9050919050565b600060208201905061262d6000830184612437565b92915050565b60006020820190506126486000830184612446565b92915050565b6000604051905081810181811067ffffffffffffffff82111715612675576126746129be565b5b8060405250919050565b600067ffffffffffffffff82111561269a576126996129be565b5b601f19601f8301169050602081019050919050565b600081519050919050565b600081519050919050565b600082825260208201905092915050565b600082825260208201905092915050565b600081905092915050565b60006126fd82612829565b915061270883612829565b9250827fffffffffffffffffffffffffffffffffffffffffffffffffffffffffffffffff0382111561273d5761273c612931565b5b828201905092915050565b600061275382612829565b915061275e83612829565b92508261276e5761276d612960565b5b828204905092915050565b600061278482612829565b915061278f83612829565b9250828210156127a2576127a1612931565b5b828203905092915050565b60006127b882612809565b9050919050565b60006127ca82612809565b9050919050565b60008115159050919050565b60007fffffffff0000000000000000000000000000000000000000000000000000000082169050919050565b600073ffffffffffffffffffffffffffffffffffffffff82169050919050565b6000819050919050565b600063ffffffff82169050919050565b82818337600083830152505050565b60005b83811015612870578082015181840152602081019050612855565b8381111561287f576000848401525b50505050565b6000600282049050600182168061289d57607f821691505b602082108114156128b1576128b061298f565b5b50919050565b60006128c282612829565b91507fffffffffffffffffffffffffffffffffffffffffffffffffffffffffffffffff8214156128f5576128f4612931565b5b600182019050919050565b600061290b82612829565b915061291683612829565b92508261292657612925612960565b5b828206905092915050565b7f4e487b7100000000000000000000000000000000000000000000000000000000600052601160045260246000fd5b7f4e487b7100000000000000000000000000000000000000000000000000000000600052601260045260246000fd5b7f4e487b7100000000000000000000000000000000000000000000000000000000600052602260045260246000fd5b7f4e487b7100000000000000000000000000000000000000000000000000000000600052604160045260246000fd5b6000601f19601f8301169050919050565b612a07816127ad565b8114612a1257600080fd5b50565b612a1e816127bf565b8114612a2957600080fd5b50565b612a35816127d1565b8114612a4057600080fd5b50565b612a4c816127dd565b8114612a5757600080fd5b50565b612a6381612829565b8114612a6e57600080fd5b5056fea2646970667358221220015daca3df4a967efc5dd9e38e6ae120dcc28eb873087bd389f3f563aecb8c8064736f6c63430008000033",
  "immutableReferences": {},
  "source": "// SPDX-License-Identifier: MIT\npragma solidity >=0.4.22 <0.9.0;\n\nimport \"./GizzyBase.sol\";\n\ncontract GizzyOwnership is GizzyBase{\n\n  function implementsERC721() public pure returns (bool){\n    return true;\n  }\n\n  // checks if the given address is the current owner of the particular gizzy\n  // @param _claimant the address that is the alleged owner\n  // @param _tokenId gizzy id, only valid when > 0\n  function _owns(address _claimant, uint256 _tokenId) internal view returns (bool) {\n    return gizzyIndexToOwner[_tokenId] == _claimant;\n  }\n\n  // checks if a given address currently has transferApproval for a particular gizzy\n  // @param _claimant the address we are confirming the gizzy is for (new future owner)\n  // @param _tokenId gizzy id, only valid when > 0\n  function _approvedFor(address _claimant, uint256 _tokenId) internal view returns (bool) {\n    return gizzyIndexToOwner[_tokenId] == _claimant;\n  }\n\n  // @dev Marks an address as being approved for transferFrom(), overwriting any previous\n  // approval. Setting _approve() to address(0) clears all transfer approval\n  function _approve(uint256 _tokenId, address _approved) internal {\n    gizzyIndexToApproved[_tokenId] = _approved;\n  }\n\n  function balanceOf(address _owner) override public view returns (uint256 count) {\n    return ownershipTokenCount[_owner];\n  }\n\n  function transfer(\n    address _to,\n    uint256 _tokenId\n  )\n    public\n    whenNotPaused\n  {\n    // Safety check to prevent against an unexpected 0x0 default\n    require(_to != address(0));\n    // You can only send your own gizzy\n    require(_owns(msg.sender, _tokenId));\n\n    _transfer(msg.sender, _to, _tokenId);\n  }\n\n  function approve(\n    address _to,\n    uint _tokenId\n  )\n    override\n    public\n    whenNotPaused\n  {\n    // Only owner can grant transfer approval\n    require(_owns(msg.sender, _tokenId));\n\n    // Register the aapproval replacing any previous approval\n    _approve(_tokenId, _to);\n\n    // Emit the approval event\n    emit Approval(msg.sender, _to, _tokenId);\n  }\n\n  function transferFrom(\n    address _from,\n    address _to,\n    uint256 _tokenId\n  )\n    override\n    public\n    whenNotPaused\n  {\n    // Check for approval and valid ownership\n    require(_approvedFor(msg.sender, _tokenId));\n    require(_owns(_from, _tokenId));\n  \n    // Reassign ownership (also clears pending approvals and emits Transfer event)\n    _transfer(_from, _to, _tokenId);\n  }\n\n  function totalSupply() public view returns (uint) {\n    return gizzies.length - 1;\n  }\n\n  function ownerOf(uint256 _tokenId)\n    override\n    public\n    view\n    returns (address owner)\n  {\n    owner = gizzyIndexToOwner[_tokenId];\n    require(owner != address(0));\n  }\n\n}\n",
  "sourcePath": "/home/imtiaz/Desktop/baeinnovations/gizzy-smartcontracts/contracts/GizzyOwnership.sol",
  "compiler": {
    "name": "solc",
    "version": "0.8.0+commit.c7dfd78e.Emscripten.clang"
  },
  "schemaVersion": "3.4.0",
  "updatedAt": "2021-05-19T10:39:00.030Z",
  "networkType": "ethereum",
  "devdoc": {
    "kind": "dev",
    "methods": {
      "getApproved(uint256)": {
        "details": "See {IERC721-getApproved}."
      },
      "isApprovedForAll(address,address)": {
        "details": "See {IERC721-isApprovedForAll}."
      },
      "name()": {
        "details": "See {IERC721Metadata-name}."
      },
      "safeTransferFrom(address,address,uint256)": {
        "details": "See {IERC721-safeTransferFrom}."
      },
      "safeTransferFrom(address,address,uint256,bytes)": {
        "details": "See {IERC721-safeTransferFrom}."
      },
      "setApprovalForAll(address,bool)": {
        "details": "See {IERC721-setApprovalForAll}."
      },
      "supportsInterface(bytes4)": {
        "details": "See {IERC165-supportsInterface}."
      },
      "symbol()": {
        "details": "See {IERC721Metadata-symbol}."
      },
      "tokenURI(uint256)": {
        "details": "See {IERC721Metadata-tokenURI}."
      }
    },
    "version": 1
  },
  "userdoc": {
    "kind": "user",
    "methods": {},
    "version": 1
  }
}