{
  "contractName": "GizzyMinting",
  "abi": [
    {
      "anonymous": false,
      "inputs": [
        {
          "indexed": true,
          "internalType": "address",
          "name": "owner",
          "type": "address"
        },
        {
          "indexed": true,
          "internalType": "address",
          "name": "approved",
          "type": "address"
        },
        {
          "indexed": true,
          "internalType": "uint256",
          "name": "tokenId",
          "type": "uint256"
        }
      ],
      "name": "Approval",
      "type": "event"
    },
    {
      "anonymous": false,
      "inputs": [
        {
          "indexed": true,
          "internalType": "address",
          "name": "owner",
          "type": "address"
        },
        {
          "indexed": true,
          "internalType": "address",
          "name": "operator",
          "type": "address"
        },
        {
          "indexed": false,
          "internalType": "bool",
          "name": "approved",
          "type": "bool"
        }
      ],
      "name": "ApprovalForAll",
      "type": "event"
    },
    {
      "anonymous": false,
      "inputs": [
        {
          "indexed": false,
          "internalType": "address",
          "name": "owner",
          "type": "address"
        },
        {
          "indexed": false,
          "internalType": "uint256",
          "name": "gizzyId",
          "type": "uint256"
        }
      ],
      "name": "AuctionStarted",
      "type": "event"
    },
    {
      "anonymous": false,
      "inputs": [
        {
          "indexed": false,
          "internalType": "address",
          "name": "bidder",
          "type": "address"
        },
        {
          "indexed": false,
          "internalType": "uint256",
          "name": "auctionId",
          "type": "uint256"
        },
        {
          "indexed": false,
          "internalType": "uint256",
          "name": "amount",
          "type": "uint256"
        }
      ],
      "name": "Bid",
      "type": "event"
    },
    {
      "anonymous": false,
      "inputs": [
        {
          "indexed": true,
          "internalType": "address",
          "name": "owner",
          "type": "address"
        },
        {
          "indexed": false,
          "internalType": "uint256",
          "name": "kittyId",
          "type": "uint256"
        },
        {
          "indexed": false,
          "internalType": "uint256",
          "name": "matronId",
          "type": "uint256"
        },
        {
          "indexed": false,
          "internalType": "uint256",
          "name": "sireId",
          "type": "uint256"
        },
        {
          "indexed": false,
          "internalType": "uint256",
          "name": "genes",
          "type": "uint256"
        }
      ],
      "name": "Birth",
      "type": "event"
    },
    {
      "anonymous": false,
      "inputs": [
        {
          "indexed": false,
          "internalType": "address",
          "name": "newContract",
          "type": "address"
        }
      ],
      "name": "ContractUpgrade",
      "type": "event"
    },
    {
      "anonymous": false,
      "inputs": [
        {
          "indexed": true,
          "internalType": "address",
          "name": "from",
          "type": "address"
        },
        {
          "indexed": true,
          "internalType": "address",
          "name": "to",
          "type": "address"
        },
        {
          "indexed": true,
          "internalType": "uint256",
          "name": "tokenId",
          "type": "uint256"
        }
      ],
      "name": "Transfer",
      "type": "event"
    },
    {
      "inputs": [
        {
          "internalType": "address",
          "name": "to",
          "type": "address"
        },
        {
          "internalType": "uint256",
          "name": "tokenId",
          "type": "uint256"
        }
      ],
      "name": "approve",
      "outputs": [],
      "stateMutability": "nonpayable",
      "type": "function"
    },
    {
      "inputs": [
        {
          "internalType": "address",
          "name": "owner",
          "type": "address"
        }
      ],
      "name": "balanceOf",
      "outputs": [
        {
          "internalType": "uint256",
          "name": "",
          "type": "uint256"
        }
      ],
      "stateMutability": "view",
      "type": "function"
    },
    {
      "inputs": [],
      "name": "ceoAddress",
      "outputs": [
        {
          "internalType": "address",
          "name": "",
          "type": "address"
        }
      ],
      "stateMutability": "view",
      "type": "function"
    },
    {
      "inputs": [],
      "name": "cfoAddress",
      "outputs": [
        {
          "internalType": "address payable",
          "name": "",
          "type": "address"
        }
      ],
      "stateMutability": "view",
      "type": "function"
    },
    {
      "inputs": [],
      "name": "cooAddress",
      "outputs": [
        {
          "internalType": "address",
          "name": "",
          "type": "address"
        }
      ],
      "stateMutability": "view",
      "type": "function"
    },
    {
      "inputs": [
        {
          "internalType": "uint256",
          "name": "",
          "type": "uint256"
        }
      ],
      "name": "cooldowns",
      "outputs": [
        {
          "internalType": "uint32",
          "name": "",
          "type": "uint32"
        }
      ],
      "stateMutability": "view",
      "type": "function"
    },
    {
      "inputs": [
        {
          "internalType": "uint256",
          "name": "auctionId",
          "type": "uint256"
        }
      ],
      "name": "endAuction",
      "outputs": [],
      "stateMutability": "nonpayable",
      "type": "function"
    },
    {
      "inputs": [],
      "name": "gen0AuctionDuration",
      "outputs": [
        {
          "internalType": "uint256",
          "name": "",
          "type": "uint256"
        }
      ],
      "stateMutability": "view",
      "type": "function"
    },
    {
      "inputs": [],
      "name": "gen0CreatedCount",
      "outputs": [
        {
          "internalType": "uint256",
          "name": "",
          "type": "uint256"
        }
      ],
      "stateMutability": "view",
      "type": "function"
    },
    {
      "inputs": [],
      "name": "gen0CreationLimit",
      "outputs": [
        {
          "internalType": "uint256",
          "name": "",
          "type": "uint256"
        }
      ],
      "stateMutability": "view",
      "type": "function"
    },
    {
      "inputs": [],
      "name": "gen0StartingPrice",
      "outputs": [
        {
          "internalType": "uint256",
          "name": "",
          "type": "uint256"
        }
      ],
      "stateMutability": "view",
      "type": "function"
    },
    {
      "inputs": [
        {
          "internalType": "uint256",
          "name": "tokenId",
          "type": "uint256"
        }
      ],
      "name": "getApproved",
      "outputs": [
        {
          "internalType": "address",
          "name": "",
          "type": "address"
        }
      ],
      "stateMutability": "view",
      "type": "function"
    },
    {
      "inputs": [
        {
          "internalType": "address",
          "name": "owner",
          "type": "address"
        },
        {
          "internalType": "address",
          "name": "operator",
          "type": "address"
        }
      ],
      "name": "isApprovedForAll",
      "outputs": [
        {
          "internalType": "bool",
          "name": "",
          "type": "bool"
        }
      ],
      "stateMutability": "view",
      "type": "function"
    },
    {
      "inputs": [],
      "name": "name",
      "outputs": [
        {
          "internalType": "string",
          "name": "",
          "type": "string"
        }
      ],
      "stateMutability": "view",
      "type": "function"
    },
    {
      "inputs": [
        {
          "internalType": "uint256",
          "name": "tokenId",
          "type": "uint256"
        }
      ],
      "name": "ownerOf",
      "outputs": [
        {
          "internalType": "address",
          "name": "",
          "type": "address"
        }
      ],
      "stateMutability": "view",
      "type": "function"
    },
    {
      "inputs": [],
      "name": "pause",
      "outputs": [],
      "stateMutability": "nonpayable",
      "type": "function"
    },
    {
      "inputs": [],
      "name": "paused",
      "outputs": [
        {
          "internalType": "bool",
          "name": "",
          "type": "bool"
        }
      ],
      "stateMutability": "view",
      "type": "function"
    },
    {
      "inputs": [
        {
          "internalType": "uint256",
          "name": "_auctionId",
          "type": "uint256"
        }
      ],
      "name": "placeBid",
      "outputs": [],
      "stateMutability": "payable",
      "type": "function"
    },
    {
      "inputs": [],
      "name": "promoCreatedCount",
      "outputs": [
        {
          "internalType": "uint256",
          "name": "",
          "type": "uint256"
        }
      ],
      "stateMutability": "view",
      "type": "function"
    },
    {
      "inputs": [],
      "name": "promoCreationLimit",
      "outputs": [
        {
          "internalType": "uint256",
          "name": "",
          "type": "uint256"
        }
      ],
      "stateMutability": "view",
      "type": "function"
    },
    {
      "inputs": [
        {
          "internalType": "address",
          "name": "from",
          "type": "address"
        },
        {
          "internalType": "address",
          "name": "to",
          "type": "address"
        },
        {
          "internalType": "uint256",
          "name": "tokenId",
          "type": "uint256"
        }
      ],
      "name": "safeTransferFrom",
      "outputs": [],
      "stateMutability": "nonpayable",
      "type": "function"
    },
    {
      "inputs": [
        {
          "internalType": "address",
          "name": "from",
          "type": "address"
        },
        {
          "internalType": "address",
          "name": "to",
          "type": "address"
        },
        {
          "internalType": "uint256",
          "name": "tokenId",
          "type": "uint256"
        },
        {
          "internalType": "bytes",
          "name": "_data",
          "type": "bytes"
        }
      ],
      "name": "safeTransferFrom",
      "outputs": [],
      "stateMutability": "nonpayable",
      "type": "function"
    },
    {
      "inputs": [
        {
          "internalType": "address",
          "name": "operator",
          "type": "address"
        },
        {
          "internalType": "bool",
          "name": "approved",
          "type": "bool"
        }
      ],
      "name": "setApprovalForAll",
      "outputs": [],
      "stateMutability": "nonpayable",
      "type": "function"
    },
    {
      "inputs": [
        {
          "internalType": "address",
          "name": "_newCEO",
          "type": "address"
        }
      ],
      "name": "setCEO",
      "outputs": [],
      "stateMutability": "nonpayable",
      "type": "function"
    },
    {
      "inputs": [
        {
          "internalType": "address payable",
          "name": "_newCFO",
          "type": "address"
        }
      ],
      "name": "setCFO",
      "outputs": [],
      "stateMutability": "nonpayable",
      "type": "function"
    },
    {
      "inputs": [
        {
          "internalType": "address",
          "name": "_newCOO",
          "type": "address"
        }
      ],
      "name": "setCOO",
      "outputs": [],
      "stateMutability": "nonpayable",
      "type": "function"
    },
    {
      "inputs": [
        {
          "internalType": "uint256",
          "name": "_gizzyId",
          "type": "uint256"
        },
        {
          "internalType": "uint256",
          "name": "_startingPrice",
          "type": "uint256"
        },
        {
          "internalType": "uint256",
          "name": "_duration",
          "type": "uint256"
        }
      ],
      "name": "startAuction",
      "outputs": [],
      "stateMutability": "nonpayable",
      "type": "function"
    },
    {
      "inputs": [
        {
          "internalType": "bytes4",
          "name": "interfaceId",
          "type": "bytes4"
        }
      ],
      "name": "supportsInterface",
      "outputs": [
        {
          "internalType": "bool",
          "name": "",
          "type": "bool"
        }
      ],
      "stateMutability": "view",
      "type": "function"
    },
    {
      "inputs": [],
      "name": "symbol",
      "outputs": [
        {
          "internalType": "string",
          "name": "",
          "type": "string"
        }
      ],
      "stateMutability": "view",
      "type": "function"
    },
    {
      "inputs": [
        {
          "internalType": "uint256",
          "name": "tokenId",
          "type": "uint256"
        }
      ],
      "name": "tokenURI",
      "outputs": [
        {
          "internalType": "string",
          "name": "",
          "type": "string"
        }
      ],
      "stateMutability": "view",
      "type": "function"
    },
    {
      "inputs": [
        {
          "internalType": "address",
          "name": "from",
          "type": "address"
        },
        {
          "internalType": "address",
          "name": "to",
          "type": "address"
        },
        {
          "internalType": "uint256",
          "name": "tokenId",
          "type": "uint256"
        }
      ],
      "name": "transferFrom",
      "outputs": [],
      "stateMutability": "nonpayable",
      "type": "function"
    },
    {
      "inputs": [],
      "name": "unpause",
      "outputs": [],
      "stateMutability": "nonpayable",
      "type": "function"
    },
    {
      "inputs": [],
      "name": "withdrawBalance",
      "outputs": [],
      "stateMutability": "nonpayable",
      "type": "function"
    },
    {
      "inputs": [
        {
          "internalType": "uint256",
          "name": "_genes",
          "type": "uint256"
        },
        {
          "internalType": "address",
          "name": "_owner",
          "type": "address"
        }
      ],
      "name": "createPromoGizzy",
      "outputs": [],
      "stateMutability": "nonpayable",
      "type": "function"
    }
  ],
  "bytecode": "0x60806040526000600260146101000a81548160ff021916908315150217905550604051806101c00160405280603c63ffffffff1663ffffffff168152602001607863ffffffff1663ffffffff16815260200161012c63ffffffff1663ffffffff16815260200161025863ffffffff1663ffffffff16815260200161070863ffffffff1663ffffffff168152602001610e1063ffffffff1663ffffffff168152602001611c2063ffffffff1663ffffffff16815260200161384063ffffffff1663ffffffff16815260200161708063ffffffff1663ffffffff16815260200161e10063ffffffff1663ffffffff1681526020016201518063ffffffff1663ffffffff1681526020016202a30063ffffffff1663ffffffff1681526020016205460063ffffffff1663ffffffff16815260200162093a8063ffffffff1663ffffffff16815250600990600e6200015592919062000226565b50611388600d5561c350600e556402540be400600f55620151806010553480156200017f57600080fd5b506040518060400160405280600581526020017f47697a7a790000000000000000000000000000000000000000000000000000008152506040518060400160405280600381526020017f475a590000000000000000000000000000000000000000000000000000000000815250816003908051906020019062000204929190620002d0565b5080600490805190602001906200021d929190620002d0565b505050620003e5565b82600e600701600890048101928215620002bd5791602002820160005b838211156200028957835183826101000a81548163ffffffff021916908363ffffffff160217905550926020019260040160208160030104928301926001030262000243565b8015620002bb5782816101000a81549063ffffffff021916905560040160208160030104928301926001030262000289565b505b509050620002cc919062000361565b5090565b828054620002de9062000380565b90600052602060002090601f0160209004810192826200030257600085556200034e565b82601f106200031d57805160ff19168380011785556200034e565b828001600101855582156200034e579182015b828111156200034d57825182559160200191906001019062000330565b5b5090506200035d919062000361565b5090565b5b808211156200037c57600081600090555060010162000362565b5090565b600060028204905060018216806200039957607f821691505b60208210811415620003b057620003af620003b6565b5b50919050565b7f4e487b7100000000000000000000000000000000000000000000000000000000600052602260045260246000fd5b61388080620003f56000396000f3fe6080604052600436106101f95760003560e01c806370a082311161010d578063b047fb50116100a0578063c87b56dd1161006f578063c87b56dd146106d8578063ca3d5bba14610715578063e985e9c51461073e578063eb845c171461077b578063f1ca9410146107a6576101f9565b8063b047fb5014610630578063b53193351461065b578063b88d4fde14610686578063b9a2de3a146106af576101f9565b80639979ef45116100dc5780639979ef45146105835780639d6fac6f1461059f578063a22cb465146105dc578063ae4d0ff714610605576101f9565b806370a08231146104db5780638456cb591461051857806391e078bb1461052f57806395d89b4114610558576101f9565b806327d7874c1161019057806342842e0e1161015f57806342842e0e1461040a5780634e0a3379146104335780635c975abb1461045c5780635fd8c710146104875780636352211e1461049e576101f9565b806327d7874c146103765780632ba73c151461039f5780633f4ba83a146103c8578063404d0e3e146103df576101f9565b8063081812fc116101cc578063081812fc146102bc578063095ea7b3146102f95780630a0f81681461032257806323b872dd1461034d576101f9565b806301ffc9a7146101fe5780630519ce791461023b57806305e455461461026657806306fdde0314610291575b600080fd5b34801561020a57600080fd5b50610225600480360381019061022091906129ca565b6107d1565b60405161023291906131af565b60405180910390f35b34801561024757600080fd5b506102506108b3565b60405161025d919061311f565b60405180910390f35b34801561027257600080fd5b5061027b6108d9565b60405161028891906133ac565b60405180910390f35b34801561029d57600080fd5b506102a66108df565b6040516102b391906131ca565b60405180910390f35b3480156102c857600080fd5b506102e360048036038101906102de9190612a1c565b610971565b6040516102f09190613104565b60405180910390f35b34801561030557600080fd5b50610320600480360381019061031b919061298e565b6109f6565b005b34801561032e57600080fd5b50610337610b0e565b6040516103449190613104565b60405180910390f35b34801561035957600080fd5b50610374600480360381019061036f9190612888565b610b32565b005b34801561038257600080fd5b5061039d600480360381019061039891906127fa565b610b92565b005b3480156103ab57600080fd5b506103c660048036038101906103c191906127fa565b610c67565b005b3480156103d457600080fd5b506103dd610d3d565b005b3480156103eb57600080fd5b506103f4610dcb565b60405161040191906133ac565b60405180910390f35b34801561041657600080fd5b50610431600480360381019061042c9190612888565b610dd1565b005b34801561043f57600080fd5b5061045a60048036038101906104559190612823565b610df1565b005b34801561046857600080fd5b50610471610ec7565b60405161047e91906131af565b60405180910390f35b34801561049357600080fd5b5061049c610eda565b005b3480156104aa57600080fd5b506104c560048036038101906104c09190612a1c565b610f9f565b6040516104d29190613104565b60405180910390f35b3480156104e757600080fd5b5061050260048036038101906104fd91906127fa565b611051565b60405161050f91906133ac565b60405180910390f35b34801561052457600080fd5b5061052d611109565b005b34801561053b57600080fd5b5061055660048036038101906105519190612a81565b611248565b005b34801561056457600080fd5b5061056d6113b9565b60405161057a91906131ca565b60405180910390f35b61059d60048036038101906105989190612a1c565b61144b565b005b3480156105ab57600080fd5b506105c660048036038101906105c19190612a1c565b6114e7565b6040516105d3919061340c565b60405180910390f35b3480156105e857600080fd5b5061060360048036038101906105fe9190612952565b611517565b005b34801561061157600080fd5b5061061a611698565b60405161062791906133ac565b60405180910390f35b34801561063c57600080fd5b5061064561169e565b6040516106529190613104565b60405180910390f35b34801561066757600080fd5b506106706116c4565b60405161067d91906133ac565b60405180910390f35b34801561069257600080fd5b506106ad60048036038101906106a891906128d7565b6116ca565b005b3480156106bb57600080fd5b506106d660048036038101906106d19190612a1c565b61172c565b005b3480156106e457600080fd5b506106ff60048036038101906106fa9190612a1c565b61172f565b60405161070c91906131ca565b60405180910390f35b34801561072157600080fd5b5061073c60048036038101906107379190612a45565b6117d6565b005b34801561074a57600080fd5b506107656004803603810190610760919061284c565b6118ef565b60405161077291906131af565b60405180910390f35b34801561078757600080fd5b50610790611983565b60405161079d91906133ac565b60405180910390f35b3480156107b257600080fd5b506107bb611989565b6040516107c891906133ac565b60405180910390f35b60007f80ac58cd000000000000000000000000000000000000000000000000000000007bffffffffffffffffffffffffffffffffffffffffffffffffffffffff1916827bffffffffffffffffffffffffffffffffffffffffffffffffffffffff1916148061089c57507f5b5e139f000000000000000000000000000000000000000000000000000000007bffffffffffffffffffffffffffffffffffffffffffffffffffffffff1916827bffffffffffffffffffffffffffffffffffffffffffffffffffffffff1916145b806108ac57506108ab8261198f565b5b9050919050565b600160009054906101000a900473ffffffffffffffffffffffffffffffffffffffff1681565b60115481565b6060600380546108ee9061365e565b80601f016020809104026020016040519081016040528092919081815260200182805461091a9061365e565b80156109675780601f1061093c57610100808354040283529160200191610967565b820191906000526020600020905b81548152906001019060200180831161094a57829003601f168201915b5050505050905090565b600061097c826119f9565b6109bb576040517f08c379a00000000000000000000000000000000000000000000000000000000081526004016109b29061330c565b60405180910390fd5b6007600083815260200190815260200160002060009054906101000a900473ffffffffffffffffffffffffffffffffffffffff169050919050565b6000610a0182610f9f565b90508073ffffffffffffffffffffffffffffffffffffffff168373ffffffffffffffffffffffffffffffffffffffff161415610a72576040517f08c379a0000000000000000000000000000000000000000000000000000000008152600401610a699061336c565b60405180910390fd5b8073ffffffffffffffffffffffffffffffffffffffff16610a91611a65565b73ffffffffffffffffffffffffffffffffffffffff161480610ac05750610abf81610aba611a65565b6118ef565b5b610aff576040517f08c379a0000000000000000000000000000000000000000000000000000000008152600401610af69061328c565b60405180910390fd5b610b098383611a6d565b505050565b60008054906101000a900473ffffffffffffffffffffffffffffffffffffffff1681565b610b43610b3d611a65565b82611b26565b610b82576040517f08c379a0000000000000000000000000000000000000000000000000000000008152600401610b799061338c565b60405180910390fd5b610b8d838383611c04565b505050565b60008054906101000a900473ffffffffffffffffffffffffffffffffffffffff1673ffffffffffffffffffffffffffffffffffffffff163373ffffffffffffffffffffffffffffffffffffffff1614610bea57600080fd5b600073ffffffffffffffffffffffffffffffffffffffff168173ffffffffffffffffffffffffffffffffffffffff161415610c2457600080fd5b806000806101000a81548173ffffffffffffffffffffffffffffffffffffffff021916908373ffffffffffffffffffffffffffffffffffffffff16021790555050565b60008054906101000a900473ffffffffffffffffffffffffffffffffffffffff1673ffffffffffffffffffffffffffffffffffffffff163373ffffffffffffffffffffffffffffffffffffffff1614610cbf57600080fd5b600073ffffffffffffffffffffffffffffffffffffffff168173ffffffffffffffffffffffffffffffffffffffff161415610cf957600080fd5b80600260006101000a81548173ffffffffffffffffffffffffffffffffffffffff021916908373ffffffffffffffffffffffffffffffffffffffff16021790555050565b60008054906101000a900473ffffffffffffffffffffffffffffffffffffffff1673ffffffffffffffffffffffffffffffffffffffff163373ffffffffffffffffffffffffffffffffffffffff1614610d9557600080fd5b600260149054906101000a900460ff16610dae57600080fd5b6000600260146101000a81548160ff021916908315150217905550565b600e5481565b610dec838383604051806020016040528060008152506116ca565b505050565b60008054906101000a900473ffffffffffffffffffffffffffffffffffffffff1673ffffffffffffffffffffffffffffffffffffffff163373ffffffffffffffffffffffffffffffffffffffff1614610e4957600080fd5b600073ffffffffffffffffffffffffffffffffffffffff168173ffffffffffffffffffffffffffffffffffffffff161415610e8357600080fd5b80600160006101000a81548173ffffffffffffffffffffffffffffffffffffffff021916908373ffffffffffffffffffffffffffffffffffffffff16021790555050565b600260149054906101000a900460ff1681565b600160009054906101000a900473ffffffffffffffffffffffffffffffffffffffff1673ffffffffffffffffffffffffffffffffffffffff163373ffffffffffffffffffffffffffffffffffffffff1614610f3457600080fd5b600160009054906101000a900473ffffffffffffffffffffffffffffffffffffffff1673ffffffffffffffffffffffffffffffffffffffff166108fc479081150290604051600060405180830381858888f19350505050158015610f9c573d6000803e3d6000fd5b50565b6000806005600084815260200190815260200160002060009054906101000a900473ffffffffffffffffffffffffffffffffffffffff169050600073ffffffffffffffffffffffffffffffffffffffff168173ffffffffffffffffffffffffffffffffffffffff161415611048576040517f08c379a000000000000000000000000000000000000000000000000000000000815260040161103f906132cc565b60405180910390fd5b80915050919050565b60008073ffffffffffffffffffffffffffffffffffffffff168273ffffffffffffffffffffffffffffffffffffffff1614156110c2576040517f08c379a00000000000000000000000000000000000000000000000000000000081526004016110b9906132ac565b60405180910390fd5b600660008373ffffffffffffffffffffffffffffffffffffffff1673ffffffffffffffffffffffffffffffffffffffff168152602001908152602001600020549050919050565b600260009054906101000a900473ffffffffffffffffffffffffffffffffffffffff1673ffffffffffffffffffffffffffffffffffffffff163373ffffffffffffffffffffffffffffffffffffffff1614806111b0575060008054906101000a900473ffffffffffffffffffffffffffffffffffffffff1673ffffffffffffffffffffffffffffffffffffffff163373ffffffffffffffffffffffffffffffffffffffff16145b806112085750600160009054906101000a900473ffffffffffffffffffffffffffffffffffffffff1673ffffffffffffffffffffffffffffffffffffffff163373ffffffffffffffffffffffffffffffffffffffff16145b61121157600080fd5b600260149054906101000a900460ff161561122b57600080fd5b6001600260146101000a81548160ff021916908315150217905550565b60006040518060a001604052803373ffffffffffffffffffffffffffffffffffffffff168152602001858152602001848152602001600073ffffffffffffffffffffffffffffffffffffffff168152602001838152509050600c81908060018154018082558091505060019003906000526020600020906005020160009091909190915060008201518160000160006101000a81548173ffffffffffffffffffffffffffffffffffffffff021916908373ffffffffffffffffffffffffffffffffffffffff160217905550602082015181600101556040820151816002015560608201518160030160006101000a81548173ffffffffffffffffffffffffffffffffffffffff021916908373ffffffffffffffffffffffffffffffffffffffff1602179055506080820151816004015550507fc087c4cdb16906b5ff7016a6bf927618f24ff32eb1de5e86eeaeb08b94831a6833856040516113ab929190613186565b60405180910390a150505050565b6060600480546113c89061365e565b80601f01602080910402602001604051908101604052809291908181526020018280546113f49061365e565b80156114415780601f1061141657610100808354040283529160200191611441565b820191906000526020600020905b81548152906001019060200180831161142457829003601f168201915b5050505050905090565b6000600c8281548110611487577f4e487b7100000000000000000000000000000000000000000000000000000000600052603260045260246000fd5b90600052602060002090600502019050348160020181905550338160030160006101000a81548173ffffffffffffffffffffffffffffffffffffffff021916908373ffffffffffffffffffffffffffffffffffffffff1602179055505050565b600981600e81106114f757600080fd5b60089182820401919006600402915054906101000a900463ffffffff1681565b61151f611a65565b73ffffffffffffffffffffffffffffffffffffffff168273ffffffffffffffffffffffffffffffffffffffff16141561158d576040517f08c379a00000000000000000000000000000000000000000000000000000000081526004016115849061324c565b60405180910390fd5b806008600061159a611a65565b73ffffffffffffffffffffffffffffffffffffffff1673ffffffffffffffffffffffffffffffffffffffff16815260200190815260200160002060008473ffffffffffffffffffffffffffffffffffffffff1673ffffffffffffffffffffffffffffffffffffffff16815260200190815260200160002060006101000a81548160ff0219169083151502179055508173ffffffffffffffffffffffffffffffffffffffff16611647611a65565b73ffffffffffffffffffffffffffffffffffffffff167f17307eab39ab6107e8899845ad3d59bd9653f200f220920489ca2b5937696c318360405161168c91906131af565b60405180910390a35050565b600f5481565b600260009054906101000a900473ffffffffffffffffffffffffffffffffffffffff1681565b600d5481565b6116db6116d5611a65565b83611b26565b61171a576040517f08c379a00000000000000000000000000000000000000000000000000000000081526004016117119061338c565b60405180910390fd5b61172684848484611e60565b50505050565b50565b606061173a826119f9565b611779576040517f08c379a00000000000000000000000000000000000000000000000000000000081526004016117709061334c565b60405180910390fd5b6000611783611ebc565b905060008151116117a357604051806020016040528060008152506117ce565b806117ad84611ed3565b6040516020016117be9291906130e0565b6040516020818303038152906040525b915050919050565b600260009054906101000a900473ffffffffffffffffffffffffffffffffffffffff1673ffffffffffffffffffffffffffffffffffffffff163373ffffffffffffffffffffffffffffffffffffffff161461183057600080fd5b600073ffffffffffffffffffffffffffffffffffffffff168173ffffffffffffffffffffffffffffffffffffffff16141561188b57600260009054906101000a900473ffffffffffffffffffffffffffffffffffffffff1690505b600d546011541061189b57600080fd5b600e54601254106118ab57600080fd5b601160008154809291906118be90613690565b9190505550601260008154809291906118d690613690565b91905055506118ea60008060008585612080565b505050565b6000600860008473ffffffffffffffffffffffffffffffffffffffff1673ffffffffffffffffffffffffffffffffffffffff16815260200190815260200160002060008373ffffffffffffffffffffffffffffffffffffffff1673ffffffffffffffffffffffffffffffffffffffff16815260200190815260200160002060009054906101000a900460ff16905092915050565b60105481565b60125481565b60007f01ffc9a7000000000000000000000000000000000000000000000000000000007bffffffffffffffffffffffffffffffffffffffffffffffffffffffff1916827bffffffffffffffffffffffffffffffffffffffffffffffffffffffff1916149050919050565b60008073ffffffffffffffffffffffffffffffffffffffff166005600084815260200190815260200160002060009054906101000a900473ffffffffffffffffffffffffffffffffffffffff1673ffffffffffffffffffffffffffffffffffffffff1614159050919050565b600033905090565b816007600083815260200190815260200160002060006101000a81548173ffffffffffffffffffffffffffffffffffffffff021916908373ffffffffffffffffffffffffffffffffffffffff160217905550808273ffffffffffffffffffffffffffffffffffffffff16611ae083610f9f565b73ffffffffffffffffffffffffffffffffffffffff167f8c5be1e5ebec7d5bd14f71427d1e84f3dd0314c0f7b2291e5b200ac8c7c3b92560405160405180910390a45050565b6000611b31826119f9565b611b70576040517f08c379a0000000000000000000000000000000000000000000000000000000008152600401611b679061326c565b60405180910390fd5b6000611b7b83610f9f565b90508073ffffffffffffffffffffffffffffffffffffffff168473ffffffffffffffffffffffffffffffffffffffff161480611bea57508373ffffffffffffffffffffffffffffffffffffffff16611bd284610971565b73ffffffffffffffffffffffffffffffffffffffff16145b80611bfb5750611bfa81856118ef565b5b91505092915050565b8273ffffffffffffffffffffffffffffffffffffffff16611c2482610f9f565b73ffffffffffffffffffffffffffffffffffffffff1614611c7a576040517f08c379a0000000000000000000000000000000000000000000000000000000008152600401611c719061332c565b60405180910390fd5b600073ffffffffffffffffffffffffffffffffffffffff168273ffffffffffffffffffffffffffffffffffffffff161415611cea576040517f08c379a0000000000000000000000000000000000000000000000000000000008152600401611ce19061322c565b60405180910390fd5b611cf583838361231e565b611d00600082611a6d565b6001600660008573ffffffffffffffffffffffffffffffffffffffff1673ffffffffffffffffffffffffffffffffffffffff1681526020019081526020016000206000828254611d509190613552565b925050819055506001600660008473ffffffffffffffffffffffffffffffffffffffff1673ffffffffffffffffffffffffffffffffffffffff1681526020019081526020016000206000828254611da791906134cb565b92505081905550816005600083815260200190815260200160002060006101000a81548173ffffffffffffffffffffffffffffffffffffffff021916908373ffffffffffffffffffffffffffffffffffffffff160217905550808273ffffffffffffffffffffffffffffffffffffffff168473ffffffffffffffffffffffffffffffffffffffff167fddf252ad1be2c89b69c2b068fc378daa952ba7f163c4a11628f55a4df523b3ef60405160405180910390a4505050565b611e6b848484611c04565b611e7784848484612323565b611eb6576040517f08c379a0000000000000000000000000000000000000000000000000000000008152600401611ead906131ec565b60405180910390fd5b50505050565b606060405180602001604052806000815250905090565b60606000821415611f1b576040518060400160405280600181526020017f3000000000000000000000000000000000000000000000000000000000000000815250905061207b565b600082905060005b60008214611f4d578080611f3690613690565b915050600a82611f469190613521565b9150611f23565b60008167ffffffffffffffff811115611f8f577f4e487b7100000000000000000000000000000000000000000000000000000000600052604160045260246000fd5b6040519080825280601f01601f191660200182016040528015611fc15781602001600182028036833780820191505090505b5090505b6000851461207457600182611fda9190613552565b9150600a85611fe991906136d9565b6030611ff591906134cb565b60f81b818381518110612031577f4e487b7100000000000000000000000000000000000000000000000000000000600052603260045260246000fd5b60200101907effffffffffffffffffffffffffffffffffffffffffffffffffffffffffffff1916908160001a905350600a8561206d9190613521565b9450611fc5565b8093505050505b919050565b600063ffffffff86111561209357600080fd5b63ffffffff8511156120a457600080fd5b61ffff8411156120b357600080fd5b60006040518061010001604052808581526020014267ffffffffffffffff168152602001600067ffffffffffffffff1681526020018863ffffffff1681526020018763ffffffff168152602001600063ffffffff168152602001600061ffff1681526020018661ffff168152509050600b8190806001815401808255809150506001900390600052602060002090600202016000909190919091506000820151816000015560208201518160010160006101000a81548167ffffffffffffffff021916908367ffffffffffffffff16021790555060408201518160010160086101000a81548167ffffffffffffffff021916908367ffffffffffffffff16021790555060608201518160010160106101000a81548163ffffffff021916908363ffffffff16021790555060808201518160010160146101000a81548163ffffffff021916908363ffffffff16021790555060a08201518160010160186101000a81548163ffffffff021916908363ffffffff16021790555060c082015181600101601c6101000a81548161ffff021916908361ffff16021790555060e082015181600101601e6101000a81548161ffff021916908361ffff160217905550505060006001600b805490506122879190613552565b905063ffffffff81111561229a57600080fd5b8373ffffffffffffffffffffffffffffffffffffffff167f0a5311bd2a6608f08a180df2ee7c5946819a649b204b554bb8e39825b2c50ad582846060015163ffffffff16856080015163ffffffff1686600001516040516122fe94939291906133c7565b60405180910390a261231084826124ba565b809250505095945050505050565b505050565b60006123448473ffffffffffffffffffffffffffffffffffffffff166124d8565b156124ad578373ffffffffffffffffffffffffffffffffffffffff1663150b7a0261236d611a65565b8786866040518563ffffffff1660e01b815260040161238f949392919061313a565b602060405180830381600087803b1580156123a957600080fd5b505af19250505080156123da57506040513d601f19601f820116820180604052508101906123d791906129f3565b60015b61245d573d806000811461240a576040519150601f19603f3d011682016040523d82523d6000602084013e61240f565b606091505b50600081511415612455576040517f08c379a000000000000000000000000000000000000000000000000000000000815260040161244c906131ec565b60405180910390fd5b805181602001fd5b63150b7a0260e01b7bffffffffffffffffffffffffffffffffffffffffffffffffffffffff1916817bffffffffffffffffffffffffffffffffffffffffffffffffffffffff1916149150506124b2565b600190505b949350505050565b6124d48282604051806020016040528060008152506124eb565b5050565b600080823b905060008111915050919050565b6124f58383612546565b6125026000848484612323565b612541576040517f08c379a0000000000000000000000000000000000000000000000000000000008152600401612538906131ec565b60405180910390fd5b505050565b600073ffffffffffffffffffffffffffffffffffffffff168273ffffffffffffffffffffffffffffffffffffffff1614156125b6576040517f08c379a00000000000000000000000000000000000000000000000000000000081526004016125ad906132ec565b60405180910390fd5b6125bf816119f9565b156125ff576040517f08c379a00000000000000000000000000000000000000000000000000000000081526004016125f69061320c565b60405180910390fd5b61260b6000838361231e565b6001600660008473ffffffffffffffffffffffffffffffffffffffff1673ffffffffffffffffffffffffffffffffffffffff168152602001908152602001600020600082825461265b91906134cb565b92505081905550816005600083815260200190815260200160002060006101000a81548173ffffffffffffffffffffffffffffffffffffffff021916908373ffffffffffffffffffffffffffffffffffffffff160217905550808273ffffffffffffffffffffffffffffffffffffffff16600073ffffffffffffffffffffffffffffffffffffffff167fddf252ad1be2c89b69c2b068fc378daa952ba7f163c4a11628f55a4df523b3ef60405160405180910390a45050565b600061272761272284613458565b613427565b90508281526020810184848401111561273f57600080fd5b61274a84828561361c565b509392505050565b600081359050612761816137d7565b92915050565b600081359050612776816137ee565b92915050565b60008135905061278b81613805565b92915050565b6000813590506127a08161381c565b92915050565b6000815190506127b58161381c565b92915050565b600082601f8301126127cc57600080fd5b81356127dc848260208601612714565b91505092915050565b6000813590506127f481613833565b92915050565b60006020828403121561280c57600080fd5b600061281a84828501612752565b91505092915050565b60006020828403121561283557600080fd5b600061284384828501612767565b91505092915050565b6000806040838503121561285f57600080fd5b600061286d85828601612752565b925050602061287e85828601612752565b9150509250929050565b60008060006060848603121561289d57600080fd5b60006128ab86828701612752565b93505060206128bc86828701612752565b92505060406128cd868287016127e5565b9150509250925092565b600080600080608085870312156128ed57600080fd5b60006128fb87828801612752565b945050602061290c87828801612752565b935050604061291d878288016127e5565b925050606085013567ffffffffffffffff81111561293a57600080fd5b612946878288016127bb565b91505092959194509250565b6000806040838503121561296557600080fd5b600061297385828601612752565b92505060206129848582860161277c565b9150509250929050565b600080604083850312156129a157600080fd5b60006129af85828601612752565b92505060206129c0858286016127e5565b9150509250929050565b6000602082840312156129dc57600080fd5b60006129ea84828501612791565b91505092915050565b600060208284031215612a0557600080fd5b6000612a13848285016127a6565b91505092915050565b600060208284031215612a2e57600080fd5b6000612a3c848285016127e5565b91505092915050565b60008060408385031215612a5857600080fd5b6000612a66858286016127e5565b9250506020612a7785828601612752565b9150509250929050565b600080600060608486031215612a9657600080fd5b6000612aa4868287016127e5565b9350506020612ab5868287016127e5565b9250506040612ac6868287016127e5565b9150509250925092565b612ad981613598565b82525050565b612ae881613586565b82525050565b612af7816135aa565b82525050565b6000612b0882613488565b612b12818561349e565b9350612b2281856020860161362b565b612b2b816137c6565b840191505092915050565b6000612b4182613493565b612b4b81856134af565b9350612b5b81856020860161362b565b612b64816137c6565b840191505092915050565b6000612b7a82613493565b612b8481856134c0565b9350612b9481856020860161362b565b80840191505092915050565b6000612bad6032836134af565b91507f4552433732313a207472616e7366657220746f206e6f6e20455243373231526560008301527f63656976657220696d706c656d656e74657200000000000000000000000000006020830152604082019050919050565b6000612c13601c836134af565b91507f4552433732313a20746f6b656e20616c7265616479206d696e746564000000006000830152602082019050919050565b6000612c536024836134af565b91507f4552433732313a207472616e7366657220746f20746865207a65726f2061646460008301527f72657373000000000000000000000000000000000000000000000000000000006020830152604082019050919050565b6000612cb96019836134af565b91507f4552433732313a20617070726f766520746f2063616c6c6572000000000000006000830152602082019050919050565b6000612cf9602c836134af565b91507f4552433732313a206f70657261746f7220717565727920666f72206e6f6e657860008301527f697374656e7420746f6b656e00000000000000000000000000000000000000006020830152604082019050919050565b6000612d5f6038836134af565b91507f4552433732313a20617070726f76652063616c6c6572206973206e6f74206f7760008301527f6e6572206e6f7220617070726f76656420666f7220616c6c00000000000000006020830152604082019050919050565b6000612dc5602a836134af565b91507f4552433732313a2062616c616e636520717565727920666f7220746865207a6560008301527f726f2061646472657373000000000000000000000000000000000000000000006020830152604082019050919050565b6000612e2b6029836134af565b91507f4552433732313a206f776e657220717565727920666f72206e6f6e657869737460008301527f656e7420746f6b656e00000000000000000000000000000000000000000000006020830152604082019050919050565b6000612e916020836134af565b91507f4552433732313a206d696e7420746f20746865207a65726f20616464726573736000830152602082019050919050565b6000612ed1602c836134af565b91507f4552433732313a20617070726f76656420717565727920666f72206e6f6e657860008301527f697374656e7420746f6b656e00000000000000000000000000000000000000006020830152604082019050919050565b6000612f376029836134af565b91507f4552433732313a207472616e73666572206f6620746f6b656e2074686174206960008301527f73206e6f74206f776e00000000000000000000000000000000000000000000006020830152604082019050919050565b6000612f9d602f836134af565b91507f4552433732314d657461646174613a2055524920717565727920666f72206e6f60008301527f6e6578697374656e7420746f6b656e00000000000000000000000000000000006020830152604082019050919050565b60006130036021836134af565b91507f4552433732313a20617070726f76616c20746f2063757272656e74206f776e6560008301527f72000000000000000000000000000000000000000000000000000000000000006020830152604082019050919050565b60006130696031836134af565b91507f4552433732313a207472616e736665722063616c6c6572206973206e6f74206f60008301527f776e6572206e6f7220617070726f7665640000000000000000000000000000006020830152604082019050919050565b6130cb81613602565b82525050565b6130da8161360c565b82525050565b60006130ec8285612b6f565b91506130f88284612b6f565b91508190509392505050565b60006020820190506131196000830184612adf565b92915050565b60006020820190506131346000830184612ad0565b92915050565b600060808201905061314f6000830187612adf565b61315c6020830186612adf565b61316960408301856130c2565b818103606083015261317b8184612afd565b905095945050505050565b600060408201905061319b6000830185612adf565b6131a860208301846130c2565b9392505050565b60006020820190506131c46000830184612aee565b92915050565b600060208201905081810360008301526131e48184612b36565b905092915050565b6000602082019050818103600083015261320581612ba0565b9050919050565b6000602082019050818103600083015261322581612c06565b9050919050565b6000602082019050818103600083015261324581612c46565b9050919050565b6000602082019050818103600083015261326581612cac565b9050919050565b6000602082019050818103600083015261328581612cec565b9050919050565b600060208201905081810360008301526132a581612d52565b9050919050565b600060208201905081810360008301526132c581612db8565b9050919050565b600060208201905081810360008301526132e581612e1e565b9050919050565b6000602082019050818103600083015261330581612e84565b9050919050565b6000602082019050818103600083015261332581612ec4565b9050919050565b6000602082019050818103600083015261334581612f2a565b9050919050565b6000602082019050818103600083015261336581612f90565b9050919050565b6000602082019050818103600083015261338581612ff6565b9050919050565b600060208201905081810360008301526133a58161305c565b9050919050565b60006020820190506133c160008301846130c2565b92915050565b60006080820190506133dc60008301876130c2565b6133e960208301866130c2565b6133f660408301856130c2565b61340360608301846130c2565b95945050505050565b600060208201905061342160008301846130d1565b92915050565b6000604051905081810181811067ffffffffffffffff8211171561344e5761344d613797565b5b8060405250919050565b600067ffffffffffffffff82111561347357613472613797565b5b601f19601f8301169050602081019050919050565b600081519050919050565b600081519050919050565b600082825260208201905092915050565b600082825260208201905092915050565b600081905092915050565b60006134d682613602565b91506134e183613602565b9250827fffffffffffffffffffffffffffffffffffffffffffffffffffffffffffffffff038211156135165761351561370a565b5b828201905092915050565b600061352c82613602565b915061353783613602565b92508261354757613546613739565b5b828204905092915050565b600061355d82613602565b915061356883613602565b92508282101561357b5761357a61370a565b5b828203905092915050565b6000613591826135e2565b9050919050565b60006135a3826135e2565b9050919050565b60008115159050919050565b60007fffffffff0000000000000000000000000000000000000000000000000000000082169050919050565b600073ffffffffffffffffffffffffffffffffffffffff82169050919050565b6000819050919050565b600063ffffffff82169050919050565b82818337600083830152505050565b60005b8381101561364957808201518184015260208101905061362e565b83811115613658576000848401525b50505050565b6000600282049050600182168061367657607f821691505b6020821081141561368a57613689613768565b5b50919050565b600061369b82613602565b91507fffffffffffffffffffffffffffffffffffffffffffffffffffffffffffffffff8214156136ce576136cd61370a565b5b600182019050919050565b60006136e482613602565b91506136ef83613602565b9250826136ff576136fe613739565b5b828206905092915050565b7f4e487b7100000000000000000000000000000000000000000000000000000000600052601160045260246000fd5b7f4e487b7100000000000000000000000000000000000000000000000000000000600052601260045260246000fd5b7f4e487b7100000000000000000000000000000000000000000000000000000000600052602260045260246000fd5b7f4e487b7100000000000000000000000000000000000000000000000000000000600052604160045260246000fd5b6000601f19601f8301169050919050565b6137e081613586565b81146137eb57600080fd5b50565b6137f781613598565b811461380257600080fd5b50565b61380e816135aa565b811461381957600080fd5b50565b613825816135b6565b811461383057600080fd5b50565b61383c81613602565b811461384757600080fd5b5056fea2646970667358221220457198667c9816c341148f4d56ecfbfc726c2badcbf01ecf506760fe00073a7164736f6c63430008000033",
  "immutableReferences": {},
  "source": "// SPDX-License-Identifier: MIT\npragma solidity >=0.4.22 <0.9.0;\n\nimport \"./GizzyAuction.sol\";\n\ncontract GizzyMinting is GizzyAuction{\n  \n  // limits the number of gizzies the contract owner can ever create\n  uint256 public promoCreationLimit = 5000;\n  uint256 public gen0CreationLimit = 50000;\n\n  // Constants for gen0 auctions\n  uint256 public gen0StartingPrice = 1e10;\n  uint256 public gen0AuctionDuration = 1 days;\n\n  // Counts the number of gizzies the contract owner has created\n  uint256 public promoCreatedCount;\n  uint256 public gen0CreatedCount;\n\n  function createPromoGizzy(uint256 _genes, address _owner) public onlyCOO {\n    if (_owner == address(0)) {\n      _owner = cooAddress;\n    }\n    require(promoCreatedCount < promoCreationLimit);\n    require(gen0CreatedCount < gen0CreationLimit);\n  \n    promoCreatedCount ++;\n    gen0CreatedCount ++;\n    _createGizzy(0, 0, 0, _genes, _owner);\n  }\n\n  // createGen0Auction\n\n  // _computeNextGen0Price\n\n\n}\n",
  "sourcePath": "/home/imtiaz/Desktop/baeinnovations/gizzy-smartcontracts/contracts/GizzyMinting.sol",
  "compiler": {
    "name": "solc",
    "version": "0.8.0+commit.c7dfd78e.Emscripten.clang"
  },
  "schemaVersion": "3.4.0",
  "updatedAt": "2021-05-31T07:33:49.998Z",
  "devdoc": {
    "kind": "dev",
    "methods": {
      "approve(address,uint256)": {
        "details": "See {IERC721-approve}."
      },
      "balanceOf(address)": {
        "details": "See {IERC721-balanceOf}."
      },
      "getApproved(uint256)": {
        "details": "See {IERC721-getApproved}."
      },
      "isApprovedForAll(address,address)": {
        "details": "See {IERC721-isApprovedForAll}."
      },
      "name()": {
        "details": "See {IERC721Metadata-name}."
      },
      "ownerOf(uint256)": {
        "details": "See {IERC721-ownerOf}."
      },
      "safeTransferFrom(address,address,uint256)": {
        "details": "See {IERC721-safeTransferFrom}."
      },
      "safeTransferFrom(address,address,uint256,bytes)": {
        "details": "See {IERC721-safeTransferFrom}."
      },
      "setApprovalForAll(address,bool)": {
        "details": "See {IERC721-setApprovalForAll}."
      },
      "supportsInterface(bytes4)": {
        "details": "See {IERC165-supportsInterface}."
      },
      "symbol()": {
        "details": "See {IERC721Metadata-symbol}."
      },
      "tokenURI(uint256)": {
        "details": "See {IERC721Metadata-tokenURI}."
      },
      "transferFrom(address,address,uint256)": {
        "details": "See {IERC721-transferFrom}."
      }
    },
    "version": 1
  },
  "userdoc": {
    "kind": "user",
    "methods": {},
    "version": 1
  }
}