{
  "contractName": "GizzyCore",
  "abi": [
    {
      "inputs": [],
      "stateMutability": "nonpayable",
      "type": "constructor"
    },
    {
      "anonymous": false,
      "inputs": [
        {
          "indexed": true,
          "internalType": "address",
          "name": "owner",
          "type": "address"
        },
        {
          "indexed": true,
          "internalType": "address",
          "name": "approved",
          "type": "address"
        },
        {
          "indexed": true,
          "internalType": "uint256",
          "name": "tokenId",
          "type": "uint256"
        }
      ],
      "name": "Approval",
      "type": "event"
    },
    {
      "anonymous": false,
      "inputs": [
        {
          "indexed": true,
          "internalType": "address",
          "name": "owner",
          "type": "address"
        },
        {
          "indexed": true,
          "internalType": "address",
          "name": "operator",
          "type": "address"
        },
        {
          "indexed": false,
          "internalType": "bool",
          "name": "approved",
          "type": "bool"
        }
      ],
      "name": "ApprovalForAll",
      "type": "event"
    },
    {
      "anonymous": false,
      "inputs": [
        {
          "indexed": true,
          "internalType": "address",
          "name": "owner",
          "type": "address"
        },
        {
          "indexed": false,
          "internalType": "uint256",
          "name": "kittyId",
          "type": "uint256"
        },
        {
          "indexed": false,
          "internalType": "uint256",
          "name": "matronId",
          "type": "uint256"
        },
        {
          "indexed": false,
          "internalType": "uint256",
          "name": "sireId",
          "type": "uint256"
        },
        {
          "indexed": false,
          "internalType": "uint256",
          "name": "genes",
          "type": "uint256"
        }
      ],
      "name": "Birth",
      "type": "event"
    },
    {
      "anonymous": false,
      "inputs": [
        {
          "indexed": false,
          "internalType": "address",
          "name": "newContract",
          "type": "address"
        }
      ],
      "name": "ContractUpgrade",
      "type": "event"
    },
    {
      "anonymous": false,
      "inputs": [
        {
          "indexed": true,
          "internalType": "address",
          "name": "from",
          "type": "address"
        },
        {
          "indexed": true,
          "internalType": "address",
          "name": "to",
          "type": "address"
        },
        {
          "indexed": true,
          "internalType": "uint256",
          "name": "tokenId",
          "type": "uint256"
        }
      ],
      "name": "Transfer",
      "type": "event"
    },
    {
      "inputs": [
        {
          "internalType": "address",
          "name": "_to",
          "type": "address"
        },
        {
          "internalType": "uint256",
          "name": "_tokenId",
          "type": "uint256"
        }
      ],
      "name": "approve",
      "outputs": [],
      "stateMutability": "nonpayable",
      "type": "function"
    },
    {
      "inputs": [
        {
          "internalType": "address",
          "name": "_owner",
          "type": "address"
        }
      ],
      "name": "balanceOf",
      "outputs": [
        {
          "internalType": "uint256",
          "name": "count",
          "type": "uint256"
        }
      ],
      "stateMutability": "view",
      "type": "function",
      "constant": true
    },
    {
      "inputs": [],
      "name": "ceoAddress",
      "outputs": [
        {
          "internalType": "address",
          "name": "",
          "type": "address"
        }
      ],
      "stateMutability": "view",
      "type": "function",
      "constant": true
    },
    {
      "inputs": [],
      "name": "cfoAddress",
      "outputs": [
        {
          "internalType": "address payable",
          "name": "",
          "type": "address"
        }
      ],
      "stateMutability": "view",
      "type": "function",
      "constant": true
    },
    {
      "inputs": [],
      "name": "cooAddress",
      "outputs": [
        {
          "internalType": "address",
          "name": "",
          "type": "address"
        }
      ],
      "stateMutability": "view",
      "type": "function",
      "constant": true
    },
    {
      "inputs": [
        {
          "internalType": "uint256",
          "name": "",
          "type": "uint256"
        }
      ],
      "name": "cooldowns",
      "outputs": [
        {
          "internalType": "uint32",
          "name": "",
          "type": "uint32"
        }
      ],
      "stateMutability": "view",
      "type": "function",
      "constant": true
    },
    {
      "inputs": [
        {
          "internalType": "uint256",
          "name": "_genes",
          "type": "uint256"
        },
        {
          "internalType": "address",
          "name": "_owner",
          "type": "address"
        }
      ],
      "name": "createPromoGizzy",
      "outputs": [],
      "stateMutability": "nonpayable",
      "type": "function"
    },
    {
      "inputs": [],
      "name": "gen0AuctionDuration",
      "outputs": [
        {
          "internalType": "uint256",
          "name": "",
          "type": "uint256"
        }
      ],
      "stateMutability": "view",
      "type": "function",
      "constant": true
    },
    {
      "inputs": [],
      "name": "gen0CreatedCount",
      "outputs": [
        {
          "internalType": "uint256",
          "name": "",
          "type": "uint256"
        }
      ],
      "stateMutability": "view",
      "type": "function",
      "constant": true
    },
    {
      "inputs": [],
      "name": "gen0CreationLimit",
      "outputs": [
        {
          "internalType": "uint256",
          "name": "",
          "type": "uint256"
        }
      ],
      "stateMutability": "view",
      "type": "function",
      "constant": true
    },
    {
      "inputs": [],
      "name": "gen0StartingPrice",
      "outputs": [
        {
          "internalType": "uint256",
          "name": "",
          "type": "uint256"
        }
      ],
      "stateMutability": "view",
      "type": "function",
      "constant": true
    },
    {
      "inputs": [
        {
          "internalType": "uint256",
          "name": "tokenId",
          "type": "uint256"
        }
      ],
      "name": "getApproved",
      "outputs": [
        {
          "internalType": "address",
          "name": "",
          "type": "address"
        }
      ],
      "stateMutability": "view",
      "type": "function",
      "constant": true
    },
    {
      "inputs": [
        {
          "internalType": "uint256",
          "name": "",
          "type": "uint256"
        }
      ],
      "name": "gizzyIndexToApproved",
      "outputs": [
        {
          "internalType": "address",
          "name": "",
          "type": "address"
        }
      ],
      "stateMutability": "view",
      "type": "function",
      "constant": true
    },
    {
      "inputs": [
        {
          "internalType": "uint256",
          "name": "",
          "type": "uint256"
        }
      ],
      "name": "gizzyIndexToOwner",
      "outputs": [
        {
          "internalType": "address",
          "name": "",
          "type": "address"
        }
      ],
      "stateMutability": "view",
      "type": "function",
      "constant": true
    },
    {
      "inputs": [],
      "name": "implementsERC721",
      "outputs": [
        {
          "internalType": "bool",
          "name": "",
          "type": "bool"
        }
      ],
      "stateMutability": "pure",
      "type": "function",
      "constant": true
    },
    {
      "inputs": [
        {
          "internalType": "address",
          "name": "owner",
          "type": "address"
        },
        {
          "internalType": "address",
          "name": "operator",
          "type": "address"
        }
      ],
      "name": "isApprovedForAll",
      "outputs": [
        {
          "internalType": "bool",
          "name": "",
          "type": "bool"
        }
      ],
      "stateMutability": "view",
      "type": "function",
      "constant": true
    },
    {
      "inputs": [],
      "name": "name",
      "outputs": [
        {
          "internalType": "string",
          "name": "",
          "type": "string"
        }
      ],
      "stateMutability": "view",
      "type": "function",
      "constant": true
    },
    {
      "inputs": [
        {
          "internalType": "uint256",
          "name": "_tokenId",
          "type": "uint256"
        }
      ],
      "name": "ownerOf",
      "outputs": [
        {
          "internalType": "address",
          "name": "owner",
          "type": "address"
        }
      ],
      "stateMutability": "view",
      "type": "function",
      "constant": true
    },
    {
      "inputs": [],
      "name": "pause",
      "outputs": [],
      "stateMutability": "nonpayable",
      "type": "function"
    },
    {
      "inputs": [],
      "name": "paused",
      "outputs": [
        {
          "internalType": "bool",
          "name": "",
          "type": "bool"
        }
      ],
      "stateMutability": "view",
      "type": "function",
      "constant": true
    },
    {
      "inputs": [],
      "name": "promoCreatedCount",
      "outputs": [
        {
          "internalType": "uint256",
          "name": "",
          "type": "uint256"
        }
      ],
      "stateMutability": "view",
      "type": "function",
      "constant": true
    },
    {
      "inputs": [],
      "name": "promoCreationLimit",
      "outputs": [
        {
          "internalType": "uint256",
          "name": "",
          "type": "uint256"
        }
      ],
      "stateMutability": "view",
      "type": "function",
      "constant": true
    },
    {
      "inputs": [
        {
          "internalType": "address",
          "name": "from",
          "type": "address"
        },
        {
          "internalType": "address",
          "name": "to",
          "type": "address"
        },
        {
          "internalType": "uint256",
          "name": "tokenId",
          "type": "uint256"
        }
      ],
      "name": "safeTransferFrom",
      "outputs": [],
      "stateMutability": "nonpayable",
      "type": "function"
    },
    {
      "inputs": [
        {
          "internalType": "address",
          "name": "from",
          "type": "address"
        },
        {
          "internalType": "address",
          "name": "to",
          "type": "address"
        },
        {
          "internalType": "uint256",
          "name": "tokenId",
          "type": "uint256"
        },
        {
          "internalType": "bytes",
          "name": "_data",
          "type": "bytes"
        }
      ],
      "name": "safeTransferFrom",
      "outputs": [],
      "stateMutability": "nonpayable",
      "type": "function"
    },
    {
      "inputs": [
        {
          "internalType": "address",
          "name": "operator",
          "type": "address"
        },
        {
          "internalType": "bool",
          "name": "approved",
          "type": "bool"
        }
      ],
      "name": "setApprovalForAll",
      "outputs": [],
      "stateMutability": "nonpayable",
      "type": "function"
    },
    {
      "inputs": [
        {
          "internalType": "address",
          "name": "_newCEO",
          "type": "address"
        }
      ],
      "name": "setCEO",
      "outputs": [],
      "stateMutability": "nonpayable",
      "type": "function"
    },
    {
      "inputs": [
        {
          "internalType": "address payable",
          "name": "_newCFO",
          "type": "address"
        }
      ],
      "name": "setCFO",
      "outputs": [],
      "stateMutability": "nonpayable",
      "type": "function"
    },
    {
      "inputs": [
        {
          "internalType": "address",
          "name": "_newCOO",
          "type": "address"
        }
      ],
      "name": "setCOO",
      "outputs": [],
      "stateMutability": "nonpayable",
      "type": "function"
    },
    {
      "inputs": [
        {
          "internalType": "uint256",
          "name": "",
          "type": "uint256"
        }
      ],
      "name": "sireAllowedToAddress",
      "outputs": [
        {
          "internalType": "address",
          "name": "",
          "type": "address"
        }
      ],
      "stateMutability": "view",
      "type": "function",
      "constant": true
    },
    {
      "inputs": [
        {
          "internalType": "bytes4",
          "name": "interfaceId",
          "type": "bytes4"
        }
      ],
      "name": "supportsInterface",
      "outputs": [
        {
          "internalType": "bool",
          "name": "",
          "type": "bool"
        }
      ],
      "stateMutability": "view",
      "type": "function",
      "constant": true
    },
    {
      "inputs": [],
      "name": "symbol",
      "outputs": [
        {
          "internalType": "string",
          "name": "",
          "type": "string"
        }
      ],
      "stateMutability": "view",
      "type": "function",
      "constant": true
    },
    {
      "inputs": [
        {
          "internalType": "uint256",
          "name": "tokenId",
          "type": "uint256"
        }
      ],
      "name": "tokenURI",
      "outputs": [
        {
          "internalType": "string",
          "name": "",
          "type": "string"
        }
      ],
      "stateMutability": "view",
      "type": "function",
      "constant": true
    },
    {
      "inputs": [],
      "name": "totalSupply",
      "outputs": [
        {
          "internalType": "uint256",
          "name": "",
          "type": "uint256"
        }
      ],
      "stateMutability": "view",
      "type": "function",
      "constant": true
    },
    {
      "inputs": [
        {
          "internalType": "address",
          "name": "_to",
          "type": "address"
        },
        {
          "internalType": "uint256",
          "name": "_tokenId",
          "type": "uint256"
        }
      ],
      "name": "transfer",
      "outputs": [],
      "stateMutability": "nonpayable",
      "type": "function"
    },
    {
      "inputs": [
        {
          "internalType": "address",
          "name": "_from",
          "type": "address"
        },
        {
          "internalType": "address",
          "name": "_to",
          "type": "address"
        },
        {
          "internalType": "uint256",
          "name": "_tokenId",
          "type": "uint256"
        }
      ],
      "name": "transferFrom",
      "outputs": [],
      "stateMutability": "nonpayable",
      "type": "function"
    },
    {
      "inputs": [],
      "name": "unpause",
      "outputs": [],
      "stateMutability": "nonpayable",
      "type": "function"
    },
    {
      "inputs": [],
      "name": "withdrawBalance",
      "outputs": [],
      "stateMutability": "nonpayable",
      "type": "function"
    },
    {
      "inputs": [
        {
          "internalType": "uint256",
          "name": "_id",
          "type": "uint256"
        }
      ],
      "name": "getGizzy",
      "outputs": [
        {
          "internalType": "bool",
          "name": "isGestating",
          "type": "bool"
        },
        {
          "internalType": "bool",
          "name": "isReady",
          "type": "bool"
        },
        {
          "internalType": "uint256",
          "name": "cooldownIndex",
          "type": "uint256"
        },
        {
          "internalType": "uint256",
          "name": "nextActionAt",
          "type": "uint256"
        },
        {
          "internalType": "uint256",
          "name": "siringWithId",
          "type": "uint256"
        },
        {
          "internalType": "uint256",
          "name": "birthTime",
          "type": "uint256"
        },
        {
          "internalType": "uint256",
          "name": "matronId",
          "type": "uint256"
        },
        {
          "internalType": "uint256",
          "name": "sireId",
          "type": "uint256"
        },
        {
          "internalType": "uint256",
          "name": "generation",
          "type": "uint256"
        },
        {
          "internalType": "uint256",
          "name": "genes",
          "type": "uint256"
        }
      ],
      "stateMutability": "view",
      "type": "function",
      "constant": true
    }
  ],
  "bytecode": "0x60806040526000600260146101000a81548160ff021916908315150217905550604051806101c00160405280603c63ffffffff1663ffffffff168152602001607863ffffffff1663ffffffff16815260200161012c63ffffffff1663ffffffff16815260200161025863ffffffff1663ffffffff16815260200161070863ffffffff1663ffffffff168152602001610e1063ffffffff1663ffffffff168152602001611c2063ffffffff1663ffffffff16815260200161384063ffffffff1663ffffffff16815260200161708063ffffffff1663ffffffff16815260200161e10063ffffffff1663ffffffff1681526020016201518063ffffffff1663ffffffff1681526020016202a30063ffffffff1663ffffffff1681526020016205460063ffffffff1663ffffffff16815260200162093a8063ffffffff1663ffffffff16815250600990600e620001559291906200078d565b5061138860105561c3506011556402540be400601255620151806013553480156200017f57600080fd5b506040518060400160405280600581526020017f47697a7a790000000000000000000000000000000000000000000000000000008152506040518060400160405280600381526020017f475a59000000000000000000000000000000000000000000000000000000000081525081600390805190602001906200020492919062000837565b5080600490805190602001906200021d92919062000837565b5050506001600260146101000a81548160ff021916908315150217905550336000806101000a81548173ffffffffffffffffffffffffffffffffffffffff021916908373ffffffffffffffffffffffffffffffffffffffff16021790555033600260006101000a81548173ffffffffffffffffffffffffffffffffffffffff021916908373ffffffffffffffffffffffffffffffffffffffff160217905550620002d46000806000806000620002db60201b60201c565b5062000a6c565b600063ffffffff861115620002ef57600080fd5b63ffffffff8511156200030157600080fd5b61ffff8411156200031157600080fd5b60006040518061010001604052808581526020014267ffffffffffffffff168152602001600067ffffffffffffffff1681526020018863ffffffff1681526020018763ffffffff168152602001600063ffffffff168152602001600061ffff1681526020018661ffff168152509050600b8190806001815401808255809150506001900390600052602060002090600202016000909190919091506000820151816000015560208201518160010160006101000a81548167ffffffffffffffff021916908367ffffffffffffffff16021790555060408201518160010160086101000a81548167ffffffffffffffff021916908367ffffffffffffffff16021790555060608201518160010160106101000a81548163ffffffff021916908363ffffffff16021790555060808201518160010160146101000a81548163ffffffff021916908363ffffffff16021790555060a08201518160010160186101000a81548163ffffffff021916908363ffffffff16021790555060c082015181600101601c6101000a81548161ffff021916908361ffff16021790555060e082015181600101601e6101000a81548161ffff021916908361ffff160217905550505060006001600b80549050620004e7919062000945565b905063ffffffff811115620004fb57600080fd5b8373ffffffffffffffffffffffffffffffffffffffff167f0a5311bd2a6608f08a180df2ee7c5946819a649b204b554bb8e39825b2c50ad582846060015163ffffffff16856080015163ffffffff168660000151604051620005619493929190620008f8565b60405180910390a26200057d600085836200058b60201b60201c565b809250505095945050505050565b600d60008373ffffffffffffffffffffffffffffffffffffffff1673ffffffffffffffffffffffffffffffffffffffff1681526020019081526020016000206000815480929190620005dd90620009c0565b919050555081600c600083815260200190815260200160002060006101000a81548173ffffffffffffffffffffffffffffffffffffffff021916908373ffffffffffffffffffffffffffffffffffffffff160217905550600073ffffffffffffffffffffffffffffffffffffffff168373ffffffffffffffffffffffffffffffffffffffff16146200072d57600d60008473ffffffffffffffffffffffffffffffffffffffff1673ffffffffffffffffffffffffffffffffffffffff1681526020019081526020016000206000815480929190620006bb90620009c0565b9190505550600f600082815260200190815260200160002060006101000a81549073ffffffffffffffffffffffffffffffffffffffff0219169055600e600082815260200190815260200160002060006101000a81549073ffffffffffffffffffffffffffffffffffffffff02191690555b808273ffffffffffffffffffffffffffffffffffffffff168473ffffffffffffffffffffffffffffffffffffffff167fddf252ad1be2c89b69c2b068fc378daa952ba7f163c4a11628f55a4df523b3ef60405160405180910390a4505050565b82600e600701600890048101928215620008245791602002820160005b83821115620007f057835183826101000a81548163ffffffff021916908363ffffffff1602179055509260200192600401602081600301049283019260010302620007aa565b8015620008225782816101000a81549063ffffffff0219169055600401602081600301049283019260010302620007f0565b505b509050620008339190620008c8565b5090565b82805462000845906200098a565b90600052602060002090601f016020900481019282620008695760008555620008b5565b82601f106200088457805160ff1916838001178555620008b5565b82800160010185558215620008b5579182015b82811115620008b457825182559160200191906001019062000897565b5b509050620008c49190620008c8565b5090565b5b80821115620008e3576000816000905550600101620008c9565b5090565b620008f28162000980565b82525050565b60006080820190506200090f6000830187620008e7565b6200091e6020830186620008e7565b6200092d6040830185620008e7565b6200093c6060830184620008e7565b95945050505050565b6000620009528262000980565b91506200095f8362000980565b92508282101562000975576200097462000a0e565b5b828203905092915050565b6000819050919050565b60006002820490506001821680620009a357607f821691505b60208210811415620009ba57620009b962000a3d565b5b50919050565b6000620009cd8262000980565b91507fffffffffffffffffffffffffffffffffffffffffffffffffffffffffffffffff82141562000a035762000a0262000a0e565b5b600182019050919050565b7f4e487b7100000000000000000000000000000000000000000000000000000000600052601160045260246000fd5b7f4e487b7100000000000000000000000000000000000000000000000000000000600052602260045260246000fd5b61328e8062000a7c6000396000f3fe608060405234801561001057600080fd5b50600436106102325760003560e01c80635c975abb11610130578063ae4d0ff7116100b8578063ca3d5bba1161007c578063ca3d5bba14610669578063cd0f611b14610685578063e985e9c5146106be578063eb845c17146106ee578063f1ca94101461070c57610232565b8063ae4d0ff7146105c3578063b047fb50146105e1578063b5319335146105ff578063b88d4fde1461061d578063c87b56dd1461063957610232565b80638456cb59116100ff5780638456cb591461053357806395d89b411461053d5780639d6fac6f1461055b578063a22cb4651461058b578063a9059cbb146105a757610232565b80635c975abb146104ab5780635fd8c710146104c95780636352211e146104d357806370a082311461050357610232565b806318eb540b116101be5780633f4ba83a116101825780633f4ba83a1461041b578063404d0e3e1461042557806342842e0e1461044357806346116e6f1461045f5780634e0a33791461048f57610232565b806318eb540b1461036757806323668d981461039757806323b872dd146103c757806327d7874c146103e35780632ba73c15146103ff57610232565b8063081812fc11610205578063081812fc146102c1578063095ea7b3146102f15780630a0f81681461030d5780631051db341461032b57806318160ddd1461034957610232565b806301ffc9a7146102375780630519ce791461026757806305e455461461028557806306fdde03146102a3575b600080fd5b610251600480360381019061024c9190612712565b61072a565b60405161025e9190612c01565b60405180910390f35b61026f61080c565b60405161027c9190612b9a565b60405180910390f35b61028d610832565b60405161029a9190612dba565b60405180910390f35b6102ab610838565b6040516102b89190612cb8565b60405180910390f35b6102db60048036038101906102d69190612764565b6108ca565b6040516102e89190612b7f565b60405180910390f35b61030b600480360381019061030691906126d6565b61094f565b005b6103156109e5565b6040516103229190612b7f565b60405180910390f35b610333610a09565b6040516103409190612c01565b60405180910390f35b610351610a12565b60405161035e9190612dba565b60405180910390f35b610381600480360381019061037c9190612764565b610a2b565b60405161038e9190612b7f565b60405180910390f35b6103b160048036038101906103ac9190612764565b610a5e565b6040516103be9190612b7f565b60405180910390f35b6103e160048036038101906103dc91906125d0565b610a91565b005b6103fd60048036038101906103f89190612542565b610ae1565b005b61041960048036038101906104149190612542565b610bb6565b005b610423610c8c565b005b61042d610d1a565b60405161043a9190612dba565b60405180910390f35b61045d600480360381019061045891906125d0565b610d20565b005b61047960048036038101906104749190612764565b610d40565b6040516104869190612b7f565b60405180910390f35b6104a960048036038101906104a4919061256b565b610d73565b005b6104b3610e49565b6040516104c09190612c01565b60405180910390f35b6104d1610e5c565b005b6104ed60048036038101906104e89190612764565b610f21565b6040516104fa9190612b7f565b60405180910390f35b61051d60048036038101906105189190612542565b610f98565b60405161052a9190612dba565b60405180910390f35b61053b610fe1565b005b610545611120565b6040516105529190612cb8565b60405180910390f35b61057560048036038101906105709190612764565b6111b2565b6040516105829190612e1a565b60405180910390f35b6105a560048036038101906105a0919061269a565b6111e2565b005b6105c160048036038101906105bc91906126d6565b611363565b005b6105cb6113d9565b6040516105d89190612dba565b60405180910390f35b6105e96113df565b6040516105f69190612b7f565b60405180910390f35b610607611405565b6040516106149190612dba565b60405180910390f35b6106376004803603810190610632919061261f565b61140b565b005b610653600480360381019061064e9190612764565b61146d565b6040516106609190612cb8565b60405180910390f35b610683600480360381019061067e919061278d565b611514565b005b61069f600480360381019061069a9190612764565b61162d565b6040516106b59a99989796959493929190612c1c565b60405180910390f35b6106d860048036038101906106d39190612594565b6117b9565b6040516106e59190612c01565b60405180910390f35b6106f661184d565b6040516107039190612dba565b60405180910390f35b610714611853565b6040516107219190612dba565b60405180910390f35b60007f80ac58cd000000000000000000000000000000000000000000000000000000007bffffffffffffffffffffffffffffffffffffffffffffffffffffffff1916827bffffffffffffffffffffffffffffffffffffffffffffffffffffffff191614806107f557507f5b5e139f000000000000000000000000000000000000000000000000000000007bffffffffffffffffffffffffffffffffffffffffffffffffffffffff1916827bffffffffffffffffffffffffffffffffffffffffffffffffffffffff1916145b80610805575061080482611859565b5b9050919050565b600160009054906101000a900473ffffffffffffffffffffffffffffffffffffffff1681565b60145481565b6060600380546108479061306c565b80601f01602080910402602001604051908101604052809291908181526020018280546108739061306c565b80156108c05780601f10610895576101008083540402835291602001916108c0565b820191906000526020600020905b8154815290600101906020018083116108a357829003601f168201915b5050505050905090565b60006108d5826118c3565b610914576040517f08c379a000000000000000000000000000000000000000000000000000000000815260040161090b90612d5a565b60405180910390fd5b6007600083815260200190815260200160002060009054906101000a900473ffffffffffffffffffffffffffffffffffffffff169050919050565b600260149054906101000a900460ff161561096957600080fd5b610973338261192f565b61097c57600080fd5b610986818361199b565b808273ffffffffffffffffffffffffffffffffffffffff163373ffffffffffffffffffffffffffffffffffffffff167f8c5be1e5ebec7d5bd14f71427d1e84f3dd0314c0f7b2291e5b200ac8c7c3b92560405160405180910390a45050565b60008054906101000a900473ffffffffffffffffffffffffffffffffffffffff1681565b60006001905090565b60006001600b80549050610a269190612f60565b905090565b600e6020528060005260406000206000915054906101000a900473ffffffffffffffffffffffffffffffffffffffff1681565b600c6020528060005260406000206000915054906101000a900473ffffffffffffffffffffffffffffffffffffffff1681565b600260149054906101000a900460ff1615610aab57600080fd5b610ab533826119f1565b610abe57600080fd5b610ac8838261192f565b610ad157600080fd5b610adc838383611a5d565b505050565b60008054906101000a900473ffffffffffffffffffffffffffffffffffffffff1673ffffffffffffffffffffffffffffffffffffffff163373ffffffffffffffffffffffffffffffffffffffff1614610b3957600080fd5b600073ffffffffffffffffffffffffffffffffffffffff168173ffffffffffffffffffffffffffffffffffffffff161415610b7357600080fd5b806000806101000a81548173ffffffffffffffffffffffffffffffffffffffff021916908373ffffffffffffffffffffffffffffffffffffffff16021790555050565b60008054906101000a900473ffffffffffffffffffffffffffffffffffffffff1673ffffffffffffffffffffffffffffffffffffffff163373ffffffffffffffffffffffffffffffffffffffff1614610c0e57600080fd5b600073ffffffffffffffffffffffffffffffffffffffff168173ffffffffffffffffffffffffffffffffffffffff161415610c4857600080fd5b80600260006101000a81548173ffffffffffffffffffffffffffffffffffffffff021916908373ffffffffffffffffffffffffffffffffffffffff16021790555050565b60008054906101000a900473ffffffffffffffffffffffffffffffffffffffff1673ffffffffffffffffffffffffffffffffffffffff163373ffffffffffffffffffffffffffffffffffffffff1614610ce457600080fd5b600260149054906101000a900460ff16610cfd57600080fd5b6000600260146101000a81548160ff021916908315150217905550565b60115481565b610d3b8383836040518060200160405280600081525061140b565b505050565b600f6020528060005260406000206000915054906101000a900473ffffffffffffffffffffffffffffffffffffffff1681565b60008054906101000a900473ffffffffffffffffffffffffffffffffffffffff1673ffffffffffffffffffffffffffffffffffffffff163373ffffffffffffffffffffffffffffffffffffffff1614610dcb57600080fd5b600073ffffffffffffffffffffffffffffffffffffffff168173ffffffffffffffffffffffffffffffffffffffff161415610e0557600080fd5b80600160006101000a81548173ffffffffffffffffffffffffffffffffffffffff021916908373ffffffffffffffffffffffffffffffffffffffff16021790555050565b600260149054906101000a900460ff1681565b600160009054906101000a900473ffffffffffffffffffffffffffffffffffffffff1673ffffffffffffffffffffffffffffffffffffffff163373ffffffffffffffffffffffffffffffffffffffff1614610eb657600080fd5b600160009054906101000a900473ffffffffffffffffffffffffffffffffffffffff1673ffffffffffffffffffffffffffffffffffffffff166108fc479081150290604051600060405180830381858888f19350505050158015610f1e573d6000803e3d6000fd5b50565b6000600c600083815260200190815260200160002060009054906101000a900473ffffffffffffffffffffffffffffffffffffffff169050600073ffffffffffffffffffffffffffffffffffffffff168173ffffffffffffffffffffffffffffffffffffffff161415610f9357600080fd5b919050565b6000600d60008373ffffffffffffffffffffffffffffffffffffffff1673ffffffffffffffffffffffffffffffffffffffff168152602001908152602001600020549050919050565b600260009054906101000a900473ffffffffffffffffffffffffffffffffffffffff1673ffffffffffffffffffffffffffffffffffffffff163373ffffffffffffffffffffffffffffffffffffffff161480611088575060008054906101000a900473ffffffffffffffffffffffffffffffffffffffff1673ffffffffffffffffffffffffffffffffffffffff163373ffffffffffffffffffffffffffffffffffffffff16145b806110e05750600160009054906101000a900473ffffffffffffffffffffffffffffffffffffffff1673ffffffffffffffffffffffffffffffffffffffff163373ffffffffffffffffffffffffffffffffffffffff16145b6110e957600080fd5b600260149054906101000a900460ff161561110357600080fd5b6001600260146101000a81548160ff021916908315150217905550565b60606004805461112f9061306c565b80601f016020809104026020016040519081016040528092919081815260200182805461115b9061306c565b80156111a85780601f1061117d576101008083540402835291602001916111a8565b820191906000526020600020905b81548152906001019060200180831161118b57829003601f168201915b5050505050905090565b600981600e81106111c257600080fd5b60089182820401919006600402915054906101000a900463ffffffff1681565b6111ea611c5a565b73ffffffffffffffffffffffffffffffffffffffff168273ffffffffffffffffffffffffffffffffffffffff161415611258576040517f08c379a000000000000000000000000000000000000000000000000000000000815260040161124f90612cfa565b60405180910390fd5b8060086000611265611c5a565b73ffffffffffffffffffffffffffffffffffffffff1673ffffffffffffffffffffffffffffffffffffffff16815260200190815260200160002060008473ffffffffffffffffffffffffffffffffffffffff1673ffffffffffffffffffffffffffffffffffffffff16815260200190815260200160002060006101000a81548160ff0219169083151502179055508173ffffffffffffffffffffffffffffffffffffffff16611312611c5a565b73ffffffffffffffffffffffffffffffffffffffff167f17307eab39ab6107e8899845ad3d59bd9653f200f220920489ca2b5937696c31836040516113579190612c01565b60405180910390a35050565b600260149054906101000a900460ff161561137d57600080fd5b600073ffffffffffffffffffffffffffffffffffffffff168273ffffffffffffffffffffffffffffffffffffffff1614156113b757600080fd5b6113c1338261192f565b6113ca57600080fd5b6113d5338383611a5d565b5050565b60125481565b600260009054906101000a900473ffffffffffffffffffffffffffffffffffffffff1681565b60105481565b61141c611416611c5a565b83611c62565b61145b576040517f08c379a000000000000000000000000000000000000000000000000000000000815260040161145290612d9a565b60405180910390fd5b61146784848484611d40565b50505050565b6060611478826118c3565b6114b7576040517f08c379a00000000000000000000000000000000000000000000000000000000081526004016114ae90612d7a565b60405180910390fd5b60006114c1611d9c565b905060008151116114e1576040518060200160405280600081525061150c565b806114eb84611db3565b6040516020016114fc929190612b5b565b6040516020818303038152906040525b915050919050565b600260009054906101000a900473ffffffffffffffffffffffffffffffffffffffff1673ffffffffffffffffffffffffffffffffffffffff163373ffffffffffffffffffffffffffffffffffffffff161461156e57600080fd5b600073ffffffffffffffffffffffffffffffffffffffff168173ffffffffffffffffffffffffffffffffffffffff1614156115c957600260009054906101000a900473ffffffffffffffffffffffffffffffffffffffff1690505b601054601454106115d957600080fd5b601154601554106115e957600080fd5b601460008154809291906115fc9061309e565b9190505550601560008154809291906116149061309e565b919050555061162860008060008585611f60565b505050565b6000806000806000806000806000806000600b8c81548110611678577f4e487b7100000000000000000000000000000000000000000000000000000000600052603260045260246000fd5b9060005260206000209060020201905060008160010160189054906101000a900463ffffffff1663ffffffff1614159a50428160010160089054906101000a900467ffffffffffffffff1667ffffffffffffffff161115995080600101601c9054906101000a900461ffff1661ffff1698508060010160089054906101000a900467ffffffffffffffff1667ffffffffffffffff1697508060010160189054906101000a900463ffffffff1663ffffffff1696508060010160009054906101000a900467ffffffffffffffff1667ffffffffffffffff1695508060010160109054906101000a900463ffffffff1663ffffffff1694508060010160149054906101000a900463ffffffff1663ffffffff16935080600101601e9054906101000a900461ffff1661ffff16925080600001549150509193959799509193959799565b6000600860008473ffffffffffffffffffffffffffffffffffffffff1673ffffffffffffffffffffffffffffffffffffffff16815260200190815260200160002060008373ffffffffffffffffffffffffffffffffffffffff1673ffffffffffffffffffffffffffffffffffffffff16815260200190815260200160002060009054906101000a900460ff16905092915050565b60135481565b60155481565b60007f01ffc9a7000000000000000000000000000000000000000000000000000000007bffffffffffffffffffffffffffffffffffffffffffffffffffffffff1916827bffffffffffffffffffffffffffffffffffffffffffffffffffffffff1916149050919050565b60008073ffffffffffffffffffffffffffffffffffffffff166005600084815260200190815260200160002060009054906101000a900473ffffffffffffffffffffffffffffffffffffffff1673ffffffffffffffffffffffffffffffffffffffff1614159050919050565b60008273ffffffffffffffffffffffffffffffffffffffff16600c600084815260200190815260200160002060009054906101000a900473ffffffffffffffffffffffffffffffffffffffff1673ffffffffffffffffffffffffffffffffffffffff1614905092915050565b80600e600084815260200190815260200160002060006101000a81548173ffffffffffffffffffffffffffffffffffffffff021916908373ffffffffffffffffffffffffffffffffffffffff1602179055505050565b60008273ffffffffffffffffffffffffffffffffffffffff16600c600084815260200190815260200160002060009054906101000a900473ffffffffffffffffffffffffffffffffffffffff1673ffffffffffffffffffffffffffffffffffffffff1614905092915050565b600d60008373ffffffffffffffffffffffffffffffffffffffff1673ffffffffffffffffffffffffffffffffffffffff1681526020019081526020016000206000815480929190611aad9061309e565b919050555081600c600083815260200190815260200160002060006101000a81548173ffffffffffffffffffffffffffffffffffffffff021916908373ffffffffffffffffffffffffffffffffffffffff160217905550600073ffffffffffffffffffffffffffffffffffffffff168373ffffffffffffffffffffffffffffffffffffffff1614611bfa57600d60008473ffffffffffffffffffffffffffffffffffffffff1673ffffffffffffffffffffffffffffffffffffffff1681526020019081526020016000206000815480929190611b889061309e565b9190505550600f600082815260200190815260200160002060006101000a81549073ffffffffffffffffffffffffffffffffffffffff0219169055600e600082815260200190815260200160002060006101000a81549073ffffffffffffffffffffffffffffffffffffffff02191690555b808273ffffffffffffffffffffffffffffffffffffffff168473ffffffffffffffffffffffffffffffffffffffff167fddf252ad1be2c89b69c2b068fc378daa952ba7f163c4a11628f55a4df523b3ef60405160405180910390a4505050565b600033905090565b6000611c6d826118c3565b611cac576040517f08c379a0000000000000000000000000000000000000000000000000000000008152600401611ca390612d1a565b60405180910390fd5b6000611cb783612200565b90508073ffffffffffffffffffffffffffffffffffffffff168473ffffffffffffffffffffffffffffffffffffffff161480611d2657508373ffffffffffffffffffffffffffffffffffffffff16611d0e846108ca565b73ffffffffffffffffffffffffffffffffffffffff16145b80611d375750611d3681856117b9565b5b91505092915050565b611d4b848484611a5d565b611d57848484846122b2565b611d96576040517f08c379a0000000000000000000000000000000000000000000000000000000008152600401611d8d90612cda565b60405180910390fd5b50505050565b606060405180602001604052806000815250905090565b60606000821415611dfb576040518060400160405280600181526020017f30000000000000000000000000000000000000000000000000000000000000008152509050611f5b565b600082905060005b60008214611e2d578080611e169061309e565b915050600a82611e269190612f2f565b9150611e03565b60008167ffffffffffffffff811115611e6f577f4e487b7100000000000000000000000000000000000000000000000000000000600052604160045260246000fd5b6040519080825280601f01601f191660200182016040528015611ea15781602001600182028036833780820191505090505b5090505b60008514611f5457600182611eba9190612f60565b9150600a85611ec991906130e7565b6030611ed59190612ed9565b60f81b818381518110611f11577f4e487b7100000000000000000000000000000000000000000000000000000000600052603260045260246000fd5b60200101907effffffffffffffffffffffffffffffffffffffffffffffffffffffffffffff1916908160001a905350600a85611f4d9190612f2f565b9450611ea5565b8093505050505b919050565b600063ffffffff861115611f7357600080fd5b63ffffffff851115611f8457600080fd5b61ffff841115611f9357600080fd5b60006040518061010001604052808581526020014267ffffffffffffffff168152602001600067ffffffffffffffff1681526020018863ffffffff1681526020018763ffffffff168152602001600063ffffffff168152602001600061ffff1681526020018661ffff168152509050600b8190806001815401808255809150506001900390600052602060002090600202016000909190919091506000820151816000015560208201518160010160006101000a81548167ffffffffffffffff021916908367ffffffffffffffff16021790555060408201518160010160086101000a81548167ffffffffffffffff021916908367ffffffffffffffff16021790555060608201518160010160106101000a81548163ffffffff021916908363ffffffff16021790555060808201518160010160146101000a81548163ffffffff021916908363ffffffff16021790555060a08201518160010160186101000a81548163ffffffff021916908363ffffffff16021790555060c082015181600101601c6101000a81548161ffff021916908361ffff16021790555060e082015181600101601e6101000a81548161ffff021916908361ffff160217905550505060006001600b805490506121679190612f60565b905063ffffffff81111561217a57600080fd5b8373ffffffffffffffffffffffffffffffffffffffff167f0a5311bd2a6608f08a180df2ee7c5946819a649b204b554bb8e39825b2c50ad582846060015163ffffffff16856080015163ffffffff1686600001516040516121de9493929190612dd5565b60405180910390a26121f260008583611a5d565b809250505095945050505050565b6000806005600084815260200190815260200160002060009054906101000a900473ffffffffffffffffffffffffffffffffffffffff169050600073ffffffffffffffffffffffffffffffffffffffff168173ffffffffffffffffffffffffffffffffffffffff1614156122a9576040517f08c379a00000000000000000000000000000000000000000000000000000000081526004016122a090612d3a565b60405180910390fd5b80915050919050565b60006122d38473ffffffffffffffffffffffffffffffffffffffff16612449565b1561243c578373ffffffffffffffffffffffffffffffffffffffff1663150b7a026122fc611c5a565b8786866040518563ffffffff1660e01b815260040161231e9493929190612bb5565b602060405180830381600087803b15801561233857600080fd5b505af192505050801561236957506040513d601f19601f82011682018060405250810190612366919061273b565b60015b6123ec573d8060008114612399576040519150601f19603f3d011682016040523d82523d6000602084013e61239e565b606091505b506000815114156123e4576040517f08c379a00000000000000000000000000000000000000000000000000000000081526004016123db90612cda565b60405180910390fd5b805181602001fd5b63150b7a0260e01b7bffffffffffffffffffffffffffffffffffffffffffffffffffffffff1916817bffffffffffffffffffffffffffffffffffffffffffffffffffffffff191614915050612441565b600190505b949350505050565b600080823b905060008111915050919050565b600061246f61246a84612e66565b612e35565b90508281526020810184848401111561248757600080fd5b61249284828561302a565b509392505050565b6000813590506124a9816131e5565b92915050565b6000813590506124be816131fc565b92915050565b6000813590506124d381613213565b92915050565b6000813590506124e88161322a565b92915050565b6000815190506124fd8161322a565b92915050565b600082601f83011261251457600080fd5b813561252484826020860161245c565b91505092915050565b60008135905061253c81613241565b92915050565b60006020828403121561255457600080fd5b60006125628482850161249a565b91505092915050565b60006020828403121561257d57600080fd5b600061258b848285016124af565b91505092915050565b600080604083850312156125a757600080fd5b60006125b58582860161249a565b92505060206125c68582860161249a565b9150509250929050565b6000806000606084860312156125e557600080fd5b60006125f38682870161249a565b93505060206126048682870161249a565b92505060406126158682870161252d565b9150509250925092565b6000806000806080858703121561263557600080fd5b60006126438782880161249a565b94505060206126548782880161249a565b93505060406126658782880161252d565b925050606085013567ffffffffffffffff81111561268257600080fd5b61268e87828801612503565b91505092959194509250565b600080604083850312156126ad57600080fd5b60006126bb8582860161249a565b92505060206126cc858286016124c4565b9150509250929050565b600080604083850312156126e957600080fd5b60006126f78582860161249a565b92505060206127088582860161252d565b9150509250929050565b60006020828403121561272457600080fd5b6000612732848285016124d9565b91505092915050565b60006020828403121561274d57600080fd5b600061275b848285016124ee565b91505092915050565b60006020828403121561277657600080fd5b60006127848482850161252d565b91505092915050565b600080604083850312156127a057600080fd5b60006127ae8582860161252d565b92505060206127bf8582860161249a565b9150509250929050565b6127d281612fa6565b82525050565b6127e181612f94565b82525050565b6127f081612fb8565b82525050565b600061280182612e96565b61280b8185612eac565b935061281b818560208601613039565b612824816131d4565b840191505092915050565b600061283a82612ea1565b6128448185612ebd565b9350612854818560208601613039565b61285d816131d4565b840191505092915050565b600061287382612ea1565b61287d8185612ece565b935061288d818560208601613039565b80840191505092915050565b60006128a6603283612ebd565b91507f4552433732313a207472616e7366657220746f206e6f6e20455243373231526560008301527f63656976657220696d706c656d656e74657200000000000000000000000000006020830152604082019050919050565b600061290c601983612ebd565b91507f4552433732313a20617070726f766520746f2063616c6c6572000000000000006000830152602082019050919050565b600061294c602c83612ebd565b91507f4552433732313a206f70657261746f7220717565727920666f72206e6f6e657860008301527f697374656e7420746f6b656e00000000000000000000000000000000000000006020830152604082019050919050565b60006129b2602983612ebd565b91507f4552433732313a206f776e657220717565727920666f72206e6f6e657869737460008301527f656e7420746f6b656e00000000000000000000000000000000000000000000006020830152604082019050919050565b6000612a18602c83612ebd565b91507f4552433732313a20617070726f76656420717565727920666f72206e6f6e657860008301527f697374656e7420746f6b656e00000000000000000000000000000000000000006020830152604082019050919050565b6000612a7e602f83612ebd565b91507f4552433732314d657461646174613a2055524920717565727920666f72206e6f60008301527f6e6578697374656e7420746f6b656e00000000000000000000000000000000006020830152604082019050919050565b6000612ae4603183612ebd565b91507f4552433732313a207472616e736665722063616c6c6572206973206e6f74206f60008301527f776e6572206e6f7220617070726f7665640000000000000000000000000000006020830152604082019050919050565b612b4681613010565b82525050565b612b558161301a565b82525050565b6000612b678285612868565b9150612b738284612868565b91508190509392505050565b6000602082019050612b9460008301846127d8565b92915050565b6000602082019050612baf60008301846127c9565b92915050565b6000608082019050612bca60008301876127d8565b612bd760208301866127d8565b612be46040830185612b3d565b8181036060830152612bf681846127f6565b905095945050505050565b6000602082019050612c1660008301846127e7565b92915050565b600061014082019050612c32600083018d6127e7565b612c3f602083018c6127e7565b612c4c604083018b612b3d565b612c59606083018a612b3d565b612c666080830189612b3d565b612c7360a0830188612b3d565b612c8060c0830187612b3d565b612c8d60e0830186612b3d565b612c9b610100830185612b3d565b612ca9610120830184612b3d565b9b9a5050505050505050505050565b60006020820190508181036000830152612cd2818461282f565b905092915050565b60006020820190508181036000830152612cf381612899565b9050919050565b60006020820190508181036000830152612d13816128ff565b9050919050565b60006020820190508181036000830152612d338161293f565b9050919050565b60006020820190508181036000830152612d53816129a5565b9050919050565b60006020820190508181036000830152612d7381612a0b565b9050919050565b60006020820190508181036000830152612d9381612a71565b9050919050565b60006020820190508181036000830152612db381612ad7565b9050919050565b6000602082019050612dcf6000830184612b3d565b92915050565b6000608082019050612dea6000830187612b3d565b612df76020830186612b3d565b612e046040830185612b3d565b612e116060830184612b3d565b95945050505050565b6000602082019050612e2f6000830184612b4c565b92915050565b6000604051905081810181811067ffffffffffffffff82111715612e5c57612e5b6131a5565b5b8060405250919050565b600067ffffffffffffffff821115612e8157612e806131a5565b5b601f19601f8301169050602081019050919050565b600081519050919050565b600081519050919050565b600082825260208201905092915050565b600082825260208201905092915050565b600081905092915050565b6000612ee482613010565b9150612eef83613010565b9250827fffffffffffffffffffffffffffffffffffffffffffffffffffffffffffffffff03821115612f2457612f23613118565b5b828201905092915050565b6000612f3a82613010565b9150612f4583613010565b925082612f5557612f54613147565b5b828204905092915050565b6000612f6b82613010565b9150612f7683613010565b925082821015612f8957612f88613118565b5b828203905092915050565b6000612f9f82612ff0565b9050919050565b6000612fb182612ff0565b9050919050565b60008115159050919050565b60007fffffffff0000000000000000000000000000000000000000000000000000000082169050919050565b600073ffffffffffffffffffffffffffffffffffffffff82169050919050565b6000819050919050565b600063ffffffff82169050919050565b82818337600083830152505050565b60005b8381101561305757808201518184015260208101905061303c565b83811115613066576000848401525b50505050565b6000600282049050600182168061308457607f821691505b6020821081141561309857613097613176565b5b50919050565b60006130a982613010565b91507fffffffffffffffffffffffffffffffffffffffffffffffffffffffffffffffff8214156130dc576130db613118565b5b600182019050919050565b60006130f282613010565b91506130fd83613010565b92508261310d5761310c613147565b5b828206905092915050565b7f4e487b7100000000000000000000000000000000000000000000000000000000600052601160045260246000fd5b7f4e487b7100000000000000000000000000000000000000000000000000000000600052601260045260246000fd5b7f4e487b7100000000000000000000000000000000000000000000000000000000600052602260045260246000fd5b7f4e487b7100000000000000000000000000000000000000000000000000000000600052604160045260246000fd5b6000601f19601f8301169050919050565b6131ee81612f94565b81146131f957600080fd5b50565b61320581612fa6565b811461321057600080fd5b50565b61321c81612fb8565b811461322757600080fd5b50565b61323381612fc4565b811461323e57600080fd5b50565b61324a81613010565b811461325557600080fd5b5056fea2646970667358221220b9cfb811c331f18a26e191d8d4c24c282d9a038e983665cd044b84792ca1f9ad64736f6c63430008000033",
  "immutableReferences": {},
  "source": "// SPDX-License-Identifier: MIT\npragma solidity >=0.4.22 <0.9.0;\n\nimport \"./GizzyMinting.sol\";\n\ncontract GizzyCore is GizzyMinting{\n  constructor() {\n    paused = true;\n    ceoAddress = msg.sender;\n    cooAddress = msg.sender;\n    _createGizzy(0,0,0,uint256(0),address(0));\n  }\n\n  function getGizzy(uint256 _id)\n    public\n    view\n    returns (\n      bool isGestating,\n      bool isReady,\n      uint256 cooldownIndex,\n      uint256 nextActionAt,\n      uint256 siringWithId,\n      uint256 birthTime,\n      uint256 matronId,\n      uint256 sireId,\n      uint256 generation,\n      uint256 genes\n    ) {\n      Gizzy storage giz = gizzies[_id];\n\n      isGestating = (giz.siringWithId != 0);\n      isReady = (giz.cooldownEndTime <= block.timestamp);\n      cooldownIndex = uint256(giz.cooldownIndex);\n      nextActionAt = uint256(giz.cooldownEndTime);\n      siringWithId = uint256(giz.siringWithId);\n      birthTime = uint256(giz.birthTime);\n      matronId = uint256(giz.matronId);\n      sireId = uint256(giz.sireId);\n      generation = uint256(giz.generation);\n      genes = giz.genes;\n    }\n\n}\n",
  "sourcePath": "/home/imtiaz/Desktop/baeinnovations/gizzy-smartcontracts/contracts/GizzyCore.sol",
  "compiler": {
    "name": "solc",
    "version": "0.8.0+commit.c7dfd78e.Emscripten.clang"
  },
  "schemaVersion": "3.4.0",
  "updatedAt": "2021-05-19T10:40:48.094Z",
  "networkType": "ethereum",
  "devdoc": {
    "kind": "dev",
    "methods": {
      "getApproved(uint256)": {
        "details": "See {IERC721-getApproved}."
      },
      "isApprovedForAll(address,address)": {
        "details": "See {IERC721-isApprovedForAll}."
      },
      "name()": {
        "details": "See {IERC721Metadata-name}."
      },
      "safeTransferFrom(address,address,uint256)": {
        "details": "See {IERC721-safeTransferFrom}."
      },
      "safeTransferFrom(address,address,uint256,bytes)": {
        "details": "See {IERC721-safeTransferFrom}."
      },
      "setApprovalForAll(address,bool)": {
        "details": "See {IERC721-setApprovalForAll}."
      },
      "supportsInterface(bytes4)": {
        "details": "See {IERC165-supportsInterface}."
      },
      "symbol()": {
        "details": "See {IERC721Metadata-symbol}."
      },
      "tokenURI(uint256)": {
        "details": "See {IERC721Metadata-tokenURI}."
      }
    },
    "version": 1
  },
  "userdoc": {
    "kind": "user",
    "methods": {},
    "version": 1
  }
}