{
  "contractName": "GizzyBase",
  "abi": [
    {
      "anonymous": false,
      "inputs": [
        {
          "indexed": true,
          "internalType": "address",
          "name": "owner",
          "type": "address"
        },
        {
          "indexed": true,
          "internalType": "address",
          "name": "approved",
          "type": "address"
        },
        {
          "indexed": true,
          "internalType": "uint256",
          "name": "tokenId",
          "type": "uint256"
        }
      ],
      "name": "Approval",
      "type": "event"
    },
    {
      "anonymous": false,
      "inputs": [
        {
          "indexed": true,
          "internalType": "address",
          "name": "owner",
          "type": "address"
        },
        {
          "indexed": true,
          "internalType": "address",
          "name": "operator",
          "type": "address"
        },
        {
          "indexed": false,
          "internalType": "bool",
          "name": "approved",
          "type": "bool"
        }
      ],
      "name": "ApprovalForAll",
      "type": "event"
    },
    {
      "anonymous": false,
      "inputs": [
        {
          "indexed": false,
          "internalType": "uint256",
          "name": "gizzyId",
          "type": "uint256"
        },
        {
          "indexed": false,
          "internalType": "uint256",
          "name": "matronId",
          "type": "uint256"
        },
        {
          "indexed": false,
          "internalType": "uint256",
          "name": "sireId",
          "type": "uint256"
        },
        {
          "indexed": true,
          "internalType": "address",
          "name": "owner",
          "type": "address"
        },
        {
          "indexed": false,
          "internalType": "string",
          "name": "tokenURI",
          "type": "string"
        }
      ],
      "name": "Birth",
      "type": "event"
    },
    {
      "anonymous": false,
      "inputs": [
        {
          "indexed": false,
          "internalType": "uint256",
          "name": "gizzyId",
          "type": "uint256"
        },
        {
          "indexed": true,
          "internalType": "address",
          "name": "owner",
          "type": "address"
        },
        {
          "indexed": false,
          "internalType": "string",
          "name": "tokenURI",
          "type": "string"
        }
      ],
      "name": "BoughtEgg",
      "type": "event"
    },
    {
      "anonymous": false,
      "inputs": [
        {
          "indexed": true,
          "internalType": "address",
          "name": "from",
          "type": "address"
        },
        {
          "indexed": true,
          "internalType": "address",
          "name": "to",
          "type": "address"
        },
        {
          "indexed": true,
          "internalType": "uint256",
          "name": "tokenId",
          "type": "uint256"
        }
      ],
      "name": "Transfer",
      "type": "event"
    },
    {
      "inputs": [],
      "name": "accountantAddress",
      "outputs": [
        {
          "internalType": "address payable",
          "name": "",
          "type": "address"
        }
      ],
      "stateMutability": "view",
      "type": "function"
    },
    {
      "inputs": [],
      "name": "adminAddress",
      "outputs": [
        {
          "internalType": "address",
          "name": "",
          "type": "address"
        }
      ],
      "stateMutability": "view",
      "type": "function"
    },
    {
      "inputs": [
        {
          "internalType": "address",
          "name": "to",
          "type": "address"
        },
        {
          "internalType": "uint256",
          "name": "tokenId",
          "type": "uint256"
        }
      ],
      "name": "approve",
      "outputs": [],
      "stateMutability": "nonpayable",
      "type": "function"
    },
    {
      "inputs": [
        {
          "internalType": "address",
          "name": "owner",
          "type": "address"
        }
      ],
      "name": "balanceOf",
      "outputs": [
        {
          "internalType": "uint256",
          "name": "",
          "type": "uint256"
        }
      ],
      "stateMutability": "view",
      "type": "function"
    },
    {
      "inputs": [
        {
          "internalType": "uint256",
          "name": "",
          "type": "uint256"
        }
      ],
      "name": "cooldowns",
      "outputs": [
        {
          "internalType": "uint32",
          "name": "",
          "type": "uint32"
        }
      ],
      "stateMutability": "view",
      "type": "function"
    },
    {
      "inputs": [
        {
          "internalType": "uint256",
          "name": "tokenId",
          "type": "uint256"
        }
      ],
      "name": "getApproved",
      "outputs": [
        {
          "internalType": "address",
          "name": "",
          "type": "address"
        }
      ],
      "stateMutability": "view",
      "type": "function"
    },
    {
      "inputs": [
        {
          "internalType": "uint256",
          "name": "",
          "type": "uint256"
        }
      ],
      "name": "gizzies",
      "outputs": [
        {
          "internalType": "uint64",
          "name": "birthTime",
          "type": "uint64"
        },
        {
          "internalType": "uint64",
          "name": "cooldownEndTime",
          "type": "uint64"
        },
        {
          "internalType": "uint32",
          "name": "matronId",
          "type": "uint32"
        },
        {
          "internalType": "uint32",
          "name": "sireId",
          "type": "uint32"
        },
        {
          "internalType": "uint32",
          "name": "siringWithId",
          "type": "uint32"
        },
        {
          "internalType": "uint16",
          "name": "generation",
          "type": "uint16"
        },
        {
          "internalType": "uint8",
          "name": "cooldownIndex",
          "type": "uint8"
        },
        {
          "internalType": "bool",
          "name": "breedable",
          "type": "bool"
        }
      ],
      "stateMutability": "view",
      "type": "function"
    },
    {
      "inputs": [
        {
          "internalType": "address",
          "name": "owner",
          "type": "address"
        },
        {
          "internalType": "address",
          "name": "operator",
          "type": "address"
        }
      ],
      "name": "isApprovedForAll",
      "outputs": [
        {
          "internalType": "bool",
          "name": "",
          "type": "bool"
        }
      ],
      "stateMutability": "view",
      "type": "function"
    },
    {
      "inputs": [],
      "name": "name",
      "outputs": [
        {
          "internalType": "string",
          "name": "",
          "type": "string"
        }
      ],
      "stateMutability": "view",
      "type": "function"
    },
    {
      "inputs": [
        {
          "internalType": "uint256",
          "name": "tokenId",
          "type": "uint256"
        }
      ],
      "name": "ownerOf",
      "outputs": [
        {
          "internalType": "address",
          "name": "",
          "type": "address"
        }
      ],
      "stateMutability": "view",
      "type": "function"
    },
    {
      "inputs": [],
      "name": "paused",
      "outputs": [
        {
          "internalType": "bool",
          "name": "",
          "type": "bool"
        }
      ],
      "stateMutability": "view",
      "type": "function"
    },
    {
      "inputs": [
        {
          "internalType": "address",
          "name": "from",
          "type": "address"
        },
        {
          "internalType": "address",
          "name": "to",
          "type": "address"
        },
        {
          "internalType": "uint256",
          "name": "tokenId",
          "type": "uint256"
        }
      ],
      "name": "safeTransferFrom",
      "outputs": [],
      "stateMutability": "nonpayable",
      "type": "function"
    },
    {
      "inputs": [
        {
          "internalType": "address",
          "name": "from",
          "type": "address"
        },
        {
          "internalType": "address",
          "name": "to",
          "type": "address"
        },
        {
          "internalType": "uint256",
          "name": "tokenId",
          "type": "uint256"
        },
        {
          "internalType": "bytes",
          "name": "_data",
          "type": "bytes"
        }
      ],
      "name": "safeTransferFrom",
      "outputs": [],
      "stateMutability": "nonpayable",
      "type": "function"
    },
    {
      "inputs": [],
      "name": "serverAddress",
      "outputs": [
        {
          "internalType": "address",
          "name": "",
          "type": "address"
        }
      ],
      "stateMutability": "view",
      "type": "function"
    },
    {
      "inputs": [
        {
          "internalType": "address",
          "name": "operator",
          "type": "address"
        },
        {
          "internalType": "bool",
          "name": "approved",
          "type": "bool"
        }
      ],
      "name": "setApprovalForAll",
      "outputs": [],
      "stateMutability": "nonpayable",
      "type": "function"
    },
    {
      "inputs": [
        {
          "internalType": "bytes4",
          "name": "interfaceId",
          "type": "bytes4"
        }
      ],
      "name": "supportsInterface",
      "outputs": [
        {
          "internalType": "bool",
          "name": "",
          "type": "bool"
        }
      ],
      "stateMutability": "view",
      "type": "function"
    },
    {
      "inputs": [],
      "name": "symbol",
      "outputs": [
        {
          "internalType": "string",
          "name": "",
          "type": "string"
        }
      ],
      "stateMutability": "view",
      "type": "function"
    },
    {
      "inputs": [
        {
          "internalType": "uint256",
          "name": "tokenId",
          "type": "uint256"
        }
      ],
      "name": "tokenURI",
      "outputs": [
        {
          "internalType": "string",
          "name": "",
          "type": "string"
        }
      ],
      "stateMutability": "view",
      "type": "function"
    },
    {
      "inputs": [
        {
          "internalType": "address",
          "name": "from",
          "type": "address"
        },
        {
          "internalType": "address",
          "name": "to",
          "type": "address"
        },
        {
          "internalType": "uint256",
          "name": "tokenId",
          "type": "uint256"
        }
      ],
      "name": "transferFrom",
      "outputs": [],
      "stateMutability": "nonpayable",
      "type": "function"
    },
    {
      "inputs": [],
      "name": "initialize",
      "outputs": [],
      "stateMutability": "nonpayable",
      "type": "function"
    },
    {
      "inputs": [
        {
          "internalType": "address",
          "name": "_newAdmin",
          "type": "address"
        }
      ],
      "name": "setAdmin",
      "outputs": [],
      "stateMutability": "nonpayable",
      "type": "function"
    },
    {
      "inputs": [
        {
          "internalType": "address",
          "name": "_newServer",
          "type": "address"
        }
      ],
      "name": "setServer",
      "outputs": [],
      "stateMutability": "nonpayable",
      "type": "function"
    },
    {
      "inputs": [
        {
          "internalType": "address payable",
          "name": "_newAccountant",
          "type": "address"
        }
      ],
      "name": "setAccountant",
      "outputs": [],
      "stateMutability": "nonpayable",
      "type": "function"
    },
    {
      "inputs": [],
      "name": "withdrawBalance",
      "outputs": [],
      "stateMutability": "nonpayable",
      "type": "function"
    },
    {
      "inputs": [],
      "name": "pause",
      "outputs": [],
      "stateMutability": "nonpayable",
      "type": "function"
    },
    {
      "inputs": [],
      "name": "unpause",
      "outputs": [],
      "stateMutability": "nonpayable",
      "type": "function"
    },
    {
      "inputs": [
        {
          "internalType": "address",
          "name": "_owner",
          "type": "address"
        },
        {
          "internalType": "bool",
          "name": "_breedable",
          "type": "bool"
        },
        {
          "internalType": "string",
          "name": "_tokenURI",
          "type": "string"
        }
      ],
      "name": "createPromoGizzy",
      "outputs": [],
      "stateMutability": "nonpayable",
      "type": "function"
    },
    {
      "inputs": [
        {
          "internalType": "uint256",
          "name": "_id",
          "type": "uint256"
        }
      ],
      "name": "getGizzy",
      "outputs": [
        {
          "internalType": "bool",
          "name": "isGestating",
          "type": "bool"
        },
        {
          "internalType": "bool",
          "name": "isReady",
          "type": "bool"
        },
        {
          "internalType": "uint256",
          "name": "cooldownIndex",
          "type": "uint256"
        },
        {
          "internalType": "uint256",
          "name": "nextActionAt",
          "type": "uint256"
        },
        {
          "internalType": "uint256",
          "name": "siringWithId",
          "type": "uint256"
        },
        {
          "internalType": "uint256",
          "name": "birthTime",
          "type": "uint256"
        },
        {
          "internalType": "uint256",
          "name": "matronId",
          "type": "uint256"
        },
        {
          "internalType": "uint256",
          "name": "sireId",
          "type": "uint256"
        },
        {
          "internalType": "uint256",
          "name": "generation",
          "type": "uint256"
        },
        {
          "internalType": "string",
          "name": "ipfsHash",
          "type": "string"
        }
      ],
      "stateMutability": "view",
      "type": "function"
    },
    {
      "inputs": [],
      "name": "buyEgg",
      "outputs": [],
      "stateMutability": "payable",
      "type": "function"
    }
  ],
  "bytecode": "0x6080604052600060cb60146101000a81548160ff021916908315150217905550604051806101c00160405280603c63ffffffff1663ffffffff168152602001607863ffffffff1663ffffffff16815260200161012c63ffffffff1663ffffffff16815260200161025863ffffffff1663ffffffff16815260200161070863ffffffff1663ffffffff168152602001610e1063ffffffff1663ffffffff168152602001611c2063ffffffff1663ffffffff16815260200161384063ffffffff1663ffffffff16815260200161708063ffffffff1663ffffffff16815260200161e10063ffffffff1663ffffffff1681526020016201518063ffffffff1663ffffffff1681526020016202a30063ffffffff1663ffffffff1681526020016205460063ffffffff1663ffffffff16815260200162093a8063ffffffff1663ffffffff1681525060cc90600e620001559291906200016a565b503480156200016357600080fd5b5062000233565b82600e600701600890048101928215620002015791602002820160005b83821115620001cd57835183826101000a81548163ffffffff021916908363ffffffff160217905550926020019260040160208160030104928301926001030262000187565b8015620001ff5782816101000a81549063ffffffff0219169055600401602081600301049283019260010302620001cd565b505b50905062000210919062000214565b5090565b5b808211156200022f57600081600090555060010162000215565b5090565b61440e80620002436000396000f3fe6080604052600436106101c25760003560e01c80637b80638a116100f7578063ab508da411610095578063db420fe311610064578063db420fe314610619578063e985e9c514610644578063f19a0b5414610681578063fc6f9468146106aa576101c2565b8063ab508da414610544578063b88d4fde1461056d578063c87b56dd14610596578063cd0f611b146105d3576101c2565b80638456cb59116100d15780638456cb591461049c57806395d89b41146104b35780639d6fac6f146104de578063a22cb4651461051b576101c2565b80637b80638a146104375780637d6355021461047b5780638129fc1c14610485576101c2565b806342842e0e116101645780635fd8c7101161013e5780635fd8c7101461037d5780636352211e14610394578063704b6c02146103d157806370a08231146103fa576101c2565b806342842e0e1461030057806348ea7127146103295780635c975abb14610352576101c2565b8063095ea7b3116101a0578063095ea7b31461026c5780631f1dea9e1461029557806323b872dd146102c05780633f4ba83a146102e9576101c2565b806301ffc9a7146101c757806306fdde0314610204578063081812fc1461022f575b600080fd5b3480156101d357600080fd5b506101ee60048036038101906101e991906130ca565b6106d5565b6040516101fb919061357c565b60405180910390f35b34801561021057600080fd5b506102196107b7565b604051610226919061363a565b60405180910390f35b34801561023b57600080fd5b506102566004803603810190610251919061311c565b610849565b60405161026391906134fa565b60405180910390f35b34801561027857600080fd5b50610293600480360381019061028e919061308e565b6108ce565b005b3480156102a157600080fd5b506102aa6109e6565b6040516102b79190613515565b60405180910390f35b3480156102cc57600080fd5b506102e760048036038101906102e29190612f21565b610a0c565b005b3480156102f557600080fd5b506102fe610a6c565b005b34801561030c57600080fd5b5061032760048036038101906103229190612f21565b610afc565b005b34801561033557600080fd5b50610350600480360381019061034b9190612ebc565b610b1c565b005b34801561035e57600080fd5b50610367610bf4565b604051610374919061357c565b60405180910390f35b34801561038957600080fd5b50610392610c07565b005b3480156103a057600080fd5b506103bb60048036038101906103b6919061311c565b610ccc565b6040516103c891906134fa565b60405180910390f35b3480156103dd57600080fd5b506103f860048036038101906103f39190612e93565b610d7e565b005b34801561040657600080fd5b50610421600480360381019061041c9190612e93565b610e56565b60405161042e919061387c565b60405180910390f35b34801561044357600080fd5b5061045e6004803603810190610459919061311c565b610f0e565b60405161047298979695949392919061392c565b60405180910390f35b610483610fe2565b005b34801561049157600080fd5b5061049a61108f565b005b3480156104a857600080fd5b506104b161118d565b005b3480156104bf57600080fd5b506104c861121e565b6040516104d5919061363a565b60405180910390f35b3480156104ea57600080fd5b506105056004803603810190610500919061311c565b6112b0565b6040516105129190613911565b60405180910390f35b34801561052757600080fd5b50610542600480360381019061053d9190612feb565b6112e0565b005b34801561055057600080fd5b5061056b60048036038101906105669190613027565b611461565b005b34801561057957600080fd5b50610594600480360381019061058f9190612f70565b611543565b005b3480156105a257600080fd5b506105bd60048036038101906105b8919061311c565b6115a5565b6040516105ca919061363a565b60405180910390f35b3480156105df57600080fd5b506105fa60048036038101906105f5919061311c565b6116f7565b6040516106109a99989796959493929190613597565b60405180910390f35b34801561062557600080fd5b5061062e611882565b60405161063b91906134fa565b60405180910390f35b34801561065057600080fd5b5061066b60048036038101906106669190612ee5565b6118a8565b604051610678919061357c565b60405180910390f35b34801561068d57600080fd5b506106a860048036038101906106a39190612e93565b61193c565b005b3480156106b657600080fd5b506106bf611a14565b6040516106cc91906134fa565b60405180910390f35b60007f80ac58cd000000000000000000000000000000000000000000000000000000007bffffffffffffffffffffffffffffffffffffffffffffffffffffffff1916827bffffffffffffffffffffffffffffffffffffffffffffffffffffffff191614806107a057507f5b5e139f000000000000000000000000000000000000000000000000000000007bffffffffffffffffffffffffffffffffffffffffffffffffffffffff1916827bffffffffffffffffffffffffffffffffffffffffffffffffffffffff1916145b806107b057506107af82611a3a565b5b9050919050565b6060606580546107c690613c36565b80601f01602080910402602001604051908101604052809291908181526020018280546107f290613c36565b801561083f5780601f106108145761010080835404028352916020019161083f565b820191906000526020600020905b81548152906001019060200180831161082257829003601f168201915b5050505050905090565b600061085482611aa4565b610893576040517f08c379a000000000000000000000000000000000000000000000000000000000815260040161088a906137dc565b60405180910390fd5b6069600083815260200190815260200160002060009054906101000a900473ffffffffffffffffffffffffffffffffffffffff169050919050565b60006108d982610ccc565b90508073ffffffffffffffffffffffffffffffffffffffff168373ffffffffffffffffffffffffffffffffffffffff16141561094a576040517f08c379a00000000000000000000000000000000000000000000000000000000081526004016109419061383c565b60405180910390fd5b8073ffffffffffffffffffffffffffffffffffffffff16610969611b10565b73ffffffffffffffffffffffffffffffffffffffff161480610998575061099781610992611b10565b6118a8565b5b6109d7576040517f08c379a00000000000000000000000000000000000000000000000000000000081526004016109ce906136fc565b60405180910390fd5b6109e18383611b18565b505050565b60cb60009054906101000a900473ffffffffffffffffffffffffffffffffffffffff1681565b610a1d610a17611b10565b82611bd1565b610a5c576040517f08c379a0000000000000000000000000000000000000000000000000000000008152600401610a539061385c565b60405180910390fd5b610a67838383611caf565b505050565b60c960009054906101000a900473ffffffffffffffffffffffffffffffffffffffff1673ffffffffffffffffffffffffffffffffffffffff163373ffffffffffffffffffffffffffffffffffffffff1614610ac657600080fd5b60cb60149054906101000a900460ff16610adf57600080fd5b600060cb60146101000a81548160ff021916908315150217905550565b610b1783838360405180602001604052806000815250611543565b505050565b60c960009054906101000a900473ffffffffffffffffffffffffffffffffffffffff1673ffffffffffffffffffffffffffffffffffffffff163373ffffffffffffffffffffffffffffffffffffffff1614610b7657600080fd5b600073ffffffffffffffffffffffffffffffffffffffff168173ffffffffffffffffffffffffffffffffffffffff161415610bb057600080fd5b8060cb60006101000a81548173ffffffffffffffffffffffffffffffffffffffff021916908373ffffffffffffffffffffffffffffffffffffffff16021790555050565b60cb60149054906101000a900460ff1681565b60cb60009054906101000a900473ffffffffffffffffffffffffffffffffffffffff1673ffffffffffffffffffffffffffffffffffffffff163373ffffffffffffffffffffffffffffffffffffffff1614610c6157600080fd5b60cb60009054906101000a900473ffffffffffffffffffffffffffffffffffffffff1673ffffffffffffffffffffffffffffffffffffffff166108fc479081150290604051600060405180830381858888f19350505050158015610cc9573d6000803e3d6000fd5b50565b6000806067600084815260200190815260200160002060009054906101000a900473ffffffffffffffffffffffffffffffffffffffff169050600073ffffffffffffffffffffffffffffffffffffffff168173ffffffffffffffffffffffffffffffffffffffff161415610d75576040517f08c379a0000000000000000000000000000000000000000000000000000000008152600401610d6c9061373c565b60405180910390fd5b80915050919050565b60c960009054906101000a900473ffffffffffffffffffffffffffffffffffffffff1673ffffffffffffffffffffffffffffffffffffffff163373ffffffffffffffffffffffffffffffffffffffff1614610dd857600080fd5b600073ffffffffffffffffffffffffffffffffffffffff168173ffffffffffffffffffffffffffffffffffffffff161415610e1257600080fd5b8060c960006101000a81548173ffffffffffffffffffffffffffffffffffffffff021916908373ffffffffffffffffffffffffffffffffffffffff16021790555050565b60008073ffffffffffffffffffffffffffffffffffffffff168273ffffffffffffffffffffffffffffffffffffffff161415610ec7576040517f08c379a0000000000000000000000000000000000000000000000000000000008152600401610ebe9061371c565b60405180910390fd5b606860008373ffffffffffffffffffffffffffffffffffffffff1673ffffffffffffffffffffffffffffffffffffffff168152602001908152602001600020549050919050565b60ce8181548110610f1e57600080fd5b906000526020600020016000915090508060000160009054906101000a900467ffffffffffffffff16908060000160089054906101000a900467ffffffffffffffff16908060000160109054906101000a900463ffffffff16908060000160149054906101000a900463ffffffff16908060000160189054906101000a900463ffffffff169080600001601c9054906101000a900461ffff169080600001601e9054906101000a900460ff169080600001601f9054906101000a900460ff16905088565b60cb60149054906101000a900460ff1615610ffc57600080fd5b670494654067e1000034101561101157600080fd5b600061103c600080600033600060405180608001604052806043815260200161439660439139611f0b565b90503373ffffffffffffffffffffffffffffffffffffffff167f508fc1f21005a46b5873e1ef3ea013ceae818f7a10ebd8022293c76bf9ab8ae5826040516110849190613897565b60405180910390a250565b6111036040518060400160405280600581526020017f47697a7a790000000000000000000000000000000000000000000000000000008152506040518060400160405280600381526020017f475a5900000000000000000000000000000000000000000000000000000000008152506121c1565b3360c960006101000a81548173ffffffffffffffffffffffffffffffffffffffff021916908373ffffffffffffffffffffffffffffffffffffffff16021790555061118a60008060003360006040518060400160405280600481526020017f6e756c6c00000000000000000000000000000000000000000000000000000000815250611f0b565b50565b60c960009054906101000a900473ffffffffffffffffffffffffffffffffffffffff1673ffffffffffffffffffffffffffffffffffffffff163373ffffffffffffffffffffffffffffffffffffffff16146111e757600080fd5b60cb60149054906101000a900460ff161561120157600080fd5b600160cb60146101000a81548160ff021916908315150217905550565b60606066805461122d90613c36565b80601f016020809104026020016040519081016040528092919081815260200182805461125990613c36565b80156112a65780601f1061127b576101008083540402835291602001916112a6565b820191906000526020600020905b81548152906001019060200180831161128957829003601f168201915b5050505050905090565b60cc81600e81106112c057600080fd5b60089182820401919006600402915054906101000a900463ffffffff1681565b6112e8611b10565b73ffffffffffffffffffffffffffffffffffffffff168273ffffffffffffffffffffffffffffffffffffffff161415611356576040517f08c379a000000000000000000000000000000000000000000000000000000000815260040161134d906136bc565b60405180910390fd5b80606a6000611363611b10565b73ffffffffffffffffffffffffffffffffffffffff1673ffffffffffffffffffffffffffffffffffffffff16815260200190815260200160002060008473ffffffffffffffffffffffffffffffffffffffff1673ffffffffffffffffffffffffffffffffffffffff16815260200190815260200160002060006101000a81548160ff0219169083151502179055508173ffffffffffffffffffffffffffffffffffffffff16611410611b10565b73ffffffffffffffffffffffffffffffffffffffff167f17307eab39ab6107e8899845ad3d59bd9653f200f220920489ca2b5937696c3183604051611455919061357c565b60405180910390a35050565b60c960009054906101000a900473ffffffffffffffffffffffffffffffffffffffff1673ffffffffffffffffffffffffffffffffffffffff163373ffffffffffffffffffffffffffffffffffffffff16148061150a575060ca60009054906101000a900473ffffffffffffffffffffffffffffffffffffffff1673ffffffffffffffffffffffffffffffffffffffff163373ffffffffffffffffffffffffffffffffffffffff16145b61151357600080fd5b60cb60149054906101000a900460ff161561152d57600080fd5b61153d6000806000868686611f0b565b50505050565b61155461154e611b10565b83611bd1565b611593576040517f08c379a000000000000000000000000000000000000000000000000000000000815260040161158a9061385c565b60405180910390fd5b61159f848484846122b6565b50505050565b60606115b082611aa4565b6115ef576040517f08c379a00000000000000000000000000000000000000000000000000000000081526004016115e6906137bc565b60405180910390fd5b600060976000848152602001908152602001600020805461160f90613c36565b80601f016020809104026020016040519081016040528092919081815260200182805461163b90613c36565b80156116885780601f1061165d57610100808354040283529160200191611688565b820191906000526020600020905b81548152906001019060200180831161166b57829003601f168201915b505050505090506000611699612312565b90506000815114156116af5781925050506116f2565b6000825111156116e45780826040516020016116cc9291906134d6565b604051602081830303815290604052925050506116f2565b6116ed84612329565b925050505b919050565b60008060008060008060008060006060600060ce8c81548110611743577f4e487b7100000000000000000000000000000000000000000000000000000000600052603260045260246000fd5b90600052602060002001905060008160000160189054906101000a900463ffffffff1663ffffffff1614159a50428160000160089054906101000a900467ffffffffffffffff1667ffffffffffffffff161115995080600001601e9054906101000a900460ff1660ff1698508060000160089054906101000a900467ffffffffffffffff1667ffffffffffffffff1697508060000160189054906101000a900463ffffffff1663ffffffff1696508060000160009054906101000a900467ffffffffffffffff1667ffffffffffffffff1695508060000160109054906101000a900463ffffffff1663ffffffff1694508060000160149054906101000a900463ffffffff1663ffffffff16935080600001601c9054906101000a900461ffff1661ffff1692506118728c6115a5565b9150509193959799509193959799565b60ca60009054906101000a900473ffffffffffffffffffffffffffffffffffffffff1681565b6000606a60008473ffffffffffffffffffffffffffffffffffffffff1673ffffffffffffffffffffffffffffffffffffffff16815260200190815260200160002060008373ffffffffffffffffffffffffffffffffffffffff1673ffffffffffffffffffffffffffffffffffffffff16815260200190815260200160002060009054906101000a900460ff16905092915050565b60c960009054906101000a900473ffffffffffffffffffffffffffffffffffffffff1673ffffffffffffffffffffffffffffffffffffffff163373ffffffffffffffffffffffffffffffffffffffff161461199657600080fd5b600073ffffffffffffffffffffffffffffffffffffffff168173ffffffffffffffffffffffffffffffffffffffff1614156119d057600080fd5b8060ca60006101000a81548173ffffffffffffffffffffffffffffffffffffffff021916908373ffffffffffffffffffffffffffffffffffffffff16021790555050565b60c960009054906101000a900473ffffffffffffffffffffffffffffffffffffffff1681565b60007f01ffc9a7000000000000000000000000000000000000000000000000000000007bffffffffffffffffffffffffffffffffffffffffffffffffffffffff1916827bffffffffffffffffffffffffffffffffffffffffffffffffffffffff1916149050919050565b60008073ffffffffffffffffffffffffffffffffffffffff166067600084815260200190815260200160002060009054906101000a900473ffffffffffffffffffffffffffffffffffffffff1673ffffffffffffffffffffffffffffffffffffffff1614159050919050565b600033905090565b816069600083815260200190815260200160002060006101000a81548173ffffffffffffffffffffffffffffffffffffffff021916908373ffffffffffffffffffffffffffffffffffffffff160217905550808273ffffffffffffffffffffffffffffffffffffffff16611b8b83610ccc565b73ffffffffffffffffffffffffffffffffffffffff167f8c5be1e5ebec7d5bd14f71427d1e84f3dd0314c0f7b2291e5b200ac8c7c3b92560405160405180910390a45050565b6000611bdc82611aa4565b611c1b576040517f08c379a0000000000000000000000000000000000000000000000000000000008152600401611c12906136dc565b60405180910390fd5b6000611c2683610ccc565b90508073ffffffffffffffffffffffffffffffffffffffff168473ffffffffffffffffffffffffffffffffffffffff161480611c9557508373ffffffffffffffffffffffffffffffffffffffff16611c7d84610849565b73ffffffffffffffffffffffffffffffffffffffff16145b80611ca65750611ca581856118a8565b5b91505092915050565b8273ffffffffffffffffffffffffffffffffffffffff16611ccf82610ccc565b73ffffffffffffffffffffffffffffffffffffffff1614611d25576040517f08c379a0000000000000000000000000000000000000000000000000000000008152600401611d1c906137fc565b60405180910390fd5b600073ffffffffffffffffffffffffffffffffffffffff168273ffffffffffffffffffffffffffffffffffffffff161415611d95576040517f08c379a0000000000000000000000000000000000000000000000000000000008152600401611d8c9061369c565b60405180910390fd5b611da08383836123d0565b611dab600082611b18565b6001606860008573ffffffffffffffffffffffffffffffffffffffff1673ffffffffffffffffffffffffffffffffffffffff1681526020019081526020016000206000828254611dfb9190613afb565b925050819055506001606860008473ffffffffffffffffffffffffffffffffffffffff1673ffffffffffffffffffffffffffffffffffffffff1681526020019081526020016000206000828254611e529190613a74565b92505081905550816067600083815260200190815260200160002060006101000a81548173ffffffffffffffffffffffffffffffffffffffff021916908373ffffffffffffffffffffffffffffffffffffffff160217905550808273ffffffffffffffffffffffffffffffffffffffff168473ffffffffffffffffffffffffffffffffffffffff167fddf252ad1be2c89b69c2b068fc378daa952ba7f163c4a11628f55a4df523b3ef60405160405180910390a4505050565b600063ffffffff871115611f1e57600080fd5b63ffffffff861115611f2f57600080fd5b61ffff851115611f3e57600080fd5b60006040518061010001604052804267ffffffffffffffff168152602001600067ffffffffffffffff1681526020018963ffffffff1681526020018863ffffffff168152602001600063ffffffff1681526020018761ffff168152602001600060ff168152602001851515815250905060ce819080600181540180825580915050600190039060005260206000200160009091909190915060008201518160000160006101000a81548167ffffffffffffffff021916908367ffffffffffffffff16021790555060208201518160000160086101000a81548167ffffffffffffffff021916908367ffffffffffffffff16021790555060408201518160000160106101000a81548163ffffffff021916908363ffffffff16021790555060608201518160000160146101000a81548163ffffffff021916908363ffffffff16021790555060808201518160000160186101000a81548163ffffffff021916908363ffffffff16021790555060a082015181600001601c6101000a81548161ffff021916908361ffff16021790555060c082015181600001601e6101000a81548160ff021916908360ff16021790555060e082015181600001601f6101000a81548160ff02191690831515021790555050506000600160ce805490506121239190613afb565b905063ffffffff81111561213657600080fd5b8573ffffffffffffffffffffffffffffffffffffffff167f9402a6ae3ac82210044ca95af4f5a153cd33bf2073e1d5244b2579437529a6d982846040015163ffffffff16856060015163ffffffff168860405161219694939291906138c5565b60405180910390a26121a886826123d5565b6121b281856123f3565b80925050509695505050505050565b600060019054906101000a900460ff16806121e7575060008054906101000a900460ff16155b612226576040517f08c379a000000000000000000000000000000000000000000000000000000000815260040161221d9061377c565b60405180910390fd5b60008060019054906101000a900460ff161590508015612276576001600060016101000a81548160ff02191690831515021790555060016000806101000a81548160ff0219169083151502179055505b61227e612467565b612286612540565b6122908383612619565b80156122b15760008060016101000a81548160ff0219169083151502179055505b505050565b6122c1848484611caf565b6122cd84848484612722565b61230c576040517f08c379a00000000000000000000000000000000000000000000000000000000081526004016123039061365c565b60405180910390fd5b50505050565b606060405180602001604052806000815250905090565b606061233482611aa4565b612373576040517f08c379a000000000000000000000000000000000000000000000000000000000815260040161236a9061381c565b60405180910390fd5b600061237d612312565b9050600081511161239d57604051806020016040528060008152506123c8565b806123a7846128b9565b6040516020016123b89291906134d6565b6040516020818303038152906040525b915050919050565b505050565b6123ef828260405180602001604052806000815250612a66565b5050565b6123fc82611aa4565b61243b576040517f08c379a00000000000000000000000000000000000000000000000000000000081526004016124329061375c565b60405180910390fd5b80609760008481526020019081526020016000209080519060200190612462929190612ca2565b505050565b600060019054906101000a900460ff168061248d575060008054906101000a900460ff16155b6124cc576040517f08c379a00000000000000000000000000000000000000000000000000000000081526004016124c39061377c565b60405180910390fd5b60008060019054906101000a900460ff16159050801561251c576001600060016101000a81548160ff02191690831515021790555060016000806101000a81548160ff0219169083151502179055505b801561253d5760008060016101000a81548160ff0219169083151502179055505b50565b600060019054906101000a900460ff1680612566575060008054906101000a900460ff16155b6125a5576040517f08c379a000000000000000000000000000000000000000000000000000000000815260040161259c9061377c565b60405180910390fd5b60008060019054906101000a900460ff1615905080156125f5576001600060016101000a81548160ff02191690831515021790555060016000806101000a81548160ff0219169083151502179055505b80156126165760008060016101000a81548160ff0219169083151502179055505b50565b600060019054906101000a900460ff168061263f575060008054906101000a900460ff16155b61267e576040517f08c379a00000000000000000000000000000000000000000000000000000000081526004016126759061377c565b60405180910390fd5b60008060019054906101000a900460ff1615905080156126ce576001600060016101000a81548160ff02191690831515021790555060016000806101000a81548160ff0219169083151502179055505b82606590805190602001906126e4929190612ca2565b5081606690805190602001906126fb929190612ca2565b50801561271d5760008060016101000a81548160ff0219169083151502179055505b505050565b60006127438473ffffffffffffffffffffffffffffffffffffffff16612ac1565b156128ac578373ffffffffffffffffffffffffffffffffffffffff1663150b7a0261276c611b10565b8786866040518563ffffffff1660e01b815260040161278e9493929190613530565b602060405180830381600087803b1580156127a857600080fd5b505af19250505080156127d957506040513d601f19601f820116820180604052508101906127d691906130f3565b60015b61285c573d8060008114612809576040519150601f19603f3d011682016040523d82523d6000602084013e61280e565b606091505b50600081511415612854576040517f08c379a000000000000000000000000000000000000000000000000000000000815260040161284b9061365c565b60405180910390fd5b805181602001fd5b63150b7a0260e01b7bffffffffffffffffffffffffffffffffffffffffffffffffffffffff1916817bffffffffffffffffffffffffffffffffffffffffffffffffffffffff1916149150506128b1565b600190505b949350505050565b60606000821415612901576040518060400160405280600181526020017f30000000000000000000000000000000000000000000000000000000000000008152509050612a61565b600082905060005b6000821461293357808061291c90613c99565b915050600a8261292c9190613aca565b9150612909565b60008167ffffffffffffffff811115612975577f4e487b7100000000000000000000000000000000000000000000000000000000600052604160045260246000fd5b6040519080825280601f01601f1916602001820160405280156129a75781602001600182028036833780820191505090505b5090505b60008514612a5a576001826129c09190613afb565b9150600a856129cf9190613ce2565b60306129db9190613a74565b60f81b818381518110612a17577f4e487b7100000000000000000000000000000000000000000000000000000000600052603260045260246000fd5b60200101907effffffffffffffffffffffffffffffffffffffffffffffffffffffffffffff1916908160001a905350600a85612a539190613aca565b94506129ab565b8093505050505b919050565b612a708383612ad4565b612a7d6000848484612722565b612abc576040517f08c379a0000000000000000000000000000000000000000000000000000000008152600401612ab39061365c565b60405180910390fd5b505050565b600080823b905060008111915050919050565b600073ffffffffffffffffffffffffffffffffffffffff168273ffffffffffffffffffffffffffffffffffffffff161415612b44576040517f08c379a0000000000000000000000000000000000000000000000000000000008152600401612b3b9061379c565b60405180910390fd5b612b4d81611aa4565b15612b8d576040517f08c379a0000000000000000000000000000000000000000000000000000000008152600401612b849061367c565b60405180910390fd5b612b99600083836123d0565b6001606860008473ffffffffffffffffffffffffffffffffffffffff1673ffffffffffffffffffffffffffffffffffffffff1681526020019081526020016000206000828254612be99190613a74565b92505081905550816067600083815260200190815260200160002060006101000a81548173ffffffffffffffffffffffffffffffffffffffff021916908373ffffffffffffffffffffffffffffffffffffffff160217905550808273ffffffffffffffffffffffffffffffffffffffff16600073ffffffffffffffffffffffffffffffffffffffff167fddf252ad1be2c89b69c2b068fc378daa952ba7f163c4a11628f55a4df523b3ef60405160405180910390a45050565b828054612cae90613c36565b90600052602060002090601f016020900481019282612cd05760008555612d17565b82601f10612ce957805160ff1916838001178555612d17565b82800160010185558215612d17579182015b82811115612d16578251825591602001919060010190612cfb565b5b509050612d249190612d28565b5090565b5b80821115612d41576000816000905550600101612d29565b5090565b6000612d58612d53846139cf565b6139aa565b905082815260208101848484011115612d7057600080fd5b612d7b848285613bf4565b509392505050565b6000612d96612d9184613a00565b6139aa565b905082815260208101848484011115612dae57600080fd5b612db9848285613bf4565b509392505050565b600081359050612dd081614322565b92915050565b600081359050612de581614339565b92915050565b600081359050612dfa81614350565b92915050565b600081359050612e0f81614367565b92915050565b600081519050612e2481614367565b92915050565b600082601f830112612e3b57600080fd5b8135612e4b848260208601612d45565b91505092915050565b600082601f830112612e6557600080fd5b8135612e75848260208601612d83565b91505092915050565b600081359050612e8d8161437e565b92915050565b600060208284031215612ea557600080fd5b6000612eb384828501612dc1565b91505092915050565b600060208284031215612ece57600080fd5b6000612edc84828501612dd6565b91505092915050565b60008060408385031215612ef857600080fd5b6000612f0685828601612dc1565b9250506020612f1785828601612dc1565b9150509250929050565b600080600060608486031215612f3657600080fd5b6000612f4486828701612dc1565b9350506020612f5586828701612dc1565b9250506040612f6686828701612e7e565b9150509250925092565b60008060008060808587031215612f8657600080fd5b6000612f9487828801612dc1565b9450506020612fa587828801612dc1565b9350506040612fb687828801612e7e565b925050606085013567ffffffffffffffff811115612fd357600080fd5b612fdf87828801612e2a565b91505092959194509250565b60008060408385031215612ffe57600080fd5b600061300c85828601612dc1565b925050602061301d85828601612deb565b9150509250929050565b60008060006060848603121561303c57600080fd5b600061304a86828701612dc1565b935050602061305b86828701612deb565b925050604084013567ffffffffffffffff81111561307857600080fd5b61308486828701612e54565b9150509250925092565b600080604083850312156130a157600080fd5b60006130af85828601612dc1565b92505060206130c085828601612e7e565b9150509250929050565b6000602082840312156130dc57600080fd5b60006130ea84828501612e00565b91505092915050565b60006020828403121561310557600080fd5b600061311384828501612e15565b91505092915050565b60006020828403121561312e57600080fd5b600061313c84828501612e7e565b91505092915050565b61314e81613b41565b82525050565b61315d81613b2f565b82525050565b61316c81613b53565b82525050565b600061317d82613a31565b6131878185613a47565b9350613197818560208601613c03565b6131a081613dcf565b840191505092915050565b60006131b682613a3c565b6131c08185613a58565b93506131d0818560208601613c03565b6131d981613dcf565b840191505092915050565b60006131ef82613a3c565b6131f98185613a69565b9350613209818560208601613c03565b80840191505092915050565b6000613222604383613a58565b915061322d82613de0565b606082019050919050565b6000613245603283613a58565b915061325082613e55565b604082019050919050565b6000613268601c83613a58565b915061327382613ea4565b602082019050919050565b600061328b602483613a58565b915061329682613ecd565b604082019050919050565b60006132ae601983613a58565b91506132b982613f1c565b602082019050919050565b60006132d1602c83613a58565b91506132dc82613f45565b604082019050919050565b60006132f4603883613a58565b91506132ff82613f94565b604082019050919050565b6000613317602a83613a58565b915061332282613fe3565b604082019050919050565b600061333a602983613a58565b915061334582614032565b604082019050919050565b600061335d602e83613a58565b915061336882614081565b604082019050919050565b6000613380602e83613a58565b915061338b826140d0565b604082019050919050565b60006133a3602083613a58565b91506133ae8261411f565b602082019050919050565b60006133c6603183613a58565b91506133d182614148565b604082019050919050565b60006133e9602c83613a58565b91506133f482614197565b604082019050919050565b600061340c602983613a58565b9150613417826141e6565b604082019050919050565b600061342f602f83613a58565b915061343a82614235565b604082019050919050565b6000613452602183613a58565b915061345d82614284565b604082019050919050565b6000613475603183613a58565b9150613480826142d3565b604082019050919050565b61349481613b8b565b82525050565b6134a381613bb9565b82525050565b6134b281613bc3565b82525050565b6134c181613bd3565b82525050565b6134d081613be7565b82525050565b60006134e282856131e4565b91506134ee82846131e4565b91508190509392505050565b600060208201905061350f6000830184613154565b92915050565b600060208201905061352a6000830184613145565b92915050565b60006080820190506135456000830187613154565b6135526020830186613154565b61355f604083018561349a565b81810360608301526135718184613172565b905095945050505050565b60006020820190506135916000830184613163565b92915050565b6000610140820190506135ad600083018d613163565b6135ba602083018c613163565b6135c7604083018b61349a565b6135d4606083018a61349a565b6135e1608083018961349a565b6135ee60a083018861349a565b6135fb60c083018761349a565b61360860e083018661349a565b61361661010083018561349a565b81810361012083015261362981846131ab565b90509b9a5050505050505050505050565b6000602082019050818103600083015261365481846131ab565b905092915050565b6000602082019050818103600083015261367581613238565b9050919050565b600060208201905081810360008301526136958161325b565b9050919050565b600060208201905081810360008301526136b58161327e565b9050919050565b600060208201905081810360008301526136d5816132a1565b9050919050565b600060208201905081810360008301526136f5816132c4565b9050919050565b60006020820190508181036000830152613715816132e7565b9050919050565b600060208201905081810360008301526137358161330a565b9050919050565b600060208201905081810360008301526137558161332d565b9050919050565b6000602082019050818103600083015261377581613350565b9050919050565b6000602082019050818103600083015261379581613373565b9050919050565b600060208201905081810360008301526137b581613396565b9050919050565b600060208201905081810360008301526137d5816133b9565b9050919050565b600060208201905081810360008301526137f5816133dc565b9050919050565b60006020820190508181036000830152613815816133ff565b9050919050565b6000602082019050818103600083015261383581613422565b9050919050565b6000602082019050818103600083015261385581613445565b9050919050565b6000602082019050818103600083015261387581613468565b9050919050565b6000602082019050613891600083018461349a565b92915050565b60006040820190506138ac600083018461349a565b81810360208301526138bd81613215565b905092915050565b60006080820190506138da600083018761349a565b6138e7602083018661349a565b6138f4604083018561349a565b818103606083015261390681846131ab565b905095945050505050565b600060208201905061392660008301846134a9565b92915050565b600061010082019050613942600083018b6134b8565b61394f602083018a6134b8565b61395c60408301896134a9565b61396960608301886134a9565b61397660808301876134a9565b61398360a083018661348b565b61399060c08301856134c7565b61399d60e0830184613163565b9998505050505050505050565b60006139b46139c5565b90506139c08282613c68565b919050565b6000604051905090565b600067ffffffffffffffff8211156139ea576139e9613da0565b5b6139f382613dcf565b9050602081019050919050565b600067ffffffffffffffff821115613a1b57613a1a613da0565b5b613a2482613dcf565b9050602081019050919050565b600081519050919050565b600081519050919050565b600082825260208201905092915050565b600082825260208201905092915050565b600081905092915050565b6000613a7f82613bb9565b9150613a8a83613bb9565b9250827fffffffffffffffffffffffffffffffffffffffffffffffffffffffffffffffff03821115613abf57613abe613d13565b5b828201905092915050565b6000613ad582613bb9565b9150613ae083613bb9565b925082613af057613aef613d42565b5b828204905092915050565b6000613b0682613bb9565b9150613b1183613bb9565b925082821015613b2457613b23613d13565b5b828203905092915050565b6000613b3a82613b99565b9050919050565b6000613b4c82613b99565b9050919050565b60008115159050919050565b60007fffffffff0000000000000000000000000000000000000000000000000000000082169050919050565b600061ffff82169050919050565b600073ffffffffffffffffffffffffffffffffffffffff82169050919050565b6000819050919050565b600063ffffffff82169050919050565b600067ffffffffffffffff82169050919050565b600060ff82169050919050565b82818337600083830152505050565b60005b83811015613c21578082015181840152602081019050613c06565b83811115613c30576000848401525b50505050565b60006002820490506001821680613c4e57607f821691505b60208210811415613c6257613c61613d71565b5b50919050565b613c7182613dcf565b810181811067ffffffffffffffff82111715613c9057613c8f613da0565b5b80604052505050565b6000613ca482613bb9565b91507fffffffffffffffffffffffffffffffffffffffffffffffffffffffffffffffff821415613cd757613cd6613d13565b5b600182019050919050565b6000613ced82613bb9565b9150613cf883613bb9565b925082613d0857613d07613d42565b5b828206905092915050565b7f4e487b7100000000000000000000000000000000000000000000000000000000600052601160045260246000fd5b7f4e487b7100000000000000000000000000000000000000000000000000000000600052601260045260246000fd5b7f4e487b7100000000000000000000000000000000000000000000000000000000600052602260045260246000fd5b7f4e487b7100000000000000000000000000000000000000000000000000000000600052604160045260246000fd5b6000601f19601f8301169050919050565b7f68747470733a2f2f697066732e696f2f697066732f516d52586f7a446e65766e60008201527f325672444d50477a73704266444e4d36456e37624a676b71786934516455454c60208201527f4d646a0000000000000000000000000000000000000000000000000000000000604082015250565b7f4552433732313a207472616e7366657220746f206e6f6e20455243373231526560008201527f63656976657220696d706c656d656e7465720000000000000000000000000000602082015250565b7f4552433732313a20746f6b656e20616c7265616479206d696e74656400000000600082015250565b7f4552433732313a207472616e7366657220746f20746865207a65726f2061646460008201527f7265737300000000000000000000000000000000000000000000000000000000602082015250565b7f4552433732313a20617070726f766520746f2063616c6c657200000000000000600082015250565b7f4552433732313a206f70657261746f7220717565727920666f72206e6f6e657860008201527f697374656e7420746f6b656e0000000000000000000000000000000000000000602082015250565b7f4552433732313a20617070726f76652063616c6c6572206973206e6f74206f7760008201527f6e6572206e6f7220617070726f76656420666f7220616c6c0000000000000000602082015250565b7f4552433732313a2062616c616e636520717565727920666f7220746865207a6560008201527f726f206164647265737300000000000000000000000000000000000000000000602082015250565b7f4552433732313a206f776e657220717565727920666f72206e6f6e657869737460008201527f656e7420746f6b656e0000000000000000000000000000000000000000000000602082015250565b7f45524337323155524953746f726167653a2055524920736574206f66206e6f6e60008201527f6578697374656e7420746f6b656e000000000000000000000000000000000000602082015250565b7f496e697469616c697a61626c653a20636f6e747261637420697320616c72656160008201527f647920696e697469616c697a6564000000000000000000000000000000000000602082015250565b7f4552433732313a206d696e7420746f20746865207a65726f2061646472657373600082015250565b7f45524337323155524953746f726167653a2055524920717565727920666f722060008201527f6e6f6e6578697374656e7420746f6b656e000000000000000000000000000000602082015250565b7f4552433732313a20617070726f76656420717565727920666f72206e6f6e657860008201527f697374656e7420746f6b656e0000000000000000000000000000000000000000602082015250565b7f4552433732313a207472616e73666572206f6620746f6b656e2074686174206960008201527f73206e6f74206f776e0000000000000000000000000000000000000000000000602082015250565b7f4552433732314d657461646174613a2055524920717565727920666f72206e6f60008201527f6e6578697374656e7420746f6b656e0000000000000000000000000000000000602082015250565b7f4552433732313a20617070726f76616c20746f2063757272656e74206f776e6560008201527f7200000000000000000000000000000000000000000000000000000000000000602082015250565b7f4552433732313a207472616e736665722063616c6c6572206973206e6f74206f60008201527f776e6572206e6f7220617070726f766564000000000000000000000000000000602082015250565b61432b81613b2f565b811461433657600080fd5b50565b61434281613b41565b811461434d57600080fd5b50565b61435981613b53565b811461436457600080fd5b50565b61437081613b5f565b811461437b57600080fd5b50565b61438781613bb9565b811461439257600080fd5b5056fe68747470733a2f2f697066732e696f2f697066732f516d52586f7a446e65766e325672444d50477a73704266444e4d36456e37624a676b71786934516455454c4d646aa264697066735822122024bc139eed40777e67d22fe5ae3d62c39fc4c80415d474ec2bcf80007da1b92e64736f6c63430008030033",
  "immutableReferences": {},
  "source": "// SPDX-License-Identifier: MIT\npragma solidity >=0.4.22 <0.9.0;\n \nimport \"@openzeppelin/contracts-upgradeable/token/ERC721/extensions/ERC721URIStorageUpgradeable.sol\";\n \ncontract GizzyBase is ERC721URIStorageUpgradeable{\n \n    function initialize() public {\n        __ERC721_init(\"Gizzy\", \"GZY\");\n        adminAddress = msg.sender;\n        _createGizzy(0,0,0,msg.sender,false,\"null\");\n    }\n \n    address public adminAddress;\n    address public serverAddress;\n    address payable public accountantAddress;\n \n    bool public paused = false;\n \n    modifier onlyAdmin() {\n        require(msg.sender == adminAddress);\n        _;\n    }\n \n    modifier onlyAccountant() {\n        require(msg.sender == accountantAddress);\n        _;\n    }\n\n    modifier onlyServer() {\n        require(msg.sender == serverAddress);\n        _;\n    }\n\n    modifier onlyAuthority() {\n        require(\n            msg.sender == adminAddress ||\n            msg.sender == serverAddress\n        );\n        _;\n    }\n\n    function setAdmin(address _newAdmin) public onlyAdmin {\n        require(_newAdmin != address(0));\n \n        adminAddress = _newAdmin;\n    }\n \n \n    function setServer(address _newServer) public onlyAdmin {\n        require(_newServer != address(0));\n \n        serverAddress = _newServer;\n    }\n \n    function setAccountant(address payable _newAccountant) public onlyAdmin {\n        require(_newAccountant != address(0));\n \n        accountantAddress = _newAccountant;\n    }\n\n    function withdrawBalance() external onlyAccountant {\n        // keep track of actual balance and send that balance\n        accountantAddress.transfer(address(this).balance);\n    }\n \n    modifier whenNotPaused() {\n        require(!paused);\n        _;\n    }\n \n    modifier whenPaused {\n        require(paused);\n        _;\n    }\n \n    function pause() public onlyAdmin whenNotPaused {\n        paused = true;\n    }\n \n    function unpause() public onlyAdmin whenPaused {\n        // can't unpause if contract was upgraded\n        paused = false;\n    }\n \n    event Birth(uint256 gizzyId, uint256 matronId, uint256 sireId, address indexed owner, string tokenURI);\n \n    struct Gizzy {\n        uint64 birthTime;\n        uint64 cooldownEndTime;\n        uint32 matronId;\n        uint32 sireId;\n        uint32 siringWithId;\n        uint16 generation;\n        uint8 cooldownIndex;\n        bool breedable;\n    }\n \n    uint32[14] public cooldowns = [\n        uint32(1 minutes),\n        uint32(2 minutes),\n        uint32(5 minutes),\n        uint32(10 minutes),\n        uint32(30 minutes),\n        uint32(1 hours),\n        uint32(2 hours),\n        uint32(4 hours),\n        uint32(8 hours),\n        uint32(16 hours),\n        uint32(1 days),\n        uint32(2 days),\n        uint32(4 days),\n        uint32(7 days)\n    ];\n \n    // an array to keep track of all the gizzy structs\n    Gizzy[] public gizzies;\n \n    function _createGizzy(\n        uint256 _matronId,\n        uint256 _sireId,\n        uint256 _generation,\n        address _owner,\n        bool _breedable,\n        string memory _tokenURI\n    )\n        internal\n        returns (uint)\n \n    {\n        require(_matronId <= 4294967295);\n        require(_sireId <= 4294967295);\n        require(_generation <= 65535);\n    \n        Gizzy memory _gizzy = Gizzy({\n            birthTime: uint64(block.timestamp),\n            cooldownEndTime: 0,\n            matronId: uint32(_matronId),\n            sireId: uint32(_sireId),\n            siringWithId: 0,\n            cooldownIndex: 0,\n            generation: uint16(_generation),\n            breedable: bool (_breedable)\n        });\n \n        gizzies.push(_gizzy);\n        uint256 newGizzyId = gizzies.length - 1;\n \n        require(newGizzyId <= 4294967295);\n \n        emit Birth(\n        newGizzyId,\n        uint256(_gizzy.matronId),\n        uint256(_gizzy.sireId),\n        _owner,\n        string(_tokenURI)\n        );\n \n        _safeMint(_owner, newGizzyId);\n        _setTokenURI(newGizzyId, _tokenURI);\n        \n        return newGizzyId;\n \n    }\n \n    // called by admin\n    function createPromoGizzy(address _owner, bool _breedable, string memory _tokenURI) public onlyAuthority whenNotPaused {\n \n        // set owner to whoever gizzy is being gifted\n        // when promo gizzy is auctioned, gift to their own account and then start auction\n\n        _createGizzy(0, 0, 0, _owner, _breedable, _tokenURI);\n    }\n \n    //\n    // Core Contract that is deployed\n    //\n    function getGizzy(uint256 _id)\n    public\n    view\n    returns (\n      bool isGestating,\n      bool isReady,\n      uint256 cooldownIndex,\n      uint256 nextActionAt,\n      uint256 siringWithId,\n      uint256 birthTime,\n      uint256 matronId,\n      uint256 sireId,\n      uint256 generation,\n      string memory ipfsHash\n    ) {\n      Gizzy storage giz = gizzies[_id];\n \n      isGestating = (giz.siringWithId != 0);\n      isReady = (giz.cooldownEndTime <= block.timestamp);\n      cooldownIndex = uint256(giz.cooldownIndex);\n      nextActionAt = uint256(giz.cooldownEndTime);\n      siringWithId = uint256(giz.siringWithId);\n      birthTime = uint256(giz.birthTime);\n      matronId = uint256(giz.matronId);\n      sireId = uint256(giz.sireId);\n      generation = uint256(giz.generation);\n      ipfsHash = tokenURI(_id);\n    }\n    \n    event BoughtEgg(uint256 gizzyId, address indexed owner, string tokenURI);\n\n    function buyEgg() public payable whenNotPaused\n    {\n        require(msg.value >= 0.33 ether);\n        uint256 gizzyId = _createGizzy(0, 0, 0, msg.sender, false, \"https://ipfs.io/ipfs/QmRXozDnevn2VrDMPGzspBfDNM6En7bJgkqxi4QdUELMdj\");\n        emit BoughtEgg(gizzyId, msg.sender, \"https://ipfs.io/ipfs/QmRXozDnevn2VrDMPGzspBfDNM6En7bJgkqxi4QdUELMdj\");\n        \n    }\n \n}\n",
  "sourcePath": "/home/imtiaz/Desktop/baeinnovations/gizzy-smartcontracts/contracts/GizzyBase.sol",
  "compiler": {
    "name": "solc",
    "version": "0.8.3+commit.8d00100c.Emscripten.clang"
  },
  "schemaVersion": "3.4.0",
  "updatedAt": "2021-06-18T12:05:08.669Z",
  "devdoc": {
    "kind": "dev",
    "methods": {
      "approve(address,uint256)": {
        "details": "See {IERC721-approve}."
      },
      "balanceOf(address)": {
        "details": "See {IERC721-balanceOf}."
      },
      "getApproved(uint256)": {
        "details": "See {IERC721-getApproved}."
      },
      "isApprovedForAll(address,address)": {
        "details": "See {IERC721-isApprovedForAll}."
      },
      "name()": {
        "details": "See {IERC721Metadata-name}."
      },
      "ownerOf(uint256)": {
        "details": "See {IERC721-ownerOf}."
      },
      "safeTransferFrom(address,address,uint256)": {
        "details": "See {IERC721-safeTransferFrom}."
      },
      "safeTransferFrom(address,address,uint256,bytes)": {
        "details": "See {IERC721-safeTransferFrom}."
      },
      "setApprovalForAll(address,bool)": {
        "details": "See {IERC721-setApprovalForAll}."
      },
      "supportsInterface(bytes4)": {
        "details": "See {IERC165-supportsInterface}."
      },
      "symbol()": {
        "details": "See {IERC721Metadata-symbol}."
      },
      "tokenURI(uint256)": {
        "details": "See {IERC721Metadata-tokenURI}."
      },
      "transferFrom(address,address,uint256)": {
        "details": "See {IERC721-transferFrom}."
      }
    },
    "version": 1
  },
  "userdoc": {
    "kind": "user",
    "methods": {},
    "version": 1
  }
}