{
  "contractName": "GizzyMinting",
  "abi": [
    {
      "anonymous": false,
      "inputs": [
        {
          "indexed": true,
          "internalType": "address",
          "name": "owner",
          "type": "address"
        },
        {
          "indexed": true,
          "internalType": "address",
          "name": "approved",
          "type": "address"
        },
        {
          "indexed": true,
          "internalType": "uint256",
          "name": "tokenId",
          "type": "uint256"
        }
      ],
      "name": "Approval",
      "type": "event"
    },
    {
      "anonymous": false,
      "inputs": [
        {
          "indexed": true,
          "internalType": "address",
          "name": "owner",
          "type": "address"
        },
        {
          "indexed": true,
          "internalType": "address",
          "name": "operator",
          "type": "address"
        },
        {
          "indexed": false,
          "internalType": "bool",
          "name": "approved",
          "type": "bool"
        }
      ],
      "name": "ApprovalForAll",
      "type": "event"
    },
    {
      "anonymous": false,
      "inputs": [
        {
          "indexed": true,
          "internalType": "address",
          "name": "owner",
          "type": "address"
        },
        {
          "indexed": false,
          "internalType": "uint256",
          "name": "kittyId",
          "type": "uint256"
        },
        {
          "indexed": false,
          "internalType": "uint256",
          "name": "matronId",
          "type": "uint256"
        },
        {
          "indexed": false,
          "internalType": "uint256",
          "name": "sireId",
          "type": "uint256"
        },
        {
          "indexed": false,
          "internalType": "uint256",
          "name": "genes",
          "type": "uint256"
        }
      ],
      "name": "Birth",
      "type": "event"
    },
    {
      "anonymous": false,
      "inputs": [
        {
          "indexed": false,
          "internalType": "address",
          "name": "newContract",
          "type": "address"
        }
      ],
      "name": "ContractUpgrade",
      "type": "event"
    },
    {
      "anonymous": false,
      "inputs": [
        {
          "indexed": true,
          "internalType": "address",
          "name": "from",
          "type": "address"
        },
        {
          "indexed": true,
          "internalType": "address",
          "name": "to",
          "type": "address"
        },
        {
          "indexed": true,
          "internalType": "uint256",
          "name": "tokenId",
          "type": "uint256"
        }
      ],
      "name": "Transfer",
      "type": "event"
    },
    {
      "inputs": [
        {
          "internalType": "address",
          "name": "_to",
          "type": "address"
        },
        {
          "internalType": "uint256",
          "name": "_tokenId",
          "type": "uint256"
        }
      ],
      "name": "approve",
      "outputs": [],
      "stateMutability": "nonpayable",
      "type": "function"
    },
    {
      "inputs": [
        {
          "internalType": "address",
          "name": "_owner",
          "type": "address"
        }
      ],
      "name": "balanceOf",
      "outputs": [
        {
          "internalType": "uint256",
          "name": "count",
          "type": "uint256"
        }
      ],
      "stateMutability": "view",
      "type": "function",
      "constant": true
    },
    {
      "inputs": [],
      "name": "ceoAddress",
      "outputs": [
        {
          "internalType": "address",
          "name": "",
          "type": "address"
        }
      ],
      "stateMutability": "view",
      "type": "function",
      "constant": true
    },
    {
      "inputs": [],
      "name": "cfoAddress",
      "outputs": [
        {
          "internalType": "address payable",
          "name": "",
          "type": "address"
        }
      ],
      "stateMutability": "view",
      "type": "function",
      "constant": true
    },
    {
      "inputs": [],
      "name": "cooAddress",
      "outputs": [
        {
          "internalType": "address",
          "name": "",
          "type": "address"
        }
      ],
      "stateMutability": "view",
      "type": "function",
      "constant": true
    },
    {
      "inputs": [
        {
          "internalType": "uint256",
          "name": "",
          "type": "uint256"
        }
      ],
      "name": "cooldowns",
      "outputs": [
        {
          "internalType": "uint32",
          "name": "",
          "type": "uint32"
        }
      ],
      "stateMutability": "view",
      "type": "function",
      "constant": true
    },
    {
      "inputs": [],
      "name": "gen0AuctionDuration",
      "outputs": [
        {
          "internalType": "uint256",
          "name": "",
          "type": "uint256"
        }
      ],
      "stateMutability": "view",
      "type": "function",
      "constant": true
    },
    {
      "inputs": [],
      "name": "gen0CreatedCount",
      "outputs": [
        {
          "internalType": "uint256",
          "name": "",
          "type": "uint256"
        }
      ],
      "stateMutability": "view",
      "type": "function",
      "constant": true
    },
    {
      "inputs": [],
      "name": "gen0CreationLimit",
      "outputs": [
        {
          "internalType": "uint256",
          "name": "",
          "type": "uint256"
        }
      ],
      "stateMutability": "view",
      "type": "function",
      "constant": true
    },
    {
      "inputs": [],
      "name": "gen0StartingPrice",
      "outputs": [
        {
          "internalType": "uint256",
          "name": "",
          "type": "uint256"
        }
      ],
      "stateMutability": "view",
      "type": "function",
      "constant": true
    },
    {
      "inputs": [
        {
          "internalType": "uint256",
          "name": "tokenId",
          "type": "uint256"
        }
      ],
      "name": "getApproved",
      "outputs": [
        {
          "internalType": "address",
          "name": "",
          "type": "address"
        }
      ],
      "stateMutability": "view",
      "type": "function",
      "constant": true
    },
    {
      "inputs": [
        {
          "internalType": "uint256",
          "name": "",
          "type": "uint256"
        }
      ],
      "name": "gizzyIndexToApproved",
      "outputs": [
        {
          "internalType": "address",
          "name": "",
          "type": "address"
        }
      ],
      "stateMutability": "view",
      "type": "function",
      "constant": true
    },
    {
      "inputs": [
        {
          "internalType": "uint256",
          "name": "",
          "type": "uint256"
        }
      ],
      "name": "gizzyIndexToOwner",
      "outputs": [
        {
          "internalType": "address",
          "name": "",
          "type": "address"
        }
      ],
      "stateMutability": "view",
      "type": "function",
      "constant": true
    },
    {
      "inputs": [],
      "name": "implementsERC721",
      "outputs": [
        {
          "internalType": "bool",
          "name": "",
          "type": "bool"
        }
      ],
      "stateMutability": "pure",
      "type": "function",
      "constant": true
    },
    {
      "inputs": [
        {
          "internalType": "address",
          "name": "owner",
          "type": "address"
        },
        {
          "internalType": "address",
          "name": "operator",
          "type": "address"
        }
      ],
      "name": "isApprovedForAll",
      "outputs": [
        {
          "internalType": "bool",
          "name": "",
          "type": "bool"
        }
      ],
      "stateMutability": "view",
      "type": "function",
      "constant": true
    },
    {
      "inputs": [],
      "name": "name",
      "outputs": [
        {
          "internalType": "string",
          "name": "",
          "type": "string"
        }
      ],
      "stateMutability": "view",
      "type": "function",
      "constant": true
    },
    {
      "inputs": [
        {
          "internalType": "uint256",
          "name": "_tokenId",
          "type": "uint256"
        }
      ],
      "name": "ownerOf",
      "outputs": [
        {
          "internalType": "address",
          "name": "owner",
          "type": "address"
        }
      ],
      "stateMutability": "view",
      "type": "function",
      "constant": true
    },
    {
      "inputs": [],
      "name": "pause",
      "outputs": [],
      "stateMutability": "nonpayable",
      "type": "function"
    },
    {
      "inputs": [],
      "name": "paused",
      "outputs": [
        {
          "internalType": "bool",
          "name": "",
          "type": "bool"
        }
      ],
      "stateMutability": "view",
      "type": "function",
      "constant": true
    },
    {
      "inputs": [],
      "name": "promoCreatedCount",
      "outputs": [
        {
          "internalType": "uint256",
          "name": "",
          "type": "uint256"
        }
      ],
      "stateMutability": "view",
      "type": "function",
      "constant": true
    },
    {
      "inputs": [],
      "name": "promoCreationLimit",
      "outputs": [
        {
          "internalType": "uint256",
          "name": "",
          "type": "uint256"
        }
      ],
      "stateMutability": "view",
      "type": "function",
      "constant": true
    },
    {
      "inputs": [
        {
          "internalType": "address",
          "name": "from",
          "type": "address"
        },
        {
          "internalType": "address",
          "name": "to",
          "type": "address"
        },
        {
          "internalType": "uint256",
          "name": "tokenId",
          "type": "uint256"
        }
      ],
      "name": "safeTransferFrom",
      "outputs": [],
      "stateMutability": "nonpayable",
      "type": "function"
    },
    {
      "inputs": [
        {
          "internalType": "address",
          "name": "from",
          "type": "address"
        },
        {
          "internalType": "address",
          "name": "to",
          "type": "address"
        },
        {
          "internalType": "uint256",
          "name": "tokenId",
          "type": "uint256"
        },
        {
          "internalType": "bytes",
          "name": "_data",
          "type": "bytes"
        }
      ],
      "name": "safeTransferFrom",
      "outputs": [],
      "stateMutability": "nonpayable",
      "type": "function"
    },
    {
      "inputs": [
        {
          "internalType": "address",
          "name": "operator",
          "type": "address"
        },
        {
          "internalType": "bool",
          "name": "approved",
          "type": "bool"
        }
      ],
      "name": "setApprovalForAll",
      "outputs": [],
      "stateMutability": "nonpayable",
      "type": "function"
    },
    {
      "inputs": [
        {
          "internalType": "address",
          "name": "_newCEO",
          "type": "address"
        }
      ],
      "name": "setCEO",
      "outputs": [],
      "stateMutability": "nonpayable",
      "type": "function"
    },
    {
      "inputs": [
        {
          "internalType": "address payable",
          "name": "_newCFO",
          "type": "address"
        }
      ],
      "name": "setCFO",
      "outputs": [],
      "stateMutability": "nonpayable",
      "type": "function"
    },
    {
      "inputs": [
        {
          "internalType": "address",
          "name": "_newCOO",
          "type": "address"
        }
      ],
      "name": "setCOO",
      "outputs": [],
      "stateMutability": "nonpayable",
      "type": "function"
    },
    {
      "inputs": [
        {
          "internalType": "uint256",
          "name": "",
          "type": "uint256"
        }
      ],
      "name": "sireAllowedToAddress",
      "outputs": [
        {
          "internalType": "address",
          "name": "",
          "type": "address"
        }
      ],
      "stateMutability": "view",
      "type": "function",
      "constant": true
    },
    {
      "inputs": [
        {
          "internalType": "bytes4",
          "name": "interfaceId",
          "type": "bytes4"
        }
      ],
      "name": "supportsInterface",
      "outputs": [
        {
          "internalType": "bool",
          "name": "",
          "type": "bool"
        }
      ],
      "stateMutability": "view",
      "type": "function",
      "constant": true
    },
    {
      "inputs": [],
      "name": "symbol",
      "outputs": [
        {
          "internalType": "string",
          "name": "",
          "type": "string"
        }
      ],
      "stateMutability": "view",
      "type": "function",
      "constant": true
    },
    {
      "inputs": [
        {
          "internalType": "uint256",
          "name": "tokenId",
          "type": "uint256"
        }
      ],
      "name": "tokenURI",
      "outputs": [
        {
          "internalType": "string",
          "name": "",
          "type": "string"
        }
      ],
      "stateMutability": "view",
      "type": "function",
      "constant": true
    },
    {
      "inputs": [],
      "name": "totalSupply",
      "outputs": [
        {
          "internalType": "uint256",
          "name": "",
          "type": "uint256"
        }
      ],
      "stateMutability": "view",
      "type": "function",
      "constant": true
    },
    {
      "inputs": [
        {
          "internalType": "address",
          "name": "_to",
          "type": "address"
        },
        {
          "internalType": "uint256",
          "name": "_tokenId",
          "type": "uint256"
        }
      ],
      "name": "transfer",
      "outputs": [],
      "stateMutability": "nonpayable",
      "type": "function"
    },
    {
      "inputs": [
        {
          "internalType": "address",
          "name": "_from",
          "type": "address"
        },
        {
          "internalType": "address",
          "name": "_to",
          "type": "address"
        },
        {
          "internalType": "uint256",
          "name": "_tokenId",
          "type": "uint256"
        }
      ],
      "name": "transferFrom",
      "outputs": [],
      "stateMutability": "nonpayable",
      "type": "function"
    },
    {
      "inputs": [],
      "name": "unpause",
      "outputs": [],
      "stateMutability": "nonpayable",
      "type": "function"
    },
    {
      "inputs": [],
      "name": "withdrawBalance",
      "outputs": [],
      "stateMutability": "nonpayable",
      "type": "function"
    },
    {
      "inputs": [
        {
          "internalType": "uint256",
          "name": "_genes",
          "type": "uint256"
        },
        {
          "internalType": "address",
          "name": "_owner",
          "type": "address"
        }
      ],
      "name": "createPromoGizzy",
      "outputs": [],
      "stateMutability": "nonpayable",
      "type": "function"
    }
  ],
  "bytecode": "0x60806040526000600260146101000a81548160ff021916908315150217905550604051806101c00160405280603c63ffffffff1663ffffffff168152602001607863ffffffff1663ffffffff16815260200161012c63ffffffff1663ffffffff16815260200161025863ffffffff1663ffffffff16815260200161070863ffffffff1663ffffffff168152602001610e1063ffffffff1663ffffffff168152602001611c2063ffffffff1663ffffffff16815260200161384063ffffffff1663ffffffff16815260200161708063ffffffff1663ffffffff16815260200161e10063ffffffff1663ffffffff1681526020016201518063ffffffff1663ffffffff1681526020016202a30063ffffffff1663ffffffff1681526020016205460063ffffffff1663ffffffff16815260200162093a8063ffffffff1663ffffffff16815250600990600e6200015592919062000226565b5061138860105561c3506011556402540be400601255620151806013553480156200017f57600080fd5b506040518060400160405280600581526020017f47697a7a790000000000000000000000000000000000000000000000000000008152506040518060400160405280600381526020017f475a590000000000000000000000000000000000000000000000000000000000815250816003908051906020019062000204929190620002d0565b5080600490805190602001906200021d929190620002d0565b505050620003e5565b82600e600701600890048101928215620002bd5791602002820160005b838211156200028957835183826101000a81548163ffffffff021916908363ffffffff160217905550926020019260040160208160030104928301926001030262000243565b8015620002bb5782816101000a81549063ffffffff021916905560040160208160030104928301926001030262000289565b505b509050620002cc919062000361565b5090565b828054620002de9062000380565b90600052602060002090601f0160209004810192826200030257600085556200034e565b82601f106200031d57805160ff19168380011785556200034e565b828001600101855582156200034e579182015b828111156200034d57825182559160200191906001019062000330565b5b5090506200035d919062000361565b5090565b5b808211156200037c57600081600090555060010162000362565b5090565b600060028204905060018216806200039957607f821691505b60208210811415620003b057620003af620003b6565b5b50919050565b7f4e487b7100000000000000000000000000000000000000000000000000000000600052602260045260246000fd5b61302280620003f56000396000f3fe608060405234801561001057600080fd5b50600436106102275760003560e01c80634e0a337911610130578063a9059cbb116100b8578063c87b56dd1161007c578063c87b56dd1461062e578063ca3d5bba1461065e578063e985e9c51461067a578063eb845c17146106aa578063f1ca9410146106c857610227565b8063a9059cbb1461059c578063ae4d0ff7146105b8578063b047fb50146105d6578063b5319335146105f4578063b88d4fde1461061257610227565b806370a08231116100ff57806370a08231146104f85780638456cb591461052857806395d89b41146105325780639d6fac6f14610550578063a22cb4651461058057610227565b80634e0a3379146104845780635c975abb146104a05780635fd8c710146104be5780636352211e146104c857610227565b806318eb540b116101b35780632ba73c15116101825780632ba73c15146103f45780633f4ba83a14610410578063404d0e3e1461041a57806342842e0e1461043857806346116e6f1461045457610227565b806318eb540b1461035c57806323668d981461038c57806323b872dd146103bc57806327d7874c146103d857610227565b8063081812fc116101fa578063081812fc146102b6578063095ea7b3146102e65780630a0f8168146103025780631051db341461032057806318160ddd1461033e57610227565b806301ffc9a71461022c5780630519ce791461025c57806305e455461461027a57806306fdde0314610298575b600080fd5b61024660048036038101906102419190612542565b6106e6565b6040516102539190612a31565b60405180910390f35b6102646107c8565b60405161027191906129ca565b60405180910390f35b6102826107ee565b60405161028f9190612b4e565b60405180910390f35b6102a06107f4565b6040516102ad9190612a4c565b60405180910390f35b6102d060048036038101906102cb9190612594565b610886565b6040516102dd91906129af565b60405180910390f35b61030060048036038101906102fb9190612506565b61090b565b005b61030a6109a1565b60405161031791906129af565b60405180910390f35b6103286109c5565b6040516103359190612a31565b60405180910390f35b6103466109ce565b6040516103539190612b4e565b60405180910390f35b61037660048036038101906103719190612594565b6109e7565b60405161038391906129af565b60405180910390f35b6103a660048036038101906103a19190612594565b610a1a565b6040516103b391906129af565b60405180910390f35b6103d660048036038101906103d19190612400565b610a4d565b005b6103f260048036038101906103ed9190612372565b610a9d565b005b61040e60048036038101906104099190612372565b610b72565b005b610418610c48565b005b610422610cd6565b60405161042f9190612b4e565b60405180910390f35b610452600480360381019061044d9190612400565b610cdc565b005b61046e60048036038101906104699190612594565b610cfc565b60405161047b91906129af565b60405180910390f35b61049e6004803603810190610499919061239b565b610d2f565b005b6104a8610e05565b6040516104b59190612a31565b60405180910390f35b6104c6610e18565b005b6104e260048036038101906104dd9190612594565b610edd565b6040516104ef91906129af565b60405180910390f35b610512600480360381019061050d9190612372565b610f54565b60405161051f9190612b4e565b60405180910390f35b610530610f9d565b005b61053a6110dc565b6040516105479190612a4c565b60405180910390f35b61056a60048036038101906105659190612594565b61116e565b6040516105779190612bae565b60405180910390f35b61059a600480360381019061059591906124ca565b61119e565b005b6105b660048036038101906105b19190612506565b61131f565b005b6105c0611395565b6040516105cd9190612b4e565b60405180910390f35b6105de61139b565b6040516105eb91906129af565b60405180910390f35b6105fc6113c1565b6040516106099190612b4e565b60405180910390f35b61062c6004803603810190610627919061244f565b6113c7565b005b61064860048036038101906106439190612594565b611429565b6040516106559190612a4c565b60405180910390f35b610678600480360381019061067391906125bd565b6114d0565b005b610694600480360381019061068f91906123c4565b6115e9565b6040516106a19190612a31565b60405180910390f35b6106b261167d565b6040516106bf9190612b4e565b60405180910390f35b6106d0611683565b6040516106dd9190612b4e565b60405180910390f35b60007f80ac58cd000000000000000000000000000000000000000000000000000000007bffffffffffffffffffffffffffffffffffffffffffffffffffffffff1916827bffffffffffffffffffffffffffffffffffffffffffffffffffffffff191614806107b157507f5b5e139f000000000000000000000000000000000000000000000000000000007bffffffffffffffffffffffffffffffffffffffffffffffffffffffff1916827bffffffffffffffffffffffffffffffffffffffffffffffffffffffff1916145b806107c157506107c082611689565b5b9050919050565b600160009054906101000a900473ffffffffffffffffffffffffffffffffffffffff1681565b60145481565b60606003805461080390612e00565b80601f016020809104026020016040519081016040528092919081815260200182805461082f90612e00565b801561087c5780601f106108515761010080835404028352916020019161087c565b820191906000526020600020905b81548152906001019060200180831161085f57829003601f168201915b5050505050905090565b6000610891826116f3565b6108d0576040517f08c379a00000000000000000000000000000000000000000000000000000000081526004016108c790612aee565b60405180910390fd5b6007600083815260200190815260200160002060009054906101000a900473ffffffffffffffffffffffffffffffffffffffff169050919050565b600260149054906101000a900460ff161561092557600080fd5b61092f338261175f565b61093857600080fd5b61094281836117cb565b808273ffffffffffffffffffffffffffffffffffffffff163373ffffffffffffffffffffffffffffffffffffffff167f8c5be1e5ebec7d5bd14f71427d1e84f3dd0314c0f7b2291e5b200ac8c7c3b92560405160405180910390a45050565b60008054906101000a900473ffffffffffffffffffffffffffffffffffffffff1681565b60006001905090565b60006001600b805490506109e29190612cf4565b905090565b600e6020528060005260406000206000915054906101000a900473ffffffffffffffffffffffffffffffffffffffff1681565b600c6020528060005260406000206000915054906101000a900473ffffffffffffffffffffffffffffffffffffffff1681565b600260149054906101000a900460ff1615610a6757600080fd5b610a713382611821565b610a7a57600080fd5b610a84838261175f565b610a8d57600080fd5b610a9883838361188d565b505050565b60008054906101000a900473ffffffffffffffffffffffffffffffffffffffff1673ffffffffffffffffffffffffffffffffffffffff163373ffffffffffffffffffffffffffffffffffffffff1614610af557600080fd5b600073ffffffffffffffffffffffffffffffffffffffff168173ffffffffffffffffffffffffffffffffffffffff161415610b2f57600080fd5b806000806101000a81548173ffffffffffffffffffffffffffffffffffffffff021916908373ffffffffffffffffffffffffffffffffffffffff16021790555050565b60008054906101000a900473ffffffffffffffffffffffffffffffffffffffff1673ffffffffffffffffffffffffffffffffffffffff163373ffffffffffffffffffffffffffffffffffffffff1614610bca57600080fd5b600073ffffffffffffffffffffffffffffffffffffffff168173ffffffffffffffffffffffffffffffffffffffff161415610c0457600080fd5b80600260006101000a81548173ffffffffffffffffffffffffffffffffffffffff021916908373ffffffffffffffffffffffffffffffffffffffff16021790555050565b60008054906101000a900473ffffffffffffffffffffffffffffffffffffffff1673ffffffffffffffffffffffffffffffffffffffff163373ffffffffffffffffffffffffffffffffffffffff1614610ca057600080fd5b600260149054906101000a900460ff16610cb957600080fd5b6000600260146101000a81548160ff021916908315150217905550565b60115481565b610cf7838383604051806020016040528060008152506113c7565b505050565b600f6020528060005260406000206000915054906101000a900473ffffffffffffffffffffffffffffffffffffffff1681565b60008054906101000a900473ffffffffffffffffffffffffffffffffffffffff1673ffffffffffffffffffffffffffffffffffffffff163373ffffffffffffffffffffffffffffffffffffffff1614610d8757600080fd5b600073ffffffffffffffffffffffffffffffffffffffff168173ffffffffffffffffffffffffffffffffffffffff161415610dc157600080fd5b80600160006101000a81548173ffffffffffffffffffffffffffffffffffffffff021916908373ffffffffffffffffffffffffffffffffffffffff16021790555050565b600260149054906101000a900460ff1681565b600160009054906101000a900473ffffffffffffffffffffffffffffffffffffffff1673ffffffffffffffffffffffffffffffffffffffff163373ffffffffffffffffffffffffffffffffffffffff1614610e7257600080fd5b600160009054906101000a900473ffffffffffffffffffffffffffffffffffffffff1673ffffffffffffffffffffffffffffffffffffffff166108fc479081150290604051600060405180830381858888f19350505050158015610eda573d6000803e3d6000fd5b50565b6000600c600083815260200190815260200160002060009054906101000a900473ffffffffffffffffffffffffffffffffffffffff169050600073ffffffffffffffffffffffffffffffffffffffff168173ffffffffffffffffffffffffffffffffffffffff161415610f4f57600080fd5b919050565b6000600d60008373ffffffffffffffffffffffffffffffffffffffff1673ffffffffffffffffffffffffffffffffffffffff168152602001908152602001600020549050919050565b600260009054906101000a900473ffffffffffffffffffffffffffffffffffffffff1673ffffffffffffffffffffffffffffffffffffffff163373ffffffffffffffffffffffffffffffffffffffff161480611044575060008054906101000a900473ffffffffffffffffffffffffffffffffffffffff1673ffffffffffffffffffffffffffffffffffffffff163373ffffffffffffffffffffffffffffffffffffffff16145b8061109c5750600160009054906101000a900473ffffffffffffffffffffffffffffffffffffffff1673ffffffffffffffffffffffffffffffffffffffff163373ffffffffffffffffffffffffffffffffffffffff16145b6110a557600080fd5b600260149054906101000a900460ff16156110bf57600080fd5b6001600260146101000a81548160ff021916908315150217905550565b6060600480546110eb90612e00565b80601f016020809104026020016040519081016040528092919081815260200182805461111790612e00565b80156111645780601f1061113957610100808354040283529160200191611164565b820191906000526020600020905b81548152906001019060200180831161114757829003601f168201915b5050505050905090565b600981600e811061117e57600080fd5b60089182820401919006600402915054906101000a900463ffffffff1681565b6111a6611a8a565b73ffffffffffffffffffffffffffffffffffffffff168273ffffffffffffffffffffffffffffffffffffffff161415611214576040517f08c379a000000000000000000000000000000000000000000000000000000000815260040161120b90612a8e565b60405180910390fd5b8060086000611221611a8a565b73ffffffffffffffffffffffffffffffffffffffff1673ffffffffffffffffffffffffffffffffffffffff16815260200190815260200160002060008473ffffffffffffffffffffffffffffffffffffffff1673ffffffffffffffffffffffffffffffffffffffff16815260200190815260200160002060006101000a81548160ff0219169083151502179055508173ffffffffffffffffffffffffffffffffffffffff166112ce611a8a565b73ffffffffffffffffffffffffffffffffffffffff167f17307eab39ab6107e8899845ad3d59bd9653f200f220920489ca2b5937696c31836040516113139190612a31565b60405180910390a35050565b600260149054906101000a900460ff161561133957600080fd5b600073ffffffffffffffffffffffffffffffffffffffff168273ffffffffffffffffffffffffffffffffffffffff16141561137357600080fd5b61137d338261175f565b61138657600080fd5b61139133838361188d565b5050565b60125481565b600260009054906101000a900473ffffffffffffffffffffffffffffffffffffffff1681565b60105481565b6113d86113d2611a8a565b83611a92565b611417576040517f08c379a000000000000000000000000000000000000000000000000000000000815260040161140e90612b2e565b60405180910390fd5b61142384848484611b70565b50505050565b6060611434826116f3565b611473576040517f08c379a000000000000000000000000000000000000000000000000000000000815260040161146a90612b0e565b60405180910390fd5b600061147d611bcc565b9050600081511161149d57604051806020016040528060008152506114c8565b806114a784611be3565b6040516020016114b892919061298b565b6040516020818303038152906040525b915050919050565b600260009054906101000a900473ffffffffffffffffffffffffffffffffffffffff1673ffffffffffffffffffffffffffffffffffffffff163373ffffffffffffffffffffffffffffffffffffffff161461152a57600080fd5b600073ffffffffffffffffffffffffffffffffffffffff168173ffffffffffffffffffffffffffffffffffffffff16141561158557600260009054906101000a900473ffffffffffffffffffffffffffffffffffffffff1690505b6010546014541061159557600080fd5b601154601554106115a557600080fd5b601460008154809291906115b890612e32565b9190505550601560008154809291906115d090612e32565b91905055506115e460008060008585611d90565b505050565b6000600860008473ffffffffffffffffffffffffffffffffffffffff1673ffffffffffffffffffffffffffffffffffffffff16815260200190815260200160002060008373ffffffffffffffffffffffffffffffffffffffff1673ffffffffffffffffffffffffffffffffffffffff16815260200190815260200160002060009054906101000a900460ff16905092915050565b60135481565b60155481565b60007f01ffc9a7000000000000000000000000000000000000000000000000000000007bffffffffffffffffffffffffffffffffffffffffffffffffffffffff1916827bffffffffffffffffffffffffffffffffffffffffffffffffffffffff1916149050919050565b60008073ffffffffffffffffffffffffffffffffffffffff166005600084815260200190815260200160002060009054906101000a900473ffffffffffffffffffffffffffffffffffffffff1673ffffffffffffffffffffffffffffffffffffffff1614159050919050565b60008273ffffffffffffffffffffffffffffffffffffffff16600c600084815260200190815260200160002060009054906101000a900473ffffffffffffffffffffffffffffffffffffffff1673ffffffffffffffffffffffffffffffffffffffff1614905092915050565b80600e600084815260200190815260200160002060006101000a81548173ffffffffffffffffffffffffffffffffffffffff021916908373ffffffffffffffffffffffffffffffffffffffff1602179055505050565b60008273ffffffffffffffffffffffffffffffffffffffff16600c600084815260200190815260200160002060009054906101000a900473ffffffffffffffffffffffffffffffffffffffff1673ffffffffffffffffffffffffffffffffffffffff1614905092915050565b600d60008373ffffffffffffffffffffffffffffffffffffffff1673ffffffffffffffffffffffffffffffffffffffff16815260200190815260200160002060008154809291906118dd90612e32565b919050555081600c600083815260200190815260200160002060006101000a81548173ffffffffffffffffffffffffffffffffffffffff021916908373ffffffffffffffffffffffffffffffffffffffff160217905550600073ffffffffffffffffffffffffffffffffffffffff168373ffffffffffffffffffffffffffffffffffffffff1614611a2a57600d60008473ffffffffffffffffffffffffffffffffffffffff1673ffffffffffffffffffffffffffffffffffffffff16815260200190815260200160002060008154809291906119b890612e32565b9190505550600f600082815260200190815260200160002060006101000a81549073ffffffffffffffffffffffffffffffffffffffff0219169055600e600082815260200190815260200160002060006101000a81549073ffffffffffffffffffffffffffffffffffffffff02191690555b808273ffffffffffffffffffffffffffffffffffffffff168473ffffffffffffffffffffffffffffffffffffffff167fddf252ad1be2c89b69c2b068fc378daa952ba7f163c4a11628f55a4df523b3ef60405160405180910390a4505050565b600033905090565b6000611a9d826116f3565b611adc576040517f08c379a0000000000000000000000000000000000000000000000000000000008152600401611ad390612aae565b60405180910390fd5b6000611ae783612030565b90508073ffffffffffffffffffffffffffffffffffffffff168473ffffffffffffffffffffffffffffffffffffffff161480611b5657508373ffffffffffffffffffffffffffffffffffffffff16611b3e84610886565b73ffffffffffffffffffffffffffffffffffffffff16145b80611b675750611b6681856115e9565b5b91505092915050565b611b7b84848461188d565b611b87848484846120e2565b611bc6576040517f08c379a0000000000000000000000000000000000000000000000000000000008152600401611bbd90612a6e565b60405180910390fd5b50505050565b606060405180602001604052806000815250905090565b60606000821415611c2b576040518060400160405280600181526020017f30000000000000000000000000000000000000000000000000000000000000008152509050611d8b565b600082905060005b60008214611c5d578080611c4690612e32565b915050600a82611c569190612cc3565b9150611c33565b60008167ffffffffffffffff811115611c9f577f4e487b7100000000000000000000000000000000000000000000000000000000600052604160045260246000fd5b6040519080825280601f01601f191660200182016040528015611cd15781602001600182028036833780820191505090505b5090505b60008514611d8457600182611cea9190612cf4565b9150600a85611cf99190612e7b565b6030611d059190612c6d565b60f81b818381518110611d41577f4e487b7100000000000000000000000000000000000000000000000000000000600052603260045260246000fd5b60200101907effffffffffffffffffffffffffffffffffffffffffffffffffffffffffffff1916908160001a905350600a85611d7d9190612cc3565b9450611cd5565b8093505050505b919050565b600063ffffffff861115611da357600080fd5b63ffffffff851115611db457600080fd5b61ffff841115611dc357600080fd5b60006040518061010001604052808581526020014267ffffffffffffffff168152602001600067ffffffffffffffff1681526020018863ffffffff1681526020018763ffffffff168152602001600063ffffffff168152602001600061ffff1681526020018661ffff168152509050600b8190806001815401808255809150506001900390600052602060002090600202016000909190919091506000820151816000015560208201518160010160006101000a81548167ffffffffffffffff021916908367ffffffffffffffff16021790555060408201518160010160086101000a81548167ffffffffffffffff021916908367ffffffffffffffff16021790555060608201518160010160106101000a81548163ffffffff021916908363ffffffff16021790555060808201518160010160146101000a81548163ffffffff021916908363ffffffff16021790555060a08201518160010160186101000a81548163ffffffff021916908363ffffffff16021790555060c082015181600101601c6101000a81548161ffff021916908361ffff16021790555060e082015181600101601e6101000a81548161ffff021916908361ffff160217905550505060006001600b80549050611f979190612cf4565b905063ffffffff811115611faa57600080fd5b8373ffffffffffffffffffffffffffffffffffffffff167f0a5311bd2a6608f08a180df2ee7c5946819a649b204b554bb8e39825b2c50ad582846060015163ffffffff16856080015163ffffffff16866000015160405161200e9493929190612b69565b60405180910390a26120226000858361188d565b809250505095945050505050565b6000806005600084815260200190815260200160002060009054906101000a900473ffffffffffffffffffffffffffffffffffffffff169050600073ffffffffffffffffffffffffffffffffffffffff168173ffffffffffffffffffffffffffffffffffffffff1614156120d9576040517f08c379a00000000000000000000000000000000000000000000000000000000081526004016120d090612ace565b60405180910390fd5b80915050919050565b60006121038473ffffffffffffffffffffffffffffffffffffffff16612279565b1561226c578373ffffffffffffffffffffffffffffffffffffffff1663150b7a0261212c611a8a565b8786866040518563ffffffff1660e01b815260040161214e94939291906129e5565b602060405180830381600087803b15801561216857600080fd5b505af192505050801561219957506040513d601f19601f82011682018060405250810190612196919061256b565b60015b61221c573d80600081146121c9576040519150601f19603f3d011682016040523d82523d6000602084013e6121ce565b606091505b50600081511415612214576040517f08c379a000000000000000000000000000000000000000000000000000000000815260040161220b90612a6e565b60405180910390fd5b805181602001fd5b63150b7a0260e01b7bffffffffffffffffffffffffffffffffffffffffffffffffffffffff1916817bffffffffffffffffffffffffffffffffffffffffffffffffffffffff191614915050612271565b600190505b949350505050565b600080823b905060008111915050919050565b600061229f61229a84612bfa565b612bc9565b9050828152602081018484840111156122b757600080fd5b6122c2848285612dbe565b509392505050565b6000813590506122d981612f79565b92915050565b6000813590506122ee81612f90565b92915050565b60008135905061230381612fa7565b92915050565b60008135905061231881612fbe565b92915050565b60008151905061232d81612fbe565b92915050565b600082601f83011261234457600080fd5b813561235484826020860161228c565b91505092915050565b60008135905061236c81612fd5565b92915050565b60006020828403121561238457600080fd5b6000612392848285016122ca565b91505092915050565b6000602082840312156123ad57600080fd5b60006123bb848285016122df565b91505092915050565b600080604083850312156123d757600080fd5b60006123e5858286016122ca565b92505060206123f6858286016122ca565b9150509250929050565b60008060006060848603121561241557600080fd5b6000612423868287016122ca565b9350506020612434868287016122ca565b92505060406124458682870161235d565b9150509250925092565b6000806000806080858703121561246557600080fd5b6000612473878288016122ca565b9450506020612484878288016122ca565b93505060406124958782880161235d565b925050606085013567ffffffffffffffff8111156124b257600080fd5b6124be87828801612333565b91505092959194509250565b600080604083850312156124dd57600080fd5b60006124eb858286016122ca565b92505060206124fc858286016122f4565b9150509250929050565b6000806040838503121561251957600080fd5b6000612527858286016122ca565b92505060206125388582860161235d565b9150509250929050565b60006020828403121561255457600080fd5b600061256284828501612309565b91505092915050565b60006020828403121561257d57600080fd5b600061258b8482850161231e565b91505092915050565b6000602082840312156125a657600080fd5b60006125b48482850161235d565b91505092915050565b600080604083850312156125d057600080fd5b60006125de8582860161235d565b92505060206125ef858286016122ca565b9150509250929050565b61260281612d3a565b82525050565b61261181612d28565b82525050565b61262081612d4c565b82525050565b600061263182612c2a565b61263b8185612c40565b935061264b818560208601612dcd565b61265481612f68565b840191505092915050565b600061266a82612c35565b6126748185612c51565b9350612684818560208601612dcd565b61268d81612f68565b840191505092915050565b60006126a382612c35565b6126ad8185612c62565b93506126bd818560208601612dcd565b80840191505092915050565b60006126d6603283612c51565b91507f4552433732313a207472616e7366657220746f206e6f6e20455243373231526560008301527f63656976657220696d706c656d656e74657200000000000000000000000000006020830152604082019050919050565b600061273c601983612c51565b91507f4552433732313a20617070726f766520746f2063616c6c6572000000000000006000830152602082019050919050565b600061277c602c83612c51565b91507f4552433732313a206f70657261746f7220717565727920666f72206e6f6e657860008301527f697374656e7420746f6b656e00000000000000000000000000000000000000006020830152604082019050919050565b60006127e2602983612c51565b91507f4552433732313a206f776e657220717565727920666f72206e6f6e657869737460008301527f656e7420746f6b656e00000000000000000000000000000000000000000000006020830152604082019050919050565b6000612848602c83612c51565b91507f4552433732313a20617070726f76656420717565727920666f72206e6f6e657860008301527f697374656e7420746f6b656e00000000000000000000000000000000000000006020830152604082019050919050565b60006128ae602f83612c51565b91507f4552433732314d657461646174613a2055524920717565727920666f72206e6f60008301527f6e6578697374656e7420746f6b656e00000000000000000000000000000000006020830152604082019050919050565b6000612914603183612c51565b91507f4552433732313a207472616e736665722063616c6c6572206973206e6f74206f60008301527f776e6572206e6f7220617070726f7665640000000000000000000000000000006020830152604082019050919050565b61297681612da4565b82525050565b61298581612dae565b82525050565b60006129978285612698565b91506129a38284612698565b91508190509392505050565b60006020820190506129c46000830184612608565b92915050565b60006020820190506129df60008301846125f9565b92915050565b60006080820190506129fa6000830187612608565b612a076020830186612608565b612a14604083018561296d565b8181036060830152612a268184612626565b905095945050505050565b6000602082019050612a466000830184612617565b92915050565b60006020820190508181036000830152612a66818461265f565b905092915050565b60006020820190508181036000830152612a87816126c9565b9050919050565b60006020820190508181036000830152612aa78161272f565b9050919050565b60006020820190508181036000830152612ac78161276f565b9050919050565b60006020820190508181036000830152612ae7816127d5565b9050919050565b60006020820190508181036000830152612b078161283b565b9050919050565b60006020820190508181036000830152612b27816128a1565b9050919050565b60006020820190508181036000830152612b4781612907565b9050919050565b6000602082019050612b63600083018461296d565b92915050565b6000608082019050612b7e600083018761296d565b612b8b602083018661296d565b612b98604083018561296d565b612ba5606083018461296d565b95945050505050565b6000602082019050612bc3600083018461297c565b92915050565b6000604051905081810181811067ffffffffffffffff82111715612bf057612bef612f39565b5b8060405250919050565b600067ffffffffffffffff821115612c1557612c14612f39565b5b601f19601f8301169050602081019050919050565b600081519050919050565b600081519050919050565b600082825260208201905092915050565b600082825260208201905092915050565b600081905092915050565b6000612c7882612da4565b9150612c8383612da4565b9250827fffffffffffffffffffffffffffffffffffffffffffffffffffffffffffffffff03821115612cb857612cb7612eac565b5b828201905092915050565b6000612cce82612da4565b9150612cd983612da4565b925082612ce957612ce8612edb565b5b828204905092915050565b6000612cff82612da4565b9150612d0a83612da4565b925082821015612d1d57612d1c612eac565b5b828203905092915050565b6000612d3382612d84565b9050919050565b6000612d4582612d84565b9050919050565b60008115159050919050565b60007fffffffff0000000000000000000000000000000000000000000000000000000082169050919050565b600073ffffffffffffffffffffffffffffffffffffffff82169050919050565b6000819050919050565b600063ffffffff82169050919050565b82818337600083830152505050565b60005b83811015612deb578082015181840152602081019050612dd0565b83811115612dfa576000848401525b50505050565b60006002820490506001821680612e1857607f821691505b60208210811415612e2c57612e2b612f0a565b5b50919050565b6000612e3d82612da4565b91507fffffffffffffffffffffffffffffffffffffffffffffffffffffffffffffffff821415612e7057612e6f612eac565b5b600182019050919050565b6000612e8682612da4565b9150612e9183612da4565b925082612ea157612ea0612edb565b5b828206905092915050565b7f4e487b7100000000000000000000000000000000000000000000000000000000600052601160045260246000fd5b7f4e487b7100000000000000000000000000000000000000000000000000000000600052601260045260246000fd5b7f4e487b7100000000000000000000000000000000000000000000000000000000600052602260045260246000fd5b7f4e487b7100000000000000000000000000000000000000000000000000000000600052604160045260246000fd5b6000601f19601f8301169050919050565b612f8281612d28565b8114612f8d57600080fd5b50565b612f9981612d3a565b8114612fa457600080fd5b50565b612fb081612d4c565b8114612fbb57600080fd5b50565b612fc781612d58565b8114612fd257600080fd5b50565b612fde81612da4565b8114612fe957600080fd5b5056fea264697066735822122022ab75382d683d6ba15784be1245b1e2344f83483403ad1ecb402c033e4f536264736f6c63430008000033",
  "immutableReferences": {},
  "source": "// SPDX-License-Identifier: MIT\npragma solidity >=0.4.22 <0.9.0;\n\nimport \"./GizzyOwnership.sol\";\n\ncontract GizzyMinting is GizzyOwnership{\n  \n  // limits the number of gizzies the contract owner can ever create\n  uint256 public promoCreationLimit = 5000;\n  uint256 public gen0CreationLimit = 50000;\n\n  // Constants for gen0 auctions\n  uint256 public gen0StartingPrice = 1e10;\n  uint256 public gen0AuctionDuration = 1 days;\n\n  // Counts the number of cats the contract owner has created\n  uint256 public promoCreatedCount;\n  uint256 public gen0CreatedCount;\n\n  function createPromoGizzy(uint256 _genes, address _owner) public onlyCOO {\n    if (_owner == address(0)) {\n      _owner = cooAddress;\n    }\n    require(promoCreatedCount < promoCreationLimit);\n    require(gen0CreatedCount < gen0CreationLimit);\n  \n    promoCreatedCount ++;\n    gen0CreatedCount ++;\n    _createGizzy(0, 0, 0, _genes, _owner);\n  }\n\n  // createGen0Auction\n\n  // _computeNextGen0Price\n\n\n}\n",
  "sourcePath": "/home/imtiaz/Desktop/baeinnovations/gizzy-smartcontracts/contracts/GizzyMinting.sol",
  "compiler": {
    "name": "solc",
    "version": "0.8.0+commit.c7dfd78e.Emscripten.clang"
  },
  "schemaVersion": "3.4.0",
  "updatedAt": "2021-05-19T10:39:54.221Z",
  "networkType": "ethereum",
  "devdoc": {
    "kind": "dev",
    "methods": {
      "getApproved(uint256)": {
        "details": "See {IERC721-getApproved}."
      },
      "isApprovedForAll(address,address)": {
        "details": "See {IERC721-isApprovedForAll}."
      },
      "name()": {
        "details": "See {IERC721Metadata-name}."
      },
      "safeTransferFrom(address,address,uint256)": {
        "details": "See {IERC721-safeTransferFrom}."
      },
      "safeTransferFrom(address,address,uint256,bytes)": {
        "details": "See {IERC721-safeTransferFrom}."
      },
      "setApprovalForAll(address,bool)": {
        "details": "See {IERC721-setApprovalForAll}."
      },
      "supportsInterface(bytes4)": {
        "details": "See {IERC165-supportsInterface}."
      },
      "symbol()": {
        "details": "See {IERC721Metadata-symbol}."
      },
      "tokenURI(uint256)": {
        "details": "See {IERC721Metadata-tokenURI}."
      }
    },
    "version": 1
  },
  "userdoc": {
    "kind": "user",
    "methods": {},
    "version": 1
  }
}