{
  "contractName": "ProxyContract",
  "abi": [
    {
      "inputs": [
        {
          "internalType": "address",
          "name": "_logicAddress",
          "type": "address"
        }
      ],
      "stateMutability": "nonpayable",
      "type": "constructor"
    },
    {
      "anonymous": false,
      "inputs": [
        {
          "indexed": false,
          "internalType": "address",
          "name": "previousAdmin",
          "type": "address"
        },
        {
          "indexed": false,
          "internalType": "address",
          "name": "newAdmin",
          "type": "address"
        }
      ],
      "name": "AdminChanged",
      "type": "event"
    },
    {
      "anonymous": false,
      "inputs": [
        {
          "indexed": true,
          "internalType": "address",
          "name": "beacon",
          "type": "address"
        }
      ],
      "name": "BeaconUpgraded",
      "type": "event"
    },
    {
      "anonymous": false,
      "inputs": [
        {
          "indexed": true,
          "internalType": "address",
          "name": "implementation",
          "type": "address"
        }
      ],
      "name": "Upgraded",
      "type": "event"
    },
    {
      "stateMutability": "payable",
      "type": "fallback",
      "payable": true
    },
    {
      "inputs": [],
      "name": "admin",
      "outputs": [
        {
          "internalType": "address",
          "name": "admin_",
          "type": "address"
        }
      ],
      "stateMutability": "nonpayable",
      "type": "function"
    },
    {
      "inputs": [
        {
          "internalType": "address",
          "name": "newAdmin",
          "type": "address"
        }
      ],
      "name": "changeAdmin",
      "outputs": [],
      "stateMutability": "nonpayable",
      "type": "function"
    },
    {
      "inputs": [],
      "name": "implementation",
      "outputs": [
        {
          "internalType": "address",
          "name": "implementation_",
          "type": "address"
        }
      ],
      "stateMutability": "nonpayable",
      "type": "function"
    },
    {
      "inputs": [
        {
          "internalType": "address",
          "name": "newImplementation",
          "type": "address"
        }
      ],
      "name": "upgradeTo",
      "outputs": [],
      "stateMutability": "nonpayable",
      "type": "function"
    },
    {
      "inputs": [
        {
          "internalType": "address",
          "name": "newImplementation",
          "type": "address"
        },
        {
          "internalType": "bytes",
          "name": "data",
          "type": "bytes"
        }
      ],
      "name": "upgradeToAndCall",
      "outputs": [],
      "stateMutability": "payable",
      "type": "function",
      "payable": true
    },
    {
      "stateMutability": "payable",
      "type": "receive",
      "payable": true
    }
  ],
  "bytecode": "0x60806040523480156200001157600080fd5b50604051620018a1380380620018a1833981810160405281019062000037919062000661565b803360405180602001604052806000815250828160017f360894a13ba1a3210667c828492db98dca3e2076cc3735a920a3ca505d382bbd60001c6200007d91906200088d565b60001b7f360894a13ba1a3210667c828492db98dca3e2076cc3735a920a3ca505d382bbc60001b14620000d9577f4e487b7100000000000000000000000000000000000000000000000000000000600052600160045260246000fd5b620000ed828260006200019860201b60201c565b505060017fb53127684a568b3173ae13b9f8a6016e243e63b6e8ee1178d6a717850b5d610460001c6200012191906200088d565b60001b7fb53127684a568b3173ae13b9f8a6016e243e63b6e8ee1178d6a717850b5d610360001b146200017d577f4e487b7100000000000000000000000000000000000000000000000000000000600052600160045260246000fd5b6200018e826200021e60201b60201c565b5050505062000a83565b620001a9836200027c60201b60201c565b8273ffffffffffffffffffffffffffffffffffffffff167fbc7cd75a20ee27fd9adebab32041f755214dbc6bffa90cc0225b39da2e5c2d3b60405160405180910390a2600082511180620001fa5750805b1562000219576200021783836200035260201b6200034f1760201c565b505b505050565b7f7e644d79422f17c01e4894b5f4f588d331ebfa28653d42ae832dc59e38c9798f6200024f6200038860201b60201c565b8260405162000260929190620007a4565b60405180910390a16200027981620003ec60201b60201c565b50565b6200029281620004dd60201b6200037c1760201c565b620002d4576040517f08c379a0000000000000000000000000000000000000000000000000000000008152600401620002cb9062000817565b60405180910390fd5b806200030e7f360894a13ba1a3210667c828492db98dca3e2076cc3735a920a3ca505d382bbc60001b620004f060201b6200038f1760201c565b60000160006101000a81548173ffffffffffffffffffffffffffffffffffffffff021916908373ffffffffffffffffffffffffffffffffffffffff16021790555050565b60606200038083836040518060600160405280602781526020016200187a60279139620004fa60201b60201c565b905092915050565b6000620003c37fb53127684a568b3173ae13b9f8a6016e243e63b6e8ee1178d6a717850b5d610360001b620004f060201b6200038f1760201c565b60000160009054906101000a900473ffffffffffffffffffffffffffffffffffffffff16905090565b600073ffffffffffffffffffffffffffffffffffffffff168173ffffffffffffffffffffffffffffffffffffffff1614156200045f576040517f08c379a00000000000000000000000000000000000000000000000000000000081526004016200045690620007f5565b60405180910390fd5b80620004997fb53127684a568b3173ae13b9f8a6016e243e63b6e8ee1178d6a717850b5d610360001b620004f060201b6200038f1760201c565b60000160006101000a81548173ffffffffffffffffffffffffffffffffffffffff021916908373ffffffffffffffffffffffffffffffffffffffff16021790555050565b600080823b905060008111915050919050565b6000819050919050565b60606200050d84620004dd60201b60201c565b6200054f576040517f08c379a0000000000000000000000000000000000000000000000000000000008152600401620005469062000839565b60405180910390fd5b6000808573ffffffffffffffffffffffffffffffffffffffff16856040516200057991906200078b565b600060405180830381855af49150503d8060008114620005b6576040519150601f19603f3d011682016040523d82523d6000602084013e620005bb565b606091505b5091509150620005d3828286620005de60201b60201c565b925050509392505050565b60608315620005f05782905062000643565b600083511115620006045782518084602001fd5b816040517f08c379a00000000000000000000000000000000000000000000000000000000081526004016200063a9190620007d1565b60405180910390fd5b9392505050565b6000815190506200065b8162000a69565b92915050565b6000602082840312156200067457600080fd5b600062000684848285016200064a565b91505092915050565b6200069881620008c8565b82525050565b6000620006ab826200085b565b620006b7818562000871565b9350620006c981856020860162000906565b80840191505092915050565b6000620006e28262000866565b620006ee81856200087c565b93506200070081856020860162000906565b6200070b816200096b565b840191505092915050565b6000620007256026836200087c565b915062000732826200097c565b604082019050919050565b60006200074c602d836200087c565b91506200075982620009cb565b604082019050919050565b6000620007736026836200087c565b9150620007808262000a1a565b604082019050919050565b60006200079982846200069e565b915081905092915050565b6000604082019050620007bb60008301856200068d565b620007ca60208301846200068d565b9392505050565b60006020820190508181036000830152620007ed8184620006d5565b905092915050565b60006020820190508181036000830152620008108162000716565b9050919050565b6000602082019050818103600083015262000832816200073d565b9050919050565b60006020820190508181036000830152620008548162000764565b9050919050565b600081519050919050565b600081519050919050565b600081905092915050565b600082825260208201905092915050565b60006200089a82620008fc565b9150620008a783620008fc565b925082821015620008bd57620008bc6200093c565b5b828203905092915050565b6000620008d582620008dc565b9050919050565b600073ffffffffffffffffffffffffffffffffffffffff82169050919050565b6000819050919050565b60005b838110156200092657808201518184015260208101905062000909565b8381111562000936576000848401525b50505050565b7f4e487b7100000000000000000000000000000000000000000000000000000000600052601160045260246000fd5b6000601f19601f8301169050919050565b7f455243313936373a206e65772061646d696e20697320746865207a65726f206160008201527f6464726573730000000000000000000000000000000000000000000000000000602082015250565b7f455243313936373a206e657720696d706c656d656e746174696f6e206973206e60008201527f6f74206120636f6e747261637400000000000000000000000000000000000000602082015250565b7f416464726573733a2064656c65676174652063616c6c20746f206e6f6e2d636f60008201527f6e74726163740000000000000000000000000000000000000000000000000000602082015250565b62000a7481620008c8565b811462000a8057600080fd5b50565b610de78062000a936000396000f3fe60806040526004361061004e5760003560e01c80633659cfe6146100675780634f1ef286146100905780635c60da1b146100ac5780638f283970146100d7578063f851a440146101005761005d565b3661005d5761005b61012b565b005b61006561012b565b005b34801561007357600080fd5b5061008e600480360381019061008991906108e6565b610145565b005b6100aa60048036038101906100a5919061090f565b6101ac565b005b3480156100b857600080fd5b506100c161024a565b6040516100ce9190610a83565b60405180910390f35b3480156100e357600080fd5b506100fe60048036038101906100f991906108e6565b6102a2565b005b34801561010c57600080fd5b506101156102f7565b6040516101229190610a83565b60405180910390f35b610133610399565b61014361013e610419565b610428565b565b61014d61044e565b73ffffffffffffffffffffffffffffffffffffffff163373ffffffffffffffffffffffffffffffffffffffff1614156101a05761019b816040518060200160405280600081525060006104a5565b6101a9565b6101a861012b565b5b50565b6101b461044e565b73ffffffffffffffffffffffffffffffffffffffff163373ffffffffffffffffffffffffffffffffffffffff16141561023c576102378383838080601f016020809104026020016040519081016040528093929190818152602001838380828437600081840152601f19601f8201169050808301925050505050505060016104a5565b610245565b61024461012b565b5b505050565b600061025461044e565b73ffffffffffffffffffffffffffffffffffffffff163373ffffffffffffffffffffffffffffffffffffffff1614156102965761028f610419565b905061029f565b61029e61012b565b5b90565b6102aa61044e565b73ffffffffffffffffffffffffffffffffffffffff163373ffffffffffffffffffffffffffffffffffffffff1614156102eb576102e681610514565b6102f4565b6102f361012b565b5b50565b600061030161044e565b73ffffffffffffffffffffffffffffffffffffffff163373ffffffffffffffffffffffffffffffffffffffff1614156103435761033c61044e565b905061034c565b61034b61012b565b5b90565b60606103748383604051806060016040528060278152602001610d8b60279139610560565b905092915050565b600080823b905060008111915050919050565b6000819050919050565b6103a161044e565b73ffffffffffffffffffffffffffffffffffffffff163373ffffffffffffffffffffffffffffffffffffffff16141561040f576040517f08c379a000000000000000000000000000000000000000000000000000000000815260040161040690610b49565b60405180910390fd5b61041761062d565b565b600061042361062f565b905090565b3660008037600080366000845af43d6000803e8060008114610449573d6000f35b3d6000fd5b600061047c7fb53127684a568b3173ae13b9f8a6016e243e63b6e8ee1178d6a717850b5d610360001b61038f565b60000160009054906101000a900473ffffffffffffffffffffffffffffffffffffffff16905090565b6104ae83610686565b8273ffffffffffffffffffffffffffffffffffffffff167fbc7cd75a20ee27fd9adebab32041f755214dbc6bffa90cc0225b39da2e5c2d3b60405160405180910390a26000825111806104fe5750805b1561050f5761050d838361034f565b505b505050565b7f7e644d79422f17c01e4894b5f4f588d331ebfa28653d42ae832dc59e38c9798f61053d61044e565b8260405161054c929190610a9e565b60405180910390a161055d8161073f565b50565b606061056b8461037c565b6105aa576040517f08c379a00000000000000000000000000000000000000000000000000000000081526004016105a190610b29565b60405180910390fd5b6000808573ffffffffffffffffffffffffffffffffffffffff16856040516105d29190610a6c565b600060405180830381855af49150503d806000811461060d576040519150601f19603f3d011682016040523d82523d6000602084013e610612565b606091505b5091509150610622828286610820565b925050509392505050565b565b600061065d7f360894a13ba1a3210667c828492db98dca3e2076cc3735a920a3ca505d382bbc60001b61038f565b60000160009054906101000a900473ffffffffffffffffffffffffffffffffffffffff16905090565b61068f8161037c565b6106ce576040517f08c379a00000000000000000000000000000000000000000000000000000000081526004016106c590610b09565b60405180910390fd5b806106fb7f360894a13ba1a3210667c828492db98dca3e2076cc3735a920a3ca505d382bbc60001b61038f565b60000160006101000a81548173ffffffffffffffffffffffffffffffffffffffff021916908373ffffffffffffffffffffffffffffffffffffffff16021790555050565b600073ffffffffffffffffffffffffffffffffffffffff168173ffffffffffffffffffffffffffffffffffffffff1614156107af576040517f08c379a00000000000000000000000000000000000000000000000000000000081526004016107a690610ae9565b60405180910390fd5b806107dc7fb53127684a568b3173ae13b9f8a6016e243e63b6e8ee1178d6a717850b5d610360001b61038f565b60000160006101000a81548173ffffffffffffffffffffffffffffffffffffffff021916908373ffffffffffffffffffffffffffffffffffffffff16021790555050565b6060831561083057829050610880565b6000835111156108435782518084602001fd5b816040517f08c379a00000000000000000000000000000000000000000000000000000000081526004016108779190610ac7565b60405180910390fd5b9392505050565b60008135905061089681610d73565b92915050565b60008083601f8401126108ae57600080fd5b8235905067ffffffffffffffff8111156108c757600080fd5b6020830191508360018202830111156108df57600080fd5b9250929050565b6000602082840312156108f857600080fd5b600061090684828501610887565b91505092915050565b60008060006040848603121561092457600080fd5b600061093286828701610887565b935050602084013567ffffffffffffffff81111561094f57600080fd5b61095b8682870161089c565b92509250509250925092565b61097081610b9b565b82525050565b600061098182610b69565b61098b8185610b7f565b935061099b818560208601610bcd565b80840191505092915050565b60006109b282610b74565b6109bc8185610b8a565b93506109cc818560208601610bcd565b6109d581610c00565b840191505092915050565b60006109ed602683610b8a565b91506109f882610c11565b604082019050919050565b6000610a10602d83610b8a565b9150610a1b82610c60565b604082019050919050565b6000610a33602683610b8a565b9150610a3e82610caf565b604082019050919050565b6000610a56604283610b8a565b9150610a6182610cfe565b606082019050919050565b6000610a788284610976565b915081905092915050565b6000602082019050610a986000830184610967565b92915050565b6000604082019050610ab36000830185610967565b610ac06020830184610967565b9392505050565b60006020820190508181036000830152610ae181846109a7565b905092915050565b60006020820190508181036000830152610b02816109e0565b9050919050565b60006020820190508181036000830152610b2281610a03565b9050919050565b60006020820190508181036000830152610b4281610a26565b9050919050565b60006020820190508181036000830152610b6281610a49565b9050919050565b600081519050919050565b600081519050919050565b600081905092915050565b600082825260208201905092915050565b6000610ba682610bad565b9050919050565b600073ffffffffffffffffffffffffffffffffffffffff82169050919050565b60005b83811015610beb578082015181840152602081019050610bd0565b83811115610bfa576000848401525b50505050565b6000601f19601f8301169050919050565b7f455243313936373a206e65772061646d696e20697320746865207a65726f206160008201527f6464726573730000000000000000000000000000000000000000000000000000602082015250565b7f455243313936373a206e657720696d706c656d656e746174696f6e206973206e60008201527f6f74206120636f6e747261637400000000000000000000000000000000000000602082015250565b7f416464726573733a2064656c65676174652063616c6c20746f206e6f6e2d636f60008201527f6e74726163740000000000000000000000000000000000000000000000000000602082015250565b7f5472616e73706172656e745570677261646561626c6550726f78793a2061646d60008201527f696e2063616e6e6f742066616c6c6261636b20746f2070726f7879207461726760208201527f6574000000000000000000000000000000000000000000000000000000000000604082015250565b610d7c81610b9b565b8114610d8757600080fd5b5056fe416464726573733a206c6f772d6c6576656c2064656c65676174652063616c6c206661696c6564a264697066735822122024156eb1e5a74ca0e0aec154daf5712afc8f65e3a99c06c11f0556980ead444564736f6c63430008030033416464726573733a206c6f772d6c6576656c2064656c65676174652063616c6c206661696c6564",
  "immutableReferences": {},
  "source": "// SPDX-License-Identifier: MIT\npragma solidity >=0.4.22 <0.9.0;\n\nimport \"@openzeppelin/contracts/proxy/transparent/TransparentUpgradeableProxy.sol\";\n\ncontract ProxyContract is TransparentUpgradeableProxy{\n    constructor(address _logicAddress) TransparentUpgradeableProxy(_logicAddress, msg.sender, bytes(\"\")){}\n}",
  "sourcePath": "/home/imtiaz/Desktop/baeinnovations/gizzy-smartcontracts/contracts/ProxyContract.sol",
  "compiler": {
    "name": "solc",
    "version": "0.8.3+commit.8d00100c.Emscripten.clang"
  },
  "schemaVersion": "3.4.0",
  "updatedAt": "2021-06-15T10:06:42.611Z",
  "networkType": "ethereum",
  "devdoc": {
    "kind": "dev",
    "methods": {
      "admin()": {
        "details": "Returns the current admin. NOTE: Only the admin can call this function. See {ProxyAdmin-getProxyAdmin}. TIP: To get this value clients can read directly from the storage slot shown below (specified by EIP1967) using the https://eth.wiki/json-rpc/API#eth_getstorageat[`eth_getStorageAt`] RPC call. `0xb53127684a568b3173ae13b9f8a6016e243e63b6e8ee1178d6a717850b5d6103`"
      },
      "changeAdmin(address)": {
        "details": "Changes the admin of the proxy. Emits an {AdminChanged} event. NOTE: Only the admin can call this function. See {ProxyAdmin-changeProxyAdmin}."
      },
      "implementation()": {
        "details": "Returns the current implementation. NOTE: Only the admin can call this function. See {ProxyAdmin-getProxyImplementation}. TIP: To get this value clients can read directly from the storage slot shown below (specified by EIP1967) using the https://eth.wiki/json-rpc/API#eth_getstorageat[`eth_getStorageAt`] RPC call. `0x360894a13ba1a3210667c828492db98dca3e2076cc3735a920a3ca505d382bbc`"
      },
      "upgradeTo(address)": {
        "details": "Upgrade the implementation of the proxy. NOTE: Only the admin can call this function. See {ProxyAdmin-upgrade}."
      },
      "upgradeToAndCall(address,bytes)": {
        "details": "Upgrade the implementation of the proxy, and then call a function from the new implementation as specified by `data`, which should be an encoded function call. This is useful to initialize new storage variables in the proxied contract. NOTE: Only the admin can call this function. See {ProxyAdmin-upgradeAndCall}."
      }
    },
    "version": 1
  },
  "userdoc": {
    "kind": "user",
    "methods": {},
    "version": 1
  }
}